20230131DEPOB121M    000016375100000000001637510000000000163751000000NPP     20230201055517        
20230131DEPOB121Y    000019768000000000001976800000000000197680000000NPP     20230201055517        
20230131DEPOB122M    000017085300000000001708530000000000170853000000NPP     20230201055517        
20230131DEPOB122W    000015916600000000001591660000000000159166000000NPP     20230201055517        
20230131DEPOB122Y    000019999800000000001999980000000000199998000000NPP     20230201055517        
20230131DEPOB123M    000017698900000000001769890000000000176989000000NPP     20230201055517        
20230131DEPOB123Y    000020004500000000002000450000000000200045000000NPP     20230201055517        
20230131DEPOB124Y    000020015900000000002001590000000000200159000000NPP     20230201055517        
20230131DEPOB125Y    000020030900000000002003090000000000200309000000NPP     20230201055517        
20230131DEPOB126M    000018874500000000001887450000000000188745000000NPP     20230201055517        
20230131DEPOB129M    000019474800000000001947480000000000194748000000NPP     20230201055517        
20230131DEPOB12ON    000015504600000000001550460000000000155046000000NPP     20230201055517        
20230131DEPOB12SW    000015699400000000001569940000000000156994000000NPP     20230201055517        
20230131DEPOB12TN    000015570400000000001557040000000000155704000000NPP     20230201055517        
20230131DEPOCOF1M    000011823624740000001182362474000000118236247400NPP     2023020105551820230228
20230131DEPOCOF1Y    000012928515930000001292851593000000129285159300NPP     2023020105551820240131
20230131DEPOCOF2M    000012161058360000001216105836000000121610583600NPP     2023020105551820230330
20230131DEPOCOF2W    000011889281480000001188928148000000118892814800NPP     2023020105551820230214
20230131DEPOCOF3M    000012223242290000001222324229000000122232422900NPP     2023020105551820230427
20230131DEPOCOF6M    000012547697880000001254769788000000125476978800NPP     2023020105551820230731
20230131DEPOCOF9M    000012697079190000001269707919000000126970791900NPP     2023020105551820231031
20230131DEPOCOFON    000011657774220000001165777422000000116577742200NPP     2023020105551820230201
20230131DEPOCOFSW    000011689563940000001168956394000000116895639400NPP     2023020105551820230207
20230131DTFPCOP1Y    000013448302850000001344830285000000134483028500NPP     2023020105551820240202
20230131DTFPCOP3M    000013558906240000001355890624000000135589062400NPP     2023020105551820230502
20230131DTFPCOP6M    000013138873750000001313887375000000131388737500NPP     2023020105551820230802
20230131DTFPCOP9M    000012986889440000001298688944000000129868894400NPP     2023020105551820231102
20230131DTFPCOPON    000013940000000000001394000000000000139400000000NPP     2023020105551820230201
20230131DEPOEUC10M   000002969260700000000296926070000000029692607000NPP     2023020105551820231204
20230131DEPOEUC11M   000002898103820000000289810382000000028981038200NPP     2023020105551820240102
20230131DEPOEUC1D    000000066261940000000006626194000000000662619400NPP     2023020105551820230201
20230131DEPOEUC1M    000002258471910000000225847191000000022584719100NPP     2023020105551820230302
20230131DEPOEUC1Y    000002931889750000000293188975000000029318897500NPP     2023020105551820240202
20230131DEPOEUC2M    000002301268710000000230126871000000023012687100NPP     2023020105551820230403
20230131DEPOEUC2W    000002233708180000000223370818000000022337081800NPP     2023020105551820230216
20230131DEPOEUC3D    000003503081620000000350308162000000035030816200NPP     2023020105551820230203
20230131DEPOEUC3M    000002429102250000000242910225000000024291022500NPP     2023020105551820230502
20230131DEPOEUC3W    000002244082750000000224408275000000022440827500NPP     2023020105551820230223
20230131DEPOEUC4M    000002573008400000000257300840000000025730084000NPP     2023020105551820230602
20230131DEPOEUC5M    000002659450620000000265945062000000026594506200NPP     2023020105551820230703
20230131DEPOEUC6M    000002746770710000000274677071000000027467707100NPP     2023020105551820230802
20230131DEPOEUC7M    000002865992040000000286599204000000028659920400NPP     2023020105551820230905
20230131DEPOEUC8M    000002869577650000000286957765000000028695776500NPP     2023020105551820231002
20230131DEPOEUC9M    000002919701480000000291970148000000029197014800NPP     2023020105551820231102
20230131DEPOEUCSW    000002270034950000000227003495000000022700349500NPP     2023020105551820230209
20230131IMGBGBP10M   000004192221270000000419222127000000041922212700NPP     2023020105551920231204
20230131IMGBGBP11M   000004148493090000000414849309000000041484930900NPP     2023020105551920240102
20230131IMGBGBP1M    000003733249640000000373324964000000037332496400NPP     2023020105551920230302
20230131IMGBGBP1Y    000004145939820000000414593982000000041459398200NPP     2023020105551920240202
20230131IMGBGBP2M    000003801786730000000380178673000000038017867300NPP     2023020105551920230403
20230131IMGBGBP2W    000003699407230000000369940723000000036994072300NPP     2023020105551920230216
20230131IMGBGBP3M    000003893309830000000389330983000000038933098300NPP     2023020105551920230502
20230131IMGBGBP3W    000003711842510000000371184251000000037118425100NPP     2023020105551920230223
20230131IMGBGBP4M    000003986827760000000398682776000000039868277600NPP     2023020105551920230602
20230131IMGBGBP5M    000004041432130000000404143213000000040414321300NPP     2023020105551920230703
20230131IMGBGBP6M    000004084584420000000408458442000000040845844200NPP     2023020105551920230802
20230131IMGBGBP7M    000004146676740000000414667674000000041466767400NPP     2023020105551920230905
20230131IMGBGBP8M    000004156512830000000415651283000000041565128300NPP     2023020105551920231002
20230131IMGBGBP9M    000004173416830000000417341683000000041734168300NPP     2023020105551920231102
20230131IMGBGBPON    000002448654570000000244865457000000024486545700NPP     2023020105551920230201
20230131IMGBGBPSW    000003738094440000000373809444000000037380944400NPP     2023020105551920230209
20230131IBR COP1M    000011882944710000001188294471000000118829447100NPP     2023020105551920230302
20230131IBR COP1Y    000012489499130000001248949913000000124894991300NPP     2023020105551920240202
20230131IBR COP3M    000012150437210000001215043721000000121504372100NPP     2023020105551920230502
20230131IBR COP6M    000012461040040000001246104004000000124610400400NPP     2023020105551920230802
20230131IBR COP9M    000012542898530000001254289853000000125428985300NPP     2023020105551920231102
20230131IBR COPON    000011815000000000001181500000000000118150000000NPP     2023020105551920230201
20230131IPECEUR10M   000002709537810000000270953781000000027095378100NPP     2023020105551920231204
20230131IPECEUR11M   000002559452480000000255945248000000025594524800NPP     2023020105551920240102
20230131IPECEUR1M    000002279771260000000227977126000000022797712600NPP     2023020105551920230302
20230131IPECEUR1W    000002333308880000000233330888000000023333088800NPP     2023020105551920230209
20230131IPECEUR1Y    000002291970130000000229197013000000022919701300NPP     2023020105551920240202
20230131IPECEUR2M    000002158475230000000215847523000000021584752300NPP     2023020105551920230403
20230131IPECEUR2W    000002221810600000000222181060000000022218106000NPP     2023020105551920230216
20230131IPECEUR3M    000002335461410000000233546141000000023354614100NPP     2023020105551920230502
20230131IPECEUR3W    -000005131578100-000005131578100-000005131578100NPP     2023020105551920210518
20230131IPECEUR4M    000002454885320000000245488532000000024548853200NPP     2023020105551920230602
20230131IPECEUR5M    000002543246450000000254324645000000025432464500NPP     2023020105551920230703
20230131IPECEUR6M    000002660333700000000266033370000000026603337000NPP     2023020105551920230802
20230131IPECEUR7M    000002742033710000000274203371000000027420337100NPP     2023020105551920230904
20230131IPECEUR8M    000002729826310000000272982631000000027298263100NPP     2023020105551920231002
20230131IPECEUR9M    000002769664290000000276966429000000027696642900NPP     2023020105551920231102
20230131IPECEURON    000000223437110000000022343711000000002234371100NPP     2023020105551920230201
20230131L12MUSD1Y    000005333174786200000533317478620000053331747862NPP     2023020105551920240202
20230131L12MUSDON    000004298430000000000429843000000000042984300000NPP     2023020105551920230201
20230131L1M USD18M   000004698066553100000469806655310000046980665531NPP     2023020105551920240802
20230131L1M USD1M    000004556918858200000455691885820000045569188582NPP     2023020105551920230302
20230131L1M USD1Y    000004904503327100000490450332710000049045033271NPP     2023020105551920240202
20230131L1M USD3M    000004599334942200000459933494220000045993349422NPP     2023020105551920230502
20230131L1M USD6M    000004851614540000000485161454000000048516145400NPP     2023020105551920230802
20230131L1M USD9M    000004897588243300000489758824330000048975882433NPP     2023020105552020231102
20230131L1M USDON    000004298430000000000429843000000000042984300000NPP     2023020105552020230201
20230131L3M USD18M   000004834015357400000483401535740000048340153574NPP     2023020105552020240802
20230131L3M USD3M    000004688942072700000468894207270000046889420727NPP     2023020105552020230502
20230131L3M USD6M    000004920092443100000492009244310000049200924431NPP     2023020105552020230802
20230131L3M USD9M    000005009791677400000500979167740000050097916774NPP     2023020105552020231102
20230131L3M USDON    000004298430000000000429843000000000042984300000NPP     2023020105552020230201
20230131L6M USD18M   000005008013700000000500801370000000050080137000NPP     2023020105552020240802
20230131L6M USD1Y    000005191443900000000519144390000000051914439000NPP     2023020105552020240202
20230131L6M USD6M    000005092869650000000509286965000000050928696500NPP     2023020105552020230802
20230131L6M USDON    000004298430000000000429843000000000042984300000NPP     2023020105552020230201
20230131DEPOV1 1M    -000014533926800-000014533926800-000014533926800NPP     2023020105552020160224
20230131DEPOV1 1Y    000000178548050000000017854805000000001785480500NPP     2023020105552020170124
20230131DEPOV1 2M    -000012097852400-000012097852400-000012097852400NPP     2023020105552020160322
20230131DEPOV1 2W    -000015269419800-000015269419800-000015269419800NPP     2023020105552020160205
20230131DEPOV1 3M    -000010336581300-000010336581300-000010336581300NPP     2023020105552020160422
20230131DEPOV1 6M    -000005571508000-000005571508000-000005571508000NPP     2023020105552020160722
20230131DEPOV1 9M    -000002128617300-000002128617300-000002128617300NPP     2023020105552020161024
20230131DEPOV1 ON    -000017700000000-000017700000000-000017700000000NPP     2023020105552020160123
20230131DEPOV1 SW    -000017270021000-000017270021000-000017270021000NPP     2023020105552020160129
20230131IBL USD1M    000004523236090000000452323609000000045232360900NPP     2023020105552020230228
20230131IBL USD1W    000004476830550000000447683055000000044768305500NPP     2023020105552020230207
20230131IBL USD1Y    000004434309090000000443430909000000044343090900NPP     2023020105552020240131
20230131IBL USD2M    000004441542490000000444154249000000044415424900NPP     2023020105552020230330
20230131IBL USD2W    000004337631680000000433763168000000043376316800NPP     2023020105552020230214
20230131IBL USD3M    000004562175500000000456217550000000045621755000NPP     2023020105552020230427
20230131IBL USD6M    000004720852690000000472085269000000047208526900NPP     2023020105552020230731
20230131IBL USD9M    000004714646940000000471464694000000047146469400NPP     2023020105552020231031
20230131IBL USDON    000004457193660000000445719366000000044571936600NPP     2023020105552020230201
20230131IUV UVR18M   000001882851710000000188285171000000018828517100NPP     2023020105552020240802
20230131IUV UVR1M    -000062196471900-000062196471900-000062196471900NPP     2023020105552020230302
20230131IUV UVR1Y    000002386606300000000238660630000000023866063000NPP     2023020105552020240202
20230131IUV UVR3M    -000059272080500-000059272080500-000059272080500NPP     2023020105552020230502
20230131IUV UVR6M    -000010978538000-000010978538000-000010978538000NPP     2023020105552020230802
20230131IUV UVR9M    000000545925590000000054592559000000005459255900NPP     2023020105552020231102
20230131IUV UVRON    -000027284378800-000027284378800-000027284378800NPP     2023020105552020230201
20230131DEPOUSD10M   000004865265610000000486526561000000048652656100NPP     2023020105552020231204
20230131DEPOUSD11M   000004858586190000000485858619000000048585861900NPP     2023020105552020240102
20230131DEPOUSD1M    000004481423630000000448142363000000044814236300NPP     2023020105552020230302
20230131DEPOUSD1Y    000004839167280000000483916728000000048391672800NPP     2023020105552020240202
20230131DEPOUSD2M    000004603619430000000460361943000000046036194300NPP     2023020105552020230403
20230131DEPOUSD2W    000004393839810000000439383981000000043938398100NPP     2023020105552020230216
20230131DEPOUSD3M    000004665996860000000466599686000000046659968600NPP     2023020105552020230502
20230131DEPOUSD3W    000004437631720000000443763172000000044376317200NPP     2023020105552020230223
20230131DEPOUSD4M    000004732676180000000473267618000000047326761800NPP     2023020105552020230602
20230131DEPOUSD5M    000004784734350000000478473435000000047847343500NPP     2023020105552020230703
20230131DEPOUSD6M    000004812709860000000481270986000000048127098600NPP     2023020105552020230802
20230131DEPOUSD7M    000004844415440000000484441544000000048444154400NPP     2023020105552020230905
20230131DEPOUSD8M    000004859501180000000485950118000000048595011800NPP     2023020105552120231002
20230131DEPOUSD9M    000004862337650000000486233765000000048623376500NPP     2023020105552120231102
20230131DEPOUSDON    000004300000000000000430000000000000043000000000NPP     2023020105552120230201
20230131DEPOUSDSW    000004350047900000000435004790000000043500479000NPP     2023020105552120230209
20230131UIBRUSD1M    000004523236090000000452323609000000045232360900NPP     2023020105552120230228
20230131UIBRUSD1W    000004476830550000000447683055000000044768305500NPP     2023020105552120230207
20230131UIBRUSD1Y    000004434309090000000443430909000000044343090900NPP     2023020105552120240131
20230131UIBRUSD2M    000004441542490000000444154249000000044415424900NPP     2023020105552120230330
20230131UIBRUSD2W    000004337631680000000433763168000000043376316800NPP     2023020105552120230214
20230131UIBRUSD3M    000004562175500000000456217550000000045621755000NPP     2023020105552120230427
20230131UIBRUSD6M    000004720852690000000472085269000000047208526900NPP     2023020105552120230731
20230131UIBRUSD9M    000004714646940000000471464694000000047146469400NPP     2023020105552120231031
20230131UIBRUSDON    000004457193660000000445719366000000044571936600NPP     2023020105552120230201
20230131SRTMUSD1Y    000004869770000000000486977000000000048697700000NPP     20230131211248        
20230131DEPOCOF10Y   000011665342030000001166534203000000116653420300NPP     2023020105552120330202
20230131DEPOCOF12Y   000012532878780000001253287878000000125328787800NPP     2023020105552120350202
20230131DEPOCOF15Y   000014908171850000001490817185000000149081718500NPP     2023020105552120380202
20230131DEPOCOF18M   000012995095110000001299509511000000129950951100NPP     2023020105552120240731
20230131DEPOCOF20Y   000019881229580000001988122958000000198812295800NPP     2023020105552120430202
20230131DEPOCOF25Y   000025184007870000002518400787000000251840078700NPP     2023020105552120480203
20230131DEPOCOF2Y    000010375478060000001037547806000000103754780600NPP     2023020105552120250203
20230131DEPOCOF3Y    000009810856420000000981085642000000098108564200NPP     2023020105552120260202
20230131DEPOCOF4Y    000009708769990000000970876999000000097087699900NPP     2023020105552120270202
20230131DEPOCOF5Y    000009758239850000000975823985000000097582398500NPP     2023020105552120280202
20230131DEPOCOF6Y    000010013532250000001001353225000000100135322500NPP     2023020105552120290202
20230131DEPOCOF7Y    000010234781220000001023478122000000102347812200NPP     2023020105552120300204
20230131DEPOCOF8Y    000010706008900000001070600890000000107060089000NPP     2023020105552120310203
20230131DEPOCOF9Y    000010985344250000001098534425000000109853442500NPP     2023020105552120320202
20230131DTFPCOP10Y   000015136129620000001513612962000000151361296200NPP     2023020105552220330202
20230131DTFPCOP2Y    000011840139280000001184013928000000118401392800NPP     2023020105552220250203
20230131DTFPCOP3Y    000011653417200000001165341720000000116534172000NPP     2023020105552220260202
20230131DTFPCOP4Y    000011720308700000001172030870000000117203087000NPP     2023020105552220270202
20230131DTFPCOP5Y    000011955729790000001195572979000000119557297900NPP     2023020105552220280202
20230131DTFPCOP6Y    000012373255010000001237325501000000123732550100NPP     2023020105552220290202
20230131DTFPCOP7Y    000012922229140000001292222914000000129222291400NPP     2023020105552220300204
20230131DTFPCOP8Y    000013558655850000001355865585000000135586558500NPP     2023020105552220310203
20230131DTFPCOP9Y    000014252526780000001425252678000000142525267800NPP     2023020105552220320202
20230131ESTRUSD10M   000003124674500000000312467450000000031246745000NPP     2023020105552220231204
20230131ESTRUSD10Y   000002941263770000000294126377000000029412637700NPP     2023020105552220330202
20230131ESTRUSD11M   000003150513430000000315051343000000031505134300NPP     2023020105552220240102
20230131ESTRUSD12Y   000003065877260000000306587726000000030658772600NPP     2023020105552220350202
20230131ESTRUSD15Y   000003207689220000000320768922000000032076892200NPP     2023020105552220380202
20230131ESTRUSD18M   000003149307440000000314930744000000031493074400NPP     2023020105552220240802
20230131ESTRUSD1M    000002274299310000000227429931000000022742993100NPP     2023020105552220230302
20230131ESTRUSD1W    000001960567710000000196056771000000019605677100NPP     2023020105552220230209
20230131ESTRUSD1Y    000003172425980000000317242598000000031724259800NPP     2023020105552220240202
20230131ESTRUSD20Y   000003240140080000000324014008000000032401400800NPP     2023020105552220430202
20230131ESTRUSD25Y   000003159550620000000315955062000000031595506200NPP     2023020105552220480203
20230131ESTRUSD2M    000002431995860000000243199586000000024319958600NPP     2023020105552220230403
20230131ESTRUSD2W    000002157087510000000215708751000000021570875100NPP     2023020105552220230216
20230131ESTRUSD2Y    000003101731940000000310173194000000031017319400NPP     2023020105552220250203
20230131ESTRUSD3M    000002569576480000000256957648000000025695764800NPP     2023020105552220230502
20230131ESTRUSD3Y    000002940499410000000294049941000000029404994100NPP     2023020105552220260202
20230131ESTRUSD4M    000002702350290000000270235029000000027023502900NPP     2023020105552220230602
20230131ESTRUSD4Y    000002848847060000000284884706000000028488470600NPP     2023020105552220270202
20230131ESTRUSD5M    000002813349230000000281334923000000028133492300NPP     2023020105552220230703
20230131ESTRUSD5Y    000002810524410000000281052441000000028105244100NPP     2023020105552220280202
20230131ESTRUSD6M    000002902850440000000290285044000000029028504400NPP     2023020105552220230802
20230131ESTRUSD7M    000002986368590000000298636859000000029863685900NPP     2023020105552220230904
20230131ESTRUSD7Y    000002805394750000000280539475000000028053947500NPP     2023020105552220300204
20230131ESTRUSD8M    000003040985680000000304098568000000030409856800NPP     2023020105552220231002
20230131ESTRUSD9M    000003088502910000000308850291000000030885029100NPP     2023020105552220231102
20230131ESTRUSDON    000001904000000000000190400000000000019040000000NPP     2023020105552220230201
20230131FFE USD10M   000004882308070000000488230807000000048823080700NPP     2023020105552220231204
20230131FFE USD10Y   000003696686280000000369668628000000036966862800NPP     2023020105552220330202
20230131FFE USD11M   000004866855250000000486685525000000048668552500NPP     2023020105552220240102
20230131FFE USD12Y   000003793023590000000379302359000000037930235900NPP     2023020105552220350202
20230131FFE USD15Y   000004044584250000000404458425000000040445842500NPP     2023020105552220380202
20230131FFE USD1M    000004582753520000000458275352000000045827535200NPP     2023020105552220230302
20230131FFE USD1W    000004539109210000000453910921000000045391092100NPP     2023020105552220230209
20230131FFE USD1Y    000004846206790000000484620679000000048462067900NPP     2023020105552220240202
20230131FFE USD20Y   000004270106710000000427010671000000042701067100NPP     2023020105552320430202
20230131FFE USD25Y   000004332332660000000433233266000000043323326600NPP     2023020105552320480203
20230131FFE USD2M    000004633478560000000463347856000000046334785600NPP     2023020105552320230403
20230131FFE USD2W    000004564020140000000456402014000000045640201400NPP     2023020105552320230216
20230131FFE USD2Y    000004309467470000000430946747000000043094674700NPP     2023020105552320250203
20230131FFE USD3M    000004699493920000000469949392000000046994939200NPP     2023020105552320230502
20230131FFE USD3W    000004580410950000000458041095000000045804109500NPP     2023020105552320230223
20230131FFE USD3Y    000003910663140000000391066314000000039106631400NPP     2023020105552320260202
20230131FFE USD4M    000004764028610000000476402861000000047640286100NPP     2023020105552320230602
20230131FFE USD4Y    000003714371730000000371437173000000037143717300NPP     2023020105552320270202
20230131FFE USD5M    000004811863590000000481186359000000048118635900NPP     2023020105552320230703
20230131FFE USD5Y    000003630727960000000363072796000000036307279600NPP     2023020105552320280202
20230131FFE USD6M    000004844226330000000484422633000000048442263300NPP     2023020105552320230802
20230131FFE USD7M    000004866531620000000486653162000000048665316200NPP     2023020105552320230905
20230131FFE USD7Y    000003592199090000000359219909000000035921990900NPP     2023020105552320300204
20230131FFE USD8M    000004879199190000000487919919000000048791991900NPP     2023020105552320231002
20230131FFE USD9M    000004886690490000000488669049000000048866904900NPP     2023020105552320231102
20230131FFE USDON    000004330000000000000433000000000000043300000000NPP     2023020105552320230201
20230131IMGBGBP15M   000004134979620000000413497962000000041349796200NPP     2023020105552320240502
20230131IMGBGBP18M   000004066014370000000406601437000000040660143700NPP     2023020105552320240802
20230131IMGBGBP21M   000004001449570000000400144957000000040014495700NPP     2023020105552320241104
20230131IMGBGBP2Y    000003926613540000000392661354000000039266135400NPP     2023020105552320250203
20230131IMGBGBP3Y    000003717591490000000371759149000000037175914900NPP     2023020105552320260202
20230131IMGBGBP4Y    000003639486440000000363948644000000036394864400NPP     2023020105552320270202
20230131IMGBGBP5Y    000003578785020000000357878502000000035787850200NPP     2023020105552320280202
20230131IBL USD10Y   000002607943450000000260794345000000026079434500NPP     2023020105552320330202
20230131IBL USD2Y    000003442093260000000344209326000000034420932600NPP     2023020105552320250203
20230131IBL USD3Y    000002804482480000000280448248000000028044824800NPP     2023020105552320260202
20230131IBL USD4Y    000002592497510000000259249751000000025924975100NPP     2023020105552320270202
20230131IBL USD5Y    000002497147410000000249714741000000024971474100NPP     2023020105552320280202
20230131IBL USD6Y    000002495626350000000249562635000000024956263500NPP     2023020105552320290202
20230131IBL USD7Y    000002444080440000000244408044000000024440804400NPP     2023020105552320300204
20230131IBL USD8Y    000002525494780000000252549478000000025254947800NPP     2023020105552320310203
20230131IBL USD9Y    000002530299830000000253029983000000025302998300NPP     2023020105552320320202
20230131IBR COP10Y   000015294890650000001529489065000000152948906500NPP     2023020105552320330202
20230131IBR COP12Y   000016692514050000001669251405000000166925140500NPP     2023020105552320350202
20230131IBR COP15Y   000019461911270000001946191127000000194619112700NPP     2023020105552320380202
20230131IBR COP18M   000012106875120000001210687512000000121068751200NPP     2023020105552320240802
20230131IBR COP20Y   000023954524440000002395452444000000239545244400NPP     2023020105552320430202
20230131IBR COP2Y    000011720076260000001172007626000000117200762600NPP     2023020105552320250203
20230131IBR COP3Y    000011599332120000001159933212000000115993321200NPP     2023020105552320260202
20230131IBR COP4Y    000011705647700000001170564770000000117056477000NPP     2023020105552320270202
20230131IBR COP5Y    000011965100810000001196510081000000119651008100NPP     2023020105552320280202
20230131IBR COP6Y    000012415045420000001241504542000000124150454200NPP     2023020105552320290202
20230131IBR COP7Y    000012993121090000001299312109000000129931210900NPP     2023020105552320300204
20230131IBR COP8Y    000013637417960000001363741796000000136374179600NPP     2023020105552320310203
20230131IBR COP9Y    000014357837040000001435783704000000143578370400NPP     2023020105552320320202
20230131IPECEUR10Y   000001673017080000000167301708000000016730170800NPP     2023020105552420330202
20230131IPECEUR12Y   000001798424590000000179842459000000017984245900NPP     2023020105552420350202
20230131IPECEUR2Y    000002149221670000000214922167000000021492216700NPP     2023020105552420250203
20230131IPECEUR3Y    000001734934860000000173493486000000017349348600NPP     2023020105552420260202
20230131IPECEUR4Y    000001602936620000000160293662000000016029366200NPP     2023020105552420270202
20230131IPECEUR5Y    000001539400410000000153940041000000015394004100NPP     2023020105552420280202
20230131IPECEUR6Y    000001564596830000000156459683000000015645968300NPP     2023020105552420290202
20230131IPECEUR7Y    000001517868650000000151786865000000015178686500NPP     2023020105552420300204
20230131IPECEUR8Y    000001602638200000000160263820000000016026382000NPP     2023020105552420310203
20230131IPECEUR9Y    000001612857740000000161285774000000016128577400NPP     2023020105552420320202
20230131CPI COP100M  000199128014546600019912801454660001991280145466NPP     2023020105552420310602
20230131CPI COP101M  000199625834582900019962583458290001996258345829NPP     2023020105552420310702
20230131CPI COP102M  000200144861752800020014486175280002001448617528NPP     2023020105552420310804
20230131CPI COP103M  000200645223907200020064522390720002006452239072NPP     2023020105552420310902
20230131CPI COP104M  000201126772444600020112677244460002011267724446NPP     2023020105552420311002
20230131CPI COP105M  000201629589375700020162958937570002016295893757NPP     2023020105552420311104
20230131CPI COP106M  000202093337431300020209333743130002020933374313NPP     2023020105552420311202
20230131CPI COP107M  000202578361441100020257836144110002025783614411NPP     2023020105552420320102
20230131CPI COP108M  000203449448395300020344944839530002034494483953NPP     2023020105552420320202
20230131CPI COP109M  000204792214754700020479221475470002047922147547NPP     2023020105552420320302
20230131CPI COP10M   000137408425983700013740842598370001374084259837NPP     2023020105552420231204
20230131CPI COP110M  000206225760258000020622576025800002062257602580NPP     2023020105552420320402
20230131CPI COP111M  000207628095427800020762809542780002076280954278NPP     2023020105552420320503
20230131CPI COP112M  000209102254905300020910225490530002091022549053NPP     2023020105552420320602
20230131CPI COP113M  000210545060464100021054506046410002105450604641NPP     2023020105552420320702
20230131CPI COP114M  000212039930393400021203993039340002120399303934NPP     2023020105552420320802
20230131CPI COP115M  000213545413899200021354541389920002135454138992NPP     2023020105552420320902
20230131CPI COP116M  000215018877255100021501887725510002150188772551NPP     2023020105552420321004
20230131CPI COP117M  000216545511283600021654551128360002165455112836NPP     2023020105552420321102
20230131CPI COP118M  000218039675311500021803967531150002180396753115NPP     2023020105552420321202
20230131CPI COP119M  000219609560973700021960956097370002196095609737NPP     2023020105552420330103
20230131CPI COP11M   000137738206206100013773820620610001377382062061NPP     2023020105552420240102
20230131CPI COP120M  000220993101207900022099310120790002209931012079NPP     2023020105552420330202
20230131CPI COP121M  000221987570163300022198757016330002219875701633NPP     2023020105552420330302
20230131CPI COP122M  000223097508014100022309750801410002230975080141NPP     2023020105552420330404
20230131CPI COP123M  000224190685803400022419068580340002241906858034NPP     2023020105552420330502
20230131CPI COP124M  000225311639232400022531163923240002253116392324NPP     2023020105552420330602
20230131CPI COP125M  000227525100776200022752510077620002275251007762NPP     2023020105552420330705
20230131CPI COP126M  000227525100776200022752510077620002275251007762NPP     2023020105552420330802
20230131CPI COP127M  000228662726280100022866272628010002286627262801NPP     2023020105552420330902
20230131CPI COP128M  000229760307366300022976030736630002297603073663NPP     2023020105552420331003
20230131CPI COP129M  000230909108903100023090910890310002309091089031NPP     2023020105552420331102
20230131CPI COP12M   000138316706672100013831670667210001383167066721NPP     2023020105552420240202
20230131CPI COP130M  000232017472625800023201747262580002320174726258NPP     2023020105552420331202
20230131CPI COP131M  000233154358241700023315435824170002331543582417NPP     2023020105552420340102
20230131CPI COP132M  000234296814597100023429681459710002342968145971NPP     2023020105552420340202
20230131CPI COP133M  000235351150262800023535115026280002353511502628NPP     2023020105552420340302
20230131CPI COP134M  000236504370899100023650437089910002365043708991NPP     2023020105552420340403
20230131CPI COP135M  000237639591879400023763959187940002376395918794NPP     2023020105552420340502
20230131CPI COP136M  000238804025879600023880402587960002388040258796NPP     2023020105552420340602
20230131CPI COP137M  000239926404801200023992640480120002399264048012NPP     2023020105552420340704
20230131CPI COP138M  000241102044184700024110204418470002411020441847NPP     2023020105552420340802
20230131CPI COP139M  000242283444201200024228344420120002422834442012NPP     2023020105552420340904
20230131CPI COP13M   000139326418630800013932641863080001393264186308NPP     2023020105552420240304
20230131CPI COP140M  000243422176389000024342217638900002434221763890NPP     2023020105552420341002
20230131CPI COP141M  000244614945053300024461494505330002446149450533NPP     2023020105552420341102
20230131CPI COP142M  000245764635295000024576463529500002457646352950NPP     2023020105552420341204
20230131CPI COP143M  000246944305544500024694430554450002469443055445NPP     2023020105552420350102
20230131CPI COP144M  000248129638211100024812963821110002481296382111NPP     2023020105552420350202
20230131CPI COP145M  000249221408619200024922140861920002492214086192NPP     2023020105552420350302
20230131CPI COP146M  000250417671380600025041767138060002504176713806NPP     2023020105552420350402
20230131CPI COP147M  000251594634436100025159463443610002515946344361NPP     2023020105552420350502
20230131CPI COP148M  000253965179209300025396517920930002539651792093NPP     2023020105552420350605
20230131CPI COP149M  000253965179209300025396517920930002539651792093NPP     2023020105552420350703
20230131CPI COP14M   000140413164696200014041316469620001404131646962NPP     2023020105552420240402
20230131CPI COP150M  000255184212069500025518421206950002551842120695NPP     2023020105552420350802
20230131CPI COP151M  000256409096287400025640909628740002564090962874NPP     2023020105552420350903
20230131CPI COP152M  000257588578130400025758857813040002575885781304NPP     2023020105552420351002
20230131CPI COP153M  000258799244447600025879924444760002587992444476NPP     2023020105552420351102
20230131CPI COP154M  000259989720972000025998972097200002599897209720NPP     2023020105552420351203
20230131CPI COP155M  000261211672660600026121167266060002612116726606NPP     2023020105552520360102
20230131CPI COP156M  000262439367522100026243936752210002624393675221NPP     2023020105552520360204
20230131CPI COP157M  000263594100739200026359410073920002635941007392NPP     2023020105552520360303
20230131CPI COP158M  000264806633602600026480663360260002648066336026NPP     2023020105552520360402
20230131CPI COP159M  000265998263453800026599826345380002659982634538NPP     2023020105552520360502
20230131CPI COP15M   000141466263431400014146626343140001414662634314NPP     2023020105552520240502
20230131CPI COP160M  000267221855465700026722185546570002672218554657NPP     2023020105552520360602
20230131CPI COP161M  000268397631629700026839763162970002683976316297NPP     2023020105552520360702
20230131CPI COP162M  000269632260735200026963226073520002696322607352NPP     2023020105552520360804
20230131CPI COP163M  000270872569134600027087256913460002708725691346NPP     2023020105552520360902
20230131CPI COP164M  000272064408438800027206440843880002720644084388NPP     2023020105552520361002
20230131CPI COP165M  000273288698276800027328869827680002732886982768NPP     2023020105552520361104
20230131CPI COP166M  000274491168549200027449116854920002744911685492NPP     2023020105552520361202
20230131CPI COP167M  000275726378807700027572637880770002757263788077NPP     2023020105552520370102
20230131CPI COP168M  000276967147512300027696714751230002769671475123NPP     2023020105552520370202
20230131CPI COP169M  000278075016102400027807501610240002780750161024NPP     2023020105552520370302
20230131CPI COP16M   000142555553659800014255555365980001425555536598NPP     2023020105552520240604
20230131CPI COP170M  000280499529921800028049952992180002804995299218NPP     2023020105552520370406
20230131CPI COP171M  000280499529921800028049952992180002804995299218NPP     2023020105552520370504
20230131CPI COP172M  000281733727853400028173372785340002817337278534NPP     2023020105552520370602
20230131CPI COP173M  000282917009510400028291700951040002829170095104NPP     2023020105552520370702
20230131CPI COP174M  000284161844352200028416184435220002841618443522NPP     2023020105552520370803
20230131CPI COP175M  000285412156467400028541215646740002854121564674NPP     2023020105552520370902
20230131CPI COP176M  000286610887524600028661088752460002866108875246NPP     2023020105552520371002
20230131CPI COP177M  000287843314340900028784331434090002878433143409NPP     2023020105552520371103
20230131CPI COP17M   000143624720312300014362472031230001436247203123NPP     2023020105552520240702
20230131CPI COP18M   000144543918522300014454391852230001445439185223NPP     2023020105552520240802
20230131CPI COP19M   000145165457371900014516545737190001451654573719NPP     2023020105552520240902
20230131CPI COP1M    000127996068000000012799606800000001279960680000NPP     2023020105552520230302
20230131CPI COP20M   000145731602655700014573160265570001457316026557NPP     2023020105552520241002
20230131CPI COP21M   000146738876176200014673887617620001467388761762NPP     2023020105552520241105
20230131CPI COP22M   000146738876176200014673887617620001467388761762NPP     2023020105552520241202
20230131CPI COP23M   000147179092804700014717909280470001471790928047NPP     2023020105552520250102
20230131CPI COP24M   000147723655448100014772365544810001477236554481NPP     2023020105552520250203
20230131CPI COP25M   000148388411897600014838841189760001483884118976NPP     2023020105552520250303
20230131CPI COP26M   000149100676274700014910067627470001491006762747NPP     2023020105552520250402
20230131CPI COP27M   000149786539385500014978653938550001497865393855NPP     2023020105552520250502
20230131CPI COP28M   000150475557466700015047555746670001504755574667NPP     2023020105552520250603
20230131CPI COP29M   000151122602363800015112260236380001511226023638NPP     2023020105552520250702
20230131CPI COP2M    000129980007054000012998000705400001299800070540NPP     2023020105552520230403
20230131CPI COP30M   000151772429554000015177242955400001517724295540NPP     2023020105552520250804
20230131CPI COP31M   000152409873758100015240987375810001524098737581NPP     2023020105552520250902
20230131CPI COP32M   000153019513253200015301951325320001530195132532NPP     2023020105552520251002
20230131CPI COP33M   000153631591306200015363159130620001536315913062NPP     2023020105552520251104
20230131CPI COP34M   000154200028194000015420002819400001542000281940NPP     2023020105552520251202
20230131CPI COP35M   000154770568298300015477056829830001547705682983NPP     2023020105552520260102
20230131CPI COP36M   000155374173514700015537417351470001553741735147NPP     2023020105552520260202
20230131CPI COP37M   000155949057956700015594905795670001559490579567NPP     2023020105552520260302
20230131CPI COP38M   000157167831034400015716783103440001571678310344NPP     2023020105552520260406
20230131CPI COP39M   000157167831034400015716783103440001571678310344NPP     2023020105552520260504
20230131CPI COP3M    000131669747145700013166974714570001316697471457NPP     2023020105552520230502
20230131CPI COP40M   000157765068792400015776506879240001577650687924NPP     2023020105552520260602
20230131CPI COP41M   000158333023040000015833302304000001583330230400NPP     2023020105552520260702
20230131CPI COP42M   000158918855225300015891885522530001589188552253NPP     2023020105552520260803
20230131CPI COP43M   000159490963104100015949096310410001594909631041NPP     2023020105552520260902
20230131CPI COP44M   000160033232378600016003323237860001600332323786NPP     2023020105552520261002
20230131CPI COP45M   000160577345368700016057734536870001605773453687NPP     2023020105552520261103
20230131CPI COP46M   000161091192873900016109119287390001610911928739NPP     2023020105552520261202
20230131CPI COP47M   000161622793810400016162279381040001616227938104NPP     2023020105552520270104
20230131CPI COP48M   000162220798147500016222079814750001622207981475NPP     2023020105552520270202
20230131CPI COP49M   000162869681340100016286968134010001628696813401NPP     2023020105552520270302
20230131CPI COP4M    000132841607895300013284160789530001328416078953NPP     2023020105552520230602
20230131CPI COP50M   000163586307938000016358630793800001635863079380NPP     2023020105552520270402
20230131CPI COP51M   000164289729062100016428972906210001642897290621NPP     2023020105552520270503
20230131CPI COP52M   000165012603870000016501260387000001650126038700NPP     2023020105552520270602
20230131CPI COP53M   000165705656806200016570565680620001657056568062NPP     2023020105552520270702
20230131CPI COP54M   000166418191130500016641819113050001664181911305NPP     2023020105552620270802
20230131CPI COP55M   000167133789352300016713378935230001671337893523NPP     2023020105552620270902
20230131CPI COP56M   000167819037888700016781903788870001678190378887NPP     2023020105552620271004
20230131CPI COP57M   000168523877847800016852387784780001685238778478NPP     2023020105552620271102
20230131CPI COP58M   000169214825747000016921482574700001692148257470NPP     2023020105552620271202
20230131CPI COP59M   000169925528015100016992552801510001699255280151NPP     2023020105552620280103
20230131CPI COP5M    000133638657542700013363865754270001336386575427NPP     2023020105552620230704
20230131CPI COP60M   000170605230127200017060523012720001706052301272NPP     2023020105552620280202
20230131CPI COP61M   000171219408955700017121940895570001712194089557NPP     2023020105552620280302
20230131CPI COP62M   000171887164650600017188716465060001718871646506NPP     2023020105552620280403
20230131CPI COP63M   000172523147159800017252314715980001725231471598NPP     2023020105552620280502
20230131CPI COP64M   000173178735119000017317873511900001731787351190NPP     2023020105552620280602
20230131CPI COP65M   000173802178565400017380217856540001738021785654NPP     2023020105552620280704
20230131CPI COP66M   000174445246626100017444524662610001744452466261NPP     2023020105552620280802
20230131CPI COP67M   000175090694038600017509069403860001750906940386NPP     2023020105552620280904
20230131CPI COP68M   000175703511467800017570351146780001757035114678NPP     2023020105552620281002
20230131CPI COP69M   000176336044109100017633604410910001763360441091NPP     2023020105552620281102
20230131CPI COP6M    000134413761756400013441376175640001344137617564NPP     2023020105552620230802
20230131CPI COP70M   000176935586659000017693558665900001769355866590NPP     2023020105552620281204
20230131CPI COP71M   000177554861212300017755486121230001775548612123NPP     2023020105552620290102
20230131CPI COP72M   000178247325171100017824732517110001782473251711NPP     2023020105552620290202
20230131CPI COP73M   000178960314471700017896031447170001789603144717NPP     2023020105552620290302
20230131CPI COP74M   000179747739855400017974773985540001797477398554NPP     2023020105552620290402
20230131CPI COP75M   000180520655136800018052065513680001805206551368NPP     2023020105552620290502
20230131CPI COP76M   000182076468792700018207646879270001820764687927NPP     2023020105552620290605
20230131CPI COP77M   000182076468792700018207646879270001820764687927NPP     2023020105552620290703
20230131CPI COP78M   000182877605255400018287760525540001828776052554NPP     2023020105552620290802
20230131CPI COP79M   000183682266718500018368226671850001836822667185NPP     2023020105552620290903
20230131CPI COP7M    000135408423593400013540842359340001354084235934NPP     2023020105552620230904
20230131CPI COP80M   000184453732238700018445373223870001844537322387NPP     2023020105552620291002
20230131CPI COP81M   000185246883287300018524688328730001852468832873NPP     2023020105552620291102
20230131CPI COP82M   000186024920197100018602492019710001860249201971NPP     2023020105552620291203
20230131CPI COP83M   000186824827354000018682482735400001868248273540NPP     2023020105552620300102
20230131CPI COP84M   000187628174111600018762817411160001876281741116NPP     2023020105552620300204
20230131CPI COP85M   000188359923990600018835992399060001883599239906NPP     2023020105552620300304
20230131CPI COP86M   000189169871663800018916987166380001891698716638NPP     2023020105552620300402
20230131CPI COP87M   000189964385124800018996438512480001899643851248NPP     2023020105552620300502
20230131CPI COP88M   000190781231980800019078123198080001907812319808NPP     2023020105552620300604
20230131CPI COP89M   000191563435032000019156343503200001915634350320NPP     2023020105552620300702
20230131CPI COP8M    000136247955819700013624795581970001362479558197NPP     2023020105552620231002
20230131CPI COP90M   000192368001459100019236800145910001923680014591NPP     2023020105552620300802
20230131CPI COP91M   000193175947065200019317594706520001931759470652NPP     2023020105552620300902
20230131CPI COP92M   000193967968448200019396796844820001939679684482NPP     2023020105552620301002
20230131CPI COP93M   000195561764451300019556176445130001955617644513NPP     2023020105552620301105
20230131CPI COP94M   000195561764451300019556176445130001955617644513NPP     2023020105552620301202
20230131CPI COP95M   000196363567685600019636356768560001963635676856NPP     2023020105552620310102
20230131CPI COP96M   000197070476529200019707047652920001970704765292NPP     2023020105552620310203
20230131CPI COP97M   000197563152720600019756315272060001975631527206NPP     2023020105552620310303
20230131CPI COP98M   000198096573232900019809657323290001980965732329NPP     2023020105552620310402
20230131CPI COP99M   000198611624323300019861162432330001986116243233NPP     2023020105552620310502
20230131CPI COP9M    000136942820394400013694282039440001369428203944NPP     2023020105552620231102
20230131CPI COPON    000126030000000000012603000000000001260300000000NPP     2023020105552620230201
20230131L12MUSD10Y   000004578222807600000457822280760000045782228076NPP     2023020105552620330202
20230131L12MUSD12Y   000004839862999900000483986299990000048398629999NPP     2023020105552620350202
20230131L12MUSD15Y   000005215199442400000521519944240000052151994424NPP     2023020105552620380202
20230131L12MUSD20Y   000005546053761500000554605376150000055460537615NPP     2023020105552620430202
20230131L12MUSD25Y   000005960695838200000596069583820000059606958382NPP     2023020105552620480203
20230131L12MUSD2Y    000005053932577500000505393257750000050539325775NPP     2023020105552620250203
20230131L12MUSD30Y   000006045915792800000604591579280000060459157928NPP     2023020105552620530203
20230131L12MUSD3Y    000004650268009700000465026800970000046502680097NPP     2023020105552620260202
20230131L12MUSD4Y    000004469955678200000446995567820000044699556782NPP     2023020105552620270202
20230131L12MUSD5Y    000004406042390400000440604239040000044060423904NPP     2023020105552620280202
20230131L12MUSD7Y    000004417474770600000441747477060000044174747706NPP     2023020105552620300204
20230131L1M USD10Y   000003845716213600000384571621360000038457162136NPP     2023020105552620330202
20230131L1M USD12Y   000003990800902600000399080090260000039908009026NPP     2023020105552620350202
20230131L1M USD15Y   000004221895405700000422189540570000042218954057NPP     2023020105552620380202
20230131L1M USD20Y   000004538899586700000453889958670000045388995867NPP     2023020105552620430202
20230131L1M USD25Y   000004687451404700000468745140470000046874514047NPP     2023020105552620480203
20230131L1M USD2Y    000004421845761000000442184576100000044218457610NPP     2023020105552720250203
20230131L1M USD30Y   000004797298268400000479729826840000047972982684NPP     2023020105552720530203
20230131L1M USD3Y    000004029998681900000402999868190000040299986819NPP     2023020105552720260202
20230131L1M USD4Y    000003847995322600000384799532260000038479953226NPP     2023020105552720270202
20230131L1M USD5Y    000003763647473000000376364747300000037636474730NPP     2023020105552720280202
20230131L1M USD7Y    000003727429066000000372742906600000037274290660NPP     2023020105552720300204
20230131L3M USD10Y   000004044768220000000404476822000000040447682200NPP     2023020105552720330202
20230131L3M USD11Y   000004124883030000000412488303000000041248830300NPP     2023020105552720340202
20230131L3M USD12Y   000004204770530000000420477053000000042047705300NPP     2023020105552720350202
20230131L3M USD13Y   000004287746590000000428774659000000042877465900NPP     2023020105552720360204
20230131L3M USD14Y   000004373901620000000437390162000000043739016200NPP     2023020105552720370202
20230131L3M USD15Y   000004460288440000000446028844000000044602884400NPP     2023020105552720380202
20230131L3M USD20Y   000004818676550000000481867655000000048186765500NPP     2023020105552720430202
20230131L3M USD25Y   000005007884210000000500788421000000050078842100NPP     2023020105552720480203
20230131L3M USD2Y    000004557548600000000455754860000000045575486000NPP     2023020105552720250203
20230131L3M USD30Y   000005157908730000000515790873000000051579087300NPP     2023020105552720530203
20230131L3M USD3Y    000004176404850000000417640485000000041764048500NPP     2023020105552720260202
20230131L3M USD4Y    000004003362920000000400336292000000040033629200NPP     2023020105552720270202
20230131L3M USD5Y    000003927656240000000392765624000000039276562400NPP     2023020105552720280202
20230131L3M USD6Y    000003900029040000000390002904000000039000290400NPP     2023020105552720290202
20230131L3M USD7Y    000003904994900000000390499490000000039049949000NPP     2023020105552720300204
20230131L3M USD8Y    000003938439250000000393843925000000039384392500NPP     2023020105552720310203
20230131L3M USD9Y    000003982548230000000398254823000000039825482300NPP     2023020105552720320202
20230131L6M USD10Y   000004279155780000000427915578000000042791557800NPP     2023020105552720330202
20230131L6M USD12Y   000004456368150000000445636815000000044563681500NPP     2023020105552720350202
20230131L6M USD15Y   000004740716450000000474071645000000047407164500NPP     2023020105552720380202
20230131L6M USD20Y   000005150481210000000515048121000000051504812100NPP     2023020105552720430202
20230131L6M USD25Y   000005390558090000000539055809000000053905580900NPP     2023020105552720480203
20230131L6M USD2Y    000004730133410000000473013341000000047301334100NPP     2023020105552720250203
20230131L6M USD30Y   000005598904390000000559890439000000055989043900NPP     2023020105552720530203
20230131L6M USD3Y    000004358122170000000435812217000000043581221700NPP     2023020105552720260202
20230131L6M USD4Y    000004192791640000000419279164000000041927916400NPP     2023020105552720270202
20230131L6M USD5Y    000004125010910000000412501091000000041250109100NPP     2023020105552720280202
20230131L6M USD7Y    000004115412260000000411541226000000041154122600NPP     2023020105552720300204
20230131DEPOV1 102M  000002392201990000000239220199000000023922019900NPP     2023020105552720240726
20230131DEPOV1 10Y   000002737560350000000273756035000000027375603500NPP     2023020105552720260126
20230131DEPOV1 114M  000002609085850000000260908585000000026090858500NPP     2023020105552720250728
20230131DEPOV1 18M   000000325781970000000032578197000000003257819700NPP     2023020105552720170724
20230131DEPOV1 2Y    000000693058180000000069305818000000006930581800NPP     2023020105552720180126
20230131DEPOV1 30M   000000847808360000000084780836000000008478083600NPP     2023020105552720180726
20230131DEPOV1 3Y    000001008610600000000100861060000000010086106000NPP     2023020105552720190128
20230131DEPOV1 42M   000001151561060000000115156106000000011515610600NPP     2023020105552720190726
20230131DEPOV1 4Y    000001302076170000000130207617000000013020761700NPP     2023020105552720200127
20230131DEPOV1 54M   000001442137940000000144213794000000014421379400NPP     2023020105552720200727
20230131DEPOV1 5Y    000001586417960000000158641796000000015864179600NPP     2023020105552720210126
20230131DEPOV1 66M   000001733023480000000173302348000000017330234800NPP     2023020105552720210726
20230131DEPOV1 6Y    000001886518400000000188651840000000018865184000NPP     2023020105552720220126
20230131DEPOV1 78M   000002000425720000000200042572000000020004257200NPP     2023020105552720220726
20230131DEPOV1 7Y    000002119763050000000211976305000000021197630500NPP     2023020105552720230126
20230131DEPOV1 8Y    000002303394800000000230339480000000023033948000NPP     2023020105552720240126
20230131DEPOV1 90M   000002209446340000000220944634000000022094463400NPP     2023020105552720230726
20230131DEPOV1 9Y    000002485367490000000248536749000000024853674900NPP     2023020105552720250127
20230131SOFRUSD10M   000004865265610000000486526561000000048652656100NPP     2023020105552720231204
20230131SOFRUSD10Y   000003716993430000000371699343000000037169934300NPP     2023020105552720330202
20230131SOFRUSD11M   000004858586190000000485858619000000048585861900NPP     2023020105552720240102
20230131SOFRUSD12Y   000003801970180000000380197018000000038019701800NPP     2023020105552720350202
20230131SOFRUSD13M   000000042561510000000004256151000000000425615100NPP     2023020105552720210915
20230131SOFRUSD15Y   000004089291170000000408929117000000040892911700NPP     2023020105552720380202
20230131SOFRUSD16M   000000038552150000000003855215000000000385521500NPP     2023020105552820211215
20230131SOFRUSD1M    000004481423630000000448142363000000044814236300NPP     2023020105552820230302
20230131SOFRUSD1Y    000004839167280000000483916728000000048391672800NPP     2023020105552820240202
20230131SOFRUSD20Y   000004317587590000000431758759000000043175875900NPP     2023020105552820430202
20230131SOFRUSD25Y   000004386921170000000438692117000000043869211700NPP     2023020105552820480203
20230131SOFRUSD2M    000004603619430000000460361943000000046036194300NPP     2023020105552820230403
20230131SOFRUSD2W    000004393839810000000439383981000000043938398100NPP     2023020105552820230216
20230131SOFRUSD2Y    000004314220340000000431422034000000043142203400NPP     2023020105552820250203
20230131SOFRUSD3M    000004665996860000000466599686000000046659968600NPP     2023020105552820230502
20230131SOFRUSD3W    000004437631720000000443763172000000044376317200NPP     2023020105552820230223
20230131SOFRUSD3Y    000003909017400000000390901740000000039090174000NPP     2023020105552820260202
20230131SOFRUSD4M    000004732676180000000473267618000000047326761800NPP     2023020105552820230602
20230131SOFRUSD4Y    000003724455460000000372445546000000037244554600NPP     2023020105552820270202
20230131SOFRUSD5M    000004784734350000000478473435000000047847343500NPP     2023020105552820230703
20230131SOFRUSD5Y    000003636114690000000363611469000000036361146900NPP     2023020105552820280202
20230131SOFRUSD6M    000004812709860000000481270986000000048127098600NPP     2023020105552820230802
20230131SOFRUSD7M    000004844415440000000484441544000000048444154400NPP     2023020105552820230905
20230131SOFRUSD7Y    000003601555550000000360155555000000036015555500NPP     2023020105552820300204
20230131SOFRUSD8M    000004859501180000000485950118000000048595011800NPP     2023020105552820231002
20230131SOFRUSD9M    000004862337650000000486233765000000048623376500NPP     2023020105552820231102
20230131SOFRUSDON    000004300000000000000430000000000000043000000000NPP     2023020105552820230201
20230131SOFRUSDSW    000004350047900000000435004790000000043500479000NPP     2023020105552820230209
20230131IUV UVR10Y   000004432516980000000443251698000000044325169800NPP     2023020105552820330202
20230131IUV UVR15Y   000004639038410000000463903841000000046390384100NPP     2023020105552820380202
20230131IUV UVR2Y    000002587950790000000258795079000000025879507900NPP     2023020105552820250203
20230131IUV UVR3Y    000003065569810000000306556981000000030655698100NPP     2023020105552820260202
20230131IUV UVR4Y    000003487954430000000348795443000000034879544300NPP     2023020105552820270202
20230131IUV UVR5Y    000003589977000000000358997700000000035899770000NPP     2023020105552820280202
20230131IUV UVR6Y    000003884153610000000388415361000000038841536100NPP     2023020105552820290202
20230131IUV UVR7Y    000004029739690000000402973969000000040297396900NPP     2023020105552820300204
20230131IUV UVR8Y    000004200477000000000420047700000000042004770000NPP     2023020105552820310203
20230131IUV UVR9Y    000004678561830000000467856183000000046785618300NPP     2023020105552820320202
20230131DEPOUSD10Y   000003716993430000000371699343000000037169934300NPP     2023020105552820330202
20230131DEPOUSD12Y   000003801970180000000380197018000000038019701800NPP     2023020105552820350202
20230131DEPOUSD15Y   000004089291170000000408929117000000040892911700NPP     2023020105552820380202
20230131DEPOUSD20Y   000004317587590000000431758759000000043175875900NPP     2023020105552820430202
20230131DEPOUSD25Y   000004386921170000000438692117000000043869211700NPP     2023020105552820480203
20230131DEPOUSD2Y    000004314220340000000431422034000000043142203400NPP     2023020105552920250203
20230131DEPOUSD3Y    000003909017400000000390901740000000039090174000NPP     2023020105552920260202
20230131DEPOUSD4Y    000003724455460000000372445546000000037244554600NPP     2023020105552920270202
20230131DEPOUSD5Y    000003636114690000000363611469000000036361146900NPP     2023020105552920280202
20230131DEPOUSD7Y    000003601555550000000360155555000000036015555500NPP     2023020105552920300204
20230131UIBRUSD10Y   000002607943450000000260794345000000026079434500NPP     2023020105552920330202
20230131UIBRUSD12Y   000002752582440000000275258244000000027525824400NPP     2023020105552920350202
20230131UIBRUSD15Y   000003198034060000000319803406000000031980340600NPP     2023020105552920380202
20230131UIBRUSD18M   000003833500380000000383350038000000038335003800NPP     2023020105552920240731
20230131UIBRUSD20Y   000003729259770000000372925977000000037292597700NPP     2023020105552920430202
20230131UIBRUSD25Y   000003856011020000000385601102000000038560110200NPP     2023020105552920480203
20230131UIBRUSD2Y    000003442093260000000344209326000000034420932600NPP     2023020105552920250203
20230131UIBRUSD3Y    000002804482480000000280448248000000028044824800NPP     2023020105552920260202
20230131UIBRUSD4Y    000002592497510000000259249751000000025924975100NPP     2023020105552920270202
20230131UIBRUSD5Y    000002497147410000000249714741000000024971474100NPP     2023020105552920280202
20230131UIBRUSD6Y    000002495626350000000249562635000000024956263500NPP     2023020105552920290202
20230131UIBRUSD7Y    000002444080440000000244408044000000024440804400NPP     2023020105552920300204
20230131UIBRUSD8Y    000002525494780000000252549478000000025254947800NPP     2023020105552920310203
20230131UIBRUSD9Y    000002530299830000000253029983000000025302998300NPP     2023020105552920320202
20230131T2COCOF1M    000011828721550000001182872155000000118287215500NPP     2023020105551820230228
20230131T2COCOF1Y    000012927144940000001292714494000000129271449400NPP     2023020105551820240131
20230131T2COCOF2M    000012171150100000001217115010000000121711501000NPP     2023020105551820230330
20230131T2COCOF2W    000011889281480000001188928148000000118892814800NPP     2023020105551820230214
20230131T2COCOF3M    000012228785790000001222878579000000122287857900NPP     2023020105551820230427
20230131T2COCOF6M    000012549513420000001254951342000000125495134200NPP     2023020105551820230731
20230131T2COCOF9M    000012696526380000001269652638000000126965263800NPP     2023020105551820231031
20230131T2COCOFON    000011657774220000001165777422000000116577742200NPP     2023020105551820230201
20230131T2COCOFSW    000011689563940000001168956394000000116895639400NPP     2023020105551820230207
20230131T2DTCOP1Y    000013435346220000001343534622000000134353462200NPP     2023020105551820240202
20230131T2DTCOP3M    000013540000000000001354000000000000135400000000NPP     2023020105551820230502
20230131T2DTCOP6M    000013120000000000001312000000000000131200000000NPP     2023020105551820230802
20230131T2DTCOP9M    000012970000000000001297000000000000129700000000NPP     2023020105551820231102
20230131T2DTCOPON    000013940000000000001394000000000000139400000000NPP     2023020105551820230201
20230131T2IMEUC10M   000002988285760000000298828576000000029882857600NPP     2023020105551820231204
20230131T2IMEUC11M   000002915050230000000291505023000000029150502300NPP     2023020105551820240102
20230131T2IMEUC1D    000000066261940000000006626194000000000662619400NPP     2023020105551820230201
20230131T2IMEUC1M    000002415049450000000241504945000000024150494500NPP     2023020105551820230302
20230131T2IMEUC1Y    000002947580970000000294758097000000029475809700NPP     2023020105551820240202
20230131T2IMEUC2M    000002375760190000000237576019000000023757601900NPP     2023020105551820230403
20230131T2IMEUC2W    000002543333990000000254333399000000025433339900NPP     2023020105551820230216
20230131T2IMEUC3D    000010376682780000001037668278000000103766827800NPP     2023020105551820230203
20230131T2IMEUC3M    000002482190650000000248219065000000024821906500NPP     2023020105551820230502
20230131T2IMEUC3W    000002451485230000000245148523000000024514852300NPP     2023020105551820230223
20230131T2IMEUC4M    000002614777880000000261477788000000026147778800NPP     2023020105551820230602
20230131T2IMEUC5M    000002693787570000000269378757000000026937875700NPP     2023020105551820230703
20230131T2IMEUC6M    000002776379370000000277637937000000027763793700NPP     2023020105551820230802
20230131T2IMEUC7M    000002892025390000000289202539000000028920253900NPP     2023020105551820230905
20230131T2IMEUC8M    000002892734900000000289273490000000028927349000NPP     2023020105551820231002
20230131T2IMEUC9M    000002940594970000000294059497000000029405949700NPP     2023020105551820231102
20230131T2IMEUCSW    000002899673710000000289967371000000028996737100NPP     2023020105551820230209
20230131T2GBGBP10M   000004203082720000000420308272000000042030827200NPP     2023020105551920231204
20230131T2GBGBP11M   000004158106110000000415810611000000041581061100NPP     2023020105551920240102
20230131T2GBGBP1M    000003824486160000000382448616000000038244861600NPP     2023020105551920230302
20230131T2GBGBP1Y    000004154674830000000415467483000000041546748300NPP     2023020105551920240202
20230131T2GBGBP2M    000003846367890000000384636789000000038463678900NPP     2023020105551920230403
20230131T2GBGBP2W    000003877558690000000387755869000000038775586900NPP     2023020105551920230216
20230131T2GBGBP3M    000003925240020000000392524002000000039252400200NPP     2023020105551920230502
20230131T2GBGBP3W    000003831624880000000383162488000000038316248800NPP     2023020105551920230223
20230131T2GBGBP4M    000004011918210000000401191821000000040119182100NPP     2023020105551920230602
20230131T2GBGBP5M    000004061975950000000406197595000000040619759500NPP     2023020105551920230703
20230131T2GBGBP6M    000004102102960000000410210296000000041021029600NPP     2023020105551920230802
20230131T2GBGBP7M    000004161906120000000416190612000000041619061200NPP     2023020105551920230905
20230131T2GBGBP8M    000004170060080000000417006008000000041700600800NPP     2023020105551920231002
20230131T2GBGBP9M    000004185483070000000418548307000000041854830700NPP     2023020105551920231102
20230131T2GBGBPON    000002448654570000000244865457000000024486545700NPP     2023020105551920230201
20230131T2GBGBPSW    000004105947270000000410594727000000041059472700NPP     2023020105551920230209
20230131T2IBCOP1M    000011880000000000001188000000000000118800000000NPP     2023020105551920230302
20230131T2IBCOP1Y    000012485000000000001248500000000000124850000000NPP     2023020105551920240202
20230131T2IBCOP3M    000012150000000000001215000000000000121500000000NPP     2023020105551920230502
20230131T2IBCOP6M    000012460000000000001246000000000000124600000000NPP     2023020105551920230802
20230131T2IBCOP9M    000012540000000000001254000000000000125400000000NPP     2023020105551920231102
20230131T2IBCOPON    000011815000000000001181500000000000118150000000NPP     2023020105551920230201
20230131T2ECEUR10M   000002725806270000000272580627000000027258062700NPP     2023020105551920231204
20230131T2ECEUR11M   000002573408650000000257340865000000025734086500NPP     2023020105551920240102
20230131T2ECEUR1M    000002426622150000000242662215000000024266221500NPP     2023020105551920230302
20230131T2ECEUR1W    000002936092940000000293609294000000029360929400NPP     2023020105551920230209
20230131T2ECEUR1Y    000002303275970000000230327597000000023032759700NPP     2023020105551920240202
20230131T2ECEUR2M    000002222948910000000222294891000000022229489100NPP     2023020105551920230403
20230131T2ECEUR2W    000002507261400000000250726140000000025072614000NPP     2023020105551920230216
20230131T2ECEUR3M    000002382893050000000238289305000000023828930500NPP     2023020105551920230502
20230131T2ECEUR3W    -000008104274200-000008104274200-000008104274200NPP     2023020105551920210518
20230131T2ECEUR4M    000002492045190000000249204519000000024920451900NPP     2023020105551920230602
20230131T2ECEUR5M    000002573940450000000257394045000000025739404500NPP     2023020105551920230703
20230131T2ECEUR6M    000002687227380000000268722738000000026872273800NPP     2023020105551920230802
20230131T2ECEUR7M    000002765537670000000276553767000000027655376700NPP     2023020105551920230904
20230131T2ECEUR8M    000002750506130000000275050613000000027505061300NPP     2023020105551920231002
20230131T2ECEUR9M    000002788283360000000278828336000000027882833600NPP     2023020105551920231102
20230131T2ECEURON    000000223437110000000022343711000000002234371100NPP     2023020105551920230201
202301312L12USD1Y    000005337570000000000533757000000000053375700000NPP     2023020105551920240202
202301312L12USDON    000004298430000000000429843000000000042984300000NPP     2023020105551920230201
20230131T2L1USD18M   000004698405760000000469840576000000046984057600NPP     2023020105551920240802
20230131T2L1USD1M    000004574290000000000457429000000000045742900000NPP     2023020105551920230302
20230131T2L1USD1Y    000004906652560000000490665256000000049066525600NPP     2023020105551920240202
20230131T2L1USD3M    000004604997170000000460499717000000046049971700NPP     2023020105551920230502
20230131T2L1USD6M    000004856567320000000485656732000000048565673200NPP     2023020105551920230802
20230131T2L1USD9M    000004900807360000000490080736000000049008073600NPP     2023020105552020231102
20230131T2L1USDON    000004298430000000000429843000000000042984300000NPP     2023020105552020230201
20230131T2L3USD18M   000004834853512700000483485351270000048348535127NPP     2023020105552020240802
20230131T2L3USD3M    000004697341529200000469734152920000046973415292NPP     2023020105552020230502
20230131T2L3USD6M    000004926058378400000492605837840000049260583784NPP     2023020105552020230802
20230131T2L3USD9M    000005013922225500000501392222550000050139222255NPP     2023020105552020231102
20230131T2L3USDON    000004298430000000000429843000000000042984300000NPP     2023020105552020230201
20230131T2L6USD18M   000005009411900000000500941190000000050094119000NPP     2023020105552020240802
20230131T2L6USD1Y    000005195096530000000519509653000000051950965300NPP     2023020105552020240202
20230131T2L6USD6M    000005100430000000000510043000000000051004300000NPP     2023020105552020230802
20230131T2L6USDON    000004298430000000000429843000000000042984300000NPP     2023020105552020230201
20230131T2UVV1 1M    -000014100000000-000014100000000-000014100000000NPP     2023020105552020160224
20230131T2UVV1 1Y    000000200000000000000020000000000000002000000000NPP     2023020105552020170124
20230131T2UVV1 2M    -000011700000000-000011700000000-000011700000000NPP     2023020105552020160322
20230131T2UVV1 2W    -000015269419800-000015269419800-000015269419800NPP     2023020105552020160205
20230131T2UVV1 3M    -000010000000000-000010000000000-000010000000000NPP     2023020105552020160422
20230131T2UVV1 6M    -000005300000000-000005300000000-000005300000000NPP     2023020105552020160722
20230131T2UVV1 9M    -000001900000000-000001900000000-000001900000000NPP     2023020105552020161024
20230131T2UVV1 ON    -000017700000000-000017700000000-000017700000000NPP     2023020105552020160123
20230131T2UVV1 SW    -000017270021000-000017270021000-000017270021000NPP     2023020105552020160129
20230131T2BLUSD1M    000004527195240000000452719524000000045271952400NPP     2023020105552020230228
20230131T2BLUSD1W    000004476830550000000447683055000000044768305500NPP     2023020105552020230207
20230131T2BLUSD1Y    000004433085280000000443308528000000044330852800NPP     2023020105552020240131
20230131T2BLUSD2M    000004439884110000000443988411000000044398841100NPP     2023020105552020230330
20230131T2BLUSD2W    000004337631680000000433763168000000043376316800NPP     2023020105552020230214
20230131T2BLUSD3M    000004563545030000000456354503000000045635450300NPP     2023020105552020230427
20230131T2BLUSD6M    000004722629170000000472262917000000047226291700NPP     2023020105552020230731
20230131T2BLUSD9M    000004715379330000000471537933000000047153793300NPP     2023020105552020231031
20230131T2BLUSDON    000004457193660000000445719366000000044571936600NPP     2023020105552020230201
20230131T2IUUVR18M   000001900000000000000190000000000000019000000000NPP     2023020105552020240802
20230131T2IUUVR1M    -000064700000100-000064700000100-000064700000100NPP     2023020105552020230302
20230131T2IUUVR1Y    000002415000000000000241500000000000024150000000NPP     2023020105552020240202
20230131T2IUUVR3M    -000060000000100-000060000000100-000060000000100NPP     2023020105552020230502
20230131T2IUUVR6M    -000010800000000-000010800000000-000010800000000NPP     2023020105552020230802
20230131T2IUUVR9M    000000570000000000000057000000000000005700000000NPP     2023020105552020231102
20230131T2IUUVRON    -000027284378800-000027284378800-000027284378800NPP     2023020105552020230201
20230131T2USUSD10M   000004867809400000000486780940000000048678094000NPP     2023020105552020231204
20230131T2USUSD11M   000004860769830000000486076983000000048607698300NPP     2023020105552020240102
20230131T2USUSD1M    000004493309060000000449330906000000044933090600NPP     2023020105552020230302
20230131T2USUSD1Y    000004840965170000000484096517000000048409651700NPP     2023020105552020240202
20230131T2USUSD2M    000004612638170000000461263817000000046126381700NPP     2023020105552020230403
20230131T2USUSD2W    000004406192910000000440619291000000044061929100NPP     2023020105552020230216
20230131T2USUSD3M    000004673105160000000467310516000000046731051600NPP     2023020105552020230502
20230131T2USUSD3W    000004449676520000000444967652000000044496765200NPP     2023020105552020230223
20230131T2USUSD4M    000004738755410000000473875541000000047387554100NPP     2023020105552020230602
20230131T2USUSD5M    000004790010390000000479001039000000047900103900NPP     2023020105552020230703
20230131T2USUSD6M    000004817224380000000481722438000000048172243800NPP     2023020105552020230802
20230131T2USUSD7M    000004848321560000000484832156000000048483215600NPP     2023020105552020230905
20230131T2USUSD8M    000004862963450000000486296345000000048629634500NPP     2023020105552120231002
20230131T2USUSD9M    000004865295070000000486529507000000048652950700NPP     2023020105552120231102
20230131T2USUSDON    000004300000000000000430000000000000043000000000NPP     2023020105552120230201
20230131T2USUSDSW    000004363304950000000436330495000000043633049500NPP     2023020105552120230209
20230131T2UIUSD1M    000004527195240000000452719524000000045271952400NPP     2023020105552120230228
20230131T2UIUSD1W    000004476830550000000447683055000000044768305500NPP     2023020105552120230207
20230131T2UIUSD1Y    000004433085280000000443308528000000044330852800NPP     2023020105552120240131
20230131T2UIUSD2M    000004439884110000000443988411000000044398841100NPP     2023020105552120230330
20230131T2UIUSD2W    000004337631680000000433763168000000043376316800NPP     2023020105552120230214
20230131T2UIUSD3M    000004563545030000000456354503000000045635450300NPP     2023020105552120230427
20230131T2UIUSD6M    000004722629170000000472262917000000047226291700NPP     2023020105552120230731
20230131T2UIUSD9M    000004715379330000000471537933000000047153793300NPP     2023020105552120231031
20230131T2UIUSDON    000004457193660000000445719366000000044571936600NPP     2023020105552120230201
20230131T2COCOF10Y   000011657795960000001165779596000000116577959600NPP     2023020105552120330202
20230131T2COCOF12Y   000012525166130000001252516613000000125251661300NPP     2023020105552120350202
20230131T2COCOF15Y   000014899708490000001489970849000000148997084900NPP     2023020105552120380202
20230131T2COCOF18M   000012991588650000001299158865000000129915886500NPP     2023020105552120240731
20230131T2COCOF20Y   000019870611750000001987061175000000198706117500NPP     2023020105552120430202
20230131T2COCOF25Y   000025170668360000002517066836000000251706683600NPP     2023020105552120480203
20230131T2COCOF2Y    000010365261410000001036526141000000103652614100NPP     2023020105552120250203
20230131T2COCOF3Y    000009801138390000000980113839000000098011383900NPP     2023020105552120260202
20230131T2COCOF4Y    000009699819820000000969981982000000096998198200NPP     2023020105552120270202
20230131T2COCOF5Y    000009749844780000000974984478000000097498447800NPP     2023020105552120280202
20230131T2COCOF6Y    000010005551890000001000555189000000100055518900NPP     2023020105552120290202
20230131T2COCOF7Y    000010227045490000001022704549000000102270454900NPP     2023020105552120300204
20230131T2COCOF8Y    000010698428790000001069842879000000106984287900NPP     2023020105552120310203
20230131T2COCOF9Y    000010977825270000001097782527000000109778252700NPP     2023020105552120320202
20230131T2DTCOP10Y   000015125231300000001512523130000000151252313000NPP     2023020105552220330202
20230131T2DTCOP2Y    000011825369320000001182536932000000118253693200NPP     2023020105552220250203
20230131T2DTCOP3Y    000011640353290000001164035329000000116403532900NPP     2023020105552220260202
20230131T2DTCOP4Y    000011708326870000001170832687000000117083268700NPP     2023020105552220270202
20230131T2DTCOP5Y    000011944432850000001194443285000000119444328500NPP     2023020105552220280202
20230131T2DTCOP6Y    000012362382670000001236238267000000123623826700NPP     2023020105552220290202
20230131T2DTCOP7Y    000012911571380000001291157138000000129115713800NPP     2023020105552220300204
20230131T2DTCOP8Y    000013548046440000001354804644000000135480464400NPP     2023020105552220310203
20230131T2DTCOP9Y    000014241838520000001424183852000000142418385200NPP     2023020105552220320202
20230131T2ESUSD10M   000003132347590000000313234759000000031323475900NPP     2023020105552220231204
20230131T2ESUSD10Y   000002941520520000000294152052000000029415205200NPP     2023020105552220330202
20230131T2ESUSD11M   000003157643570000000315764357000000031576435700NPP     2023020105552220240102
20230131T2ESUSD12Y   000003066083110000000306608311000000030660831100NPP     2023020105552220350202
20230131T2ESUSD15Y   000003207825790000000320782579000000032078257900NPP     2023020105552220380202
20230131T2ESUSD18M   000003153527090000000315352709000000031535270900NPP     2023020105552220240802
20230131T2ESUSD1M    000002300505920000000230050592000000023005059200NPP     2023020105552220230302
20230131T2ESUSD1W    000001976520840000000197652084000000019765208400NPP     2023020105552220230209
20230131T2ESUSD1Y    000003179039990000000317903999000000031790399900NPP     2023020105552220240202
20230131T2ESUSD20Y   000003240163160000000324016316000000032401631600NPP     2023020105552220430202
20230131T2ESUSD25Y   000003159491390000000315949139000000031594913900NPP     2023020105552220480203
20230131T2ESUSD2M    000002449336640000000244933664000000024493366400NPP     2023020105552220230403
20230131T2ESUSD2W    000002193010900000000219301090000000021930109000NPP     2023020105552220230216
20230131T2ESUSD2Y    000003104676030000000310467603000000031046760300NPP     2023020105552220250203
20230131T2ESUSD3M    000002584259900000000258425990000000025842599000NPP     2023020105552220230502
20230131T2ESUSD3Y    000002942079630000000294207963000000029420796300NPP     2023020105552220260202
20230131T2ESUSD4M    000002715368900000000271536890000000027153689000NPP     2023020105552220230602
20230131T2ESUSD4Y    000002849839040000000284983904000000028498390400NPP     2023020105552220270202
20230131T2ESUSD5M    000002825094760000000282509476000000028250947600NPP     2023020105552220230703
20230131T2ESUSD5Y    000002811219950000000281121995000000028112199500NPP     2023020105552220280202
20230131T2ESUSD6M    000002913579270000000291357927000000029135792700NPP     2023020105552220230802
20230131T2ESUSD7M    000002996167260000000299616726000000029961672600NPP     2023020105552220230904
20230131T2ESUSD7Y    000002805802450000000280580245000000028058024500NPP     2023020105552220300204
20230131T2ESUSD8M    000003050059630000000305005963000000030500596300NPP     2023020105552220231002
20230131T2ESUSD9M    000003096853010000000309685301000000030968530100NPP     2023020105552220231102
20230131T2ESUSDON    000001904000000000000190400000000000019040000000NPP     2023020105552220230201
20230131T2IMEUC15M   000002958793050000000295879305000000029587930500NPP     20230201055522        
20230131T2IMEUC18M   000002950245910000000295024591000000029502459100NPP     20230201055522        
20230131T2IMEUC21M   000002916045080000000291604508000000029160450800NPP     20230201055522        
20230131T2IMEUC2Y    000002844965370000000284496537000000028449653700NPP     20230201055522        
20230131T2IMEUC3Y    000002660654590000000266065459000000026606545900NPP     20230201055522        
20230131T2IMEUC4Y    000002584114180000000258411418000000025841141800NPP     20230201055522        
20230131T2IMEUC5Y    000002537541150000000253754115000000025375411500NPP     20230201055522        
20230131T2FFUSD10M   000004884754710000000488475471000000048847547100NPP     2023020105552220231204
20230131T2FFUSD10Y   000003695450580000000369545058000000036954505800NPP     2023020105552220330202
20230131T2FFUSD11M   000004868898710000000486889871000000048688987100NPP     2023020105552220240102
20230131T2FFUSD12Y   000003791866410000000379186641000000037918664100NPP     2023020105552220350202
20230131T2FFUSD15Y   000004043507380000000404350738000000040435073800NPP     2023020105552220380202
20230131T2FFUSD1M    000004599700860000000459970086000000045997008600NPP     2023020105552220230302
20230131T2FFUSD1W    000004597748680000000459774868000000045977486800NPP     2023020105552220230209
20230131T2FFUSD1Y    000004847869140000000484786914000000048478691400NPP     2023020105552220240202
20230131T2FFUSD20Y   000004269063370000000426906337000000042690633700NPP     2023020105552320430202
20230131T2FFUSD25Y   000004331291250000000433129125000000043312912500NPP     2023020105552320480203
20230131T2FFUSD2M    000004642477740000000464247774000000046424777400NPP     2023020105552320230403
20230131T2FFUSD2W    000004596345910000000459634591000000045963459100NPP     2023020105552320230216
20230131T2FFUSD2Y    000004308374970000000430837497000000043083749700NPP     2023020105552320250203
20230131T2FFUSD3M    000004706664940000000470666494000000047066649400NPP     2023020105552320230502
20230131T2FFUSD3W    000004603152300000000460315230000000046031523000NPP     2023020105552320230223
20230131T2FFUSD3Y    000003908957610000000390895761000000039089576100NPP     2023020105552320260202
20230131T2FFUSD4M    000004770114940000000477011494000000047701149400NPP     2023020105552320230602
20230131T2FFUSD4Y    000003712635890000000371263589000000037126358900NPP     2023020105552320270202
20230131T2FFUSD5M    000004817087110000000481708711000000048170871100NPP     2023020105552320230703
20230131T2FFUSD5Y    000003629089060000000362908906000000036290890600NPP     2023020105552320280202
20230131T2FFUSD6M    000004848742000000000484874200000000048487420000NPP     2023020105552320230802
20230131T2FFUSD7M    000004870351020000000487035102000000048703510200NPP     2023020105552320230905
20230131T2FFUSD7Y    000003590758680000000359075868000000035907586800NPP     2023020105552320300204
20230131T2FFUSD8M    000004882563500000000488256350000000048825635000NPP     2023020105552320231002
20230131T2FFUSD9M    000004889592590000000488959259000000048895925900NPP     2023020105552320231102
20230131T2FFUSDON    000004330000000000000433000000000000043300000000NPP     2023020105552320230201
20230131T2GBGBP15M   000004141828600000000414182860000000041418286000NPP     2023020105552320240502
20230131T2GBGBP18M   000004071374080000000407137408000000040713740800NPP     2023020105552320240802
20230131T2GBGBP21M   000004005749560000000400574956000000040057495600NPP     2023020105552320241104
20230131T2GBGBP2Y    000003930117040000000393011704000000039301170400NPP     2023020105552320250203
20230131T2GBGBP3Y    000003719401090000000371940109000000037194010900NPP     2023020105552320260202
20230131T2GBGBP4Y    000003640621340000000364062134000000036406213400NPP     2023020105552320270202
20230131T2GBGBP5Y    000003579535890000000357953589000000035795358900NPP     2023020105552320280202
20230131T2BLUSD10Y   000002606285620000000260628562000000026062856200NPP     2023020105552320330202
20230131T2BLUSD2Y    000003438468320000000343846832000000034384683200NPP     2023020105552320250203
20230131T2BLUSD3Y    000002800773050000000280077305000000028007730500NPP     2023020105552320260202
20230131T2BLUSD4Y    000002589303710000000258930371000000025893037100NPP     2023020105552320270202
20230131T2BLUSD5Y    000002494382930000000249438293000000024943829300NPP     2023020105552320280202
20230131T2BLUSD6Y    000002493219220000000249321922000000024932192200NPP     2023020105552320290202
20230131T2BLUSD7Y    000002441902410000000244190241000000024419024100NPP     2023020105552320300204
20230131T2BLUSD8Y    000002523548170000000252354817000000025235481700NPP     2023020105552320310203
20230131T2BLUSD9Y    000002528501280000000252850128000000025285012800NPP     2023020105552320320202
20230131T2IBCOP10Y   000015286761810000001528676181000000152867618100NPP     2023020105552320330202
20230131T2IBCOP12Y   000016683788650000001668378865000000166837886500NPP     2023020105552320350202
20230131T2IBCOP15Y   000019451934590000001945193459000000194519345900NPP     2023020105552320380202
20230131T2IBCOP18M   000012100000000000001210000000000000121000000000NPP     2023020105552320240802
20230131T2IBCOP20Y   000023942132710000002394213271000000239421327100NPP     2023020105552320430202
20230131T2IBCOP2Y    000011712129190000001171212919000000117121291900NPP     2023020105552320250203
20230131T2IBCOP3Y    000011591330150000001159133015000000115913301500NPP     2023020105552320260202
20230131T2IBCOP4Y    000011697819690000001169781969000000116978196900NPP     2023020105552320270202
20230131T2IBCOP5Y    000011957416500000001195741650000000119574165000NPP     2023020105552320280202
20230131T2IBCOP6Y    000012407448800000001240744880000000124074488000NPP     2023020105552320290202
20230131T2IBCOP7Y    000012985518310000001298551831000000129855183100NPP     2023020105552320300204
20230131T2IBCOP8Y    000013629718510000001362971851000000136297185100NPP     2023020105552320310203
20230131T2IBCOP9Y    000014349965090000001434996509000000143499650900NPP     2023020105552320320202
20230131T2ECEUR10Y   000001673789940000000167378994000000016737899400NPP     2023020105552420330202
20230131T2ECEUR12Y   000001799120940000000179912094000000017991209400NPP     2023020105552420350202
20230131T2ECEUR2Y    000002154456630000000215445663000000021544566300NPP     2023020105552420250203
20230131T2ECEUR3Y    000001737671500000000173767150000000017376715000NPP     2023020105552420260202
20230131T2ECEUR4Y    000001604805130000000160480513000000016048051300NPP     2023020105552420270202
20230131T2ECEUR5Y    000001540822650000000154082265000000015408226500NPP     2023020105552420280202
20230131T2ECEUR6Y    000001565801080000000156580108000000015658010800NPP     2023020105552420290202
20230131T2ECEUR7Y    000001518861470000000151886147000000015188614700NPP     2023020105552420300204
20230131T2ECEUR8Y    000001603561980000000160356198000000016035619800NPP     2023020105552420310203
20230131T2ECEUR9Y    000001613683110000000161368311000000016136831100NPP     2023020105552420320202
202301312L12USD10Y   000004577282930000000457728293000000045772829300NPP     2023020105552620330202
202301312L12USD12Y   000004838954510000000483895451000000048389545100NPP     2023020105552620350202
202301312L12USD15Y   000005214288910000000521428891000000052142889100NPP     2023020105552620380202
202301312L12USD20Y   000005545071170000000554507117000000055450711700NPP     2023020105552620430202
202301312L12USD25Y   000005959636720000000595963672000000059596367200NPP     2023020105552620480203
202301312L12USD2Y    000005054789700000000505478970000000050547897000NPP     2023020105552620250203
202301312L12USD30Y   000006044791200000000604479120000000060447912000NPP     2023020105552620530203
202301312L12USD3Y    000004649799670000000464979967000000046497996700NPP     2023020105552620260202
202301312L12USD4Y    000004469123250000000446912325000000044691232500NPP     2023020105552620270202
202301312L12USD5Y    000004405108310000000440510831000000044051083100NPP     2023020105552620280202
202301312L12USD7Y    000004416513140000000441651314000000044165131400NPP     2023020105552620300204
20230131T2L1USD10Y   000003844550270000000384455027000000038445502700NPP     2023020105552620330202
20230131T2L1USD12Y   000003989707780000000398970778000000039897077800NPP     2023020105552620350202
20230131T2L1USD15Y   000004220859520000000422085952000000042208595200NPP     2023020105552620380202
20230131T2L1USD20Y   000004537881770000000453788177000000045378817700NPP     2023020105552620430202
20230131T2L1USD25Y   000004686417480000000468641748000000046864174800NPP     2023020105552620480203
20230131T2L1USD2Y    000004421127190000000442112719000000044211271900NPP     2023020105552720250203
20230131T2L1USD30Y   000004796243960000000479624396000000047962439600NPP     2023020105552720530203
20230131T2L1USD3Y    000004028546820000000402854682000000040285468200NPP     2023020105552720260202
20230131T2L1USD4Y    000003846460170000000384646017000000038464601700NPP     2023020105552720270202
20230131T2L1USD5Y    000003762163320000000376216332000000037621633200NPP     2023020105552720280202
20230131T2L1USD7Y    000003726093000000000372609300000000037260930000NPP     2023020105552720300204
20230131T2L3USD10Y   000004043663710000000404366371000000040436637100NPP     2023020105552720330202
20230131T2L3USD11Y   000004123811870000000412381187000000041238118700NPP     2023020105552720340202
20230131T2L3USD12Y   000004203723940000000420372394000000042037239400NPP     2023020105552720350202
20230131T2L3USD13Y   000004286718420000000428671842000000042867184200NPP     2023020105552720360204
20230131T2L3USD14Y   000004372886880000000437288688000000043728868800NPP     2023020105552720370202
20230131T2L3USD15Y   000004459282640000000445928264000000044592826400NPP     2023020105552720380202
20230131T2L3USD20Y   000004817668520000000481766852000000048176685200NPP     2023020105552720430202
20230131T2L3USD25Y   000005006843940000000500684394000000050068439400NPP     2023020105552720480203
20230131T2L3USD2Y    000004557168310000000455716831000000045571683100NPP     2023020105552720250203
20230131T2L3USD30Y   000005156834120000000515683412000000051568341200NPP     2023020105552720530203
20230131T2L3USD3Y    000004175185140000000417518514000000041751851400NPP     2023020105552720260202
20230131T2L3USD4Y    000004002003310000000400200331000000040020033100NPP     2023020105552720270202
20230131T2L3USD5Y    000003926312530000000392631253000000039263125300NPP     2023020105552720280202
20230131T2L3USD6Y    000003898734510000000389873451000000038987345100NPP     2023020105552720290202
20230131T2L3USD7Y    000003903755190000000390375519000000039037551900NPP     2023020105552720300204
20230131T2L3USD8Y    000003937252710000000393725271000000039372527100NPP     2023020105552720310203
20230131T2L3USD9Y    000003981405260000000398140526000000039814052600NPP     2023020105552720320202
20230131T2L6USD10Y   000004278123600000000427812360000000042781236000NPP     2023020105552720330202
20230131T2L6USD12Y   000004455376270000000445537627000000044553762700NPP     2023020105552720350202
20230131T2L6USD15Y   000004739746040000000473974604000000047397460400NPP     2023020105552720380202
20230131T2L6USD20Y   000005149484780000000514948478000000051494847800NPP     2023020105552720430202
20230131T2L6USD25Y   000005389510250000000538951025000000053895102500NPP     2023020105552720480203
20230131T2L6USD2Y    000004730183350000000473018335000000047301833500NPP     2023020105552720250203
20230131T2L6USD30Y   000005597804960000000559780496000000055978049600NPP     2023020105552720530203
20230131T2L6USD3Y    000004357190590000000435719059000000043571905900NPP     2023020105552720260202
20230131T2L6USD4Y    000004191646060000000419164606000000041916460600NPP     2023020105552720270202
20230131T2L6USD5Y    000004123836190000000412383619000000041238361900NPP     2023020105552720280202
20230131T2L6USD7Y    000004114286720000000411428672000000041142867200NPP     2023020105552720300204
20230131T2UVV1 102M  000002398037260000000239803726000000023980372600NPP     2023020105552720240726
20230131T2UVV1 10Y   000002743035550000000274303555000000027430355500NPP     2023020105552720260126
20230131T2UVV1 114M  000002614646550000000261464655000000026146465500NPP     2023020105552720250728
20230131T2UVV1 18M   000000341230960000000034123096000000003412309600NPP     2023020105552720170724
20230131T2UVV1 2Y    000000706674910000000070667491000000007066749100NPP     2023020105552720180126
20230131T2UVV1 30M   000000859459010000000085945901000000008594590100NPP     2023020105552720180726
20230131T2UVV1 3Y    000001018933430000000101893343000000010189334300NPP     2023020105552720190128
20230131T2UVV1 42M   000001160940700000000116094070000000011609407000NPP     2023020105552720190726
20230131T2UVV1 4Y    000001310739080000000131073908000000013107390800NPP     2023020105552720200127
20230131T2UVV1 54M   000001450238580000000145023858000000014502385800NPP     2023020105552720200727
20230131T2UVV1 5Y    000001594079940000000159407994000000015940799400NPP     2023020105552720210126
20230131T2UVV1 66M   000001740343880000000174034388000000017403438800NPP     2023020105552720210726
20230131T2UVV1 6Y    000001893563280000000189356328000000018935632800NPP     2023020105552720220126
20230131T2UVV1 78M   000002007176010000000200717601000000020071760100NPP     2023020105552720220726
20230131T2UVV1 7Y    000002126266100000000212626610000000021262661000NPP     2023020105552720230126
20230131T2UVV1 8Y    000002309425160000000230942516000000023094251600NPP     2023020105552720240126
20230131T2UVV1 90M   000002215695750000000221569575000000022156957500NPP     2023020105552720230726
20230131T2UVV1 9Y    000002491032660000000249103266000000024910326600NPP     2023020105552720250127
20230131T2SOUSD10M   000004867809400000000486780940000000048678094000NPP     2023020105552720231204
20230131T2SOUSD10Y   000003715786580000000371578658000000037157865800NPP     2023020105552720330202
20230131T2SOUSD11M   000004860769830000000486076983000000048607698300NPP     2023020105552720240102
20230131T2SOUSD12Y   000003800834950000000380083495000000038008349500NPP     2023020105552720350202
20230131T2SOUSD15Y   000004088237620000000408823762000000040882376200NPP     2023020105552720380202
20230131T2SOUSD1M    000004493309060000000449330906000000044933090600NPP     2023020105552820230302
20230131T2SOUSD1Y    000004840965170000000484096517000000048409651700NPP     2023020105552820240202
20230131T2SOUSD20Y   000004316561230000000431656123000000043165612300NPP     2023020105552820430202
20230131T2SOUSD25Y   000004385892470000000438589247000000043858924700NPP     2023020105552820480203
20230131T2SOUSD2M    000004612638170000000461263817000000046126381700NPP     2023020105552820230403
20230131T2SOUSD2W    000004406192910000000440619291000000044061929100NPP     2023020105552820230216
20230131T2SOUSD2Y    000004313228810000000431322881000000043132288100NPP     2023020105552820250203
20230131T2SOUSD3M    000004673105160000000467310516000000046731051600NPP     2023020105552820230502
20230131T2SOUSD3W    000004449676520000000444967652000000044496765200NPP     2023020105552820230223
20230131T2SOUSD3Y    000003907370500000000390737050000000039073705000NPP     2023020105552820260202
20230131T2SOUSD4M    000004738755410000000473875541000000047387554100NPP     2023020105552820230602
20230131T2SOUSD4Y    000003722778250000000372277825000000037227782500NPP     2023020105552820270202
20230131T2SOUSD5M    000004790010390000000479001039000000047900103900NPP     2023020105552820230703
20230131T2SOUSD5Y    000003634519300000000363451930000000036345193000NPP     2023020105552820280202
20230131T2SOUSD6M    000004817224380000000481722438000000048172243800NPP     2023020105552820230802
20230131T2SOUSD7M    000004848321560000000484832156000000048483215600NPP     2023020105552820230905
20230131T2SOUSD7Y    000003600149640000000360014964000000036001496400NPP     2023020105552820300204
20230131T2SOUSD8M    000004862963450000000486296345000000048629634500NPP     2023020105552820231002
20230131T2SOUSD9M    000004865295070000000486529507000000048652950700NPP     2023020105552820231102
20230131T2SOUSDON    000004300000000000000430000000000000043000000000NPP     2023020105552820230201
20230131T2SOUSDSW    000004363304950000000436330495000000043633049500NPP     2023020105552820230209
20230131T2IUUVR10Y   000004437110150000000443711015000000044371101500NPP     2023020105552820330202
20230131T2IUUVR15Y   000004642431460000000464243146000000046424314600NPP     2023020105552820380202
20230131T2IUUVR2Y    000002602870980000000260287098000000026028709800NPP     2023020105552820250203
20230131T2IUUVR3Y    000003076609170000000307660917000000030766091700NPP     2023020105552820260202
20230131T2IUUVR4Y    000003496994280000000349699428000000034969942800NPP     2023020105552820270202
20230131T2IUUVR5Y    000003597442800000000359744280000000035974428000NPP     2023020105552820280202
20230131T2IUUVR6Y    000003890776760000000389077676000000038907767600NPP     2023020105552820290202
20230131T2IUUVR7Y    000004035633300000000403563330000000040356333000NPP     2023020105552820300204
20230131T2IUUVR8Y    000004205855480000000420585548000000042058554800NPP     2023020105552820310203
20230131T2IUUVR9Y    000004683778640000000468377864000000046837786400NPP     2023020105552820320202
20230131T2USUSD10Y   000003715786580000000371578658000000037157865800NPP     2023020105552820330202
20230131T2USUSD12Y   000003800834950000000380083495000000038008349500NPP     2023020105552820350202
20230131T2USUSD15Y   000004088237620000000408823762000000040882376200NPP     2023020105552820380202
20230131T2USUSD20Y   000004316561230000000431656123000000043165612300NPP     2023020105552820430202
20230131T2USUSD25Y   000004385892470000000438589247000000043858924700NPP     2023020105552820480203
20230131T2USUSD2Y    000004313228810000000431322881000000043132288100NPP     2023020105552920250203
20230131T2USUSD3Y    000003907370500000000390737050000000039073705000NPP     2023020105552920260202
20230131T2USUSD4Y    000003722778250000000372277825000000037227782500NPP     2023020105552920270202
20230131T2USUSD5Y    000003634519300000000363451930000000036345193000NPP     2023020105552920280202
20230131T2USUSD7Y    000003600149640000000360014964000000036001496400NPP     2023020105552920300204
20230131T2UIUSD10Y   000002606285620000000260628562000000026062856200NPP     2023020105552920330202
20230131T2UIUSD12Y   000002751123370000000275112337000000027511233700NPP     2023020105552920350202
20230131T2UIUSD15Y   000003196782840000000319678284000000031967828400NPP     2023020105552920380202
20230131T2UIUSD18M   000003830263140000000383026314000000038302631400NPP     2023020105552920240731
20230131T2UIUSD20Y   000003728137300000000372813730000000037281373000NPP     2023020105552920430202
20230131T2UIUSD25Y   000003854924790000000385492479000000038549247900NPP     2023020105552920480203
20230131T2UIUSD2Y    000003438468320000000343846832000000034384683200NPP     2023020105552920250203
20230131T2UIUSD3Y    000002800773050000000280077305000000028007730500NPP     2023020105552920260202
20230131T2UIUSD4Y    000002589303710000000258930371000000025893037100NPP     2023020105552920270202
20230131T2UIUSD5Y    000002494382930000000249438293000000024943829300NPP     2023020105552920280202
20230131T2UIUSD6Y    000002493219220000000249321922000000024932192200NPP     2023020105552920290202
20230131T2UIUSD7Y    000002441902410000000244190241000000024419024100NPP     2023020105552920300204
20230131T2UIUSD8Y    000002523548170000000252354817000000025235481700NPP     2023020105552920310203
20230131T2UIUSD9Y    000002528501280000000252850128000000025285012800NPP     2023020105552920320202
20230131CPFFUSD001   000004300000000000000430000000000000043000000000NPP     20230131091313        
20230131CPFFUSD002   000004300000000000000430000000000000043000000000NPP     20230131091313        
20230131CPFFUSD003   000004300000000000000430000000000000043000000000NPP     20230131091313        
20230131CPFFUSD004   000004300000000000000430000000000000043000000000NPP     20230131091313        
20230131CPFFUSD005   000004300000000000000430000000000000043000000000NPP     20230131091313        
20230131CPFFUSD006   000004301670000000000430167000000000043016700000NPP     20230131091313        
20230131CPFFUSD007   000004301430000000000430143000000000043014300000NPP     20230131091313        
20230131CPFFUSD008   000004301250000000000430125000000000043012500000NPP     20230131091313        
20230131CPFFUSD009   000004301110000000000430111000000000043011100000NPP     20230131091313        
20230131CPFFUSD010   000004301000000000000430100000000000043010000000NPP     20230131091313        
20230131CPFFUSD011   000004300910000000000430091000000000043009100000NPP     20230131091313        
20230131CPFFUSD012   000004301670000000000430167000000000043016700000NPP     20230131091313        
20230131CPFFUSD013   000004301540000000000430154000000000043015400000NPP     20230131091313        
20230131CPFFUSD014   000004302140000000000430214000000000043021400000NPP     20230131091313        
20230131CPFFUSD015   000004302000000000000430200000000000043020000000NPP     20230131091313        
20230131CPFFUSD016   000004301870000000000430187000000000043018700000NPP     20230131091313        
20230131CPFFUSD017   000004301760000000000430176000000000043017600000NPP     20230131091313        
20230131CPFFUSD018   000004301670000000000430167000000000043016700000NPP     20230131091313        
20230131CPFFUSD019   000004301580000000000430158000000000043015800000NPP     20230131091313        
20230131CPFFUSD020   000004301500000000000430150000000000043015000000NPP     20230131091313        
20230131CPFFUSD021   000004301900000000000430190000000000043019000000NPP     20230131091313        
20230131CPFFUSD022   000004302270000000000430227000000000043022700000NPP     20230131091313        
20230131CPFFUSD023   000004302610000000000430261000000000043026100000NPP     20230131091313        
20230131CPFFUSD024   000004302920000000000430292000000000043029200000NPP     20230131091313        
20230131CPFFUSD025   000004303200000000000430320000000000043032000000NPP     20230131091313        
20230131CPFFUSD026   000004303460000000000430346000000000043034600000NPP     20230131091313        
20230131CPFFUSD027   000004303330000000000430333000000000043033300000NPP     20230131091313        
20230131CPFFUSD028   000004303570000000000430357000000000043035700000NPP     20230131091313        
20230131CPFFUSD029   000004303450000000000430345000000000043034500000NPP     20230131091313        
20230131CPFFUSD030   000004303330000000000430333000000000043033300000NPP     20230131091313        
20230131CPFFUSD031   000004303230000000000430323000000000043032300000NPP     20230131091313        
20230131CPFFUSD032   000004303130000000000430313000000000043031300000NPP     20230131091313        
20230131CPFFUSD033   000004303030000000000430303000000000043030300000NPP     20230131091313        
20230131CPFFUSD034   000004302940000000000430294000000000043029400000NPP     20230131091313        
20230131CPFFUSD035   000004302860000000000430286000000000043028600000NPP     20230131091313        
20230131CPFFUSD036   000004302780000000000430278000000000043027800000NPP     20230131091313        
20230131CPFFUSD037   000004302700000000000430270000000000043027000000NPP     20230131091313        
20230131CPFFUSD038   000004302630000000000430263000000000043026300000NPP     20230131091313        
20230131CPFFUSD039   000004302560000000000430256000000000043025600000NPP     20230131091313        
20230131CPFFUSD040   000004302500000000000430250000000000043025000000NPP     20230131091313        
