20221121DEPOB121M    000014180000000000001418000000000000141800000000NPP     20221122054217        
20221121DEPOB121Y    000017971800000000001797180000000000179718000000NPP     20221122054217        
20221121DEPOB122M    000015160700000000001516070000000000151607000000NPP     20221122054217        
20221121DEPOB122W    000013518400000000001351840000000000135184000000NPP     20221122054217        
20221121DEPOB122Y    000017973700000000001797370000000000179737000000NPP     20221122054217        
20221121DEPOB123M    000015955800000000001595580000000000159558000000NPP     20221122054217        
20221121DEPOB123Y    000017999500000000001799950000000000179995000000NPP     20221122054217        
20221121DEPOB124Y    000018055800000000001805580000000000180558000000NPP     20221122054217        
20221121DEPOB125Y    000018096600000000001809660000000000180966000000NPP     20221122054217        
20221121DEPOB126M    000017287200000000001728720000000000172872000000NPP     20221122054217        
20221121DEPOB129M    000017804500000000001780450000000000178045000000NPP     20221122054217        
20221121DEPOB12ON    000012907400000000001290740000000000129074000000NPP     20221122054217        
20221121DEPOB12SW    000013198100000000001319810000000000131981000000NPP     20221122054217        
20221121DEPOB12TN    000013006000000000001300600000000000130060000000NPP     20221122054217        
20221121DEPOCOF1M    000010237641250000001023764125000000102376412500NPP     2022112205421720221221
20221121DEPOCOF1Y    000012742628480000001274262848000000127426284800NPP     2022112205421720231121
20221121DEPOCOF2M    000010654558040000001065455804000000106545580400NPP     2022112205421720230119
20221121DEPOCOF2W    000010155946690000001015594669000000101559466900NPP     2022112205421720221205
20221121DEPOCOF3M    000011216346160000001121634616000000112163461600NPP     2022112205421720230221
20221121DEPOCOF6M    000011947665470000001194766547000000119476654700NPP     2022112205421720230518
20221121DEPOCOF9M    000012458458710000001245845871000000124584587100NPP     2022112205421720230818
20221121DEPOCOFON    000010335029300000001033502930000000103350293000NPP     2022112205421720221122
20221121DEPOCOFSW    000010115895250000001011589525000000101158952500NPP     2022112205421720221128
20221121DTFPCOP1Y    000013278809490000001327880949000000132788094900NPP     2022112205421720231123
20221121DTFPCOP3M    000012040978190000001204097819000000120409781900NPP     2022112205421720230223
20221121DTFPCOP6M    000012331280990000001233128099000000123312809900NPP     2022112205421720230523
20221121DTFPCOP9M    000012432840240000001243284024000000124328402400NPP     2022112205421720230823
20221121DTFPCOPON    000011730000000000001173000000000000117300000000NPP     2022112205421720221122
20221121DEPOEUC10M   000002199286440000000219928644000000021992864400NPP     2022112205421720230925
20221121DEPOEUC11M   000002209469720000000220946972000000022094697200NPP     2022112205421720231023
20221121DEPOEUC1D    000013465921460000001346592146000000134659214600NPP     2022112205421720221122
20221121DEPOEUC1M    000001487594830000000148759483000000014875948300NPP     2022112205421720221223
20221121DEPOEUC1Y    000002269162260000000226916226000000022691622600NPP     2022112205421720231124
20221121DEPOEUC2M    000001010136720000000101013672000000010101367200NPP     2022112205421820230123
20221121DEPOEUC2W    000001688866880000000168886688000000016888668800NPP     2022112205421820221207
20221121DEPOEUC3D    000003199128970000000319912897000000031991289700NPP     2022112205421820221125
20221121DEPOEUC3M    000001361723950000000136172395000000013617239500NPP     2022112205421820230223
20221121DEPOEUC3W    000001619150110000000161915011000000016191501100NPP     2022112205421820221214
20221121DEPOEUC4M    000001583510570000000158351057000000015835105700NPP     2022112205421820230323
20221121DEPOEUC5M    000001701626650000000170162665000000017016266500NPP     2022112205421820230424
20221121DEPOEUC6M    000001837071000000000183707100000000018370710000NPP     2022112205421820230523
20221121DEPOEUC7M    000001970264960000000197026496000000019702649600NPP     2022112205421820230623
20221121DEPOEUC8M    000002013145370000000201314537000000020131453700NPP     2022112205421820230724
20221121DEPOEUC9M    000002112970310000000211297031000000021129703100NPP     2022112205421820230823
20221121DEPOEUCSW    000001918597430000000191859743000000019185974300NPP     2022112205421820221130
20221121IMGBGBP10M   000004011216530000000401121653000000040112165300NPP     2022112205421820230925
20221121IMGBGBP11M   000004026962780000000402696278000000040269627800NPP     2022112205421820231023
20221121IMGBGBP1M    000003090348440000000309034844000000030903484400NPP     2022112205421820221223
20221121IMGBGBP1Y    000004067338400000000406733840000000040673384000NPP     2022112205421820231124
20221121IMGBGBP2M    000002834026140000000283402614000000028340261400NPP     2022112205421820230123
20221121IMGBGBP2W    000003085821330000000308582133000000030858213300NPP     2022112205421820221207
20221121IMGBGBP3M    000003175340190000000317534019000000031753401900NPP     2022112205421820230223
20221121IMGBGBP3W    000003084244220000000308424422000000030842442200NPP     2022112205421820221214
20221121IMGBGBP4M    000003371592460000000337159246000000033715924600NPP     2022112205421820230323
20221121IMGBGBP5M    000003502726900000000350272690000000035027269000NPP     2022112205421820230424
20221121IMGBGBP6M    000003658555900000000365855590000000036585559000NPP     2022112205421820230523
20221121IMGBGBP7M    000003777007450000000377700745000000037770074500NPP     2022112205421820230623
20221121IMGBGBP8M    000003848484490000000384848449000000038484844900NPP     2022112205421820230724
20221121IMGBGBP9M    000003923037250000000392303725000000039230372500NPP     2022112205421820230823
20221121IMGBGBPON    000007454092720000000745409272000000074540927200NPP     2022112205421820221122
20221121IMGBGBPSW    000003142639780000000314263978000000031426397800NPP     2022112205421820221130
20221121IBR COP1M    000010481344310000001048134431000000104813443100NPP     2022112205421820221223
20221121IBR COP1Y    000012430435790000001243043579000000124304357900NPP     2022112205421820231123
20221121IBR COP3M    000011138137540000001113813754000000111381375400NPP     2022112205421820230223
20221121IBR COP6M    000011894185290000001189418529000000118941852900NPP     2022112205421820230523
20221121IBR COP9M    000012143439450000001214343945000000121434394500NPP     2022112205421820230823
20221121IBR COPON    000010299000000000001029900000000000102990000000NPP     2022112205421820221122
20221121IPECEUR10M   000001874006670000000187400667000000018740066700NPP     2022112205421820230925
20221121IPECEUR11M   000001900640100000000190064010000000019006401000NPP     2022112205421820231023
20221121IPECEUR1M    000001687674220000000168767422000000016876742200NPP     2022112205421820221223
20221121IPECEUR1W    000002136053760000000213605376000000021360537600NPP     2022112205421820221130
20221121IPECEUR1Y    000001640604630000000164060463000000016406046300NPP     2022112205421820231123
20221121IPECEUR2M    000001077042710000000107704271000000010770427100NPP     2022112205421820230123
20221121IPECEUR2W    000001908942900000000190894290000000019089429000NPP     2022112205421820221207
20221121IPECEUR3M    000001258853980000000125885398000000012588539800NPP     2022112205421820230223
20221121IPECEUR3W    -000005131578100-000005131578100-000005131578100NPP     2022112205421820210518
20221121IPECEUR4M    000001407367420000000140736742000000014073674200NPP     2022112205421820230323
20221121IPECEUR5M    000001561379820000000156137982000000015613798200NPP     2022112205421820230424
20221121IPECEUR6M    000001749889680000000174988968000000017498896800NPP     2022112205421820230523
20221121IPECEUR7M    000001758930480000000175893048000000017589304800NPP     2022112205421820230623
20221121IPECEUR8M    000001744135050000000174413505000000017441350500NPP     2022112205421820230724
20221121IPECEUR9M    000001802174700000000180217470000000018021747000NPP     2022112205421820230823
20221121IPECEURON    000013429889020000001342988902000000134298890200NPP     2022112205421820221122
20221121L12MUSD1Y    000005557497198400000555749719840000055574971984NPP     2022112205421820231124
20221121L12MUSDON    000003811430000000000381143000000000038114300000NPP     2022112205421820221122
20221121L1M USD18M   000004986907458000000498690745800000049869074580NPP     2022112205421820240523
20221121L1M USD1M    000003969316754200000396931675420000039693167542NPP     2022112205421820221223
20221121L1M USD1Y    000005050401901600000505040190160000050504019016NPP     2022112205421920231124
20221121L1M USD3M    000004383691362400000438369136240000043836913624NPP     2022112205421920230223
20221121L1M USD6M    000004805160149500000480516014950000048051601495NPP     2022112205421920230523
20221121L1M USD9M    000004992126976200000499212697620000049921269762NPP     2022112205421920230823
20221121L1M USDON    000003811430000000000381143000000000038114300000NPP     2022112205421920221122
20221121L3M USD18M   000005142985491400000514298549140000051429854914NPP     2022112205421920240523
20221121L3M USD3M    000004609228405700000460922840570000046092284057NPP     2022112205421920230223
20221121L3M USD6M    000004961443508300000496144350830000049614435083NPP     2022112205421920230523
20221121L3M USD9M    000005130886920900000513088692090000051308869209NPP     2022112205421920230823
20221121L3M USDON    000003811430000000000381143000000000038114300000NPP     2022112205421920221122
20221121L6M USD18M   000005310796120000000531079612000000053107961200NPP     2022112205421920240523
20221121L6M USD1Y    000005361561510000000536156151000000053615615100NPP     2022112205421920231124
20221121L6M USD6M    000005157788170000000515778817000000051577881700NPP     2022112205421920230523
20221121L6M USDON    000003811430000000000381143000000000038114300000NPP     2022112205421920221122
20221121DEPOV1 1M    -000014533926800-000014533926800-000014533926800NPP     2022112205421920160224
20221121DEPOV1 1Y    000000178548050000000017854805000000001785480500NPP     2022112205421920170124
20221121DEPOV1 2M    -000012097852400-000012097852400-000012097852400NPP     2022112205421920160322
20221121DEPOV1 2W    -000015269419800-000015269419800-000015269419800NPP     2022112205421920160205
20221121DEPOV1 3M    -000010336581300-000010336581300-000010336581300NPP     2022112205421920160422
20221121DEPOV1 6M    -000005571508000-000005571508000-000005571508000NPP     2022112205421920160722
20221121DEPOV1 9M    -000002128617300-000002128617300-000002128617300NPP     2022112205421920161024
20221121DEPOV1 ON    -000017700000000-000017700000000-000017700000000NPP     2022112205421920160123
20221121DEPOV1 SW    -000017270021000-000017270021000-000017270021000NPP     2022112205421920160129
20221121IBL USD1M    000004155463560000000415546356000000041554635600NPP     2022112205421920221221
20221121IBL USD1W    000004043937750000000404393775000000040439377500NPP     2022112205421920221128
20221121IBL USD1Y    000004586786500000000458678650000000045867865000NPP     2022112205421920231121
20221121IBL USD2M    000004200435340000000420043534000000042004353400NPP     2022112205421920230119
20221121IBL USD2W    000004074900030000000407490003000000040749000300NPP     2022112205421920221205
20221121IBL USD3M    000004177854810000000417785481000000041778548100NPP     2022112205421920230221
20221121IBL USD6M    000004507898280000000450789828000000045078982800NPP     2022112205421920230518
20221121IBL USD9M    000004486251350000000448625135000000044862513500NPP     2022112205421920230818
20221121IBL USDON    000003763977230000000376397723000000037639772300NPP     2022112205421920221122
20221121IUV UVR18M   000003914202320000000391420232000000039142023200NPP     2022112205421920240523
20221121IUV UVR1M    000001219406740000000121940674000000012194067400NPP     2022112205421920221223
20221121IUV UVR1Y    000004081232330000000408123233000000040812323300NPP     2022112205421920231123
20221121IUV UVR3M    -000032735996800-000032735996800-000032735996800NPP     2022112205421920230223
20221121IUV UVR6M    000000414040700000000041404070000000004140407000NPP     2022112205421920230523
20221121IUV UVR9M    000001793347030000000179334703000000017933470300NPP     2022112205421920230823
20221121IUV UVRON    000001681342610000000168134261000000016813426100NPP     2022112205421920221122
20221121DEPOUSD10M   000004851734820000000485173482000000048517348200NPP     2022112205421920230925
20221121DEPOUSD11M   000004866968200000000486696820000000048669682000NPP     2022112205421920231023
20221121DEPOUSD1M    000003936050690000000393605069000000039360506900NPP     2022112205421920221223
20221121DEPOUSD1Y    000004884377780000000488437778000000048843777800NPP     2022112205421920231124
20221121DEPOUSD2M    000004111451640000000411145164000000041114516400NPP     2022112205421920230123
20221121DEPOUSD2W    000003864517840000000386451784000000038645178400NPP     2022112205421920221207
20221121DEPOUSD3M    000004286852590000000428685259000000042868525900NPP     2022112205421920230223
20221121DEPOUSD3W    000003894626170000000389462617000000038946261700NPP     2022112205421920221214
20221121DEPOUSD4M    000004425082890000000442508289000000044250828900NPP     2022112205421920230323
20221121DEPOUSD5M    000004525356500000000452535650000000045253565000NPP     2022112205421920230424
20221121DEPOUSD6M    000004616229460000000461622946000000046162294600NPP     2022112205421920230523
20221121DEPOUSD7M    000004710221370000000471022137000000047102213700NPP     2022112205421920230623
20221121DEPOUSD8M    000004758565070000000475856507000000047585650700NPP     2022112205421920230724
20221121DEPOUSD9M    000004805349290000000480534929000000048053492900NPP     2022112205421920230823
20221121DEPOUSDON    000003800000000000000380000000000000038000000000NPP     2022112205421920221122
20221121DEPOUSDSW    000003834409520000000383440952000000038344095200NPP     2022112205421920221130
20221121UIBRUSD1M    000004155463560000000415546356000000041554635600NPP     2022112205421920221221
20221121UIBRUSD1W    000004043937750000000404393775000000040439377500NPP     2022112205422020221128
20221121UIBRUSD1Y    000004586786500000000458678650000000045867865000NPP     2022112205422020231121
20221121UIBRUSD2M    000004200435340000000420043534000000042004353400NPP     2022112205422020230119
20221121UIBRUSD2W    000004074900030000000407490003000000040749000300NPP     2022112205422020221205
20221121UIBRUSD3M    000004177854810000000417785481000000041778548100NPP     2022112205422020230221
20221121UIBRUSD6M    000004507898280000000450789828000000045078982800NPP     2022112205422020230518
20221121UIBRUSD9M    000004486251350000000448625135000000044862513500NPP     2022112205422020230818
20221121UIBRUSDON    000003763977230000000376397723000000037639772300NPP     2022112205422020221122
20221121SRTMUSD1Y    000004863040000000000486304000000000048630400000NPP     20221121211140        
20221121DEPOCOF10Y   000014931489270000001493148927000000149314892700NPP     2022112205422020321123
20221121DEPOCOF12Y   000017012131370000001701213137000000170121313700NPP     2022112205422020341124
20221121DEPOCOF15Y   000020544651170000002054465117000000205446511700NPP     2022112205422020371123
20221121DEPOCOF18M   000013081926080000001308192608000000130819260800NPP     2022112205422020240521
20221121DEPOCOF20Y   000028291220350000002829122035000000282912203500NPP     2022112205422020421124
20221121DEPOCOF25Y   000038688834230000003868883423000000386888342300NPP     2022112205422020471125
20221121DEPOCOF2Y    000011630528830000001163052883000000116305288300NPP     2022112205422020241125
20221121DEPOCOF3Y    000011616394290000001161639429000000116163942900NPP     2022112205422020251124
20221121DEPOCOF4Y    000011637703190000001163770319000000116377031900NPP     2022112205422020261123
20221121DEPOCOF5Y    000011961859600000001196185960000000119618596000NPP     2022112205422020271123
20221121DEPOCOF6Y    000012243019320000001224301932000000122430193200NPP     2022112205422020281124
20221121DEPOCOF7Y    000012359742910000001235974291000000123597429100NPP     2022112205422020291123
20221121DEPOCOF8Y    000013479321240000001347932124000000134793212400NPP     2022112205422020301125
20221121DEPOCOF9Y    000014367575000000001436757500000000143675750000NPP     2022112205422020311124
20221121DTFPCOP10Y   000017748979470000001774897947000000177489794700NPP     2022112205422020321123
20221121DTFPCOP2Y    000012719054330000001271905433000000127190543300NPP     2022112205422120241125
20221121DTFPCOP3Y    000012987950000000001298795000000000129879500000NPP     2022112205422120251124
20221121DTFPCOP4Y    000013248366380000001324836638000000132483663800NPP     2022112205422120261123
20221121DTFPCOP5Y    000013599920170000001359992017000000135999201700NPP     2022112205422120271123
20221121DTFPCOP6Y    000014088460090000001408846009000000140884600900NPP     2022112205422120281123
20221121DTFPCOP7Y    000014848531270000001484853127000000148485312700NPP     2022112205422120291123
20221121DTFPCOP8Y    000015677282220000001567728222000000156772822200NPP     2022112205422120301125
20221121DTFPCOP9Y    000016614808010000001661480801000000166148080100NPP     2022112205422120311124
20221121ESTRUSD10M   000002501020460000000250102046000000025010204600NPP     2022112205422120230925
20221121ESTRUSD10Y   000002750558620000000275055862000000027505586200NPP     2022112205422120321123
20221121ESTRUSD11M   000002537406880000000253740688000000025374068800NPP     2022112205422120231023
20221121ESTRUSD12Y   000002872964810000000287296481000000028729648100NPP     2022112205422120341123
20221121ESTRUSD15Y   000002998536270000000299853627000000029985362700NPP     2022112205422120371123
20221121ESTRUSD18M   000002630219150000000263021915000000026302191500NPP     2022112205422120240523
20221121ESTRUSD1M    000001442401600000000144240160000000014424016000NPP     2022112205422120221223
20221121ESTRUSD1W    000001404887640000000140488764000000014048876400NPP     2022112205422120221130
20221121ESTRUSD1Y    000002570803270000000257080327000000025708032700NPP     2022112205422120231123
20221121ESTRUSD20Y   000002990431630000000299043163000000029904316300NPP     2022112205422120421124
20221121ESTRUSD25Y   000002858864660000000285886466000000028588646600NPP     2022112205422120471125
20221121ESTRUSD2M    000001710364330000000171036433000000017103643300NPP     2022112205422120230123
20221121ESTRUSD2W    000001405050350000000140505035000000014050503500NPP     2022112205422120221207
20221121ESTRUSD2Y    000002646357570000000264635757000000026463575700NPP     2022112205422120241125
20221121ESTRUSD3M    000001862952170000000186295217000000018629521700NPP     2022112205422120230223
20221121ESTRUSD3Y    000002585715950000000258571595000000025857159500NPP     2022112205422120251124
20221121ESTRUSD4M    000001982500880000000198250088000000019825008800NPP     2022112205422120230323
20221121ESTRUSD4Y    000002554507790000000255450779000000025545077900NPP     2022112205422120261123
20221121ESTRUSD5M    000002125907620000000212590762000000021259076200NPP     2022112205422120230424
20221121ESTRUSD5Y    000002560381830000000256038183000000025603818300NPP     2022112205422120271123
20221121ESTRUSD6M    000002223114570000000222311457000000022231145700NPP     2022112205422120230523
20221121ESTRUSD7M    000002313345060000000231334506000000023133450600NPP     2022112205422120230623
20221121ESTRUSD7Y    000002598488750000000259848875000000025984887500NPP     2022112205422120291123
20221121ESTRUSD8M    000002389072980000000238907298000000023890729800NPP     2022112205422120230724
20221121ESTRUSD9M    000002448285400000000244828540000000024482854000NPP     2022112205422120230823
20221121ESTRUSDON    000001403000000000000140300000000000014030000000NPP     2022112205422120221122
20221121FFE USD10M   000004875523020000000487552302000000048755230200NPP     2022112205422120230925
20221121FFE USD10Y   000004091027490000000409102749000000040910274900NPP     2022112205422120321123
20221121FFE USD11M   000004899088560000000489908856000000048990885600NPP     2022112205422120231023
20221121FFE USD12Y   000004217832400000000421783240000000042178324000NPP     2022112205422120341124
20221121FFE USD15Y   000004474793130000000447479313000000044747931300NPP     2022112205422120371123
20221121FFE USD1M    000003974993930000000397499393000000039749939300NPP     2022112205422120221223
20221121FFE USD1W    000003835545600000000383554560000000038355456000NPP     2022112205422120221130
20221121FFE USD1Y    000004913009850000000491300985000000049130098500NPP     2022112205422120231124
20221121FFE USD20Y   000004753231480000000475323148000000047532314800NPP     2022112205422120421124
20221121FFE USD25Y   000004798768600000000479876860000000047987686000NPP     2022112205422120471125
20221121FFE USD2M    000004185343640000000418534364000000041853436400NPP     2022112205422120230123
20221121FFE USD2W    000003837456340000000383745634000000038374563400NPP     2022112205422120221207
20221121FFE USD2Y    000004654152960000000465415296000000046541529600NPP     2022112205422120241125
20221121FFE USD3M    000004342497580000000434249758000000043424975800NPP     2022112205422120230223
20221121FFE USD3W    000003855370790000000385537079000000038553707900NPP     2022112205422120221214
20221121FFE USD3Y    000004317746750000000431774675000000043177467500NPP     2022112205422120251124
20221121FFE USD4M    000004450334760000000445033476000000044503347600NPP     2022112205422120230323
20221121FFE USD4Y    000004129793400000000412979340000000041297934000NPP     2022112205422120261123
20221121FFE USD5M    000004571151310000000457115131000000045711513100NPP     2022112205422120230424
20221121FFE USD5Y    000004042368470000000404236847000000040423684700NPP     2022112205422120271123
20221121FFE USD6M    000004658971770000000465897177000000046589717700NPP     2022112205422120230523
20221121FFE USD7M    000004734188680000000473418868000000047341886800NPP     2022112205422220230623
20221121FFE USD7Y    000003991774200000000399177420000000039917742000NPP     2022112205422220291123
20221121FFE USD8M    000004794142570000000479414257000000047941425700NPP     2022112205422220230724
20221121FFE USD9M    000004838272800000000483827280000000048382728000NPP     2022112205422220230823
20221121FFE USDON    000003830000000000000383000000000000038300000000NPP     2022112205422220221122
20221121IMGBGBP15M   000004126227620000000412622762000000041262276200NPP     2022112205422220240223
20221121IMGBGBP18M   000004151895350000000415189535000000041518953500NPP     2022112205422220240523
20221121IMGBGBP21M   000004138186000000000413818600000000041381860000NPP     2022112205422220240823
20221121IMGBGBP2Y    000004138747610000000413874761000000041387476100NPP     2022112205422220241125
20221121IMGBGBP3Y    000004046015680000000404601568000000040460156800NPP     2022112205422220251124
20221121IMGBGBP4Y    000003955479040000000395547904000000039554790400NPP     2022112205422220261123
20221121IMGBGBP5Y    000003854400290000000385440029000000038544002900NPP     2022112205422220271123
20221121IBL USD10Y   000003288877470000000328887747000000032888774700NPP     2022112205422220321123
20221121IBL USD2Y    000003991547370000000399154737000000039915473700NPP     2022112205422220241125
20221121IBL USD3Y    000003498967260000000349896726000000034989672600NPP     2022112205422220251124
20221121IBL USD4Y    000003245438620000000324543862000000032454386200NPP     2022112205422220261123
20221121IBL USD5Y    000003210866980000000321086698000000032108669800NPP     2022112205422220271123
20221121IBL USD6Y    000003172546090000000317254609000000031725460900NPP     2022112205422220281124
20221121IBL USD7Y    000003009886930000000300988693000000030098869300NPP     2022112205422220291123
20221121IBL USD8Y    000003212287340000000321228734000000032122873400NPP     2022112205422220301125
20221121IBL USD9Y    000003309510100000000330951010000000033095101000NPP     2022112205422220311124
20221121IBR COP10Y   000017962948040000001796294804000000179629480400NPP     2022112205422220321123
20221121IBR COP12Y   000020467331020000002046733102000000204673310200NPP     2022112205422220341123
20221121IBR COP15Y   000024713551240000002471355124000000247135512400NPP     2022112205422220371123
20221121IBR COP18M   000012583846620000001258384662000000125838466200NPP     2022112205422220240523
20221121IBR COP20Y   000036670052780000003667005278000000366700527800NPP     2022112205422220421124
20221121IBR COP2Y    000012657023360000001265702336000000126570233600NPP     2022112205422220241125
20221121IBR COP3Y    000012972988690000001297298869000000129729886900NPP     2022112205422220251124
20221121IBR COP4Y    000013264365270000001326436527000000132643652700NPP     2022112205422220261123
20221121IBR COP5Y    000013657646350000001365764635000000136576463500NPP     2022112205422220271123
20221121IBR COP6Y    000014175857840000001417585784000000141758578400NPP     2022112205422220281123
20221121IBR COP7Y    000014947670580000001494767058000000149476705800NPP     2022112205422220291123
20221121IBR COP8Y    000015823420060000001582342006000000158234200600NPP     2022112205422220301125
20221121IBR COP9Y    000016780930980000001678093098000000167809309800NPP     2022112205422220311124
20221121IPECEUR10Y   000001800669810000000180066981000000018006698100NPP     2022112205422220321123
20221121IPECEUR12Y   000001986847420000000198684742000000019868474200NPP     2022112205422220341123
20221121IPECEUR2Y    000001844363230000000184436323000000018443632300NPP     2022112205422220241125
20221121IPECEUR3Y    000001634539640000000163453964000000016345396400NPP     2022112205422220251124
20221121IPECEUR4Y    000001533843040000000153384304000000015338430400NPP     2022112205422220261123
20221121IPECEUR5Y    000001586352180000000158635218000000015863521800NPP     2022112205422220271123
20221121IPECEUR6Y    000001614289570000000161428957000000016142895700NPP     2022112205422220281123
20221121IPECEUR7Y    000001505102030000000150510203000000015051020300NPP     2022112205422220291123
20221121IPECEUR8Y    000001711405180000000171140518000000017114051800NPP     2022112205422220301125
20221121IPECEUR9Y    000001812623490000000181262349000000018126234900NPP     2022112205422220311124
20221121CPI COP100M  000196108789370700019610878937070001961087893707NPP     2022112205422220310325
20221121CPI COP101M  000197167776833300019716777683330001971677768333NPP     2022112205422220310423
20221121CPI COP102M  000198271916383500019827191638350001982719163835NPP     2022112205422320310523
20221121CPI COP103M  000199342584732000019934258473200001993425847320NPP     2022112205422320310624
20221121CPI COP104M  000200458903206500020045890320650002004589032065NPP     2022112205422320310723
20221121CPI COP105M  000201581473064400020158147306440002015814730644NPP     2022112205422320310825
20221121CPI COP106M  000202670013019000020267001301900002026700130190NPP     2022112205422320310923
20221121CPI COP107M  000203804965091900020380496509190002038049650919NPP     2022112205422320311023
20221121CPI COP108M  000204579423959300020457942395930002045794239593NPP     2022112205422320311124
20221121CPI COP109M  000205254536058300020525453605830002052545360583NPP     2022112205422320311223
20221121CPI COP10M   000132817994274000013281799427400001328179942740NPP     2022112205422320230925
20221121CPI COP110M  000205911350573700020591135057370002059113505737NPP     2022112205422320320123
20221121CPI COP111M  000206529084625400020652908462540002065290846254NPP     2022112205422320320223
20221121CPI COP112M  000207169324787800020716932478780002071693247878NPP     2022112205422320320323
20221121CPI COP113M  000207790832762100020779083276210002077908327621NPP     2022112205422320320423
20221121CPI COP114M  000208434984343700020843498434370002084349843437NPP     2022112205422320320524
20221121CPI COP115M  000209060289296700020906028929670002090602892967NPP     2022112205422320320623
20221121CPI COP116M  000209687470164600020968747016460002096874701646NPP     2022112205422320320723
20221121CPI COP117M  000210316532575100021031653257510002103165325751NPP     2022112205422320320823
20221121CPI COP118M  000210926450519600021092645051960002109264505196NPP     2022112205422320320923
20221121CPI COP119M  000211538137226100021153813722610002115381372261NPP     2022112205422320321025
20221121CPI COP11M   000132857839672300013285783967230001328578396723NPP     2022112205422320231023
20221121CPI COP120M  000212426597402400021242659740240002124265974024NPP     2022112205422320321123
20221121CPI COP121M  000213467487729700021346748772970002134674877297NPP     2022112205422320321223
20221121CPI COP122M  000214513478419600021451347841960002145134784196NPP     2022112205422320330124
20221121CPI COP123M  000215457337724600021545733772460002154573377246NPP     2022112205422320330223
20221121CPI COP124M  000216491532945700021649153294570002164915329457NPP     2022112205422320330323
20221121CPI COP125M  000217509043150500021750904315050002175090431505NPP     2022112205422320330425
20221121CPI COP126M  000218553086557700021855308655770002185530865577NPP     2022112205422320330523
20221121CPI COP127M  000219558430755800021955843075580002195584307558NPP     2022112205422320330623
20221121CPI COP128M  000220612311223500022061231122350002206123112235NPP     2022112205422320330725
20221121CPI COP129M  000221649189086200022164918908620002216491890862NPP     2022112205422320330823
20221121CPI COP12M   000133468985734700013346898573470001334689857347NPP     2022112205422320231123
20221121CPI COP130M  000222668775356000022266877535600002226687753560NPP     2022112205422320330923
20221121CPI COP131M  000223715318600200022371531860020002237153186002NPP     2022112205422320331024
20221121CPI COP132M  000224722037533900022472203753390002247220375339NPP     2022112205422320331123
20221121CPI COP133M  000225778231110300022577823111030002257782311103NPP     2022112205422320331223
20221121CPI COP134M  000226816810973400022681681097340002268168109734NPP     2022112205422320340123
20221121CPI COP135M  000227769441579500022776944157950002277694415795NPP     2022112205422320340223
20221121CPI COP136M  000228817181010800022881718101080002288171810108NPP     2022112205422320340323
20221121CPI COP137M  000229823976607200022982397660720002298239766072NPP     2022112205422320340424
20221121CPI COP138M  000230858184501900023085818450190002308581845019NPP     2022112205422320340523
20221121CPI COP139M  000231873960513700023187396051370002318739605137NPP     2022112205422320340623
20221121CPI COP13M   000134363227939200013436322793920001343632279392NPP     2022112205422320231226
20221121CPI COP140M  000232917393336100023291739333610002329173933361NPP     2022112205422320340724
20221121CPI COP141M  000233965521606100023396552160610002339655216061NPP     2022112205422320340823
20221121CPI COP142M  000234971573349000023497157334900002349715733490NPP     2022112205422320340925
20221121CPI COP143M  000236005448271700023600544827170002360054482717NPP     2022112205422320341023
20221121CPI COP144M  000237091073333800023709107333380002370910733338NPP     2022112205422320341123
20221121CPI COP145M  000238252819593100023825281959310002382528195931NPP     2022112205422320341226
20221121CPI COP146M  000239420258409100023942025840910002394202584091NPP     2022112205422320350123
20221121CPI COP147M  000240473707546100024047370754610002404737075461NPP     2022112205422320350223
20221121CPI COP148M  000241627981342300024162798134230002416279813423NPP     2022112205422320350326
20221121CPI COP149M  000242739470056500024273947005650002427394700565NPP     2022112205422320350423
20221121CPI COP14M   000135263461566400013526346156640001352634615664NPP     2022112205422320240123
20221121CPI COP150M  000243904619512800024390461951280002439046195128NPP     2022112205422320350523
20221121CPI COP151M  000245026580762500024502658076250002450265807625NPP     2022112205422320350625
20221121CPI COP152M  000246178205692100024617820569210002461782056921NPP     2022112205422320350723
20221121CPI COP153M  000247335243258900024733524325890002473352432589NPP     2022112205422320350823
20221121CPI COP154M  000248448251853500024844825185350002484482518535NPP     2022112205422320350924
20221121CPI COP155M  000249615958637200024961595863720002496159586372NPP     2022112205422320351023
20221121CPI COP156M  000250739230451100025073923045110002507392304511NPP     2022112205422320351123
20221121CPI COP157M  000251892630911200025189263091120002518926309112NPP     2022112205422320351224
20221121CPI COP158M  000253051337013400025305133701340002530513370134NPP     2022112205422320360123
20221121CPI COP159M  000254139457762500025413945776250002541394577625NPP     2022112205422320360225
20221121CPI COP15M   000136102095028100013610209502810001361020950281NPP     2022112205422320240223
20221121CPI COP160M  000255283085322500025528308532250002552830853225NPP     2022112205422320360325
20221121CPI COP161M  000256406330897900025640633089790002564063308979NPP     2022112205422320360423
20221121CPI COP162M  000257560159386900025756015938690002575601593869NPP     2022112205422320360523
20221121CPI COP163M  000258667668072300025866766807230002586676680723NPP     2022112205422320360624
20221121CPI COP164M  000259831672578600025983167257860002598316725786NPP     2022112205422320360723
20221121CPI COP165M  000260974931938000026097493193800002609749319380NPP     2022112205422320360825
20221121CPI COP166M  000262097124145300026209712414530002620971241453NPP     2022112205422320360923
20221121CPI COP167M  000263250351491500026325035149150002632503514915NPP     2022112205422320361023
20221121CPI COP168M  000264356002967800026435600296780002643560029678NPP     2022112205422320361124
20221121CPI COP169M  000265492733780600026549273378060002654927337806NPP     2022112205422320361223
20221121CPI COP16M   000137013979064800013701397906480001370139790648NPP     2022112205422320240326
20221121CPI COP170M  000266634352535800026663435253580002666343525358NPP     2022112205422320370123
20221121CPI COP171M  000267674226510700026767422651070002676742265107NPP     2022112205422320370223
20221121CPI COP172M  000268825225684700026882522568470002688252256847NPP     2022112205422420370324
20221121CPI COP173M  000269927409110000026992740911000002699274091100NPP     2022112205422420370423
20221121CPI COP174M  000271061104228300027106110422830002710611042283NPP     2022112205422420370525
20221121CPI COP175M  000272172454755600027217245475560002721724547556NPP     2022112205422420370623
20221121CPI COP176M  000273315579065600027331557906560002733155790656NPP     2022112205422420370723
20221121CPI COP177M  000274463504497600027446350449760002744635044976NPP     2022112205422420370824
20221121CPI COP17M   000137904569928700013790456992870001379045699287NPP     2022112205422420240423
20221121CPI COP18M   000138842321004200013884232100420001388423210042NPP     2022112205422420240523
20221121CPI COP19M   000139772564554900013977256455490001397725645549NPP     2022112205422420240624
20221121CPI COP1M    000124905663000000012490566300000001249056630000NPP     2022112205422420221223
20221121CPI COP20M   000140736995250400014073699525040001407369952504NPP     2022112205422420240723
20221121CPI COP21M   000141708080517600014170808051760001417080805176NPP     2022112205422420240823
20221121CPI COP22M   000142657524657000014265752465700001426575246570NPP     2022112205422420240923
20221121CPI COP23M   000143656127329600014365612732960001436561273296NPP     2022112205422420241023
20221121CPI COP24M   000144460601642700014446060164270001444606016427NPP     2022112205422420241125
20221121CPI COP25M   000145211796771200014521179677120001452117967712NPP     2022112205422420241223
20221121CPI COP26M   000145937855755100014593785575510001459378557551NPP     2022112205422420250123
20221121CPI COP27M   000146594576106000014659457610600001465945761060NPP     2022112205422420250224
20221121CPI COP28M   000147298230071300014729823007130001472982300713NPP     2022112205422420250325
20221121CPI COP29M   000147975801929600014797580192960001479758019296NPP     2022112205422420250423
20221121CPI COP2M    000126866681909100012686668190910001268666819091NPP     2022112205422420230123
20221121CPI COP30M   000148656490618500014865649061850001486564906185NPP     2022112205422420250523
20221121CPI COP31M   000149310579177200014931057917720001493105791772NPP     2022112205422420250624
20221121CPI COP32M   000149967545725600014996754572560001499675457256NPP     2022112205422420250723
20221121CPI COP33M   000150612406172200015061240617220001506124061722NPP     2022112205422420250825
20221121CPI COP34M   000151229917037500015122991703750001512299170375NPP     2022112205422420250923
20221121CPI COP35M   000151849959697400015184995969740001518499596974NPP     2022112205422420251023
20221121CPI COP36M   000152426989544200015242698954420001524269895442NPP     2022112205422420251124
20221121CPI COP37M   000153006212104500015300621210450001530062121045NPP     2022112205422420251223
20221121CPI COP38M   000153572335089300015357233508930001535723350893NPP     2022112205422420260123
20221121CPI COP39M   000154079123795100015407912379510001540791237951NPP     2022112205422420260223
20221121CPI COP3M    000128198782069100012819878206910001281987820691NPP     2022112205422420230223
20221121CPI COP40M   000154618400728400015461840072840001546184007284NPP     2022112205422420260324
20221121CPI COP41M   000155128641450800015512864145080001551286414508NPP     2022112205422420260423
20221121CPI COP42M   000155640565967600015564056596760001556405659676NPP     2022112205422420260525
20221121CPI COP43M   000156123051722100015612305172210001561230517221NPP     2022112205422420260623
20221121CPI COP44M   000156607033182400015660703318240001566070331824NPP     2022112205422420260723
20221121CPI COP45M   000157092514985300015709251498530001570925149853NPP     2022112205422420260824
20221121CPI COP46M   000157548083278700015754808327870001575480832787NPP     2022112205422420260923
20221121CPI COP47M   000158004972720200015800497272020001580049727202NPP     2022112205422420261023
20221121CPI COP48M   000158526389130200015852638913020001585263891302NPP     2022112205422420261123
20221121CPI COP49M   000159097084131100015909708413110001590970841311NPP     2022112205422420261223
20221121CPI COP4M    000129134633178200012913463317820001291346331782NPP     2022112205422420230323
20221121CPI COP50M   000159653923925500015965392392550001596539239255NPP     2022112205422420270125
20221121CPI COP51M   000160148851089700016014885108970001601488510897NPP     2022112205422420270223
20221121CPI COP52M   000160693357183400016069335718340001606933571834NPP     2022112205422420270323
20221121CPI COP53M   000161207575926400016120757592640001612075759264NPP     2022112205422420270423
20221121CPI COP54M   000161739560926900016173956092690001617395609269NPP     2022112205422420270524
20221121CPI COP55M   000162240953565800016224095356580001622409535658NPP     2022112205422420270623
20221121CPI COP56M   000162760124617200016276012461720001627601246172NPP     2022112205422420270723
20221121CPI COP57M   000163264681003500016326468100350001632646810035NPP     2022112205422420270823
20221121CPI COP58M   000163754475046600016375447504660001637544750466NPP     2022112205422420270923
20221121CPI COP59M   000164245738471700016424573847170001642457384717NPP     2022112205422420271025
20221121CPI COP5M    000129819046734100012981904673410001298190467341NPP     2022112205422420230424
20221121CPI COP60M   000164951995147100016495199514710001649519951471NPP     2022112205422420271123
20221121CPI COP61M   000165760259923300016576025992330001657602599233NPP     2022112205422420271223
20221121CPI COP62M   000166572485197000016657248519700001665724851970NPP     2022112205422420280124
20221121CPI COP63M   000167338718628900016733871862890001673387186289NPP     2022112205422420280223
20221121CPI COP64M   000168158678350200016815867835020001681586783502NPP     2022112205422420280323
20221121CPI COP65M   000168949024138400016894902413840001689490241384NPP     2022112205422420280424
20221121CPI COP66M   000169776874356700016977687435670001697768743567NPP     2022112205422420280523
20221121CPI COP67M   000170574825666200017057482566620001705748256662NPP     2022112205422420280623
20221121CPI COP68M   000171410642311900017141064231190001714106423119NPP     2022112205422420280724
20221121CPI COP69M   000172250554459200017225055445920001722505544592NPP     2022112205422420280823
20221121CPI COP6M    000130649888633200013064988863320001306498886332NPP     2022112205422420230523
20221121CPI COP70M   000173060132065200017306013206520001730601320652NPP     2022112205422420280925
20221121CPI COP71M   000173908126712300017390812671230001739081267123NPP     2022112205422420281023
20221121CPI COP72M   000174568977593800017456897759380001745689775938NPP     2022112205422420281123
20221121CPI COP73M   000175197425913200017519742591320001751974259132NPP     2022112205422420281226
20221121CPI COP74M   000175810616903900017581061690390001758106169039NPP     2022112205422420290123
20221121CPI COP75M   000176373210878000017637321087800001763732108780NPP     2022112205422420290223
20221121CPI COP76M   000176990517116000017699051711600001769905171160NPP     2022112205422420290323
20221121CPI COP77M   000177574585822500017757458582250001775745858225NPP     2022112205422420290423
20221121CPI COP78M   000178178339414300017817833941430001781783394143NPP     2022112205422520290523
20221121CPI COP79M   000178766327934400017876632793440001787663279344NPP     2022112205422520290625
20221121CPI COP7M    000131459917942700013145991794270001314599179427NPP     2022112205422520230623
20221121CPI COP80M   000179356256816600017935625681660001793562568166NPP     2022112205422520290723
20221121CPI COP81M   000179948132464100017994813246410001799481324641NPP     2022112205422520290823
20221121CPI COP82M   000180505971674700018050597167470001805059716747NPP     2022112205422520290924
20221121CPI COP83M   000181083590784100018108359078410001810835907841NPP     2022112205422520291023
20221121CPI COP84M   000181826033506300018182603350630001818260335063NPP     2022112205422520291123
20221121CPI COP85M   000182662433260400018266243326040001826624332604NPP     2022112205422520291224
20221121CPI COP86M   000183502680453400018350268045340001835026804534NPP     2022112205422520300123
20221121CPI COP87M   000184255041443300018425504144330001842550414433NPP     2022112205422520300225
20221121CPI COP88M   000185084189129800018508418912980001850841891298NPP     2022112205422520300326
20221121CPI COP89M   000185898559561900018589855956190001858985595619NPP     2022112205422520300423
20221121CPI COP8M    000132209239475000013220923947500001322092394750NPP     2022112205422520230724
20221121CPI COP90M   000186735103080000018673510308000001867351030800NPP     2022112205422520300523
20221121CPI COP91M   000187556737533500018755673753350001875567375335NPP     2022112205422520300625
20221121CPI COP92M   000188400742852400018840074285240001884007428524NPP     2022112205422520300723
20221121CPI COP93M   000189248546195200018924854619520001892485461952NPP     2022112205422520300823
20221121CPI COP94M   000190062314943900019006231494390001900623149439NPP     2022112205422520300923
20221121CPI COP95M   000190898589129600019089858912960001908985891296NPP     2022112205422520301023
20221121CPI COP96M   000191872171934200019187217193420001918721719342NPP     2022112205422520301125
20221121CPI COP97M   000192946656097000019294665609700001929466560970NPP     2022112205422520301223
20221121CPI COP98M   000194027157371200019402715737120001940271573712NPP     2022112205422520310123
20221121CPI COP99M   000195016695873800019501669587380001950166958738NPP     2022112205422520310224
20221121CPI COP9M    000132632309041300013263230904130001326323090413NPP     2022112205422520230823
20221121CPI COPON    000123510000000000012351000000000001235100000000NPP     2022112205422520221122
20221121L12MUSD10Y   000005003005189000000500300518900000050030051890NPP     2022112205422520321123
20221121L12MUSD12Y   000005287557579400000528755757940000052875575794NPP     2022112205422520341124
20221121L12MUSD15Y   000005698049757200000569804975720000056980497572NPP     2022112205422520371123
20221121L12MUSD20Y   000006035960439600000603596043960000060359604396NPP     2022112205422520421124
20221121L12MUSD25Y   000006530812700500000653081270050000065308127005NPP     2022112205422520471125
20221121L12MUSD2Y    000005379337273000000537933727300000053793372730NPP     2022112205422520241125
20221121L12MUSD30Y   000006476687955200000647668795520000064766879552NPP     2022112205422520521125
20221121L12MUSD3Y    000005075731420600000507573142060000050757314206NPP     2022112205422520251124
20221121L12MUSD4Y    000004924325907200000492432590720000049243259072NPP     2022112205422520261123
20221121L12MUSD5Y    000004864659986400000486465998640000048646599864NPP     2022112205422520271123
20221121L12MUSD7Y    000004855337324600000485533732460000048553373246NPP     2022112205422520291123
20221121L1M USD10Y   000004234717546300000423471754630000042347175463NPP     2022112205422520321123
20221121L1M USD12Y   000004390885112000000439088511200000043908851120NPP     2022112205422520341124
20221121L1M USD15Y   000004656783003000000465678300300000046567830030NPP     2022112205422520371123
20221121L1M USD20Y   000004969804098900000496980409890000049698040989NPP     2022112205422520421124
20221121L1M USD25Y   000005107060306300000510706030630000051070603063NPP     2022112205422520471125
20221121L1M USD2Y    000004780347601200000478034760120000047803476012NPP     2022112205422520241125
20221121L1M USD30Y   000005175304359100000517530435910000051753043591NPP     2022112205422520521125
20221121L1M USD3Y    000004438460067300000443846006730000044384600673NPP     2022112205422520251124
20221121L1M USD4Y    000004255137624100000425513762410000042551376241NPP     2022112205422520261123
20221121L1M USD5Y    000004167344095400000416734409540000041673440954NPP     2022112205422520271123
20221121L1M USD7Y    000004126791104300000412679110430000041267911043NPP     2022112205422520291123
20221121L3M USD10Y   000004445132570000000444513257000000044451325700NPP     2022112205422520321123
20221121L3M USD11Y   000004530770320000000453077032000000045307703200NPP     2022112205422520331123
20221121L3M USD12Y   000004615930610000000461593061000000046159306100NPP     2022112205422520341124
20221121L3M USD13Y   000004710998210000000471099821000000047109982100NPP     2022112205422520351123
20221121L3M USD14Y   000004808802650000000480880265000000048088026500NPP     2022112205422520361124
20221121L3M USD15Y   000004907978900000000490797890000000049079789000NPP     2022112205422520371123
20221121L3M USD20Y   000005267189770000000526718977000000052671897700NPP     2022112205422520421124
20221121L3M USD25Y   000005445932920000000544593292000000054459329200NPP     2022112205422520471125
20221121L3M USD2Y    000004936167270000000493616727000000049361672700NPP     2022112205422520241125
20221121L3M USD30Y   000005556376020000000555637602000000055563760200NPP     2022112205422520521125
20221121L3M USD3Y    000004601082560000000460108256000000046010825600NPP     2022112205422520251124
20221121L3M USD4Y    000004423800340000000442380034000000044238003400NPP     2022112205422520261123
20221121L3M USD5Y    000004342026980000000434202698000000043420269800NPP     2022112205422520271123
20221121L3M USD6Y    000004306481890000000430648189000000043064818900NPP     2022112205422520281124
20221121L3M USD7Y    000004314222060000000431422206000000043142220600NPP     2022112205422520291123
20221121L3M USD8Y    000004332187040000000433218704000000043321870400NPP     2022112205422520301125
20221121L3M USD9Y    000004372956200000000437295620000000043729562000NPP     2022112205422520311124
20221121L6M USD10Y   000004686404380000000468640438000000046864043800NPP     2022112205422520321123
20221121L6M USD12Y   000004876402640000000487640264000000048764026400NPP     2022112205422520341124
20221121L6M USD15Y   000005200427530000000520042753000000052004275300NPP     2022112205422520371123
20221121L6M USD20Y   000005615657540000000561565754000000056156575400NPP     2022112205422520421124
20221121L6M USD25Y   000005849249850000000584924985000000058492498500NPP     2022112205422520471125
20221121L6M USD2Y    000005116497180000000511649718000000051164971800NPP     2022112205422520241125
20221121L6M USD30Y   000006015407810000000601540781000000060154078100NPP     2022112205422520521125
20221121L6M USD3Y    000004788718670000000478871867000000047887186700NPP     2022112205422520251124
20221121L6M USD4Y    000004619981920000000461998192000000046199819200NPP     2022112205422520261123
20221121L6M USD5Y    000004545380110000000454538011000000045453801100NPP     2022112205422520271123
20221121L6M USD7Y    000004531959820000000453195982000000045319598200NPP     2022112205422520291123
20221121DEPOV1 102M  000002392201990000000239220199000000023922019900NPP     2022112205422520240726
20221121DEPOV1 10Y   000002737560350000000273756035000000027375603500NPP     2022112205422520260126
20221121DEPOV1 114M  000002609085850000000260908585000000026090858500NPP     2022112205422520250728
20221121DEPOV1 18M   000000325781970000000032578197000000003257819700NPP     2022112205422620170724
20221121DEPOV1 2Y    000000693058180000000069305818000000006930581800NPP     2022112205422620180126
20221121DEPOV1 30M   000000847808360000000084780836000000008478083600NPP     2022112205422620180726
20221121DEPOV1 3Y    000001008610600000000100861060000000010086106000NPP     2022112205422620190128
20221121DEPOV1 42M   000001151561060000000115156106000000011515610600NPP     2022112205422620190726
20221121DEPOV1 4Y    000001302076170000000130207617000000013020761700NPP     2022112205422620200127
20221121DEPOV1 54M   000001442137940000000144213794000000014421379400NPP     2022112205422620200727
20221121DEPOV1 5Y    000001586417960000000158641796000000015864179600NPP     2022112205422620210126
20221121DEPOV1 66M   000001733023480000000173302348000000017330234800NPP     2022112205422620210726
20221121DEPOV1 6Y    000001886518400000000188651840000000018865184000NPP     2022112205422620220126
20221121DEPOV1 78M   000002000425720000000200042572000000020004257200NPP     2022112205422620220726
20221121DEPOV1 7Y    000002119763050000000211976305000000021197630500NPP     2022112205422620230126
20221121DEPOV1 8Y    000002303394800000000230339480000000023033948000NPP     2022112205422620240126
20221121DEPOV1 90M   000002209446340000000220944634000000022094463400NPP     2022112205422620230726
20221121DEPOV1 9Y    000002485367490000000248536749000000024853674900NPP     2022112205422620250127
20221121SOFRUSD10M   000004851734820000000485173482000000048517348200NPP     2022112205422620230925
20221121SOFRUSD10Y   000004081066020000000408106602000000040810660200NPP     2022112205422620321123
20221121SOFRUSD11M   000004866968200000000486696820000000048669682000NPP     2022112205422620231023
20221121SOFRUSD12Y   000004203376010000000420337601000000042033760100NPP     2022112205422620341124
20221121SOFRUSD13M   000000042561510000000004256151000000000425615100NPP     2022112205422620210915
20221121SOFRUSD15Y   000004477181840000000447718184000000044771818400NPP     2022112205422620371123
20221121SOFRUSD16M   000000038552150000000003855215000000000385521500NPP     2022112205422620211215
20221121SOFRUSD1M    000003936050690000000393605069000000039360506900NPP     2022112205422620221223
20221121SOFRUSD1Y    000004884377780000000488437778000000048843777800NPP     2022112205422620231124
20221121SOFRUSD20Y   000004759342890000000475934289000000047593428900NPP     2022112205422620421124
20221121SOFRUSD25Y   000004799240330000000479924033000000047992403300NPP     2022112205422620471125
20221121SOFRUSD2M    000004111451640000000411145164000000041114516400NPP     2022112205422620230123
20221121SOFRUSD2W    000003864517840000000386451784000000038645178400NPP     2022112205422620221207
20221121SOFRUSD2Y    000004631454840000000463145484000000046314548400NPP     2022112205422620241125
20221121SOFRUSD3M    000004286852590000000428685259000000042868525900NPP     2022112205422620230223
20221121SOFRUSD3W    000003894626170000000389462617000000038946261700NPP     2022112205422620221214
20221121SOFRUSD3Y    000004295420210000000429542021000000042954202100NPP     2022112205422620251124
20221121SOFRUSD4M    000004425082890000000442508289000000044250828900NPP     2022112205422620230323
20221121SOFRUSD4Y    000004110327100000000411032710000000041103271000NPP     2022112205422620261123
20221121SOFRUSD5M    000004525356500000000452535650000000045253565000NPP     2022112205422620230424
20221121SOFRUSD5Y    000004022955460000000402295546000000040229554600NPP     2022112205422620271123
20221121SOFRUSD6M    000004616229460000000461622946000000046162294600NPP     2022112205422620230523
20221121SOFRUSD7M    000004710221370000000471022137000000047102213700NPP     2022112205422620230623
20221121SOFRUSD7Y    000003975328130000000397532813000000039753281300NPP     2022112205422620291123
20221121SOFRUSD8M    000004758565070000000475856507000000047585650700NPP     2022112205422620230724
20221121SOFRUSD9M    000004805349290000000480534929000000048053492900NPP     2022112205422620230823
20221121SOFRUSDON    000003800000000000000380000000000000038000000000NPP     2022112205422620221122
20221121SOFRUSDSW    000003834409520000000383440952000000038344095200NPP     2022112205422620221130
20221121IUV UVR10Y   000006285592510000000628559251000000062855925100NPP     2022112205422620321123
20221121IUV UVR15Y   000007303012620000000730301262000000073030126200NPP     2022112205422620371123
20221121IUV UVR2Y    000003595053420000000359505342000000035950534200NPP     2022112205422620241125
20221121IUV UVR3Y    000004181147220000000418114722000000041811472200NPP     2022112205422620251124
20221121IUV UVR4Y    000004804285640000000480428564000000048042856400NPP     2022112205422620261123
20221121IUV UVR5Y    000005219130880000000521913088000000052191308800NPP     2022112205422620271123
20221121IUV UVR6Y    000005159146270000000515914627000000051591462700NPP     2022112205422620281123
20221121IUV UVR7Y    000005591185710000000559118571000000055911857100NPP     2022112205422620291123
20221121IUV UVR8Y    000005763155210000000576315521000000057631552100NPP     2022112205422720301125
20221121IUV UVR9Y    000005736218370000000573621837000000057362183700NPP     2022112205422720311124
20221121DEPOUSD10Y   000004081066020000000408106602000000040810660200NPP     2022112205422720321123
20221121DEPOUSD12Y   000004203376010000000420337601000000042033760100NPP     2022112205422720341124
20221121DEPOUSD15Y   000004477181840000000447718184000000044771818400NPP     2022112205422720371123
20221121DEPOUSD20Y   000004759342890000000475934289000000047593428900NPP     2022112205422720421124
20221121DEPOUSD25Y   000004799240330000000479924033000000047992403300NPP     2022112205422720471125
20221121DEPOUSD2Y    000004631454840000000463145484000000046314548400NPP     2022112205422720241125
20221121DEPOUSD3Y    000004295420210000000429542021000000042954202100NPP     2022112205422720251124
20221121DEPOUSD4Y    000004110327100000000411032710000000041103271000NPP     2022112205422720261123
20221121DEPOUSD5Y    000004022955460000000402295546000000040229554600NPP     2022112205422720271123
20221121DEPOUSD7Y    000003975328130000000397532813000000039753281300NPP     2022112205422720291123
20221121UIBRUSD10Y   000003288877470000000328887747000000032888774700NPP     2022112205422720321123
20221121UIBRUSD12Y   000003487554650000000348755465000000034875546500NPP     2022112205422720341124
20221121UIBRUSD15Y   000003857087990000000385708799000000038570879900NPP     2022112205422720371123
20221121UIBRUSD18M   000004372328430000000437232843000000043723284300NPP     2022112205422720240521
20221121UIBRUSD20Y   000004158320370000000415832037000000041583203700NPP     2022112205422720421124
20221121UIBRUSD25Y   000004279642270000000427964227000000042796422700NPP     2022112205422720471125
20221121UIBRUSD2Y    000003991547370000000399154737000000039915473700NPP     2022112205422720241125
20221121UIBRUSD3Y    000003498967260000000349896726000000034989672600NPP     2022112205422720251124
20221121UIBRUSD4Y    000003245438620000000324543862000000032454386200NPP     2022112205422720261123
20221121UIBRUSD5Y    000003210866980000000321086698000000032108669800NPP     2022112205422720271123
20221121UIBRUSD6Y    000003172546090000000317254609000000031725460900NPP     2022112205422720281124
20221121UIBRUSD7Y    000003009886930000000300988693000000030098869300NPP     2022112205422720291123
20221121UIBRUSD8Y    000003212287340000000321228734000000032122873400NPP     2022112205422720301125
20221121UIBRUSD9Y    000003309510100000000330951010000000033095101000NPP     2022112205422720311124
20221121T2COCOF1M    000010224814200000001022481420000000102248142000NPP     2022112205421720221221
20221121T2COCOF1Y    000012748573660000001274857366000000127485736600NPP     2022112205421720231121
20221121T2COCOF2M    000010659649140000001065964914000000106596491400NPP     2022112205421720230119
20221121T2COCOF2W    000010155946690000001015594669000000101559466900NPP     2022112205421720221205
20221121T2COCOF3M    000011229483370000001122948337000000112294833700NPP     2022112205421720230221
20221121T2COCOF6M    000011959124330000001195912433000000119591243300NPP     2022112205421720230518
20221121T2COCOF9M    000012467146960000001246714696000000124671469600NPP     2022112205421720230818
20221121T2COCOFON    000010335029300000001033502930000000103350293000NPP     2022112205421720221122
20221121T2COCOFSW    000010115895250000001011589525000000101158952500NPP     2022112205421720221128
20221121T2DTCOP1Y    000013278761330000001327876133000000132787613300NPP     2022112205421720231123
20221121T2DTCOP3M    000012040000000000001204000000000000120400000000NPP     2022112205421720230223
20221121T2DTCOP6M    000012330000000000001233000000000000123300000000NPP     2022112205421720230523
20221121T2DTCOP9M    000012430000000000001243000000000000124300000000NPP     2022112205421720230823
20221121T2DTCOPON    000011730000000000001173000000000000117300000000NPP     2022112205421720221122
20221121T2IMEUC10M   000002124059280000000212405928000000021240592800NPP     2022112205421720230925
20221121T2IMEUC11M   000002140464520000000214046452000000021404645200NPP     2022112205421720231023
20221121T2IMEUC1D    000013465921460000001346592146000000134659214600NPP     2022112205421720221122
20221121T2IMEUC1M    000000688524630000000068852463000000006885246300NPP     2022112205421720221223
20221121T2IMEUC1Y    000002206327220000000220632722000000022063272200NPP     2022112205421720231124
20221121T2IMEUC2M    000000601300500000000060130050000000006013005000NPP     2022112205421820230123
20221121T2IMEUC2W    000000006425700000000000642570000000000064257000NPP     2022112205421820221207
20221121T2IMEUC3D    -000070623801100-000070623801100-000070623801100NPP     2022112205421820221125
20221121T2IMEUC3M    000001097767970000000109776797000000010977679700NPP     2022112205421820230223
20221121T2IMEUC3W    000000490519210000000049051921000000004905192100NPP     2022112205421820221214
20221121T2IMEUC4M    000001384434680000000138443468000000013844346800NPP     2022112205421820230323
20221121T2IMEUC5M    000001545676970000000154567697000000015456769700NPP     2022112205421820230424
20221121T2IMEUC6M    000001707298170000000170729817000000017072981700NPP     2022112205421820230523
20221121T2IMEUC7M    000001860423570000000186042357000000018604235700NPP     2022112205421820230623
20221121T2IMEUC8M    000001917449380000000191744938000000019174493800NPP     2022112205421820230724
20221121T2IMEUC9M    000002028281140000000202828114000000020282811400NPP     2022112205421820230823
20221121T2IMEUCSW    -000013796059100-000013796059100-000013796059100NPP     2022112205421820221130
20221121T2GBGBP10M   000003987062960000000398706296000000039870629600NPP     2022112205421820230925
20221121T2GBGBP11M   000004004782600000000400478260000000040047826000NPP     2022112205421820231023
20221121T2GBGBP1M    000002798273340000000279827334000000027982733400NPP     2022112205421820221223
20221121T2GBGBP1Y    000004047155550000000404715555000000040471555500NPP     2022112205421820231124
20221121T2GBGBP2M    000002681438120000000268143812000000026814381200NPP     2022112205421820230123
20221121T2GBGBP2W    000002460763520000000246076352000000024607635200NPP     2022112205421820221207
20221121T2GBGBP3M    000003081047920000000308104792000000030810479200NPP     2022112205421820230223
20221121T2GBGBP3W    000002666963740000000266696374000000026669637400NPP     2022112205421820221214
20221121T2GBGBP4M    000003302183300000000330218330000000033021833000NPP     2022112205421820230323
20221121T2GBGBP5M    000003449306830000000344930683000000034493068300NPP     2022112205421820230424
20221121T2GBGBP6M    000003615119190000000361511919000000036151191900NPP     2022112205421820230523
20221121T2GBGBP7M    000003740768850000000374076885000000037407688500NPP     2022112205421820230623
20221121T2GBGBP8M    000003817227930000000381722793000000038172279300NPP     2022112205421820230724
20221121T2GBGBP9M    000003895555500000000389555550000000038955555000NPP     2022112205421820230823
20221121T2GBGBPON    000007454092720000000745409272000000074540927200NPP     2022112205421820221122
20221121T2GBGBPSW    000001910005120000000191000512000000019100051200NPP     2022112205421820221130
20221121T2IBCOP1M    000010487500000000001048750000000000104875000000NPP     2022112205421820221223
20221121T2IBCOP1Y    000012435000000000001243500000000000124350000000NPP     2022112205421820231123
20221121T2IBCOP3M    000011150000000000001115000000000000111500000000NPP     2022112205421820230223
20221121T2IBCOP6M    000011905000000000001190500000000000119050000000NPP     2022112205421820230523
20221121T2IBCOP9M    000012150000000000001215000000000000121500000000NPP     2022112205421820230823
20221121T2IBCOPON    000010299000000000001029900000000000102990000000NPP     2022112205421820221122
20221121T2ECEUR10M   000001797137170000000179713717000000017971371700NPP     2022112205421820230925
20221121T2ECEUR11M   000001830237130000000183023713000000018302371300NPP     2022112205421820231023
20221121T2ECEUR1M    000000904185280000000090418528000000009041852800NPP     2022112205421820221223
20221121T2ECEUR1W    -000010899431000-000010899431000-000010899431000NPP     2022112205421820221130
20221121T2ECEUR1Y    000001574830820000000157483082000000015748308200NPP     2022112205421820231123
20221121T2ECEUR2M    000000671530320000000067153032000000006715303200NPP     2022112205421820230123
20221121T2ECEUR2W    000000262897310000000026289731000000002628973100NPP     2022112205421820221207
20221121T2ECEUR3M    000000993524990000000099352499000000009935249900NPP     2022112205421820230223
20221121T2ECEUR3W    -000008104274200-000008104274200-000008104274200NPP     2022112205421820210518
20221121T2ECEUR4M    000001206092190000000120609219000000012060921900NPP     2022112205421820230323
20221121T2ECEUR5M    000001404167570000000140416757000000014041675700NPP     2022112205421820230424
20221121T2ECEUR6M    000001619620510000000161962051000000016196205100NPP     2022112205421820230523
20221121T2ECEUR7M    000001647597820000000164759782000000016475978200NPP     2022112205421820230623
20221121T2ECEUR8M    000001646727370000000164672737000000016467273700NPP     2022112205421820230724
20221121T2ECEUR9M    000001715709880000000171570988000000017157098800NPP     2022112205421820230823
20221121T2ECEURON    000013429889020000001342988902000000134298890200NPP     2022112205421820221122
202211212L12USD1Y    000005565860000000000556586000000000055658600000NPP     2022112205421820231124
202211212L12USDON    000003811430000000000381143000000000038114300000NPP     2022112205421820221122
20221121T2L1USD18M   000004990148720000000499014872000000049901487200NPP     2022112205421820240523
20221121T2L1USD1M    000003979000000000000397900000000000039790000000NPP     2022112205421820221223
20221121T2L1USD1Y    000005056101630000000505610163000000050561016300NPP     2022112205421920231124
20221121T2L1USD3M    000004395201160000000439520116000000043952011600NPP     2022112205421920230223
20221121T2L1USD6M    000004815121010000000481512101000000048151210100NPP     2022112205421920230523
20221121T2L1USD9M    000004999718100000000499971810000000049997181000NPP     2022112205421920230823
20221121T2L1USDON    000003811430000000000381143000000000038114300000NPP     2022112205421920221122
20221121T2L3USD18M   000005146802489600000514680248960000051468024896NPP     2022112205421920240523
20221121T2L3USD3M    000004625591537100000462559153710000046255915371NPP     2022112205421920230223
20221121T2L3USD6M    000004973718823600000497371882360000049737188236NPP     2022112205421920230523
20221121T2L3USD9M    000005139645723100000513964572310000051396457231NPP     2022112205421920230823
20221121T2L3USDON    000003811430000000000381143000000000038114300000NPP     2022112205421920221122
20221121T2L6USD18M   000005315152800000000531515280000000053151528000NPP     2022112205421920240523
20221121T2L6USD1Y    000005368895330000000536889533000000053688953300NPP     2022112205421920231124
20221121T2L6USD6M    000005171570000000000517157000000000051715700000NPP     2022112205421920230523
20221121T2L6USDON    000003811430000000000381143000000000038114300000NPP     2022112205421920221122
20221121T2UVV1 1M    -000014100000000-000014100000000-000014100000000NPP     2022112205421920160224
20221121T2UVV1 1Y    000000200000000000000020000000000000002000000000NPP     2022112205421920170124
20221121T2UVV1 2M    -000011700000000-000011700000000-000011700000000NPP     2022112205421920160322
20221121T2UVV1 2W    -000015269419800-000015269419800-000015269419800NPP     2022112205421920160205
20221121T2UVV1 3M    -000010000000000-000010000000000-000010000000000NPP     2022112205421920160422
20221121T2UVV1 6M    -000005300000000-000005300000000-000005300000000NPP     2022112205421920160722
20221121T2UVV1 9M    -000001900000000-000001900000000-000001900000000NPP     2022112205421920161024
20221121T2UVV1 ON    -000017700000000-000017700000000-000017700000000NPP     2022112205421920160123
20221121T2UVV1 SW    -000017270021000-000017270021000-000017270021000NPP     2022112205421920160129
20221121T2BLUSD1M    000004182552260000000418255226000000041825522600NPP     2022112205421920221221
20221121T2BLUSD1W    000004043937750000000404393775000000040439377500NPP     2022112205421920221128
20221121T2BLUSD1Y    000004590359990000000459035999000000045903599900NPP     2022112205421920231121
20221121T2BLUSD2M    000004214868290000000421486829000000042148682900NPP     2022112205421920230119
20221121T2BLUSD2W    000004074900030000000407490003000000040749000300NPP     2022112205421920221205
20221121T2BLUSD3M    000004186176720000000418617672000000041861767200NPP     2022112205421920230221
20221121T2BLUSD6M    000004515407710000000451540771000000045154077100NPP     2022112205421920230518
20221121T2BLUSD9M    000004490702410000000449070241000000044907024100NPP     2022112205421920230818
20221121T2BLUSDON    000003763977230000000376397723000000037639772300NPP     2022112205421920221122
20221121T2IUUVR18M   000003922000000000000392200000000000039220000000NPP     2022112205421920240523
20221121T2IUUVR1M    000001188500000000000118850000000000011885000000NPP     2022112205421920221223
20221121T2IUUVR1Y    000004094000000000000409400000000000040940000000NPP     2022112205421920231123
20221121T2IUUVR3M    -000033810000000-000033810000000-000033810000000NPP     2022112205421920230223
20221121T2IUUVR6M    000000400000000000000040000000000000004000000000NPP     2022112205421920230523
20221121T2IUUVR9M    000001794000000000000179400000000000017940000000NPP     2022112205421920230823
20221121T2IUUVRON    000001681342610000000168134261000000016813426100NPP     2022112205421920221122
20221121T2USUSD10M   000004857583410000000485758341000000048575834100NPP     2022112205421920230925
20221121T2USUSD11M   000004872328630000000487232863000000048723286300NPP     2022112205421920231023
20221121T2USUSD1M    000003944288050000000394428805000000039442880500NPP     2022112205421920221223
20221121T2USUSD1Y    000004889271160000000488927116000000048892711600NPP     2022112205421920231124
20221121T2USUSD2M    000004120793220000000412079322000000041207932200NPP     2022112205421920230123
20221121T2USUSD2W    000003872917060000000387291706000000038729170600NPP     2022112205421920221207
20221121T2USUSD3M    000004296529300000000429652930000000042965293000NPP     2022112205421920230223
20221121T2USUSD3W    000003902814260000000390281426000000039028142600NPP     2022112205421920221214
20221121T2USUSD4M    000004434564750000000443456475000000044345647500NPP     2022112205421920230323
20221121T2USUSD5M    000004533943500000000453394350000000045339435000NPP     2022112205421920230424
20221121T2USUSD6M    000004624272330000000462427233000000046242723300NPP     2022112205421920230523
20221121T2USUSD7M    000004717812380000000471781238000000047178123800NPP     2022112205421920230623
20221121T2USUSD8M    000004765448460000000476544846000000047654484600NPP     2022112205421920230724
20221121T2USUSD9M    000004811698680000000481169868000000048116986800NPP     2022112205421920230823
20221121T2USUSDON    000003800000000000000380000000000000038000000000NPP     2022112205421920221122
20221121T2USUSDSW    000003843429420000000384342942000000038434294200NPP     2022112205421920221130
20221121T2UIUSD1M    000004182552260000000418255226000000041825522600NPP     2022112205421920221221
20221121T2UIUSD1W    000004043937750000000404393775000000040439377500NPP     2022112205422020221128
20221121T2UIUSD1Y    000004590359990000000459035999000000045903599900NPP     2022112205422020231121
20221121T2UIUSD2M    000004214868290000000421486829000000042148682900NPP     2022112205422020230119
20221121T2UIUSD2W    000004074900030000000407490003000000040749000300NPP     2022112205422020221205
20221121T2UIUSD3M    000004186176720000000418617672000000041861767200NPP     2022112205422020230221
20221121T2UIUSD6M    000004515407710000000451540771000000045154077100NPP     2022112205422020230518
20221121T2UIUSD9M    000004490702410000000449070241000000044907024100NPP     2022112205422020230818
20221121T2UIUSDON    000003763977230000000376397723000000037639772300NPP     2022112205422020221122
20221121T2COCOF10Y   000014925436100000001492543610000000149254361000NPP     2022112205422020321123
20221121T2COCOF12Y   000017005413520000001700541352000000170054135200NPP     2022112205422020341124
20221121T2COCOF15Y   000020536586530000002053658653000000205365865300NPP     2022112205422020371123
20221121T2COCOF18M   000013084493730000001308449373000000130844937300NPP     2022112205422020240521
20221121T2COCOF20Y   000028279898400000002827989840000000282798984000NPP     2022112205422020421124
20221121T2COCOF25Y   000038672838610000003867283861000000386728386100NPP     2022112205422020471125
20221121T2COCOF2Y    000011627387540000001162738754000000116273875400NPP     2022112205422020241125
20221121T2COCOF3Y    000011612063130000001161206313000000116120631300NPP     2022112205422020251124
20221121T2COCOF4Y    000011632807270000001163280727000000116328072700NPP     2022112205422020261123
20221121T2COCOF5Y    000011956776250000001195677625000000119567762500NPP     2022112205422020271123
20221121T2COCOF6Y    000012237732870000001223773287000000122377328700NPP     2022112205422020281124
20221121T2COCOF7Y    000012354233170000001235423317000000123542331700NPP     2022112205422020291123
20221121T2COCOF8Y    000013473735730000001347373573000000134737357300NPP     2022112205422020301125
20221121T2COCOF9Y    000014361781800000001436178180000000143617818000NPP     2022112205422020311124
20221121T2DTCOP10Y   000017740872070000001774087207000000177408720700NPP     2022112205422020321123
20221121T2DTCOP2Y    000012713581450000001271358145000000127135814500NPP     2022112205422120241125
20221121T2DTCOP3Y    000012981899450000001298189945000000129818994500NPP     2022112205422120251124
20221121T2DTCOP4Y    000013241933790000001324193379000000132419337900NPP     2022112205422120261123
20221121T2DTCOP5Y    000013593231370000001359323137000000135932313700NPP     2022112205422120271123
20221121T2DTCOP6Y    000014081561190000001408156119000000140815611900NPP     2022112205422120281123
20221121T2DTCOP7Y    000014841431300000001484143130000000148414313000NPP     2022112205422120291123
20221121T2DTCOP8Y    000015669910470000001566991047000000156699104700NPP     2022112205422120301125
20221121T2DTCOP9Y    000016607105260000001660710526000000166071052600NPP     2022112205422120311124
20221121T2ESUSD10M   000002508001580000000250800158000000025080015800NPP     2022112205422120230925
20221121T2ESUSD10Y   000002751081970000000275108197000000027510819700NPP     2022112205422120321123
20221121T2ESUSD11M   000002544001440000000254400144000000025440014400NPP     2022112205422120231023
20221121T2ESUSD12Y   000002873411600000000287341160000000028734116000NPP     2022112205422120341123
20221121T2ESUSD15Y   000002998884940000000299888494000000029988849400NPP     2022112205422120371123
20221121T2ESUSD18M   000002634500900000000263450090000000026345009000NPP     2022112205422120240523
20221121T2ESUSD1M    000001444915750000000144491575000000014449157500NPP     2022112205422120221223
20221121T2ESUSD1W    000001405317430000000140531743000000014053174300NPP     2022112205422120221130
20221121T2ESUSD1Y    000002577001330000000257700133000000025770013300NPP     2022112205422120231123
20221121T2ESUSD20Y   000002990633080000000299063308000000029906330800NPP     2022112205422120421124
20221121T2ESUSD25Y   000002858960630000000285896063000000028589606300NPP     2022112205422120471125
20221121T2ESUSD2M    000001720307760000000172030776000000017203077600NPP     2022112205422120230123
20221121T2ESUSD2W    000001405233730000000140523373000000014052337300NPP     2022112205422120221207
20221121T2ESUSD2Y    000002649543570000000264954357000000026495435700NPP     2022112205422120241125
20221121T2ESUSD3M    000001872805160000000187280516000000018728051600NPP     2022112205422120230223
20221121T2ESUSD3Y    000002587670530000000258767053000000025876705300NPP     2022112205422120251124
20221121T2ESUSD4M    000001992003960000000199200396000000019920039600NPP     2022112205422120230323
20221121T2ESUSD4Y    000002555884900000000255588490000000025558849000NPP     2022112205422120261123
20221121T2ESUSD5M    000002135253130000000213525313000000021352531300NPP     2022112205422120230424
20221121T2ESUSD5Y    000002561449850000000256144985000000025614498500NPP     2022112205422120271123
20221121T2ESUSD6M    000002232002640000000223200264000000022320026400NPP     2022112205422120230523
20221121T2ESUSD7M    000002321752250000000232175225000000023217522500NPP     2022112205422120230623
20221121T2ESUSD7Y    000002599221230000000259922123000000025992212300NPP     2022112205422120291123
20221121T2ESUSD8M    000002397001970000000239700197000000023970019700NPP     2022112205422120230724
20221121T2ESUSD9M    000002455751760000000245575176000000024557517600NPP     2022112205422120230823
20221121T2ESUSDON    000001403000000000000140300000000000014030000000NPP     2022112205422120221122
20221121T2IMEUC15M   000002219731510000000221973151000000022197315100NPP     20221122054221        
20221121T2IMEUC18M   000002271528490000000227152849000000022715284900NPP     20221122054221        
20221121T2IMEUC21M   000002267657810000000226765781000000022676578100NPP     20221122054221        
20221121T2IMEUC2Y    000002286550960000000228655096000000022865509600NPP     20221122054221        
20221121T2IMEUC3Y    000002239446390000000223944639000000022394463900NPP     20221122054221        
20221121T2IMEUC4Y    000002240420740000000224042074000000022404207400NPP     20221122054221        
20221121T2IMEUC5Y    000002273439950000000227343995000000022734399500NPP     20221122054221        
20221121T2FFUSD10M   000004881317870000000488131787000000048813178700NPP     2022112205422120230925
20221121T2FFUSD10Y   000004090300080000000409030008000000040903000800NPP     2022112205422120321123
20221121T2FFUSD11M   000004904446730000000490444673000000049044467300NPP     2022112205422120231023
20221121T2FFUSD12Y   000004217112020000000421711202000000042171120200NPP     2022112205422120341124
20221121T2FFUSD15Y   000004474076510000000447407651000000044740765100NPP     2022112205422120371123
20221121T2FFUSD1M    000003983812530000000398381253000000039838125300NPP     2022112205422120221223
20221121T2FFUSD1W    000003836313770000000383631377000000038363137700NPP     2022112205422120221130
20221121T2FFUSD1Y    000004917881520000000491788152000000049178815200NPP     2022112205422120231124
20221121T2FFUSD20Y   000004752472990000000475247299000000047524729900NPP     2022112205422120421124
20221121T2FFUSD25Y   000004797959850000000479795985000000047979598500NPP     2022112205422120471125
20221121T2FFUSD2M    000004196101410000000419610141000000041961014100NPP     2022112205422120230123
20221121T2FFUSD2W    000003837704950000000383770495000000038377049500NPP     2022112205422120221207
20221121T2FFUSD2Y    000004655411100000000465541110000000046554111000NPP     2022112205422120241125
20221121T2FFUSD3M    000004352712670000000435271267000000043527126700NPP     2022112205422120230223
20221121T2FFUSD3W    000003856966380000000385696638000000038569663800NPP     2022112205422120221214
20221121T2FFUSD3Y    000004317717270000000431771727000000043177172700NPP     2022112205422120251124
20221121T2FFUSD4M    000004459724740000000445972474000000044597247400NPP     2022112205422120230323
20221121T2FFUSD4Y    000004129325170000000412932517000000041293251700NPP     2022112205422120261123
20221121T2FFUSD5M    000004579928790000000457992879000000045799287900NPP     2022112205422120230424
20221121T2FFUSD5Y    000004041741080000000404174108000000040417410800NPP     2022112205422120271123
20221121T2FFUSD6M    000004667138620000000466713862000000046671386200NPP     2022112205422120230523
20221121T2FFUSD7M    000004741709830000000474170983000000047417098300NPP     2022112205422220230623
20221121T2FFUSD7Y    000003991051530000000399105153000000039910515300NPP     2022112205422220291123
20221121T2FFUSD8M    000004801056340000000480105634000000048010563400NPP     2022112205422220230724
20221121T2FFUSD9M    000004844628580000000484462858000000048446285800NPP     2022112205422220230823
20221121T2FFUSDON    000003830000000000000383000000000000038300000000NPP     2022112205422220221122
20221121T2GBGBP15M   000004109961660000000410996166000000041099616600NPP     2022112205422220240223
20221121T2GBGBP18M   000004138107840000000413810784000000041381078400NPP     2022112205422220240523
20221121T2GBGBP21M   000004126098890000000412609889000000041260988900NPP     2022112205422220240823
20221121T2GBGBP2Y    000004127992180000000412799218000000041279921800NPP     2022112205422220241125
20221121T2GBGBP3Y    000004038129980000000403812998000000040381299800NPP     2022112205422220251124
20221121T2GBGBP4Y    000003949054330000000394905433000000039490543300NPP     2022112205422220261123
20221121T2GBGBP5Y    000003848863700000000384886370000000038488637000NPP     2022112205422220271123
20221121T2BLUSD10Y   000003287929820000000328792982000000032879298200NPP     2022112205422220321123
20221121T2BLUSD2Y    000003991333670000000399133367000000039913336700NPP     2022112205422220241125
20221121T2BLUSD3Y    000003497752690000000349775269000000034977526900NPP     2022112205422220251124
20221121T2BLUSD4Y    000003244050420000000324405042000000032440504200NPP     2022112205422220261123
20221121T2BLUSD5Y    000003209590010000000320959001000000032095900100NPP     2022112205422220271123
20221121T2BLUSD6Y    000003171343550000000317134355000000031713435500NPP     2022112205422220281124
20221121T2BLUSD7Y    000003008667960000000300866796000000030086679600NPP     2022112205422220291123
20221121T2BLUSD8Y    000003211238490000000321123849000000032112384900NPP     2022112205422220301125
20221121T2BLUSD9Y    000003308541810000000330854181000000033085418100NPP     2022112205422220311124
20221121T2IBCOP10Y   000017956869690000001795686969000000179568696900NPP     2022112205422220321123
20221121T2IBCOP12Y   000020460264230000002046026423000000204602642300NPP     2022112205422220341123
20221121T2IBCOP15Y   000024704677790000002470467779000000247046777900NPP     2022112205422220371123
20221121T2IBCOP18M   000012585000000000001258500000000000125850000000NPP     2022112205422220240523
20221121T2IBCOP20Y   000036656298280000003665629828000000366562982800NPP     2022112205422220421124
20221121T2IBCOP2Y    000012656215790000001265621579000000126562157900NPP     2022112205422220241125
20221121T2IBCOP3Y    000012970442530000001297044253000000129704425300NPP     2022112205422220251124
20221121T2IBCOP4Y    000013260837220000001326083722000000132608372200NPP     2022112205422220261123
20221121T2IBCOP5Y    000013653512960000001365351296000000136535129600NPP     2022112205422220271123
20221121T2IBCOP6Y    000014171286780000001417128678000000141712867800NPP     2022112205422220281123
20221121T2IBCOP7Y    000014942756870000001494275687000000149427568700NPP     2022112205422220291123
20221121T2IBCOP8Y    000015818148120000001581814812000000158181481200NPP     2022112205422220301125
20221121T2IBCOP9Y    000016775275510000001677527551000000167752755100NPP     2022112205422220311124
20221121T2ECEUR10Y   000001792965130000000179296513000000017929651300NPP     2022112205422220321123
20221121T2ECEUR12Y   000001980148460000000198014846000000019801484600NPP     2022112205422220341123
20221121T2ECEUR2Y    000001811400480000000181140048000000018114004800NPP     2022112205422220241125
20221121T2ECEUR3Y    000001611832300000000161183230000000016118323000NPP     2022112205422220251124
20221121T2ECEUR4Y    000001516426830000000151642683000000015164268300NPP     2022112205422220261123
20221121T2ECEUR5Y    000001572207040000000157220704000000015722070400NPP     2022112205422220271123
20221121T2ECEUR6Y    000001602313420000000160231342000000016023134200NPP     2022112205422220281123
20221121T2ECEUR7Y    000001494659690000000149465969000000014946596900NPP     2022112205422220291123
20221121T2ECEUR8Y    000001702119840000000170211984000000017021198400NPP     2022112205422220301125
20221121T2ECEUR9Y    000001804210900000000180421090000000018042109000NPP     2022112205422220311124
202211212L12USD10Y   000005002598290000000500259829000000050025982900NPP     2022112205422520321123
202211212L12USD12Y   000005287111470000000528711147000000052871114700NPP     2022112205422520341124
202211212L12USD15Y   000005697532000000000569753200000000056975320000NPP     2022112205422520371123
202211212L12USD20Y   000006035291450000000603529145000000060352914500NPP     2022112205422520421124
202211212L12USD25Y   000006530025500000000653002550000000065300255000NPP     2022112205422520471125
202211212L12USD2Y    000005382475610000000538247561000000053824756100NPP     2022112205422520241125
202211212L12USD30Y   000006475803090000000647580309000000064758030900NPP     2022112205422520521125
202211212L12USD3Y    000005076961410000000507696141000000050769614100NPP     2022112205422520251124
202211212L12USD4Y    000004924806570000000492480657000000049248065700NPP     2022112205422520261123
202211212L12USD5Y    000004864783480000000486478348000000048647834800NPP     2022112205422520271123
202211212L12USD7Y    000004855125780000000485512578000000048551257800NPP     2022112205422520291123
20221121T2L1USD10Y   000004234052750000000423405275000000042340527500NPP     2022112205422520321123
20221121T2L1USD12Y   000004390219850000000439021985000000043902198500NPP     2022112205422520341124
20221121T2L1USD15Y   000004656105670000000465610567000000046561056700NPP     2022112205422520371123
20221121T2L1USD20Y   000004969069020000000496906902000000049690690200NPP     2022112205422520421124
20221121T2L1USD25Y   000005106262800000000510626280000000051062628000NPP     2022112205422520471125
20221121T2L1USD2Y    000004781978740000000478197874000000047819787400NPP     2022112205422520241125
20221121T2L1USD30Y   000005174457570000000517445757000000051744575700NPP     2022112205422520521125
20221121T2L1USD3Y    000004438663370000000443866337000000044386633700NPP     2022112205422520251124
20221121T2L1USD4Y    000004254844080000000425484408000000042548440800NPP     2022112205422520261123
20221121T2L1USD5Y    000004166851610000000416685161000000041668516100NPP     2022112205422520271123
20221121T2L1USD7Y    000004126164070000000412616407000000041261640700NPP     2022112205422520291123
20221121T2L3USD10Y   000004444538410000000444453841000000044445384100NPP     2022112205422520321123
20221121T2L3USD11Y   000004530169130000000453016913000000045301691300NPP     2022112205422520331123
20221121T2L3USD12Y   000004615320350000000461532035000000046153203500NPP     2022112205422520341124
20221121T2L3USD13Y   000004710379730000000471037973000000047103797300NPP     2022112205422520351123
20221121T2L3USD14Y   000004808174520000000480817452000000048081745200NPP     2022112205422520361124
20221121T2L3USD15Y   000004907340060000000490734006000000049073400600NPP     2022112205422520371123
20221121T2L3USD20Y   000005266473130000000526647313000000052664731300NPP     2022112205422520421124
20221121T2L3USD25Y   000005445137870000000544513787000000054451378700NPP     2022112205422520471125
20221121T2L3USD2Y    000004938190490000000493819049000000049381904900NPP     2022112205422520241125
20221121T2L3USD30Y   000005555518080000000555551808000000055555180800NPP     2022112205422520521125
20221121T2L3USD3Y    000004601547860000000460154786000000046015478600NPP     2022112205422520251124
20221121T2L3USD4Y    000004423701930000000442370193000000044237019300NPP     2022112205422520261123
20221121T2L3USD5Y    000004341688800000000434168880000000043416888000NPP     2022112205422520271123
20221121T2L3USD6Y    000004306021590000000430602159000000043060215900NPP     2022112205422520281124
20221121T2L3USD7Y    000004313701920000000431370192000000043137019200NPP     2022112205422520291123
20221121T2L3USD8Y    000004331626030000000433162603000000043316260300NPP     2022112205422520301125
20221121T2L3USD9Y    000004372371930000000437237193000000043723719300NPP     2022112205422520311124
20221121T2L6USD10Y   000004685891210000000468589121000000046858912100NPP     2022112205422520321123
20221121T2L6USD12Y   000004875856040000000487585604000000048758560400NPP     2022112205422520341124
20221121T2L6USD15Y   000005199833510000000519983351000000051998335100NPP     2022112205422520371123
20221121T2L6USD20Y   000005614962500000000561496250000000056149625000NPP     2022112205422520421124
20221121T2L6USD25Y   000005848457720000000584845772000000058484577200NPP     2022112205422520471125
20221121T2L6USD2Y    000005118974150000000511897415000000051189741500NPP     2022112205422520241125
20221121T2L6USD30Y   000006014536440000000601453644000000060145364400NPP     2022112205422520521125
20221121T2L6USD3Y    000004789486260000000478948626000000047894862600NPP     2022112205422520251124
20221121T2L6USD4Y    000004620110480000000462011048000000046201104800NPP     2022112205422520261123
20221121T2L6USD5Y    000004545221570000000454522157000000045452215700NPP     2022112205422520271123
20221121T2L6USD7Y    000004531563850000000453156385000000045315638500NPP     2022112205422520291123
20221121T2UVV1 102M  000002398037260000000239803726000000023980372600NPP     2022112205422520240726
20221121T2UVV1 10Y   000002743035550000000274303555000000027430355500NPP     2022112205422520260126
20221121T2UVV1 114M  000002614646550000000261464655000000026146465500NPP     2022112205422520250728
20221121T2UVV1 18M   000000341230960000000034123096000000003412309600NPP     2022112205422620170724
20221121T2UVV1 2Y    000000706674910000000070667491000000007066749100NPP     2022112205422620180126
20221121T2UVV1 30M   000000859459010000000085945901000000008594590100NPP     2022112205422620180726
20221121T2UVV1 3Y    000001018933430000000101893343000000010189334300NPP     2022112205422620190128
20221121T2UVV1 42M   000001160940700000000116094070000000011609407000NPP     2022112205422620190726
20221121T2UVV1 4Y    000001310739080000000131073908000000013107390800NPP     2022112205422620200127
20221121T2UVV1 54M   000001450238580000000145023858000000014502385800NPP     2022112205422620200727
20221121T2UVV1 5Y    000001594079940000000159407994000000015940799400NPP     2022112205422620210126
20221121T2UVV1 66M   000001740343880000000174034388000000017403438800NPP     2022112205422620210726
20221121T2UVV1 6Y    000001893563280000000189356328000000018935632800NPP     2022112205422620220126
20221121T2UVV1 78M   000002007176010000000200717601000000020071760100NPP     2022112205422620220726
20221121T2UVV1 7Y    000002126266100000000212626610000000021262661000NPP     2022112205422620230126
20221121T2UVV1 8Y    000002309425160000000230942516000000023094251600NPP     2022112205422620240126
20221121T2UVV1 90M   000002215695750000000221569575000000022156957500NPP     2022112205422620230726
20221121T2UVV1 9Y    000002491032660000000249103266000000024910326600NPP     2022112205422620250127
20221121T2SOUSD10M   000004857583410000000485758341000000048575834100NPP     2022112205422620230925
20221121T2SOUSD10Y   000004080358490000000408035849000000040803584900NPP     2022112205422620321123
20221121T2SOUSD11M   000004872328630000000487232863000000048723286300NPP     2022112205422620231023
20221121T2SOUSD12Y   000004202672800000000420267280000000042026728000NPP     2022112205422620341124
20221121T2SOUSD15Y   000004476484000000000447648400000000044764840000NPP     2022112205422620371123
20221121T2SOUSD1M    000003944288050000000394428805000000039442880500NPP     2022112205422620221223
20221121T2SOUSD1Y    000004889271160000000488927116000000048892711600NPP     2022112205422620231124
20221121T2SOUSD20Y   000004758600910000000475860091000000047586009100NPP     2022112205422620421124
20221121T2SOUSD25Y   000004798446140000000479844614000000047984461400NPP     2022112205422620471125
20221121T2SOUSD2M    000004120793220000000412079322000000041207932200NPP     2022112205422620230123
20221121T2SOUSD2W    000003872917060000000387291706000000038729170600NPP     2022112205422620221207
20221121T2SOUSD2Y    000004632745450000000463274545000000046327454500NPP     2022112205422620241125
20221121T2SOUSD3M    000004296529300000000429652930000000042965293000NPP     2022112205422620230223
20221121T2SOUSD3W    000003902814260000000390281426000000039028142600NPP     2022112205422620221214
20221121T2SOUSD3Y    000004295416630000000429541663000000042954166300NPP     2022112205422620251124
20221121T2SOUSD4M    000004434564750000000443456475000000044345647500NPP     2022112205422620230323
20221121T2SOUSD4Y    000004109884270000000410988427000000041098842700NPP     2022112205422620261123
20221121T2SOUSD5M    000004533943500000000453394350000000045339435000NPP     2022112205422620230424
20221121T2SOUSD5Y    000004022350500000000402235050000000040223505000NPP     2022112205422620271123
20221121T2SOUSD6M    000004624272330000000462427233000000046242723300NPP     2022112205422620230523
20221121T2SOUSD7M    000004717812380000000471781238000000047178123800NPP     2022112205422620230623
20221121T2SOUSD7Y    000003974626180000000397462618000000039746261800NPP     2022112205422620291123
20221121T2SOUSD8M    000004765448460000000476544846000000047654484600NPP     2022112205422620230724
20221121T2SOUSD9M    000004811698680000000481169868000000048116986800NPP     2022112205422620230823
20221121T2SOUSDON    000003800000000000000380000000000000038000000000NPP     2022112205422620221122
20221121T2SOUSDSW    000003843429420000000384342942000000038434294200NPP     2022112205422620221130
20221121T2IUUVR10Y   000006287526010000000628752601000000062875260100NPP     2022112205422620321123
20221121T2IUUVR15Y   000007304382410000000730438241000000073043824100NPP     2022112205422620371123
20221121T2IUUVR2Y    000003599938740000000359993874000000035999387400NPP     2022112205422620241125
20221121T2IUUVR3Y    000004185313810000000418531381000000041853138100NPP     2022112205422620251124
20221121T2IUUVR4Y    000004808111600000000480811160000000048081116000NPP     2022112205422620261123
20221121T2IUUVR5Y    000005222517960000000522251796000000052225179600NPP     2022112205422620271123
20221121T2IUUVR6Y    000005161837290000000516183729000000051618372900NPP     2022112205422620281123
20221121T2IUUVR7Y    000005593721360000000559372136000000055937213600NPP     2022112205422620291123
20221121T2IUUVR8Y    000005765408610000000576540861000000057654086100NPP     2022112205422720301125
20221121T2IUUVR9Y    000005738148850000000573814885000000057381488500NPP     2022112205422720311124
20221121T2USUSD10Y   000004080358490000000408035849000000040803584900NPP     2022112205422720321123
20221121T2USUSD12Y   000004202672800000000420267280000000042026728000NPP     2022112205422720341124
20221121T2USUSD15Y   000004476484000000000447648400000000044764840000NPP     2022112205422720371123
20221121T2USUSD20Y   000004758600910000000475860091000000047586009100NPP     2022112205422720421124
20221121T2USUSD25Y   000004798446140000000479844614000000047984461400NPP     2022112205422720471125
20221121T2USUSD2Y    000004632745450000000463274545000000046327454500NPP     2022112205422720241125
20221121T2USUSD3Y    000004295416630000000429541663000000042954166300NPP     2022112205422720251124
20221121T2USUSD4Y    000004109884270000000410988427000000041098842700NPP     2022112205422720261123
20221121T2USUSD5Y    000004022350500000000402235050000000040223505000NPP     2022112205422720271123
20221121T2USUSD7Y    000003974626180000000397462618000000039746261800NPP     2022112205422720291123
20221121T2UIUSD10Y   000003287929820000000328792982000000032879298200NPP     2022112205422720321123
20221121T2UIUSD12Y   000003486699440000000348669944000000034866994400NPP     2022112205422720341124
20221121T2UIUSD15Y   000003856315580000000385631558000000038563155800NPP     2022112205422720371123
20221121T2UIUSD18M   000004373646340000000437364634000000043736463400NPP     2022112205422720240521
20221121T2UIUSD20Y   000004157558930000000415755893000000041575589300NPP     2022112205422720421124
20221121T2UIUSD25Y   000004278860440000000427886044000000042788604400NPP     2022112205422720471125
20221121T2UIUSD2Y    000003991333670000000399133367000000039913336700NPP     2022112205422720241125
20221121T2UIUSD3Y    000003497752690000000349775269000000034977526900NPP     2022112205422720251124
20221121T2UIUSD4Y    000003244050420000000324405042000000032440504200NPP     2022112205422720261123
20221121T2UIUSD5Y    000003209590010000000320959001000000032095900100NPP     2022112205422720271123
20221121T2UIUSD6Y    000003171343550000000317134355000000031713435500NPP     2022112205422720281124
20221121T2UIUSD7Y    000003008667960000000300866796000000030086679600NPP     2022112205422720291123
20221121T2UIUSD8Y    000003211238490000000321123849000000032112384900NPP     2022112205422720301125
20221121T2UIUSD9Y    000003308541810000000330854181000000033085418100NPP     2022112205422720311124
20221121CPFFUSD001   000003800000000000000380000000000000038000000000NPP     20221121091210        
20221121CPFFUSD002   000003800000000000000380000000000000038000000000NPP     20221121091210        
20221121CPFFUSD003   000003800000000000000380000000000000038000000000NPP     20221121091210        
20221121CPFFUSD004   000003800000000000000380000000000000038000000000NPP     20221121091210        
20221121CPFFUSD005   000003802000000000000380200000000000038020000000NPP     20221121091210        
20221121CPFFUSD006   000003801670000000000380167000000000038016700000NPP     20221121091210        
20221121CPFFUSD007   000003800000000000000380000000000000038000000000NPP     20221121091210        
20221121CPFFUSD008   000003797500000000000379750000000000037975000000NPP     20221121091210        
20221121CPFFUSD009   000003795560000000000379556000000000037955600000NPP     20221121091210        
20221121CPFFUSD010   000003794000000000000379400000000000037940000000NPP     20221121091210        
20221121CPFFUSD011   000003792730000000000379273000000000037927300000NPP     20221121091210        
20221121CPFFUSD012   000003791670000000000379167000000000037916700000NPP     20221121091210        
20221121CPFFUSD013   000003790770000000000379077000000000037907700000NPP     20221121091210        
20221121CPFFUSD014   000003790000000000000379000000000000037900000000NPP     20221121091210        
20221121CPFFUSD015   000003790670000000000379067000000000037906700000NPP     20221121091210        
20221121CPFFUSD016   000003791250000000000379125000000000037912500000NPP     20221121091210        
20221121CPFFUSD017   000003791760000000000379176000000000037917600000NPP     20221121091210        
20221121CPFFUSD018   000003792220000000000379222000000000037922200000NPP     20221121091210        
20221121CPFFUSD019   000003753160000000000375316000000000037531600000NPP     20221121091210        
20221121CPFFUSD020   000003718000000000000371800000000000037180000000NPP     20221121091210        
20221121CPFFUSD021   000003686190000000000368619000000000036861900000NPP     20221121091210        
20221121CPFFUSD022   000003657270000000000365727000000000036572700000NPP     20221121091210        
20221121CPFFUSD023   000003630870000000000363087000000000036308700000NPP     20221121091210        
20221121CPFFUSD024   000003606670000000000360667000000000036066700000NPP     20221121091210        
20221121CPFFUSD025   000003584000000000000358400000000000035840000000NPP     20221121091210        
20221121CPFFUSD026   000003562690000000000356269000000000035626900000NPP     20221121091210        
20221121CPFFUSD027   000003542590000000000354259000000000035425900000NPP     20221121091210        
20221121CPFFUSD028   000003523570000000000352357000000000035235700000NPP     20221121091210        
20221121CPFFUSD029   000003506210000000000350621000000000035062100000NPP     20221121091210        
20221121CPFFUSD030   000003490000000000000349000000000000034900000000NPP     20221121091210        
20221121CPFFUSD031   000003474840000000000347484000000000034748400000NPP     20221121091210        
20221121CPFFUSD032   000003460940000000000346094000000000034609400000NPP     20221121091210        
20221121CPFFUSD033   000003448180000000000344818000000000034481800000NPP     20221121091210        
20221121CPFFUSD034   000003436180000000000343618000000000034361800000NPP     20221121091210        
20221121CPFFUSD035   000003425140000000000342514000000000034251400000NPP     20221121091210        
20221121CPFFUSD036   000003414440000000000341444000000000034144400000NPP     20221121091210        
20221121CPFFUSD037   000003404320000000000340432000000000034043200000NPP     20221121091210        
20221121CPFFUSD038   000003394740000000000339474000000000033947400000NPP     20221121091210        
20221121CPFFUSD039   000003385640000000000338564000000000033856400000NPP     20221121091210        
20221121CPFFUSD040   000003377000000000000337700000000000033770000000NPP     20221121091210        
