20221201DEPOB121M    000014688100000000001468810000000000146881000000NPP     20221202065131        
20221201DEPOB121Y    000019063500000000001906350000000000190635000000NPP     20221202065131        
20221201DEPOB122M    000015695700000000001569570000000000156957000000NPP     20221202065131        
20221201DEPOB122W    000014034000000000001403400000000000140340000000NPP     20221202065131        
20221201DEPOB122Y    000018725700000000001872570000000000187257000000NPP     20221202065131        
20221201DEPOB123M    000016555900000000001655590000000000165559000000NPP     20221202065131        
20221201DEPOB123Y    000018353300000000001835330000000000183533000000NPP     20221202065131        
20221201DEPOB124Y    000018179200000000001817920000000000181792000000NPP     20221202065131        
20221201DEPOB125Y    000018098600000000001809860000000000180986000000NPP     20221202065131        
20221201DEPOB126M    000018135200000000001813520000000000181352000000NPP     20221202065131        
20221201DEPOB129M    000018832700000000001883270000000000188327000000NPP     20221202065131        
20221201DEPOB12ON    000013444900000000001344490000000000134449000000NPP     20221202065131        
20221201DEPOB12SW    000013723500000000001372350000000000137235000000NPP     20221202065131        
20221201DEPOB12TN    000013539100000000001353910000000000135391000000NPP     20221202065131        
20221201DEPOCOF1M    000010627063970000001062706397000000106270639700NPP     2022120206513220230103
20221201DEPOCOF1Y    000012631418610000001263141861000000126314186100NPP     2022120206513220231201
20221201DEPOCOF2M    000010951554750000001095155475000000109515547500NPP     2022120206513220230202
20221201DEPOCOF2W    000010497832660000001049783266000000104978326600NPP     2022120206513220221215
20221201DEPOCOF3M    000011284944410000001128494441000000112849444100NPP     2022120206513220230302
20221201DEPOCOF6M    000011941517850000001194151785000000119415178500NPP     2022120206513220230601
20221201DEPOCOF9M    000012393741760000001239374176000000123937417600NPP     2022120206513220230831
20221201DEPOCOFON    000009997602370000000999760237000000099976023700NPP     2022120206513220221202
20221201DEPOCOFSW    000010631168800000001063116880000000106311688000NPP     2022120206513220221207
20221201DTFPCOP1Y    000012751043360000001275104336000000127510433600NPP     2022120206513220231205
20221201DTFPCOP3M    000012303207070000001230320707000000123032070700NPP     2022120206513220230306
20221201DTFPCOP6M    000012133479190000001213347919000000121334791900NPP     2022120206513220230605
20221201DTFPCOP9M    000012141046600000001214104660000000121410466000NPP     2022120206513220230905
20221201DTFPCOPON    000012450000000000001245000000000000124500000000NPP     2022120206513220221202
20221201DEPOEUC10M   000002276501070000000227650107000000022765010700NPP     2022120206513220231005
20221201DEPOEUC11M   000002315276480000000231527648000000023152764800NPP     2022120206513220231106
20221201DEPOEUC1D    000008544097780000000854409778000000085440977800NPP     2022120206513220221202
20221201DEPOEUC1M    000001147504740000000114750474000000011475047400NPP     2022120206513220230105
20221201DEPOEUC1Y    000002345988430000000234598843000000023459884300NPP     2022120206513220231205
20221201DEPOEUC2M    000001582241840000000158224184000000015822418400NPP     2022120206513220230206
20221201DEPOEUC2W    000002029683320000000202968332000000020296833200NPP     2022120206513220221219
20221201DEPOEUC3D    000002442212760000000244221276000000024422127600NPP     2022120206513220221206
20221201DEPOEUC3M    000001757903020000000175790302000000017579030200NPP     2022120206513220230306
20221201DEPOEUC3W    000001937599690000000193759969000000019375996900NPP     2022120206513220221227
20221201DEPOEUC4M    000001825168280000000182516828000000018251682800NPP     2022120206513220230405
20221201DEPOEUC5M    000001960363470000000196036347000000019603634700NPP     2022120206513320230505
20221201DEPOEUC6M    000002072537400000000207253740000000020725374000NPP     2022120206513320230605
20221201DEPOEUC7M    000002055132610000000205513261000000020551326100NPP     2022120206513320230705
20221201DEPOEUC8M    000002136250610000000213625061000000021362506100NPP     2022120206513320230807
20221201DEPOEUC9M    000002219002380000000221900238000000022190023800NPP     2022120206513320230905
20221201DEPOEUCSW    000002369184620000000236918462000000023691846200NPP     2022120206513320221212
20221201IMGBGBP10M   000004059593080000000405959308000000040595930800NPP     2022120206513320231005
20221201IMGBGBP11M   000004104451740000000410445174000000041044517400NPP     2022120206513320231106
20221201IMGBGBP1M    000002767484540000000276748454000000027674845400NPP     2022120206513320230105
20221201IMGBGBP1Y    000004147547260000000414754726000000041475472600NPP     2022120206513320231205
20221201IMGBGBP2M    000003144352770000000314435277000000031443527700NPP     2022120206513320230206
20221201IMGBGBP2W    000003262153560000000326215356000000032621535600NPP     2022120206513320221219
20221201IMGBGBP3M    000003389832110000000338983211000000033898321100NPP     2022120206513320230306
20221201IMGBGBP3W    000003314667060000000331466706000000033146670600NPP     2022120206513320221228
20221201IMGBGBP4M    000003501401760000000350140176000000035014017600NPP     2022120206513320230405
20221201IMGBGBP5M    000003638360080000000363836008000000036383600800NPP     2022120206513320230505
20221201IMGBGBP6M    000003770502740000000377050274000000037705027400NPP     2022120206513320230605
20221201IMGBGBP7M    000003862134240000000386213424000000038621342400NPP     2022120206513320230705
20221201IMGBGBP8M    000003946893220000000394689322000000039468932200NPP     2022120206513320230807
20221201IMGBGBP9M    000004009808340000000400980834000000040098083400NPP     2022120206513320230905
20221201IMGBGBPON    000005521938590000000552193859000000055219385900NPP     2022120206513320221202
20221201IMGBGBPSW    000003334157910000000333415791000000033341579100NPP     2022120206513420221212
20221201IBR COP1M    000010730713600000001073071360000000107307136000NPP     2022120206513420230105
20221201IBR COP1Y    000011896029900000001189602990000000118960299000NPP     2022120206513420231205
20221201IBR COP3M    000011145267260000001114526726000000111452672600NPP     2022120206513420230306
20221201IBR COP6M    000011560360600000001156036060000000115603606000NPP     2022120206513420230605
20221201IBR COP9M    000011759532950000001175953295000000117595329500NPP     2022120206513420230905
20221201IBR COPON    000010292000000000001029200000000000102920000000NPP     2022120206513420221202
20221201IPECEUR10M   000001634406450000000163440645000000016344064500NPP     2022120206513420231005
20221201IPECEUR11M   000001653857350000000165385735000000016538573500NPP     2022120206513420231106
20221201IPECEUR1M    000001221671600000000122167160000000012216716000NPP     2022120206513420230105
20221201IPECEUR1W    000002277180380000000227718038000000022771803800NPP     2022120206513420221212
20221201IPECEUR1Y    000001425218720000000142521872000000014252187200NPP     2022120206513420231205
20221201IPECEUR2M    000001528038130000000152803813000000015280381300NPP     2022120206513420230206
20221201IPECEUR2W    000002010002650000000201000265000000020100026500NPP     2022120206513420221219
20221201IPECEUR3M    000001571757980000000157175798000000015717579800NPP     2022120206513420230306
20221201IPECEUR3W    -000005131578100-000005131578100-000005131578100NPP     2022120206513420210518
20221201IPECEUR4M    000001512707460000000151270746000000015127074600NPP     2022120206513420230405
20221201IPECEUR5M    000001600144700000000160014470000000016001447000NPP     2022120206513420230505
20221201IPECEUR6M    000001682336910000000168233691000000016823369100NPP     2022120206513420230605
20221201IPECEUR7M    000001560264340000000156026434000000015602643400NPP     2022120206513420230705
20221201IPECEUR8M    000001574476000000000157447600000000015744760000NPP     2022120206513420230807
20221201IPECEUR9M    000001613679270000000161367927000000016136792700NPP     2022120206513420230905
20221201IPECEURON    000008838483530000000883848353000000088384835300NPP     2022120206513420221202
20221201L12MUSD1Y    000005478908656000000547890865600000054789086560NPP     2022120206513420231205
20221201L12MUSDON    000003824000000000000382400000000000038240000000NPP     2022120206513420221202
20221201L1M USD18M   000004785886379800000478588637980000047858863798NPP     2022120206513420240605
20221201L1M USD1M    000004134055587100000413405558710000041340555871NPP     2022120206513420230105
20221201L1M USD1Y    000004900688409900000490068840990000049006884099NPP     2022120206513420231205
20221201L1M USD3M    000004397318891100000439731889110000043973188911NPP     2022120206513420230306
20221201L1M USD6M    000004735072498000000473507249800000047350724980NPP     2022120206513420230605
20221201L1M USD9M    000004856059920300000485605992030000048560599203NPP     2022120206513420230905
20221201L1M USDON    000003824000000000000382400000000000038240000000NPP     2022120206513420221202
20221201L3M USD18M   000004949068009900000494906800990000049490680099NPP     2022120206513420240605
20221201L3M USD3M    000004648976210800000464897621080000046489762108NPP     2022120206513420230306
20221201L3M USD6M    000004906041577600000490604157760000049060415776NPP     2022120206513520230605
20221201L3M USD9M    000005025212119900000502521211990000050252121199NPP     2022120206513520230905
20221201L3M USDON    000003824000000000000382400000000000038240000000NPP     2022120206513520221202
20221201L6M USD18M   000005129066490000000512906649000000051290664900NPP     2022120206513520240605
20221201L6M USD1Y    000005240174810000000524017481000000052401748100NPP     2022120206513520231205
20221201L6M USD6M    000005148655730000000514865573000000051486557300NPP     2022120206513520230605
20221201L6M USDON    000003824000000000000382400000000000038240000000NPP     2022120206513520221202
20221201DEPOV1 1M    -000014533926800-000014533926800-000014533926800NPP     2022120206513520160224
20221201DEPOV1 1Y    000000178548050000000017854805000000001785480500NPP     2022120206513520170124
20221201DEPOV1 2M    -000012097852400-000012097852400-000012097852400NPP     2022120206513520160322
20221201DEPOV1 2W    -000015269419800-000015269419800-000015269419800NPP     2022120206513520160205
20221201DEPOV1 3M    -000010336581300-000010336581300-000010336581300NPP     2022120206513520160422
20221201DEPOV1 6M    -000005571508000-000005571508000-000005571508000NPP     2022120206513520160722
20221201DEPOV1 9M    -000002128617300-000002128617300-000002128617300NPP     2022120206513520161024
20221201DEPOV1 ON    -000017700000000-000017700000000-000017700000000NPP     2022120206513520160123
20221201DEPOV1 SW    -000017270021000-000017270021000-000017270021000NPP     2022120206513520160129
20221201IBL USD1M    000004119694080000000411969408000000041196940800NPP     2022120206513520230103
20221201IBL USD1W    000003585451780000000358545178000000035854517800NPP     2022120206513520221207
20221201IBL USD1Y    000004107918870000000410791887000000041079188700NPP     2022120206513520231201
20221201IBL USD2M    000004179322150000000417932215000000041793221500NPP     2022120206513620230202
20221201IBL USD2W    000003885473320000000388547332000000038854733200NPP     2022120206513620221215
20221201IBL USD3M    000004195054670000000419505467000000041950546700NPP     2022120206513620230302
20221201IBL USD6M    000004238880170000000423888017000000042388801700NPP     2022120206513620230601
20221201IBL USD9M    000004142833870000000414283387000000041428338700NPP     2022120206513620230831
20221201IBL USDON    000004114347120000000411434712000000041143471200NPP     2022120206513620221202
20221201IUV UVR18M   000003906509190000000390650919000000039065091900NPP     2022120206513620240605
20221201IUV UVR1M    000001245296540000000124529654000000012452965400NPP     2022120206513620230105
20221201IUV UVR1Y    000004068630210000000406863021000000040686302100NPP     2022120206513620231205
20221201IUV UVR3M    -000031683534100-000031683534100-000031683534100NPP     2022120206513620230306
20221201IUV UVR6M    000000427680680000000042768068000000004276806800NPP     2022120206513620230605
20221201IUV UVR9M    000001792744420000000179274442000000017927444200NPP     2022120206513620230905
20221201IUV UVRON    000001683746500000000168374650000000016837465000NPP     2022120206513620221202
20221201DEPOUSD10M   000004780517220000000478051722000000047805172200NPP     2022120206513620231005
20221201DEPOUSD11M   000004789828920000000478982892000000047898289200NPP     2022120206513620231106
20221201DEPOUSD1M    000004053254550000000405325455000000040532545500NPP     2022120206513620230105
20221201DEPOUSD1Y    000004798267650000000479826765000000047982676500NPP     2022120206513620231205
20221201DEPOUSD2M    000004228263940000000422826394000000042282639400NPP     2022120206513620230206
20221201DEPOUSD2W    000003955301120000000395530112000000039553011200NPP     2022120206513620221219
20221201DEPOUSD3M    000004381397160000000438139716000000043813971600NPP     2022120206513620230306
20221201DEPOUSD3W    000004004033160000000400403316000000040040331600NPP     2022120206513620221227
20221201DEPOUSD4M    000004482776910000000448277691000000044827769100NPP     2022120206513620230405
20221201DEPOUSD5M    000004557288860000000455728886000000045572888600NPP     2022120206513620230505
20221201DEPOUSD6M    000004634284540000000463428454000000046342845400NPP     2022120206513620230605
20221201DEPOUSD7M    000004689736260000000468973626000000046897362600NPP     2022120206513620230705
20221201DEPOUSD8M    000004726771730000000472677173000000047267717300NPP     2022120206513620230807
20221201DEPOUSD9M    000004759318050000000475931805000000047593180500NPP     2022120206513620230905
20221201DEPOUSDON    000003820000000000000382000000000000038200000000NPP     2022120206513620221202
20221201DEPOUSDSW    000003899588890000000389958889000000038995888900NPP     2022120206513620221212
20221201UIBRUSD1M    000004119694080000000411969408000000041196940800NPP     2022120206513620230103
20221201UIBRUSD1W    000003585451780000000358545178000000035854517800NPP     2022120206513620221207
20221201UIBRUSD1Y    000004107918870000000410791887000000041079188700NPP     2022120206513620231201
20221201UIBRUSD2M    000004179322150000000417932215000000041793221500NPP     2022120206513620230202
20221201UIBRUSD2W    000003885473320000000388547332000000038854733200NPP     2022120206513620221215
20221201UIBRUSD3M    000004195054670000000419505467000000041950546700NPP     2022120206513620230302
20221201UIBRUSD6M    000004238880170000000423888017000000042388801700NPP     2022120206513620230601
20221201UIBRUSD9M    000004142833870000000414283387000000041428338700NPP     2022120206513620230831
20221201UIBRUSDON    000004114347120000000411434712000000041143471200NPP     2022120206513620221202
20221201SRTMUSD1Y    000004919250000000000491925000000000049192500000NPP     20221201211201        
20221201DEPOCOF10Y   000013979605350000001397960535000000139796053500NPP     2022120206513720321206
20221201DEPOCOF12Y   000015501159130000001550115913000000155011591300NPP     2022120206513720341205
20221201DEPOCOF15Y   000018326505090000001832650509000000183265050900NPP     2022120206513720371207
20221201DEPOCOF18M   000012965461610000001296546161000000129654616100NPP     2022120206513720240531
20221201DEPOCOF20Y   000024312824690000002431282469000000243128246900NPP     2022120206513720421205
20221201DEPOCOF25Y   000031715039820000003171503982000000317150398200NPP     2022120206513720471205
20221201DEPOCOF2Y    000010777550530000001077755053000000107775505300NPP     2022120206513720241205
20221201DEPOCOF3Y    000010419547300000001041954730000000104195473000NPP     2022120206513720251205
20221201DEPOCOF4Y    000010440384410000001044038441000000104403844100NPP     2022120206513820261207
20221201DEPOCOF5Y    000010557879590000001055787959000000105578795900NPP     2022120206513820271206
20221201DEPOCOF6Y    000010629840310000001062984031000000106298403100NPP     2022120206513820281205
20221201DEPOCOF7Y    000011047571440000001104757144000000110475714400NPP     2022120206513820291205
20221201DEPOCOF8Y    000011587104010000001158710401000000115871040100NPP     2022120206513820301205
20221201DEPOCOF9Y    000011999819260000001199981926000000119998192600NPP     2022120206513820311205
20221201DTFPCOP10Y   000017374111900000001737411190000000173741119000NPP     2022120206513820321206
20221201DTFPCOP2Y    000011975852210000001197585221000000119758522100NPP     2022120206513820241205
20221201DTFPCOP3Y    000011997915790000001199791579000000119979157900NPP     2022120206513820251205
20221201DTFPCOP4Y    000012262620680000001226262068000000122626206800NPP     2022120206513820261207
20221201DTFPCOP5Y    000012600747200000001260074720000000126007472000NPP     2022120206513820271206
20221201DTFPCOP6Y    000012970225360000001297022536000000129702253600NPP     2022120206513820281205
20221201DTFPCOP7Y    000013640036470000001364003647000000136400364700NPP     2022120206513820291205
20221201DTFPCOP8Y    000014338312070000001433831207000000143383120700NPP     2022120206513820301205
20221201DTFPCOP9Y    000014862046620000001486204662000000148620466200NPP     2022120206513920311205
20221201ESTRUSD10M   000002479404450000000247940445000000024794044500NPP     2022120206513920231005
20221201ESTRUSD10Y   000002561511860000000256151186000000025615118600NPP     2022120206513920321206
20221201ESTRUSD11M   000002508868270000000250886827000000025088682700NPP     2022120206513920231106
20221201ESTRUSD12Y   000002676416030000000267641603000000026764160300NPP     2022120206513920341205
20221201ESTRUSD15Y   000002783239610000000278323961000000027832396100NPP     2022120206513920371207
20221201ESTRUSD18M   000002560880480000000256088048000000025608804800NPP     2022120206513920240605
20221201ESTRUSD1M    000001635363510000000163536351000000016353635100NPP     2022120206513920230105
20221201ESTRUSD1W    000001400976840000000140097684000000014009768400NPP     2022120206513920221212
20221201ESTRUSD1Y    000002530934250000000253093425000000025309342500NPP     2022120206513920231205
20221201ESTRUSD20Y   000002739053360000000273905336000000027390533600NPP     2022120206513920421205
20221201ESTRUSD25Y   000002574028190000000257402819000000025740281900NPP     2022120206513920471205
20221201ESTRUSD2M    000001786555910000000178655591000000017865559100NPP     2022120206513920230206
20221201ESTRUSD2W    000001402139850000000140213985000000014021398500NPP     2022120206513920221219
20221201ESTRUSD2Y    000002557134040000000255713404000000025571340400NPP     2022120206513920241205
20221201ESTRUSD3M    000001949392510000000194939251000000019493925100NPP     2022120206513920230306
20221201ESTRUSD3Y    000002465673770000000246567377000000024656737700NPP     2022120206513920251205
20221201ESTRUSD4M    000002077044930000000207704493000000020770449300NPP     2022120206513920230405
20221201ESTRUSD4Y    000002403923070000000240392307000000024039230700NPP     2022120206513920261207
20221201ESTRUSD5M    000002185865020000000218586502000000021858650200NPP     2022120206513920230505
20221201ESTRUSD5Y    000002382674340000000238267434000000023826743400NPP     2022120206513920271206
20221201ESTRUSD6M    000002276852110000000227685211000000022768521100NPP     2022120206513920230605
20221201ESTRUSD7M    000002345610980000000234561098000000023456109800NPP     2022120206513920230705
20221201ESTRUSD7Y    000002403785990000000240378599000000024037859900NPP     2022120206513920291205
20221201ESTRUSD8M    000002404969260000000240496926000000024049692600NPP     2022120206513920230807
20221201ESTRUSD9M    000002445382330000000244538233000000024453823300NPP     2022120206513920230905
20221201ESTRUSDON    000001391000000000000139100000000000013910000000NPP     2022120206513920221202
20221201FFE USD10M   000004800207780000000480020778000000048002077800NPP     2022120206513920231005
20221201FFE USD10Y   000003734395480000000373439548000000037343954800NPP     2022120206513920321206
20221201FFE USD11M   000004814857900000000481485790000000048148579000NPP     2022120206513920231106
20221201FFE USD12Y   000003852448720000000385244872000000038524487200NPP     2022120206513920341205
20221201FFE USD15Y   000004081659560000000408165956000000040816595600NPP     2022120206513920371207
20221201FFE USD1M    000004156625530000000415662553000000041566255300NPP     2022120206514020230105
20221201FFE USD1W    000003837311710000000383731171000000038373117100NPP     2022120206514020221212
20221201FFE USD1Y    000004814085780000000481408578000000048140857800NPP     2022120206514020231205
20221201FFE USD20Y   000004360830550000000436083055000000043608305500NPP     2022120206514020421205
20221201FFE USD25Y   000004386024570000000438602457000000043860245700NPP     2022120206514020471205
20221201FFE USD2M    000004285647000000000428564700000000042856470000NPP     2022120206514020230206
20221201FFE USD2W    000003955168030000000395516803000000039551680300NPP     2022120206514020221219
20221201FFE USD2Y    000004419162200000000441916220000000044191622000NPP     2022120206514020241205
20221201FFE USD3M    000004423694850000000442369485000000044236948500NPP     2022120206514020230306
20221201FFE USD3W    000004083130720000000408313072000000040831307200NPP     2022120206514020221227
20221201FFE USD3Y    000004003374240000000400337424000000040033742400NPP     2022120206514020251205
20221201FFE USD4M    000004522511590000000452251159000000045225115900NPP     2022120206514020230405
20221201FFE USD4Y    000003790475280000000379047528000000037904752800NPP     2022120206514020261207
20221201FFE USD5M    000004601875690000000460187569000000046018756900NPP     2022120206514020230505
20221201FFE USD5Y    000003686656150000000368665615000000036866561500NPP     2022120206514020271206
20221201FFE USD6M    000004667729910000000466772991000000046677299100NPP     2022120206514020230605
20221201FFE USD7M    000004715547510000000471554751000000047155475100NPP     2022120206514020230705
20221201FFE USD7Y    000003629820070000000362982007000000036298200700NPP     2022120206514020291205
20221201FFE USD8M    000004755253950000000475525395000000047552539500NPP     2022120206514020230807
20221201FFE USD9M    000004780304140000000478030414000000047803041400NPP     2022120206514020230905
20221201FFE USDON    000003830000000000000383000000000000038300000000NPP     2022120206514020221202
20221201IMGBGBP15M   000004204638470000000420463847000000042046384700NPP     2022120206514020240305
20221201IMGBGBP18M   000004216708520000000421670852000000042167085200NPP     2022120206514020240605
20221201IMGBGBP21M   000004211459050000000421145905000000042114590500NPP     2022120206514020240905
20221201IMGBGBP2Y    000004193347320000000419334732000000041933473200NPP     2022120206514020241205
20221201IMGBGBP3Y    000004021214370000000402121437000000040212143700NPP     2022120206514020251205
20221201IMGBGBP4Y    000003886917890000000388691789000000038869178900NPP     2022120206514020261207
20221201IMGBGBP5Y    000003778247830000000377824783000000037782478300NPP     2022120206514020271206
20221201IBL USD10Y   000002780576020000000278057602000000027805760200NPP     2022120206514120321206
20221201IBL USD2Y    000003795965090000000379596509000000037959650900NPP     2022120206514120241205
20221201IBL USD3Y    000003117603060000000311760306000000031176030600NPP     2022120206514120251205
20221201IBL USD4Y    000002820616100000000282061610000000028206161000NPP     2022120206514120261207
20221201IBL USD5Y    000002680225340000000268022534000000026802253400NPP     2022120206514120271206
20221201IBL USD6Y    000002606153220000000260615322000000026061532200NPP     2022120206514120281205
20221201IBL USD7Y    000002576020140000000257602014000000025760201400NPP     2022120206514120291205
20221201IBL USD8Y    000002655120370000000265512037000000026551203700NPP     2022120206514120301205
20221201IBL USD9Y    000002733764450000000273376445000000027337644500NPP     2022120206514120311205
20221201IBR COP10Y   000017565287660000001756528766000000175652876600NPP     2022120206514120321206
20221201IBR COP12Y   000019637064990000001963706499000000196370649900NPP     2022120206514120341205
20221201IBR COP15Y   000023491336340000002349133634000000234913363400NPP     2022120206514120371207
20221201IBR COP18M   000011966460300000001196646030000000119664603000NPP     2022120206514120240605
20221201IBR COP20Y   000034254821390000003425482139000000342548213900NPP     2022120206514120421205
20221201IBR COP2Y    000011869296640000001186929664000000118692966400NPP     2022120206514120241205
20221201IBR COP3Y    000011951044370000001195104437000000119510443700NPP     2022120206514120251205
20221201IBR COP4Y    000012256672760000001225667276000000122566727600NPP     2022120206514120261207
20221201IBR COP5Y    000012628991950000001262899195000000126289919500NPP     2022120206514120271206
20221201IBR COP6Y    000013018391200000001301839120000000130183912000NPP     2022120206514120281205
20221201IBR COP7Y    000013721836920000001372183692000000137218369200NPP     2022120206514120291205
20221201IBR COP8Y    000014431214610000001443121461000000144312146100NPP     2022120206514120301205
20221201IBR COP9Y    000015000123220000001500012322000000150001232200NPP     2022120206514120311205
20221201IPECEUR10Y   000001458278440000000145827844000000014582784400NPP     2022120206514220321206
20221201IPECEUR12Y   000001653484100000000165348410000000016534841000NPP     2022120206514220341205
20221201IPECEUR2Y    000001829630670000000182963067000000018296306700NPP     2022120206514220241205
20221201IPECEUR3Y    000001459429550000000145942955000000014594295500NPP     2022120206514220251205
20221201IPECEUR4Y    000001303990070000000130399007000000013039900700NPP     2022120206514220261207
20221201IPECEUR5Y    000001248328840000000124832884000000012483288400NPP     2022120206514220271206
20221201IPECEUR6Y    000001237376190000000123737619000000012373761900NPP     2022120206514220281205
20221201IPECEUR7Y    000001230689260000000123068926000000012306892600NPP     2022120206514220291205
20221201IPECEUR8Y    000001343870310000000134387031000000013438703100NPP     2022120206514220301205
20221201IPECEUR9Y    000001426459740000000142645974000000014264597400NPP     2022120206514220311205
20221201CPI COP100M  000193414620561500019341462056150001934146205615NPP     2022120206514220310407
20221201CPI COP101M  000194304327816100019430432781610001943043278161NPP     2022120206514220310505
20221201CPI COP102M  000195178697291300019517869729130001951786972913NPP     2022120206514220310605
20221201CPI COP103M  000196076519298800019607651929880001960765192988NPP     2022120206514220310707
20221201CPI COP104M  000196978471287600019697847128760001969784712876NPP     2022120206514220310805
20221201CPI COP105M  000197845176561300019784517656130001978451765613NPP     2022120206514220310905
20221201CPI COP106M  000198755264373500019875526437350001987552643735NPP     2022120206514220311006
20221201CPI COP107M  000200106800171200020010680017120002001068001712NPP     2022120206514220311105
20221201CPI COP108M  000202488071093200020248807109320002024880710932NPP     2022120206514220311205
20221201CPI COP109M  000204877430332100020487743033210002048774303321NPP     2022120206514220320105
20221201CPI COP10M   000132660272822300013266027282230001326602728223NPP     2022120206514220231005
20221201CPI COP110M  000207151569808800020715156980880002071515698088NPP     2022120206514220320205
20221201CPI COP111M  000209595958332600020959595833260002095959583326NPP     2022120206514320320305
20221201CPI COP112M  000211985352257600021198535225760002119853522576NPP     2022120206514320320405
20221201CPI COP113M  000214486779414200021448677941420002144867794142NPP     2022120206514320320505
20221201CPI COP114M  000216931928699500021693192869950002169319286995NPP     2022120206514320320608
20221201CPI COP115M  000219470032265300021947003226530002194700322653NPP     2022120206514320320706
20221201CPI COP116M  000222037831642800022203783164280002220378316428NPP     2022120206514320320805
20221201CPI COP117M  000224546859140400022454685914040002245468591404NPP     2022120206514320320906
20221201CPI COP118M  000227174057392300022717405739230002271740573923NPP     2022120206514320321005
20221201CPI COP119M  000229286776126100022928677612610002292867761261NPP     2022120206514320321105
20221201CPI COP11M   000132832731177000013283273117700001328327311770NPP     2022120206514320231107
20221201CPI COP120M  000230433210006700023043321000670002304332100067NPP     2022120206514320321206
20221201CPI COP121M  000231585376056700023158537605670002315853760567NPP     2022120206514320330105
20221201CPI COP122M  000232627510249000023262751024900002326275102490NPP     2022120206514320330207
20221201CPI COP123M  000233767385049200023376738504920002337673850492NPP     2022120206514320330307
20221201CPI COP124M  000234866091758900023486609175890002348660917589NPP     2022120206514320330405
20221201CPI COP125M  000236016935608600023601693560860002360169356086NPP     2022120206514320330505
20221201CPI COP126M  000237126215205900023712621520590002371262152059NPP     2022120206514320330606
20221201CPI COP127M  000238264421038900023826442103890002382644210389NPP     2022120206514320330705
20221201CPI COP128M  000239408090259900023940809025990002394080902599NPP     2022120206514320330805
20221201CPI COP129M  000240509367475100024050936747510002405093674751NPP     2022120206514320330905
20221201CPI COP12M   000133656294110300013365629411030001336562941103NPP     2022120206514320231205
20221201CPI COP130M  000241663812439000024166381243900002416638124390NPP     2022120206514320331005
20221201CPI COP131M  000242775465976200024277546597620002427754659762NPP     2022120206514320331108
20221201CPI COP132M  000243916510666300024391651066630002439165106663NPP     2022120206514320331205
20221201CPI COP133M  000245062918266400024506291826640002450629182664NPP     2022120206514320340105
20221201CPI COP134M  000246092182523100024609218252310002460921825231NPP     2022120206514320340206
20221201CPI COP135M  000247248815781000024724881578100002472488157810NPP     2022120206514320340306
20221201CPI COP136M  000248361435452000024836143545200002483614354520NPP     2022120206514320340405
20221201CPI COP137M  000249503898055100024950389805510002495038980551NPP     2022120206514320340505
20221201CPI COP138M  000250626665596300025062666559630002506266655963NPP     2022120206514320340605
20221201CPI COP139M  000251779548258100025177954825810002517795482581NPP     2022120206514320340705
20221201CPI COP13M   000134471597504300013447159750430001344715975043NPP     2022120206514320240105
20221201CPI COP140M  000252937734180100025293773418010002529377341801NPP     2022120206514320340808
20221201CPI COP141M  000254050660210400025405066021040002540506602104NPP     2022120206514320340905
20221201CPI COP142M  000255193888181400025519388818140002551938881814NPP     2022120206514320341005
20221201CPI COP143M  000256367780067000025636778006700002563677800670NPP     2022120206514420341107
20221201CPI COP144M  000257726529301400025772652930140002577265293014NPP     2022120206514420341205
20221201CPI COP145M  000259092479906700025909247990670002590924799067NPP     2022120206514420350105
20221201CPI COP146M  000260310214562200026031021456220002603102145622NPP     2022120206514420350205
20221201CPI COP147M  000261663827678000026166382767800002616638276780NPP     2022120206514420350305
20221201CPI COP148M  000262972146816400026297214681640002629721468164NPP     2022120206514420350405
20221201CPI COP149M  000264339601979800026433960197980002643396019798NPP     2022120206514420350508
20221201CPI COP14M   000135238085610100013523808561010001352380856101NPP     2022120206514420240205
20221201CPI COP150M  000265661299989700026566129998970002656612999897NPP     2022120206514420350605
20221201CPI COP151M  000267016172619700026701617261970002670161726197NPP     2022120206514420350705
20221201CPI COP152M  000268377955100000026837795510000002683779551000NPP     2022120206514420350806
20221201CPI COP153M  000269693007080000026969300708000002696930070800NPP     2022120206514420350905
20221201CPI COP154M  000271068441416100027106844141610002710684414161NPP     2022120206514420351005
20221201CPI COP155M  000272396676779000027239667677900002723966767790NPP     2022120206514420351106
20221201CPI COP156M  000273758660162900027375866016290002737586601629NPP     2022120206514420351205
20221201CPI COP157M  000275127453463800027512745346380002751274534638NPP     2022120206514420360108
20221201CPI COP158M  000276393039749700027639303974970002763930397497NPP     2022120206514420360205
20221201CPI COP159M  000277747365644500027774736564450002777473656445NPP     2022120206514420360305
20221201CPI COP15M   000136063037932300013606303793230001360630379323NPP     2022120206514420240305
20221201CPI COP160M  000279080552999600027908055299960002790805529996NPP     2022120206514420360407
20221201CPI COP161M  000280448047709300028044804770930002804480477093NPP     2022120206514420360505
20221201CPI COP162M  000281766153533500028176615353350002817661535335NPP     2022120206514420360605
20221201CPI COP163M  000283146807685800028314680768580002831468076858NPP     2022120206514420360707
20221201CPI COP164M  000284505912362700028450591236270002845059123627NPP     2022120206514420360805
20221201CPI COP165M  000285843090150800028584309015080002858430901508NPP     2022120206514420360905
20221201CPI COP166M  000287215136983500028721513698350002872151369835NPP     2022120206514420361006
20221201CPI COP167M  000288536326613600028853632661360002885363266136NPP     2022120206514420361105
20221201CPI COP168M  000289892447348700028989244734870002898924473487NPP     2022120206514420361205
20221201CPI COP169M  000291254941851300029125494185130002912549418513NPP     2022120206514420370105
20221201CPI COP16M   000136865809856100013686580985610001368658098561NPP     2022120206514420240405
20221201CPI COP170M  000292478212607000029247821260700002924782126070NPP     2022120206514420370205
20221201CPI COP171M  000293852860206300029385286020630002938528602063NPP     2022120206514420370305
20221201CPI COP172M  000295175198077200029517519807720002951751980772NPP     2022120206514420370406
20221201CPI COP173M  000296533003988400029653300398840002965330039884NPP     2022120206514420370505
20221201CPI COP174M  000297867402506300029786740250630002978674025063NPP     2022120206514420370605
20221201CPI COP175M  000299237592557900029923759255790002992375925579NPP     2022120206514520370706
20221201CPI COP176M  000300614085483600030061408548360003006140854836NPP     2022120206514520370805
20221201CPI COP177M  000301936787459800030193678745980003019367874598NPP     2022120206514520370907
20221201CPI COP17M   000137755437620200013775543762020001377554376202NPP     2022120206514520240506
20221201CPI COP18M   000138747276771100013874727677110001387472767711NPP     2022120206514520240605
20221201CPI COP19M   000139801756074500013980175607450001398017560745NPP     2022120206514520240705
20221201CPI COP1M    000126441380164500012644138016450001264413801645NPP     2022120206514520230105
20221201CPI COP20M   000140878229596300014087822959630001408782295963NPP     2022120206514520240805
20221201CPI COP21M   000141948904141200014194890414120001419489041412NPP     2022120206514520240905
20221201CPI COP22M   000143070300483900014307030048390001430703004839NPP     2022120206514520241007
20221201CPI COP23M   000144043178527200014404317852720001440431785272NPP     2022120206514520241105
20221201CPI COP24M   000144734585784200014473458578420001447345857842NPP     2022120206514520241205
20221201CPI COP25M   000145414838337300014541483833730001454148383373NPP     2022120206514520250107
20221201CPI COP26M   000146011039174500014601103917450001460110391745NPP     2022120206514520250205
20221201CPI COP27M   000146653487746900014665348774690001466534877469NPP     2022120206514520250305
20221201CPI COP28M   000147269432395400014726943239540001472694323954NPP     2022120206514520250407
20221201CPI COP29M   000147887964011500014788796401150001478879640115NPP     2022120206514520250505
20221201CPI COP2M    000128123050520700012812305052070001281230505207NPP     2022120206514520230206
20221201CPI COP30M   000148479515867500014847951586750001484795158675NPP     2022120206514520250605
20221201CPI COP31M   000149073433931000014907343393100001490734339310NPP     2022120206514520250707
20221201CPI COP32M   000149654820323300014965482032330001496548203233NPP     2022120206514520250805
20221201CPI COP33M   000150193577676500015019357767650001501935776765NPP     2022120206514520250905
20221201CPI COP34M   000150734274556100015073427455610001507342745561NPP     2022120206514520251006
20221201CPI COP35M   000151276917944500015127691794450001512769179445NPP     2022120206514520251105
20221201CPI COP36M   000151851770232700015185177023270001518517702327NPP     2022120206514520251205
20221201CPI COP37M   000152413621782600015241362178260001524136217826NPP     2022120206514520260105
20221201CPI COP38M   000152916586734500015291658673450001529165867345NPP     2022120206514520260205
20221201CPI COP39M   000153467086446700015346708644670001534670864467NPP     2022120206514520260305
20221201CPI COP3M    000129096785704600012909678570460001290967857046NPP     2022120206514520230306
20221201CPI COP40M   000153988874540600015398887454060001539888745406NPP     2022120206514520260406
20221201CPI COP41M   000154512436714100015451243671410001545124367141NPP     2022120206514520260505
20221201CPI COP42M   000155006876511600015500687651160001550068765116NPP     2022120206514520260605
20221201CPI COP43M   000155502898516400015550289851640001555028985164NPP     2022120206514520260706
20221201CPI COP44M   000156000507791600015600050779160001560005077916NPP     2022120206514520260805
20221201CPI COP45M   000156468509315000015646850931500001564685093150NPP     2022120206514520260907
20221201CPI COP46M   000156937914843000015693791484300001569379148430NPP     2022120206514620261005
20221201CPI COP47M   000157408728587500015740872858750001574087285875NPP     2022120206514620261105
20221201CPI COP48M   000157975400010400015797540001040001579754000104NPP     2022120206514620261207
20221201CPI COP49M   000158528313910400015852831391040001585283139104NPP     2022120206514620270105
20221201CPI COP4M    000129806818026000012980681802600001298068180260NPP     2022120206514620230405
20221201CPI COP50M   000159019751683600015901975168360001590197516836NPP     2022120206514620270205
20221201CPI COP51M   000159560418839300015956041883930001595604188393NPP     2022120206514620270305
20221201CPI COP52M   000160071012179600016007101217960001600710121796NPP     2022120206514620270405
20221201CPI COP53M   000160599246519800016059924651980001605992465198NPP     2022120206514620270505
20221201CPI COP54M   000161097104184000016109710418400001610971041840NPP     2022120206514620270608
20221201CPI COP55M   000161612614917400016161261491740001616126149174NPP     2022120206514620270706
20221201CPI COP56M   000162113614023600016211361402360001621136140236NPP     2022120206514620270805
20221201CPI COP57M   000162599954865700016259995486570001625999548657NPP     2022120206514620270906
20221201CPI COP58M   000163087754730300016308775473030001630877547303NPP     2022120206514620271005
20221201CPI COP59M   000163642253096400016364225309640001636422530964NPP     2022120206514620271105
20221201CPI COP5M    000130455852116200013045585211620001304558521162NPP     2022120206514620230505
20221201CPI COP60M   000164411371685900016441137168590001644113716859NPP     2022120206514620271206
20221201CPI COP61M   000165184105132800016518410513280001651841051328NPP     2022120206514620280105
20221201CPI COP62M   000165910915195400016591091519540001659109151954NPP     2022120206514620280207
20221201CPI COP63M   000166690696496800016669069649680001666906964968NPP     2022120206514620280306
20221201CPI COP64M   000167440804631100016744080463110001674408046311NPP     2022120206514620280405
20221201CPI COP65M   000168211032332400016821103233240001682110323324NPP     2022120206514620280505
20221201CPI COP66M   000168967981977900016896798197790001689679819779NPP     2022120206514620280605
20221201CPI COP67M   000169745234695000016974523469500001697452346950NPP     2022120206514620280705
20221201CPI COP68M   000170526062774600017052606277460001705260627746NPP     2022120206514620280808
20221201CPI COP69M   000171293430057100017129343005710001712934300571NPP     2022120206514620280905
20221201CPI COP6M    000131264678399300013126467839930001312646783993NPP     2022120206514620230605
20221201CPI COP70M   000172081379835300017208137983530001720813798353NPP     2022120206514620281005
20221201CPI COP71M   000172786913492600017278691349260001727869134926NPP     2022120206514620281107
20221201CPI COP72M   000173408946381200017340894638120001734089463812NPP     2022120206514620281205
20221201CPI COP73M   000174015877693600017401587769360001740158776936NPP     2022120206514620290105
20221201CPI COP74M   000174572728502200017457272850220001745727285022NPP     2022120206514620290205
20221201CPI COP75M   000175183733051900017518373305190001751837330519NPP     2022120206514620290305
20221201CPI COP76M   000175761839371000017576183937100001757618393710NPP     2022120206514620290405
20221201CPI COP77M   000176359429624900017635942962490001763594296249NPP     2022120206514720290507
20221201CPI COP78M   000176941415742600017694141574260001769414157426NPP     2022120206514720290605
20221201CPI COP79M   000177525322414600017752532241460001775253224146NPP     2022120206514720290705
20221201CPI COP7M    000131999760598300013199976059830001319997605983NPP     2022120206514720230705
20221201CPI COP80M   000178111155978500017811115597850001781111559785NPP     2022120206514720290806
20221201CPI COP81M   000178681111677700017868111167770001786811116777NPP     2022120206514720290905
20221201CPI COP82M   000179252891235000017925289123500001792528912350NPP     2022120206514720291005
20221201CPI COP83M   000179880276354400017988027635440001798802763544NPP     2022120206514720291106
20221201CPI COP84M   000180653761542700018065376154270001806537615427NPP     2022120206514720291205
20221201CPI COP85M   000181430572717300018143057271730001814305727173NPP     2022120206514720300108
20221201CPI COP86M   000182138151950900018213815195090001821381519509NPP     2022120206514720300205
20221201CPI COP87M   000182921346004300018292134600430001829213460043NPP     2022120206514720300305
20221201CPI COP88M   000183671323522900018367132352290001836713235229NPP     2022120206514720300405
20221201CPI COP89M   000184461110214100018446111021410001844611102141NPP     2022120206514720300506
20221201CPI COP8M    000132527759640700013252775964070001325277596407NPP     2022120206514720230808
20221201CPI COP90M   000185217400766000018521740076600001852174007660NPP     2022120206514720300605
20221201CPI COP91M   000185995313849200018599531384920001859953138492NPP     2022120206514720300705
20221201CPI COP92M   000186776494167300018677649416730001867764941673NPP     2022120206514720300805
20221201CPI COP93M   000187542277793400018754227779340001875422777934NPP     2022120206514720300905
20221201CPI COP94M   000188329955360200018832995536020001883299553602NPP     2022120206514720301007
20221201CPI COP95M   000189120941172700018912094117270001891209411727NPP     2022120206514720301105
20221201CPI COP96M   000189990897502100018999089750210001899908975021NPP     2022120206514720301205
20221201CPI COP97M   000190864855630600019086485563060001908648556306NPP     2022120206514720310107
20221201CPI COP98M   000191666488024200019166648802420001916664880242NPP     2022120206514720310205
20221201CPI COP99M   000192548153869100019254815386910001925481538691NPP     2022120206514720310305
20221201CPI COP9M    000132673540176300013267354017630001326735401763NPP     2022120206514720230905
20221201CPI COPON    000123510000000000012351000000000001235100000000NPP     2022120206514720221202
20221201L12MUSD10Y   000004618711142100000461871114210000046187111421NPP     2022120206514720321206
20221201L12MUSD12Y   000004840745520400000484074552040000048407455204NPP     2022120206514720341205
20221201L12MUSD15Y   000005158241770900000515824177090000051582417709NPP     2022120206514720371207
20221201L12MUSD20Y   000005596796258500000559679625850000055967962585NPP     2022120206514720421205
20221201L12MUSD25Y   000006016309674400000601630967440000060163096744NPP     2022120206514720471205
20221201L12MUSD2Y    000005129324621800000512932462180000051293246218NPP     2022120206514720241205
20221201L12MUSD30Y   000006014816498900000601481649890000060148164989NPP     2022120206514720521205
20221201L12MUSD3Y    000004755459171400000475545917140000047554591714NPP     2022120206514720251205
20221201L12MUSD4Y    000004581737825500000458173782550000045817378255NPP     2022120206514720261207
20221201L12MUSD5Y    000004492814348300000449281434830000044928143483NPP     2022120206514820271206
20221201L12MUSD7Y    000004476948582500000447694858250000044769485825NPP     2022120206514820291205
20221201L1M USD10Y   000003865729196600000386572919660000038657291966NPP     2022120206514820321206
20221201L1M USD12Y   000003983741847600000398374184760000039837418476NPP     2022120206514820341205
20221201L1M USD15Y   000004259627496500000425962749650000042596274965NPP     2022120206514820371207
20221201L1M USD20Y   000004557201993100000455720199310000045572019931NPP     2022120206514820421205
20221201L1M USD25Y   000004680734558700000468073455870000046807345587NPP     2022120206514820471205
20221201L1M USD2Y    000004520707638100000452070763810000045207076381NPP     2022120206514820241205
20221201L1M USD30Y   000004752344281000000475234428100000047523442810NPP     2022120206514820521205
20221201L1M USD3Y    000004116560303000000411656030300000041165603030NPP     2022120206514820251205
20221201L1M USD4Y    000003914376354900000391437635490000039143763549NPP     2022120206514820261207
20221201L1M USD5Y    000003814940174300000381494017430000038149401743NPP     2022120206514820271206
20221201L1M USD7Y    000003761361407900000376136140790000037613614079NPP     2022120206514820291205
20221201L3M USD10Y   000004071985810000000407198581000000040719858100NPP     2022120206514820321206
20221201L3M USD11Y   000004138108550000000413810855000000041381085500NPP     2022120206514820331205
20221201L3M USD12Y   000004203051920000000420305192000000042030519200NPP     2022120206514820341205
20221201L3M USD13Y   000004299518030000000429951803000000042995180300NPP     2022120206514820351205
20221201L3M USD14Y   000004400950420000000440095042000000044009504200NPP     2022120206514820361205
20221201L3M USD15Y   000004503711400000000450371140000000045037114000NPP     2022120206514820371207
20221201L3M USD20Y   000004842288920000000484228892000000048422889200NPP     2022120206514820421205
20221201L3M USD25Y   000005005203720000000500520372000000050052037200NPP     2022120206514820471205
20221201L3M USD2Y    000004682493310000000468249331000000046824933100NPP     2022120206514820241205
20221201L3M USD30Y   000005116478290000000511647829000000051164782900NPP     2022120206514820521205
20221201L3M USD3Y    000004281558950000000428155895000000042815589500NPP     2022120206514820251205
20221201L3M USD4Y    000004084555760000000408455576000000040845557600NPP     2022120206514820261207
20221201L3M USD5Y    000003989310050000000398931005000000039893100500NPP     2022120206514820271206
20221201L3M USD6Y    000003948138360000000394813836000000039481383600NPP     2022120206514820281205
20221201L3M USD7Y    000003947620780000000394762078000000039476207800NPP     2022120206514820291205
20221201L3M USD8Y    000003956578780000000395657878000000039565787800NPP     2022120206514820301205
20221201L3M USD9Y    000003997497540000000399749754000000039974975400NPP     2022120206514820311205
20221201L6M USD10Y   000004306758210000000430675821000000043067582100NPP     2022120206514820321206
20221201L6M USD12Y   000004455135750000000445513575000000044551357500NPP     2022120206514820341205
20221201L6M USD15Y   000004785679890000000478567989000000047856798900NPP     2022120206514820371207
20221201L6M USD20Y   000005176238430000000517623843000000051762384300NPP     2022120206514820421205
20221201L6M USD25Y   000005389492560000000538949256000000053894925600NPP     2022120206514820471205
20221201L6M USD2Y    000004865206100000000486520610000000048652061000NPP     2022120206514820241205
20221201L6M USD30Y   000005552525280000000555252528000000055525252800NPP     2022120206514920521205
20221201L6M USD3Y    000004471341770000000447134177000000044713417700NPP     2022120206514920251205
20221201L6M USD4Y    000004279518620000000427951862000000042795186200NPP     2022120206514920261207
20221201L6M USD5Y    000004190913470000000419091347000000041909134700NPP     2022120206514920271206
20221201L6M USD7Y    000004160864110000000416086411000000041608641100NPP     2022120206514920291205
20221201DEPOV1 102M  000002392201990000000239220199000000023922019900NPP     2022120206514920240726
20221201DEPOV1 10Y   000002737560350000000273756035000000027375603500NPP     2022120206514920260126
20221201DEPOV1 114M  000002609085850000000260908585000000026090858500NPP     2022120206514920250728
20221201DEPOV1 18M   000000325781970000000032578197000000003257819700NPP     2022120206514920170724
20221201DEPOV1 2Y    000000693058180000000069305818000000006930581800NPP     2022120206514920180126
20221201DEPOV1 30M   000000847808360000000084780836000000008478083600NPP     2022120206514920180726
20221201DEPOV1 3Y    000001008610600000000100861060000000010086106000NPP     2022120206514920190128
20221201DEPOV1 42M   000001151561060000000115156106000000011515610600NPP     2022120206514920190726
20221201DEPOV1 4Y    000001302076170000000130207617000000013020761700NPP     2022120206514920200127
20221201DEPOV1 54M   000001442137940000000144213794000000014421379400NPP     2022120206514920200727
20221201DEPOV1 5Y    000001586417960000000158641796000000015864179600NPP     2022120206514920210126
20221201DEPOV1 66M   000001733023480000000173302348000000017330234800NPP     2022120206514920210726
20221201DEPOV1 6Y    000001886518400000000188651840000000018865184000NPP     2022120206514920220126
20221201DEPOV1 78M   000002000425720000000200042572000000020004257200NPP     2022120206514920220726
20221201DEPOV1 7Y    000002119763050000000211976305000000021197630500NPP     2022120206514920230126
20221201DEPOV1 8Y    000002303394800000000230339480000000023033948000NPP     2022120206514920240126
20221201DEPOV1 90M   000002209446340000000220944634000000022094463400NPP     2022120206514920230726
20221201DEPOV1 9Y    000002485367490000000248536749000000024853674900NPP     2022120206514920250127
20221201SOFRUSD10M   000004780517220000000478051722000000047805172200NPP     2022120206514920231005
20221201SOFRUSD10Y   000003729532140000000372953214000000037295321400NPP     2022120206514920321206
20221201SOFRUSD11M   000004789828920000000478982892000000047898289200NPP     2022120206514920231106
20221201SOFRUSD12Y   000003838798610000000383879861000000038387986100NPP     2022120206514920341205
20221201SOFRUSD13M   000000042561510000000004256151000000000425615100NPP     2022120206514920210915
20221201SOFRUSD15Y   000004074128920000000407412892000000040741289200NPP     2022120206514920371207
20221201SOFRUSD16M   000000038552150000000003855215000000000385521500NPP     2022120206514920211215
20221201SOFRUSD1M    000004053254550000000405325455000000040532545500NPP     2022120206514920230105
20221201SOFRUSD1Y    000004798267650000000479826765000000047982676500NPP     2022120206515020231205
20221201SOFRUSD20Y   000004375586160000000437558616000000043755861600NPP     2022120206515020421205
20221201SOFRUSD25Y   000004372071510000000437207151000000043720715100NPP     2022120206515020471205
20221201SOFRUSD2M    000004228263940000000422826394000000042282639400NPP     2022120206515020230206
20221201SOFRUSD2W    000003955301120000000395530112000000039553011200NPP     2022120206515020221219
20221201SOFRUSD2Y    000004402617510000000440261751000000044026175100NPP     2022120206515020241205
20221201SOFRUSD3M    000004381397160000000438139716000000043813971600NPP     2022120206515020230306
20221201SOFRUSD3W    000004004033160000000400403316000000040040331600NPP     2022120206515020221227
20221201SOFRUSD3Y    000003989200080000000398920008000000039892000800NPP     2022120206515020251205
20221201SOFRUSD4M    000004482776910000000448277691000000044827769100NPP     2022120206515020230405
20221201SOFRUSD4Y    000003778827450000000377882745000000037788274500NPP     2022120206515020261207
20221201SOFRUSD5M    000004557288860000000455728886000000045572888600NPP     2022120206515020230505
20221201SOFRUSD5Y    000003674946770000000367494677000000036749467700NPP     2022120206515020271206
20221201SOFRUSD6M    000004634284540000000463428454000000046342845400NPP     2022120206515020230605
20221201SOFRUSD7M    000004689736260000000468973626000000046897362600NPP     2022120206515020230705
20221201SOFRUSD7Y    000003618302760000000361830276000000036183027600NPP     2022120206515020291205
20221201SOFRUSD8M    000004726771730000000472677173000000047267717300NPP     2022120206515020230807
20221201SOFRUSD9M    000004759318050000000475931805000000047593180500NPP     2022120206515020230905
20221201SOFRUSDON    000003820000000000000382000000000000038200000000NPP     2022120206515020221202
20221201SOFRUSDSW    000003899588890000000389958889000000038995888900NPP     2022120206515020221212
20221201IUV UVR10Y   000004890074890000000489007489000000048900748900NPP     2022120206515020321206
20221201IUV UVR15Y   000005594423270000000559442327000000055944232700NPP     2022120206515020371207
20221201IUV UVR2Y    000003100242000000000310024200000000031002420000NPP     2022120206515020241205
20221201IUV UVR3Y    000003673250890000000367325089000000036732508900NPP     2022120206515120251205
20221201IUV UVR4Y    000004261760070000000426176007000000042617600700NPP     2022120206515120261207
20221201IUV UVR5Y    000004657596100000000465759610000000046575961000NPP     2022120206515120271206
20221201IUV UVR6Y    000004581981360000000458198136000000045819813600NPP     2022120206515120281205
20221201IUV UVR7Y    000004976381180000000497638118000000049763811800NPP     2022120206515120291205
20221201IUV UVR8Y    000005119552800000000511955280000000051195528000NPP     2022120206515120301205
20221201IUV UVR9Y    000005074848050000000507484805000000050748480500NPP     2022120206515120311205
20221201DEPOUSD10Y   000003729532140000000372953214000000037295321400NPP     2022120206515120321206
20221201DEPOUSD12Y   000003838798610000000383879861000000038387986100NPP     2022120206515120341205
20221201DEPOUSD15Y   000004074128920000000407412892000000040741289200NPP     2022120206515120371207
20221201DEPOUSD20Y   000004375586160000000437558616000000043755861600NPP     2022120206515120421205
20221201DEPOUSD25Y   000004372071510000000437207151000000043720715100NPP     2022120206515120471205
20221201DEPOUSD2Y    000004402617510000000440261751000000044026175100NPP     2022120206515120241205
20221201DEPOUSD3Y    000003989200080000000398920008000000039892000800NPP     2022120206515120251205
20221201DEPOUSD4Y    000003778827450000000377882745000000037788274500NPP     2022120206515120261207
20221201DEPOUSD5Y    000003674946770000000367494677000000036749467700NPP     2022120206515120271206
20221201DEPOUSD7Y    000003618302760000000361830276000000036183027600NPP     2022120206515120291205
20221201UIBRUSD10Y   000002780576020000000278057602000000027805760200NPP     2022120206515120321206
20221201UIBRUSD12Y   000002964432730000000296443273000000029644327300NPP     2022120206515120341205
20221201UIBRUSD15Y   000003294792740000000329479274000000032947927400NPP     2022120206515220371207
20221201UIBRUSD18M   000003767501460000000376750146000000037675014600NPP     2022120206515220240531
20221201UIBRUSD20Y   000003617167700000000361716770000000036171677000NPP     2022120206515220421205
20221201UIBRUSD25Y   000003699495870000000369949587000000036994958700NPP     2022120206515220471205
20221201UIBRUSD2Y    000003795965090000000379596509000000037959650900NPP     2022120206515220241205
20221201UIBRUSD3Y    000003117603060000000311760306000000031176030600NPP     2022120206515220251205
20221201UIBRUSD4Y    000002820616100000000282061610000000028206161000NPP     2022120206515220261207
20221201UIBRUSD5Y    000002680225340000000268022534000000026802253400NPP     2022120206515220271206
20221201UIBRUSD6Y    000002606153220000000260615322000000026061532200NPP     2022120206515220281205
20221201UIBRUSD7Y    000002576020140000000257602014000000025760201400NPP     2022120206515220291205
20221201UIBRUSD8Y    000002655120370000000265512037000000026551203700NPP     2022120206515220301205
20221201UIBRUSD9Y    000002733764450000000273376445000000027337644500NPP     2022120206515220311205
20221201T2COCOF1M    000010701998000000001070199800000000107019980000NPP     2022120206513220230103
20221201T2COCOF1Y    000012646553810000001264655381000000126465538100NPP     2022120206513220231201
20221201T2COCOF2M    000011004005750000001100400575000000110040057500NPP     2022120206513220230202
20221201T2COCOF2W    000010497832660000001049783266000000104978326600NPP     2022120206513220221215
20221201T2COCOF3M    000011331544960000001133154496000000113315449600NPP     2022120206513220230302
20221201T2COCOF6M    000011971902420000001197190242000000119719024200NPP     2022120206513220230601
20221201T2COCOF9M    000012415580300000001241558030000000124155803000NPP     2022120206513220230831
20221201T2COCOFON    000009997602370000000999760237000000099976023700NPP     2022120206513220221202
20221201T2COCOFSW    000010631168800000001063116880000000106311688000NPP     2022120206513220221207
20221201T2DTCOP1Y    000012736964360000001273696436000000127369643600NPP     2022120206513220231205
20221201T2DTCOP3M    000012280000000000001228000000000000122800000000NPP     2022120206513220230306
20221201T2DTCOP6M    000012110000000000001211000000000000121100000000NPP     2022120206513220230605
20221201T2DTCOP9M    000012120000000000001212000000000000121200000000NPP     2022120206513220230905
20221201T2DTCOPON    000012450000000000001245000000000000124500000000NPP     2022120206513220221202
20221201T2IMEUC10M   000002191951780000000219195178000000021919517800NPP     2022120206513220231005
20221201T2IMEUC11M   000002238998270000000223899827000000022389982700NPP     2022120206513220231106
20221201T2IMEUC1D    000008544097780000000854409778000000085440977800NPP     2022120206513220221202
20221201T2IMEUC1M    000000192922490000000019292249000000001929224900NPP     2022120206513220230105
20221201T2IMEUC1Y    000002275903330000000227590333000000022759033300NPP     2022120206513220231205
20221201T2IMEUC2M    000001139137810000000113913781000000011391378100NPP     2022120206513220230206
20221201T2IMEUC2W    000000168262310000000016826231000000001682623100NPP     2022120206513220221219
20221201T2IMEUC3D    -000219444944400-000219444944400-000219444944400NPP     2022120206513220221206
20221201T2IMEUC3M    000001458224390000000145822439000000014582243900NPP     2022120206513220230306
20221201T2IMEUC3W    000000735719770000000073571977000000007357197700NPP     2022120206513220221227
20221201T2IMEUC4M    000001601534500000000160153450000000016015345000NPP     2022120206513220230405
20221201T2IMEUC5M    000001784266030000000178426603000000017842660300NPP     2022120206513320230505
20221201T2IMEUC6M    000001928474520000000192847452000000019284745200NPP     2022120206513320230605
20221201T2IMEUC7M    000001930866250000000193086625000000019308662500NPP     2022120206513320230705
20221201T2IMEUC8M    000002029705810000000202970581000000020297058100NPP     2022120206513320230807
20221201T2IMEUC9M    000002124648200000000212464820000000021246482000NPP     2022120206513320230905
20221201T2IMEUCSW    -000011582376200-000011582376200-000011582376200NPP     2022120206513320221212
20221201T2GBGBP10M   000004037874260000000403787426000000040378742600NPP     2022120206513320231005
20221201T2GBGBP11M   000004085070510000000408507051000000040850705100NPP     2022120206513320231106
20221201T2GBGBP1M    000002410592100000000241059210000000024105921000NPP     2022120206513320230105
20221201T2GBGBP1Y    000004129951510000000412995151000000041299515100NPP     2022120206513320231205
20221201T2GBGBP2M    000002991559470000000299155947000000029915594700NPP     2022120206513320230206
20221201T2GBGBP2W    000002614896330000000261489633000000026148963300NPP     2022120206513320221219
20221201T2GBGBP3M    000003294092060000000329409206000000032940920600NPP     2022120206513320230306
20221201T2GBGBP3W    000002928996670000000292899667000000029289966700NPP     2022120206513320221228
20221201T2GBGBP4M    000003432501150000000343250115000000034325011500NPP     2022120206513320230405
20221201T2GBGBP5M    000003586263610000000358626361000000035862636100NPP     2022120206513320230505
20221201T2GBGBP6M    000003729721280000000372972128000000037297212800NPP     2022120206513320230605
20221201T2GBGBP7M    000003828468220000000382846822000000038284682200NPP     2022120206513320230705
20221201T2GBGBP8M    000003918773830000000391877383000000039187738300NPP     2022120206513320230807
20221201T2GBGBP9M    000003985288280000000398528828000000039852882800NPP     2022120206513320230905
20221201T2GBGBPON    000005521938590000000552193859000000055219385900NPP     2022120206513320221202
20221201T2GBGBPSW    000002082719670000000208271967000000020827196700NPP     2022120206513420221212
20221201T2IBCOP1M    000010775000000000001077500000000000107750000000NPP     2022120206513420230105
20221201T2IBCOP1Y    000011900000000000001190000000000000119000000000NPP     2022120206513420231205
20221201T2IBCOP3M    000011170000000000001117000000000000111700000000NPP     2022120206513420230306
20221201T2IBCOP6M    000011575000000000001157500000000000115750000000NPP     2022120206513420230605
20221201T2IBCOP9M    000011767500000000001176750000000000117675000000NPP     2022120206513420230905
20221201T2IBCOPON    000010292000000000001029200000000000102920000000NPP     2022120206513420221202
20221201T2ECEUR10M   000001538105460000000153810546000000015381054600NPP     2022120206513420231005
20221201T2ECEUR11M   000001566787420000000156678742000000015667874200NPP     2022120206513420231106
20221201T2ECEUR1M    000000238622820000000023862282000000002386228200NPP     2022120206513420230105
20221201T2ECEUR1W    -000014706914100-000014706914100-000014706914100NPP     2022120206513420221212
20221201T2ECEUR1Y    000001342658900000000134265890000000013426589000NPP     2022120206513420231205
20221201T2ECEUR2M    000001062839100000000106283910000000010628391000NPP     2022120206513420230206
20221201T2ECEUR2W    000000058950220000000005895022000000000589502200NPP     2022120206513420221219
20221201T2ECEUR3M    000001251112810000000125111281000000012511128100NPP     2022120206513420230306
20221201T2ECEUR3W    -000008104274200-000008104274200-000008104274200NPP     2022120206513420210518
20221201T2ECEUR4M    000001269286540000000126928654000000012692865400NPP     2022120206513420230405
20221201T2ECEUR5M    000001407018860000000140701886000000014070188600NPP     2022120206513420230505
20221201T2ECEUR6M    000001523562740000000152356274000000015235627400NPP     2022120206513420230605
20221201T2ECEUR7M    000001421543420000000142154342000000014215434200NPP     2022120206513420230705
20221201T2ECEUR8M    000001454451610000000145445161000000014544516100NPP     2022120206513420230807
20221201T2ECEUR9M    000001506727990000000150672799000000015067279900NPP     2022120206513420230905
20221201T2ECEURON    000008838483530000000883848353000000088384835300NPP     2022120206513420221202
202212012L12USD1Y    000005494710000000000549471000000000054947100000NPP     2022120206513420231205
202212012L12USDON    000003824000000000000382400000000000038240000000NPP     2022120206513420221202
20221201T2L1USD18M   000004790871860000000479087186000000047908718600NPP     2022120206513420240605
20221201T2L1USD1M    000004172290000000000417229000000000041722900000NPP     2022120206513420230105
20221201T2L1USD1Y    000004910401360000000491040136000000049104013600NPP     2022120206513420231205
20221201T2L1USD3M    000004420641440000000442064144000000044206414400NPP     2022120206513420230306
20221201T2L1USD6M    000004753076540000000475307654000000047530765400NPP     2022120206513420230605
20221201T2L1USD9M    000004869057680000000486905768000000048690576800NPP     2022120206513420230905
20221201T2L1USDON    000003824000000000000382400000000000038240000000NPP     2022120206513420221202
20221201T2L3USD18M   000004955219237300000495521923730000049552192373NPP     2022120206513420240605
20221201T2L3USD3M    000004682843228300000468284322830000046828432283NPP     2022120206513420230306
20221201T2L3USD6M    000004928684562400000492868456240000049286845624NPP     2022120206513520230605
20221201T2L3USD9M    000005040838629200000504083862920000050408386292NPP     2022120206513520230905
20221201T2L3USDON    000003824000000000000382400000000000038240000000NPP     2022120206513520221202
20221201T2L6USD18M   000005136410120000000513641012000000051364101200NPP     2022120206513520240605
20221201T2L6USD1Y    000005253462400000000525346240000000052534624000NPP     2022120206513520231205
20221201T2L6USD6M    000005175570000000000517557000000000051755700000NPP     2022120206513520230605
20221201T2L6USDON    000003824000000000000382400000000000038240000000NPP     2022120206513520221202
20221201T2UVV1 1M    -000014100000000-000014100000000-000014100000000NPP     2022120206513520160224
20221201T2UVV1 1Y    000000200000000000000020000000000000002000000000NPP     2022120206513520170124
20221201T2UVV1 2M    -000011700000000-000011700000000-000011700000000NPP     2022120206513520160322
20221201T2UVV1 2W    -000015269419800-000015269419800-000015269419800NPP     2022120206513520160205
20221201T2UVV1 3M    -000010000000000-000010000000000-000010000000000NPP     2022120206513520160422
20221201T2UVV1 6M    -000005300000000-000005300000000-000005300000000NPP     2022120206513520160722
20221201T2UVV1 9M    -000001900000000-000001900000000-000001900000000NPP     2022120206513520161024
20221201T2UVV1 ON    -000017700000000-000017700000000-000017700000000NPP     2022120206513520160123
20221201T2UVV1 SW    -000017270021000-000017270021000-000017270021000NPP     2022120206513520160129
20221201T2BLUSD1M    000004118548800000000411854880000000041185488000NPP     2022120206513520230103
20221201T2BLUSD1W    000003585451780000000358545178000000035854517800NPP     2022120206513520221207
20221201T2BLUSD1Y    000004105970600000000410597060000000041059706000NPP     2022120206513520231201
20221201T2BLUSD2M    000004181815520000000418181552000000041818155200NPP     2022120206513620230202
20221201T2BLUSD2W    000003885473320000000388547332000000038854733200NPP     2022120206513620221215
20221201T2BLUSD3M    000004196846770000000419684677000000041968467700NPP     2022120206513620230302
20221201T2BLUSD6M    000004239740470000000423974047000000042397404700NPP     2022120206513620230601
20221201T2BLUSD9M    000004141364240000000414136424000000041413642400NPP     2022120206513620230831
20221201T2BLUSDON    000004114347120000000411434712000000041143471200NPP     2022120206513620221202
20221201T2IUUVR18M   000003922000000000000392200000000000039220000000NPP     2022120206513620240605
20221201T2IUUVR1M    000001188500000000000118850000000000011885000000NPP     2022120206513620230105
20221201T2IUUVR1Y    000004094000000000000409400000000000040940000000NPP     2022120206513620231205
20221201T2IUUVR3M    -000033810000000-000033810000000-000033810000000NPP     2022120206513620230306
20221201T2IUUVR6M    000000400000000000000040000000000000004000000000NPP     2022120206513620230605
20221201T2IUUVR9M    000001794000000000000179400000000000017940000000NPP     2022120206513620230905
20221201T2IUUVRON    000001683746500000000168374650000000016837465000NPP     2022120206513620221202
20221201T2USUSD10M   000004791122040000000479112204000000047911220400NPP     2022120206513620231005
20221201T2USUSD11M   000004799337450000000479933745000000047993374500NPP     2022120206513620231106
20221201T2USUSD1M    000004081619490000000408161949000000040816194900NPP     2022120206513620230105
20221201T2USUSD1Y    000004806948110000000480694811000000048069481100NPP     2022120206513620231205
20221201T2USUSD2M    000004252380560000000425238056000000042523805600NPP     2022120206513620230206
20221201T2USUSD2W    000003992264090000000399226409000000039922640900NPP     2022120206513620221219
20221201T2USUSD3M    000004404204620000000440420462000000044042046200NPP     2022120206513620230306
20221201T2USUSD3W    000004035780770000000403578077000000040357807700NPP     2022120206513620221227
20221201T2USUSD4M    000004502775710000000450277571000000045027757100NPP     2022120206513620230405
20221201T2USUSD5M    000004574877910000000457487791000000045748779100NPP     2022120206513620230505
20221201T2USUSD6M    000004650207150000000465020715000000046502071500NPP     2022120206513620230605
20221201T2USUSD7M    000004704149730000000470414973000000047041497300NPP     2022120206513620230705
20221201T2USUSD8M    000004739564480000000473956448000000047395644800NPP     2022120206513620230807
20221201T2USUSD9M    000004771005700000000477100570000000047710057000NPP     2022120206513620230905
20221201T2USUSDON    000003820000000000000382000000000000038200000000NPP     2022120206513620221202
20221201T2USUSDSW    000003943394500000000394339450000000039433945000NPP     2022120206513620221212
20221201T2UIUSD1M    000004118548800000000411854880000000041185488000NPP     2022120206513620230103
20221201T2UIUSD1W    000003585451780000000358545178000000035854517800NPP     2022120206513620221207
20221201T2UIUSD1Y    000004105970600000000410597060000000041059706000NPP     2022120206513620231201
20221201T2UIUSD2M    000004181815520000000418181552000000041818155200NPP     2022120206513620230202
20221201T2UIUSD2W    000003885473320000000388547332000000038854733200NPP     2022120206513620221215
20221201T2UIUSD3M    000004196846770000000419684677000000041968467700NPP     2022120206513620230302
20221201T2UIUSD6M    000004239740470000000423974047000000042397404700NPP     2022120206513620230601
20221201T2UIUSD9M    000004141364240000000414136424000000041413642400NPP     2022120206513620230831
20221201T2UIUSDON    000004114347120000000411434712000000041143471200NPP     2022120206513620221202
20221201T2COCOF10Y   000013968447640000001396844764000000139684476400NPP     2022120206513720321206
20221201T2COCOF12Y   000015488975920000001548897592000000154889759200NPP     2022120206513720341205
20221201T2COCOF15Y   000018312241420000001831224142000000183122414200NPP     2022120206513720371207
20221201T2COCOF18M   000012972913400000001297291340000000129729134000NPP     2022120206513720240531
20221201T2COCOF20Y   000024293676770000002429367677000000242936767700NPP     2022120206513720421205
20221201T2COCOF25Y   000031689351590000003168935159000000316893515900NPP     2022120206513720471205
20221201T2COCOF2Y    000010769854740000001076985474000000107698547400NPP     2022120206513720241205
20221201T2COCOF3Y    000010409523880000001040952388000000104095238800NPP     2022120206513720251205
20221201T2COCOF4Y    000010430008900000001043000890000000104300089000NPP     2022120206513820261207
20221201T2COCOF5Y    000010547389740000001054738974000000105473897400NPP     2022120206513820271206
20221201T2COCOF6Y    000010619197750000001061919775000000106191977500NPP     2022120206513820281205
20221201T2COCOF7Y    000011036953600000001103695360000000110369536000NPP     2022120206513820291205
20221201T2COCOF8Y    000011576420310000001157642031000000115764203100NPP     2022120206513820301205
20221201T2COCOF9Y    000011988937940000001198893794000000119889379400NPP     2022120206513820311205
20221201T2DTCOP10Y   000017355822280000001735582228000000173558222800NPP     2022120206513820321206
20221201T2DTCOP2Y    000011956943840000001195694384000000119569438400NPP     2022120206513820241205
20221201T2DTCOP3Y    000011979920640000001197992064000000119799206400NPP     2022120206513820251205
20221201T2DTCOP4Y    000012245400940000001224540094000000122454009400NPP     2022120206513820261207
20221201T2DTCOP5Y    000012583907970000001258390797000000125839079700NPP     2022120206513820271206
20221201T2DTCOP6Y    000012953501130000001295350113000000129535011300NPP     2022120206513820281205
20221201T2DTCOP7Y    000013623310660000001362331066000000136233106600NPP     2022120206513820291205
20221201T2DTCOP8Y    000014321357200000001432135720000000143213572000NPP     2022120206513820301205
20221201T2DTCOP9Y    000014844727970000001484472797000000148447279700NPP     2022120206513920311205
20221201T2ESUSD10M   000002493340200000000249334020000000024933402000NPP     2022120206513920231005
20221201T2ESUSD10Y   000002562397180000000256239718000000025623971800NPP     2022120206513920321206
20221201T2ESUSD11M   000002521786470000000252178647000000025217864700NPP     2022120206513920231106
20221201T2ESUSD12Y   000002677175350000000267717535000000026771753500NPP     2022120206513920341205
20221201T2ESUSD15Y   000002783825400000000278382540000000027838254000NPP     2022120206513920371207
20221201T2ESUSD18M   000002569022700000000256902270000000025690227000NPP     2022120206513920240605
20221201T2ESUSD1M    000001666636700000000166663670000000016666367000NPP     2022120206513920230105
20221201T2ESUSD1W    000001406460520000000140646052000000014064605200NPP     2022120206513920221212
20221201T2ESUSD1Y    000002543033640000000254303364000000025430336400NPP     2022120206513920231205
20221201T2ESUSD20Y   000002739368130000000273936813000000027393681300NPP     2022120206513920421205
20221201T2ESUSD25Y   000002574148590000000257414859000000025741485900NPP     2022120206513920471205
20221201T2ESUSD2M    000001811390610000000181139061000000018113906100NPP     2022120206513920230206
20221201T2ESUSD2W    000001405105500000000140510550000000014051055000NPP     2022120206513920221219
20221201T2ESUSD2Y    000002563118930000000256311893000000025631189300NPP     2022120206513920241205
20221201T2ESUSD3M    000001973632200000000197363220000000019736322000NPP     2022120206513920230306
20221201T2ESUSD3Y    000002469214310000000246921431000000024692143100NPP     2022120206513920251205
20221201T2ESUSD4M    000002099399630000000209939963000000020993996300NPP     2022120206513920230405
20221201T2ESUSD4Y    000002406320600000000240632060000000024063206000NPP     2022120206513920261207
20221201T2ESUSD5M    000002206580010000000220658001000000022065800100NPP     2022120206513920230505
20221201T2ESUSD5Y    000002384476960000000238447696000000023844769600NPP     2022120206513920271206
20221201T2ESUSD6M    000002295966530000000229596653000000022959665300NPP     2022120206513920230605
20221201T2ESUSD7M    000002363257250000000236325725000000023632572500NPP     2022120206513920230705
20221201T2ESUSD7Y    000002404998620000000240499862000000024049986200NPP     2022120206513920291205
20221201T2ESUSD8M    000002421149660000000242114966000000024211496600NPP     2022120206513920230807
20221201T2ESUSD9M    000002460394510000000246039451000000024603945100NPP     2022120206513920230905
20221201T2ESUSDON    000001391000000000000139100000000000013910000000NPP     2022120206513920221202
20221201T2IMEUC15M   000002282076340000000228207634000000022820763400NPP     20221202065139        
20221201T2IMEUC18M   000002300437360000000230043736000000023004373600NPP     20221202065139        
20221201T2IMEUC21M   000002300773950000000230077395000000023007739500NPP     20221202065139        
20221201T2IMEUC2Y    000002203051990000000220305199000000022030519900NPP     20221202065139        
20221201T2IMEUC3Y    000002171663010000000217166301000000021716630100NPP     20221202065139        
20221201T2IMEUC4Y    000002201688110000000220168811000000022016881100NPP     20221202065139        
20221201T2IMEUC5Y    000002130838090000000213083809000000021308380900NPP     20221202065139        
20221201T2FFUSD10M   000004810926360000000481092636000000048109263600NPP     2022120206513920231005
20221201T2FFUSD10Y   000003732702350000000373270235000000037327023500NPP     2022120206513920321206
20221201T2FFUSD11M   000004824529290000000482452929000000048245292900NPP     2022120206513920231106
20221201T2FFUSD12Y   000003850830460000000385083046000000038508304600NPP     2022120206513920341205
20221201T2FFUSD15Y   000004080106910000000408010691000000040801069100NPP     2022120206513920371207
20221201T2FFUSD1M    000004196984710000000419698471000000041969847100NPP     2022120206514020230105
20221201T2FFUSD1W    000003839855760000000383985576000000038398557600NPP     2022120206514020221212
20221201T2FFUSD1Y    000004822817900000000482281790000000048228179000NPP     2022120206514020231205
20221201T2FFUSD20Y   000004359266110000000435926611000000043592661100NPP     2022120206514020421205
20221201T2FFUSD25Y   000004384402340000000438440234000000043844023400NPP     2022120206514020471205
20221201T2FFUSD2M    000004312741660000000431274166000000043127416600NPP     2022120206514020230206
20221201T2FFUSD2W    000003989232680000000398923268000000039892326800NPP     2022120206514020221219
20221201T2FFUSD2Y    000004420504900000000442050490000000044205049000NPP     2022120206514020241205
20221201T2FFUSD3M    000004447898500000000444789850000000044478985000NPP     2022120206514020230306
20221201T2FFUSD3W    000004127398050000000412739805000000041273980500NPP     2022120206514020221227
20221201T2FFUSD3Y    000004002303790000000400230379000000040023037900NPP     2022120206514020251205
20221201T2FFUSD4M    000004543471040000000454347104000000045434710400NPP     2022120206514020230405
20221201T2FFUSD4Y    000003788754890000000378875489000000037887548900NPP     2022120206514020261207
20221201T2FFUSD5M    000004620356510000000462035651000000046203565100NPP     2022120206514020230505
20221201T2FFUSD5Y    000003684774240000000368477424000000036847742400NPP     2022120206514020271206
20221201T2FFUSD6M    000004684148190000000468414819000000046841481900NPP     2022120206514020230605
20221201T2FFUSD7M    000004730242970000000473024297000000047302429700NPP     2022120206514020230705
20221201T2FFUSD7Y    000003627963020000000362796302000000036279630200NPP     2022120206514020291205
20221201T2FFUSD8M    000004768330950000000476833095000000047683309500NPP     2022120206514020230807
20221201T2FFUSD9M    000004792137870000000479213787000000047921378700NPP     2022120206514020230905
20221201T2FFUSDON    000003830000000000000383000000000000038300000000NPP     2022120206514020221202
20221201T2GBGBP15M   000004190512120000000419051212000000041905121200NPP     2022120206514020240305
20221201T2GBGBP18M   000004204601570000000420460157000000042046015700NPP     2022120206514020240605
20221201T2GBGBP21M   000004200691220000000420069122000000042006912200NPP     2022120206514020240905
20221201T2GBGBP2Y    000004183510540000000418351054000000041835105400NPP     2022120206514020241205
20221201T2GBGBP3Y    000004013274930000000401327493000000040132749300NPP     2022120206514020251205
20221201T2GBGBP4Y    000003880066960000000388006696000000038800669600NPP     2022120206514020261207
20221201T2GBGBP5Y    000003772115850000000377211585000000037721158500NPP     2022120206514020271206
20221201T2BLUSD10Y   000002777846060000000277784606000000027778460600NPP     2022120206514120321206
20221201T2BLUSD2Y    000003792489180000000379248918000000037924891800NPP     2022120206514120241205
20221201T2BLUSD3Y    000003112542410000000311254241000000031125424100NPP     2022120206514120251205
20221201T2BLUSD4Y    000002815791660000000281579166000000028157916600NPP     2022120206514120261207
20221201T2BLUSD5Y    000002675862230000000267586223000000026758622300NPP     2022120206514120271206
20221201T2BLUSD6Y    000002602211440000000260221144000000026022114400NPP     2022120206514120281205
20221201T2BLUSD7Y    000002572437690000000257243769000000025724376900NPP     2022120206514120291205
20221201T2BLUSD8Y    000002651910480000000265191048000000026519104800NPP     2022120206514120301205
20221201T2BLUSD9Y    000002730836000000000273083600000000027308360000NPP     2022120206514120311205
20221201T2IBCOP10Y   000017553176630000001755317663000000175531766300NPP     2022120206514120321206
20221201T2IBCOP12Y   000019623153290000001962315329000000196231532900NPP     2022120206514120341205
20221201T2IBCOP15Y   000023474125170000002347412517000000234741251700NPP     2022120206514120371207
20221201T2IBCOP18M   000011965000000000001196500000000000119650000000NPP     2022120206514120240605
20221201T2IBCOP20Y   000034228800180000003422880018000000342288001800NPP     2022120206514120421205
20221201T2IBCOP2Y    000011864359980000001186435998000000118643599800NPP     2022120206514120241205
20221201T2IBCOP3Y    000011943441290000001194344129000000119434412900NPP     2022120206514120251205
20221201T2IBCOP4Y    000012248038080000001224803808000000122480380800NPP     2022120206514120261207
20221201T2IBCOP5Y    000012619677210000001261967721000000126196772100NPP     2022120206514120271206
20221201T2IBCOP6Y    000013008490430000001300849043000000130084904300NPP     2022120206514120281205
20221201T2IBCOP7Y    000013711522440000001371152244000000137115224400NPP     2022120206514120291205
20221201T2IBCOP8Y    000014420390370000001442039037000000144203903700NPP     2022120206514120301205
20221201T2IBCOP9Y    000014988712180000001498871218000000149887121800NPP     2022120206514120311205
20221201T2ECEUR10Y   000001448776620000000144877662000000014487766200NPP     2022120206514220321206
20221201T2ECEUR12Y   000001645311160000000164531116000000016453111600NPP     2022120206514220341205
20221201T2ECEUR2Y    000001789521130000000178952113000000017895211300NPP     2022120206514220241205
20221201T2ECEUR3Y    000001431093290000000143109329000000014310932900NPP     2022120206514220251205
20221201T2ECEUR4Y    000001282130830000000128213083000000012821308300NPP     2022120206514220261207
20221201T2ECEUR5Y    000001230502680000000123050268000000012305026800NPP     2022120206514220271206
20221201T2ECEUR6Y    000001222305190000000122230519000000012223051900NPP     2022120206514220281205
20221201T2ECEUR7Y    000001217592390000000121759239000000012175923900NPP     2022120206514220291205
20221201T2ECEUR8Y    000001332302350000000133230235000000013323023500NPP     2022120206514220301205
20221201T2ECEUR9Y    000001416049300000000141604930000000014160493000NPP     2022120206514220311205
202212012L12USD10Y   000004617619130000000461761913000000046176191300NPP     2022120206514720321206
202212012L12USD12Y   000004839617120000000483961712000000048396171200NPP     2022120206514720341205
202212012L12USD15Y   000005157024330000000515702433000000051570243300NPP     2022120206514720371207
202212012L12USD20Y   000005595389570000000559538957000000055953895700NPP     2022120206514720421205
202212012L12USD25Y   000006014714470000000601471447000000060147144700NPP     2022120206514720471205
202212012L12USD2Y    000005134285800000000513428580000000051342858000NPP     2022120206514720241205
202212012L12USD30Y   000006013061330000000601306133000000060130613300NPP     2022120206514720521205
202212012L12USD3Y    000004756837530000000475683753000000047568375300NPP     2022120206514720251205
202212012L12USD4Y    000004581862780000000458186278000000045818627800NPP     2022120206514720261207
202212012L12USD5Y    000004492369880000000449236988000000044923698800NPP     2022120206514820271206
202212012L12USD7Y    000004476068180000000447606818000000044760681800NPP     2022120206514820291205
20221201T2L1USD10Y   000003864133050000000386413305000000038641330500NPP     2022120206514820321206
20221201T2L1USD12Y   000003982195640000000398219564000000039821956400NPP     2022120206514820341205
20221201T2L1USD15Y   000004258136180000000425813618000000042581361800NPP     2022120206514820371207
20221201T2L1USD20Y   000004555667820000000455566782000000045556678200NPP     2022120206514820421205
20221201T2L1USD25Y   000004679121760000000467912176000000046791217600NPP     2022120206514820471205
20221201T2L1USD2Y    000004522598390000000452259839000000045225983900NPP     2022120206514820241205
20221201T2L1USD30Y   000004750664650000000475066465000000047506646500NPP     2022120206514820521205
20221201T2L1USD3Y    000004115879250000000411587925000000041158792500NPP     2022120206514820251205
20221201T2L1USD4Y    000003912960880000000391296088000000039129608800NPP     2022120206514820261207
20221201T2L1USD5Y    000003813300110000000381330011000000038133001100NPP     2022120206514820271206
20221201T2L1USD7Y    000003759665980000000375966598000000037596659800NPP     2022120206514820291205
20221201T2L3USD10Y   000004070527760000000407052776000000040705277600NPP     2022120206514820321206
20221201T2L3USD11Y   000004136663630000000413666363000000041366636300NPP     2022120206514820331205
20221201T2L3USD12Y   000004201612630000000420161263000000042016126300NPP     2022120206514820341205
20221201T2L3USD13Y   000004298092420000000429809242000000042980924200NPP     2022120206514820351205
20221201T2L3USD14Y   000004399532380000000439953238000000043995323800NPP     2022120206514820361205
20221201T2L3USD15Y   000004502294470000000450229447000000045022944700NPP     2022120206514820371207
20221201T2L3USD20Y   000004840789710000000484078971000000048407897100NPP     2022120206514820421205
20221201T2L3USD25Y   000005003595200000000500359520000000050035952000NPP     2022120206514820471205
20221201T2L3USD2Y    000004685200260000000468520026000000046852002600NPP     2022120206514820241205
20221201T2L3USD30Y   000005114776870000000511477687000000051147768700NPP     2022120206514820521205
20221201T2L3USD3Y    000004281409750000000428140975000000042814097500NPP     2022120206514820251205
20221201T2L3USD4Y    000004083533100000000408353310000000040835331000NPP     2022120206514820261207
20221201T2L3USD5Y    000003987977530000000398797753000000039879775300NPP     2022120206514820271206
20221201T2L3USD6Y    000003946687990000000394668799000000039466879900NPP     2022120206514820281205
20221201T2L3USD7Y    000003946137490000000394613749000000039461374900NPP     2022120206514820291205
20221201T2L3USD8Y    000003955079800000000395507980000000039550798000NPP     2022120206514820301205
20221201T2L3USD9Y    000003996010810000000399601081000000039960108100NPP     2022120206514820311205
20221201T2L6USD10Y   000004305457340000000430545734000000043054573400NPP     2022120206514820321206
20221201T2L6USD12Y   000004453819360000000445381936000000044538193600NPP     2022120206514820341205
20221201T2L6USD15Y   000004784348900000000478434890000000047843489000NPP     2022120206514820371207
20221201T2L6USD20Y   000005174780170000000517478017000000051747801700NPP     2022120206514820421205
20221201T2L6USD25Y   000005387889100000000538788910000000053878891000NPP     2022120206514820471205
20221201T2L6USD2Y    000004868834820000000486883482000000048688348200NPP     2022120206514820241205
20221201T2L6USD30Y   000005550797770000000555079777000000055507977700NPP     2022120206514920521205
20221201T2L6USD3Y    000004471804310000000447180431000000044718043100NPP     2022120206514920251205
20221201T2L6USD4Y    000004278945980000000427894598000000042789459800NPP     2022120206514920261207
20221201T2L6USD5Y    000004189936530000000418993653000000041899365300NPP     2022120206514920271206
20221201T2L6USD7Y    000004159623700000000415962370000000041596237000NPP     2022120206514920291205
20221201T2UVV1 102M  000002398037260000000239803726000000023980372600NPP     2022120206514920240726
20221201T2UVV1 10Y   000002743035550000000274303555000000027430355500NPP     2022120206514920260126
20221201T2UVV1 114M  000002614646550000000261464655000000026146465500NPP     2022120206514920250728
20221201T2UVV1 18M   000000341230960000000034123096000000003412309600NPP     2022120206514920170724
20221201T2UVV1 2Y    000000706674910000000070667491000000007066749100NPP     2022120206514920180126
20221201T2UVV1 30M   000000859459010000000085945901000000008594590100NPP     2022120206514920180726
20221201T2UVV1 3Y    000001018933430000000101893343000000010189334300NPP     2022120206514920190128
20221201T2UVV1 42M   000001160940700000000116094070000000011609407000NPP     2022120206514920190726
20221201T2UVV1 4Y    000001310739080000000131073908000000013107390800NPP     2022120206514920200127
20221201T2UVV1 54M   000001450238580000000145023858000000014502385800NPP     2022120206514920200727
20221201T2UVV1 5Y    000001594079940000000159407994000000015940799400NPP     2022120206514920210126
20221201T2UVV1 66M   000001740343880000000174034388000000017403438800NPP     2022120206514920210726
20221201T2UVV1 6Y    000001893563280000000189356328000000018935632800NPP     2022120206514920220126
20221201T2UVV1 78M   000002007176010000000200717601000000020071760100NPP     2022120206514920220726
20221201T2UVV1 7Y    000002126266100000000212626610000000021262661000NPP     2022120206514920230126
20221201T2UVV1 8Y    000002309425160000000230942516000000023094251600NPP     2022120206514920240126
20221201T2UVV1 90M   000002215695750000000221569575000000022156957500NPP     2022120206514920230726
20221201T2UVV1 9Y    000002491032660000000249103266000000024910326600NPP     2022120206514920250127
20221201T2SOUSD10M   000004791122040000000479112204000000047911220400NPP     2022120206514920231005
20221201T2SOUSD10Y   000003727850840000000372785084000000037278508400NPP     2022120206514920321206
20221201T2SOUSD11M   000004799337450000000479933745000000047993374500NPP     2022120206514920231106
20221201T2SOUSD12Y   000003837187090000000383718709000000038371870900NPP     2022120206514920341205
20221201T2SOUSD15Y   000004072585800000000407258580000000040725858000NPP     2022120206514920371207
20221201T2SOUSD1M    000004081619490000000408161949000000040816194900NPP     2022120206514920230105
20221201T2SOUSD1Y    000004806948110000000480694811000000048069481100NPP     2022120206515020231205
20221201T2SOUSD20Y   000004374033850000000437403385000000043740338500NPP     2022120206515020421205
20221201T2SOUSD25Y   000004370458340000000437045834000000043704583400NPP     2022120206515020471205
20221201T2SOUSD2M    000004252380560000000425238056000000042523805600NPP     2022120206515020230206
20221201T2SOUSD2W    000003992264090000000399226409000000039922640900NPP     2022120206515020221219
20221201T2SOUSD2Y    000004403936340000000440393634000000044039363400NPP     2022120206515020241205
20221201T2SOUSD3M    000004404204620000000440420462000000044042046200NPP     2022120206515020230306
20221201T2SOUSD3W    000004035780770000000403578077000000040357807700NPP     2022120206515020221227
20221201T2SOUSD3Y    000003988124860000000398812486000000039881248600NPP     2022120206515020251205
20221201T2SOUSD4M    000004502775710000000450277571000000045027757100NPP     2022120206515020230405
20221201T2SOUSD4Y    000003777111710000000377711171000000037771117100NPP     2022120206515020261207
20221201T2SOUSD5M    000004574877910000000457487791000000045748779100NPP     2022120206515020230505
20221201T2SOUSD5Y    000003673070180000000367307018000000036730701800NPP     2022120206515020271206
20221201T2SOUSD6M    000004650207150000000465020715000000046502071500NPP     2022120206515020230605
20221201T2SOUSD7M    000004704149730000000470414973000000047041497300NPP     2022120206515020230705
20221201T2SOUSD7Y    000003616452260000000361645226000000036164522600NPP     2022120206515020291205
20221201T2SOUSD8M    000004739564480000000473956448000000047395644800NPP     2022120206515020230807
20221201T2SOUSD9M    000004771005700000000477100570000000047710057000NPP     2022120206515020230905
20221201T2SOUSDON    000003820000000000000382000000000000038200000000NPP     2022120206515020221202
20221201T2SOUSDSW    000003943394500000000394339450000000039433945000NPP     2022120206515020221212
20221201T2IUUVR10Y   000004892669490000000489266949000000048926694900NPP     2022120206515020321206
20221201T2IUUVR15Y   000005596230300000000559623030000000055962303000NPP     2022120206515020371207
20221201T2IUUVR2Y    000003107411660000000310741166000000031074116600NPP     2022120206515020241205
20221201T2IUUVR3Y    000003679823420000000367982342000000036798234200NPP     2022120206515120251205
20221201T2IUUVR4Y    000004268010170000000426801017000000042680101700NPP     2022120206515120261207
20221201T2IUUVR5Y    000004663234580000000466323458000000046632345800NPP     2022120206515120271206
20221201T2IUUVR6Y    000004586412070000000458641207000000045864120700NPP     2022120206515120281205
20221201T2IUUVR7Y    000004980600170000000498060017000000049806001700NPP     2022120206515120291205
20221201T2IUUVR8Y    000005123297680000000512329768000000051232976800NPP     2022120206515120301205
20221201T2IUUVR9Y    000005078024720000000507802472000000050780247200NPP     2022120206515120311205
20221201T2USUSD10Y   000003727850840000000372785084000000037278508400NPP     2022120206515120321206
20221201T2USUSD12Y   000003837187090000000383718709000000038371870900NPP     2022120206515120341205
20221201T2USUSD15Y   000004072585800000000407258580000000040725858000NPP     2022120206515120371207
20221201T2USUSD20Y   000004374033850000000437403385000000043740338500NPP     2022120206515120421205
20221201T2USUSD25Y   000004370458340000000437045834000000043704583400NPP     2022120206515120471205
20221201T2USUSD2Y    000004403936340000000440393634000000044039363400NPP     2022120206515120241205
20221201T2USUSD3Y    000003988124860000000398812486000000039881248600NPP     2022120206515120251205
20221201T2USUSD4Y    000003777111710000000377711171000000037771117100NPP     2022120206515120261207
20221201T2USUSD5Y    000003673070180000000367307018000000036730701800NPP     2022120206515120271206
20221201T2USUSD7Y    000003616452260000000361645226000000036164522600NPP     2022120206515120291205
20221201T2UIUSD10Y   000002777846060000000277784606000000027778460600NPP     2022120206515120321206
20221201T2UIUSD12Y   000002962029210000000296202921000000029620292100NPP     2022120206515120341205
20221201T2UIUSD15Y   000003292689380000000329268938000000032926893800NPP     2022120206515220371207
20221201T2UIUSD18M   000003763226070000000376322607000000037632260700NPP     2022120206515220240531
20221201T2UIUSD20Y   000003615242750000000361524275000000036152427500NPP     2022120206515220421205
20221201T2UIUSD25Y   000003697623770000000369762377000000036976237700NPP     2022120206515220471205
20221201T2UIUSD2Y    000003792489180000000379248918000000037924891800NPP     2022120206515220241205
20221201T2UIUSD3Y    000003112542410000000311254241000000031125424100NPP     2022120206515220251205
20221201T2UIUSD4Y    000002815791660000000281579166000000028157916600NPP     2022120206515220261207
20221201T2UIUSD5Y    000002675862230000000267586223000000026758622300NPP     2022120206515220271206
20221201T2UIUSD6Y    000002602211440000000260221144000000026022114400NPP     2022120206515220281205
20221201T2UIUSD7Y    000002572437690000000257243769000000025724376900NPP     2022120206515220291205
20221201T2UIUSD8Y    000002651910480000000265191048000000026519104800NPP     2022120206515220301205
20221201T2UIUSD9Y    000002730836000000000273083600000000027308360000NPP     2022120206515220311205
20221201CPFFUSD001   000003810000000000000381000000000000038100000000NPP     20221201091232        
20221201CPFFUSD002   000003810000000000000381000000000000038100000000NPP     20221201091232        
20221201CPFFUSD003   000003806670000000000380667000000000038066700000NPP     20221201091232        
20221201CPFFUSD004   000003805000000000000380500000000000038050000000NPP     20221201091232        
20221201CPFFUSD005   000003804000000000000380400000000000038040000000NPP     20221201091232        
20221201CPFFUSD006   000003803330000000000380333000000000038033300000NPP     20221201091232        
20221201CPFFUSD007   000003801430000000000380143000000000038014300000NPP     20221201091232        
20221201CPFFUSD008   000003800000000000000380000000000000038000000000NPP     20221201091232        
20221201CPFFUSD009   000003800000000000000380000000000000038000000000NPP     20221201091232        
20221201CPFFUSD010   000003800000000000000380000000000000038000000000NPP     20221201091232        
20221201CPFFUSD011   000003800000000000000380000000000000038000000000NPP     20221201091232        
20221201CPFFUSD012   000003800000000000000380000000000000038000000000NPP     20221201091232        
20221201CPFFUSD013   000003800000000000000380000000000000038000000000NPP     20221201091232        
20221201CPFFUSD014   000003800000000000000380000000000000038000000000NPP     20221201091232        
20221201CPFFUSD015   000003800670000000000380067000000000038006700000NPP     20221201091232        
20221201CPFFUSD016   000003800620000000000380062000000000038006200000NPP     20221201091232        
20221201CPFFUSD017   000003800000000000000380000000000000038000000000NPP     20221201091232        
20221201CPFFUSD018   000003798890000000000379889000000000037988900000NPP     20221201091232        
20221201CPFFUSD019   000003797890000000000379789000000000037978900000NPP     20221201091232        
20221201CPFFUSD020   000003797000000000000379700000000000037970000000NPP     20221201091232        
20221201CPFFUSD021   000003796190000000000379619000000000037961900000NPP     20221201091232        
20221201CPFFUSD022   000003795450000000000379545000000000037954500000NPP     20221201091232        
20221201CPFFUSD023   000003794780000000000379478000000000037947800000NPP     20221201091232        
20221201CPFFUSD024   000003794170000000000379417000000000037941700000NPP     20221201091232        
20221201CPFFUSD025   000003794400000000000379440000000000037944000000NPP     20221201091232        
20221201CPFFUSD026   000003794620000000000379462000000000037946200000NPP     20221201091232        
20221201CPFFUSD027   000003794810000000000379481000000000037948100000NPP     20221201091232        
20221201CPFFUSD028   000003795000000000000379500000000000037950000000NPP     20221201091232        
20221201CPFFUSD029   000003769310000000000376931000000000037693100000NPP     20221201091232        
20221201CPFFUSD030   000003745330000000000374533000000000037453300000NPP     20221201091232        
20221201CPFFUSD031   000003722900000000000372290000000000037229000000NPP     20221201091232        
20221201CPFFUSD032   000003701870000000000370187000000000037018700000NPP     20221201091232        
20221201CPFFUSD033   000003682120000000000368212000000000036821200000NPP     20221201091232        
20221201CPFFUSD034   000003663530000000000366353000000000036635300000NPP     20221201091232        
20221201CPFFUSD035   000003645710000000000364571000000000036457100000NPP     20221201091232        
20221201CPFFUSD036   000003628610000000000362861000000000036286100000NPP     20221201091232        
20221201CPFFUSD037   000003612160000000000361216000000000036121600000NPP     20221201091232        
20221201CPFFUSD038   000003596320000000000359632000000000035963200000NPP     20221201091232        
20221201CPFFUSD039   000003581540000000000358154000000000035815400000NPP     20221201091232        
20221201CPFFUSD040   000003567500000000000356750000000000035675000000NPP     20221201091232        
