20221209DEPOB121M    000015062200000000001506220000000000150622000000NPP     20221210060620        
20221209DEPOB121Y    000019412700000000001941270000000000194127000000NPP     20221210060621        
20221209DEPOB122M    000016106700000000001610670000000000161067000000NPP     20221210060621        
20221209DEPOB122W    000014371200000000001437120000000000143712000000NPP     20221210060621        
20221209DEPOB122Y    000019380800000000001938080000000000193808000000NPP     20221210060621        
20221209DEPOB123M    000016976900000000001697690000000000169769000000NPP     20221210060621        
20221209DEPOB123Y    000019285400000000001928540000000000192854000000NPP     20221210060621        
20221209DEPOB124Y    000019256100000000001925610000000000192561000000NPP     20221210060621        
20221209DEPOB125Y    000019242600000000001924260000000000192426000000NPP     20221210060621        
20221209DEPOB126M    000018514000000000001851400000000000185140000000NPP     20221210060621        
20221209DEPOB129M    000019172600000000001917260000000000191726000000NPP     20221210060621        
20221209DEPOB12ON    000013740800000000001374080000000000137408000000NPP     20221210060621        
20221209DEPOB12SW    000014039800000000001403980000000000140398000000NPP     20221210060621        
20221209DEPOB12TN    000013842000000000001384200000000000138420000000NPP     20221210060621        
20221209DEPOCOF1M    000010882189280000001088218928000000108821892800NPP     2022121006062120230111
20221209DEPOCOF1Y    000012608750610000001260875061000000126087506100NPP     2022121006062120231211
20221209DEPOCOF2M    000011176828310000001117682831000000111768283100NPP     2022121006062120230209
20221209DEPOCOF2W    000010613960850000001061396085000000106139608500NPP     2022121006062120221223
20221209DEPOCOF3M    000011466950170000001146695017000000114669501700NPP     2022121006062120230309
20221209DEPOCOF6M    000012062464950000001206246495000000120624649500NPP     2022121006062120230608
20221209DEPOCOF9M    000012373053130000001237305313000000123730531300NPP     2022121006062120230911
20221209DEPOCOFON    000010541986220000001054198622000000105419862200NPP     2022121006062120221210
20221209DEPOCOFSW    000010783081620000001078308162000000107830816200NPP     2022121006062120221216
20221209DTFPCOP1Y    000013053548330000001305354833000000130535483300NPP     2022121006062120231213
20221209DTFPCOP3M    000012445334380000001244533438000000124453343800NPP     2022121006062120230313
20221209DTFPCOP6M    000012465707660000001246570766000000124657076600NPP     2022121006062120230613
20221209DTFPCOP9M    000012495721390000001249572139000000124957213900NPP     2022121006062120230913
20221209DTFPCOPON    000012410000000000001241000000000000124100000000NPP     2022121006062120221210
20221209DEPOEUC10M   000002308752640000000230875264000000023087526400NPP     2022121006062120231013
20221209DEPOEUC11M   000002333045260000000233304526000000023330452600NPP     2022121006062120231113
20221209DEPOEUC1D    000008543375680000000854337568000000085433756800NPP     2022121006062120221210
20221209DEPOEUC1M    000001425193550000000142519355000000014251935500NPP     2022121006062120230113
20221209DEPOEUC1Y    000002366784110000000236678411000000023667841100NPP     2022121006062120231213
20221209DEPOEUC2M    000001605080170000000160508017000000016050801700NPP     2022121006062120230213
20221209DEPOEUC2W    000001889743790000000188974379000000018897437900NPP     2022121006062120221227
20221209DEPOEUC3D    000003376355080000000337635508000000033763550800NPP     2022121006062120221214
20221209DEPOEUC3M    000001795742860000000179574286000000017957428600NPP     2022121006062220230313
20221209DEPOEUC3W    000001193008330000000119300833000000011930083300NPP     2022121006062220230103
20221209DEPOEUC4M    000001918200660000000191820066000000019182006600NPP     2022121006062220230413
20221209DEPOEUC5M    000002057596670000000205759667000000020575966700NPP     2022121006062220230515
20221209DEPOEUC6M    000002134963780000000213496378000000021349637800NPP     2022121006062220230613
20221209DEPOEUC7M    000002180006180000000218000618000000021800061800NPP     2022121006062220230713
20221209DEPOEUC8M    000002233132070000000223313207000000022331320700NPP     2022121006062220230814
20221209DEPOEUC9M    000002291991240000000229199124000000022919912400NPP     2022121006062220230913
20221209DEPOEUCSW    000002304214610000000230421461000000023042146100NPP     2022121006062220221220
20221209IMGBGBP10M   000004060753860000000406075386000000040607538600NPP     2022121006062220231013
20221209IMGBGBP11M   000004095625430000000409562543000000040956254300NPP     2022121006062220231113
20221209IMGBGBP1M    000003009905100000000300990510000000030099051000NPP     2022121006062220230113
20221209IMGBGBP1Y    000004145945650000000414594565000000041459456500NPP     2022121006062220231213
20221209IMGBGBP2M    000003278664000000000327866400000000032786640000NPP     2022121006062220230213
20221209IMGBGBP2W    000003331580900000000333158090000000033315809000NPP     2022121006062220221228
20221209IMGBGBP3M    000003474528170000000347452817000000034745281700NPP     2022121006062220230313
20221209IMGBGBP3W    000002832160060000000283216006000000028321600600NPP     2022121006062220230103
20221209IMGBGBP4M    000003591525830000000359152583000000035915258300NPP     2022121006062220230413
20221209IMGBGBP5M    000003717333230000000371733323000000037173332300NPP     2022121006062220230515
20221209IMGBGBP6M    000003830145980000000383014598000000038301459800NPP     2022121006062220230613
20221209IMGBGBP7M    000003897418560000000389741856000000038974185600NPP     2022121006062220230713
20221209IMGBGBP8M    000003969756900000000396975690000000039697569000NPP     2022121006062220230814
20221209IMGBGBP9M    000004041384920000000404138492000000040413849200NPP     2022121006062220230913
20221209IMGBGBPON    000004891721820000000489172182000000048917218200NPP     2022121006062220221210
20221209IMGBGBPSW    000003481537330000000348153733000000034815373300NPP     2022121006062220221220
20221209IBR COP1M    000010941888150000001094188815000000109418881500NPP     2022121006062220230113
20221209IBR COP1Y    000012193178120000001219317812000000121931781200NPP     2022121006062220231213
20221209IBR COP3M    000011353569900000001135356990000000113535699000NPP     2022121006062220230313
20221209IBR COP6M    000011935176820000001193517682000000119351768200NPP     2022121006062220230613
20221209IBR COP9M    000012144439610000001214443961000000121444396100NPP     2022121006062220230913
20221209IBR COPON    000010297000000000001029700000000000102970000000NPP     2022121006062320221210
20221209IPECEUR10M   000002024858710000000202485871000000020248587100NPP     2022121006062320231013
20221209IPECEUR11M   000001996833740000000199683374000000019968337400NPP     2022121006062320231113
20221209IPECEUR1M    000001457297840000000145729784000000014572978400NPP     2022121006062320230113
20221209IPECEUR1W    000002127834670000000212783467000000021278346700NPP     2022121006062320221220
20221209IPECEUR1Y    000001767362480000000176736248000000017673624800NPP     2022121006062320231213
20221209IPECEUR2M    000001539452070000000153945207000000015394520700NPP     2022121006062320230213
20221209IPECEUR2W    000001810575560000000181057556000000018105755600NPP     2022121006062320221227
20221209IPECEUR3M    000001641140680000000164114068000000016411406800NPP     2022121006062320230313
20221209IPECEUR3W    -000005131578100-000005131578100-000005131578100NPP     2022121006062320210518
20221209IPECEUR4M    000001725844620000000172584462000000017258446200NPP     2022121006062320230413
20221209IPECEUR5M    000001879451970000000187945197000000018794519700NPP     2022121006062320230515
20221209IPECEUR6M    000001990343770000000199034377000000019903437700NPP     2022121006062320230613
20221209IPECEUR7M    000001997063670000000199706367000000019970636700NPP     2022121006062320230713
20221209IPECEUR8M    000002029646960000000202964696000000020296469600NPP     2022121006062320230814
20221209IPECEUR9M    000002072574090000000207257409000000020725740900NPP     2022121006062320230913
20221209IPECEURON    000004022955120000000402295512000000040229551200NPP     2022121006062320221212
20221209L12MUSD1Y    000005483510807200000548351080720000054835108072NPP     2022121006062320231213
20221209L12MUSDON    000003818000000000000381800000000000038180000000NPP     2022121006062320221210
20221209L1M USD18M   000004806417120200000480641712020000048064171202NPP     2022121006062320240613
20221209L1M USD1M    000004220204231700000422020423170000042202042317NPP     2022121006062320230113
20221209L1M USD1Y    000004933724059700000493372405970000049337240597NPP     2022121006062320231213
20221209L1M USD3M    000004439476012200000443947601220000044394760122NPP     2022121006062320230313
20221209L1M USD6M    000004765379905600000476537990560000047653799056NPP     2022121006062320230613
20221209L1M USD9M    000004896858514500000489685851450000048968585145NPP     2022121006062320230913
20221209L1M USDON    000003818000000000000381800000000000038180000000NPP     2022121006062320221210
20221209L3M USD18M   000004955927505400000495592750540000049559275054NPP     2022121006062320240613
20221209L3M USD3M    000004658776730000000465877673000000046587767300NPP     2022121006062320230313
20221209L3M USD6M    000004905911191000000490591119100000049059111910NPP     2022121006062320230613
20221209L3M USD9M    000005031677672200000503167767220000050316776722NPP     2022121006062320230913
20221209L3M USDON    000003818000000000000381800000000000038180000000NPP     2022121006062320221210
20221209L6M USD18M   000005114827680000000511482768000000051148276800NPP     2022121006062320240613
20221209L6M USD1Y    000005231107150000000523110715000000052311071500NPP     2022121006062320231213
20221209L6M USD6M    000005113419620000000511341962000000051134196200NPP     2022121006062320230613
20221209L6M USDON    000003818000000000000381800000000000038180000000NPP     2022121006062320221210
20221209DEPOV1 1M    -000014533926800-000014533926800-000014533926800NPP     2022121006062320160224
20221209DEPOV1 1Y    000000178548050000000017854805000000001785480500NPP     2022121006062320170124
20221209DEPOV1 2M    -000012097852400-000012097852400-000012097852400NPP     2022121006062320160322
20221209DEPOV1 2W    -000015269419800-000015269419800-000015269419800NPP     2022121006062320160205
20221209DEPOV1 3M    -000010336581300-000010336581300-000010336581300NPP     2022121006062320160422
20221209DEPOV1 6M    -000005571508000-000005571508000-000005571508000NPP     2022121006062320160722
20221209DEPOV1 9M    -000002128617300-000002128617300-000002128617300NPP     2022121006062320161024
20221209DEPOV1 ON    -000017700000000-000017700000000-000017700000000NPP     2022121006062320160123
20221209DEPOV1 SW    -000017270021000-000017270021000-000017270021000NPP     2022121006062320160129
20221209IBL USD1M    000004195966370000000419596637000000041959663700NPP     2022121006062420230111
20221209IBL USD1W    000003550337710000000355033771000000035503377100NPP     2022121006062420221216
20221209IBL USD1Y    000004452250970000000445225097000000044522509700NPP     2022121006062420231211
20221209IBL USD2M    000004265825240000000426582524000000042658252400NPP     2022121006062420230209
20221209IBL USD2W    000004014044230000000401404423000000040140442300NPP     2022121006062420221223
20221209IBL USD3M    000004305702260000000430570226000000043057022600NPP     2022121006062420230309
20221209IBL USD6M    000004532677340000000453267734000000045326773400NPP     2022121006062420230608
20221209IBL USD9M    000004589080160000000458908016000000045890801600NPP     2022121006062420230911
20221209IBL USDON    000003494000090000000349400009000000034940000900NPP     2022121006062420221210
20221209IUV UVR18M   000003906502570000000390650257000000039065025700NPP     2022121006062420240613
20221209IUV UVR1M    000002029451370000000202945137000000020294513700NPP     2022121006062420230113
20221209IUV UVR1Y    000004068620470000000406862047000000040686204700NPP     2022121006062420231213
20221209IUV UVR3M    -000031661208800-000031661208800-000031661208800NPP     2022121006062420230313
20221209IUV UVR6M    000000427662090000000042766209000000004276620900NPP     2022121006062420230613
20221209IUV UVR9M    000001792731840000000179273184000000017927318400NPP     2022121006062420230913
20221209IUV UVRON    000001682883890000000168288389000000016828838900NPP     2022121006062420221210
20221209DEPOUSD10M   000004825451880000000482545188000000048254518800NPP     2022121006062420231013
20221209DEPOUSD11M   000004832914170000000483291417000000048329141700NPP     2022121006062420231113
20221209DEPOUSD1M    000004183816950000000418381695000000041838169500NPP     2022121006062420230113
20221209DEPOUSD1Y    000004840135750000000484013575000000048401357500NPP     2022121006062420231213
20221209DEPOUSD2M    000004330793490000000433079349000000043307934900NPP     2022121006062420230213
20221209DEPOUSD2W    000004103216920000000410321692000000041032169200NPP     2022121006062420221227
20221209DEPOUSD3M    000004463546500000000446354650000000044635465000NPP     2022121006062420230313
20221209DEPOUSD3W    000004136405170000000413640517000000041364051700NPP     2022121006062420230103
20221209DEPOUSD4M    000004545695900000000454569590000000045456959000NPP     2022121006062420230413
20221209DEPOUSD5M    000004625880220000000462588022000000046258802200NPP     2022121006062420230515
20221209DEPOUSD6M    000004698547260000000469854726000000046985472600NPP     2022121006062420230613
20221209DEPOUSD7M    000004743088760000000474308876000000047430887600NPP     2022121006062420230713
20221209DEPOUSD8M    000004778718480000000477871848000000047787184800NPP     2022121006062420230814
20221209DEPOUSD9M    000004812121330000000481212133000000048121213300NPP     2022121006062420230913
20221209DEPOUSDON    000003800000000000000380000000000000038000000000NPP     2022121006062420221212
20221209DEPOUSDSW    000004044239860000000404423986000000040442398600NPP     2022121006062420221220
20221209UIBRUSD1M    000004195966370000000419596637000000041959663700NPP     2022121006062420230111
20221209UIBRUSD1W    000003550337710000000355033771000000035503377100NPP     2022121006062420221216
20221209UIBRUSD1Y    000004452250970000000445225097000000044522509700NPP     2022121006062420231211
20221209UIBRUSD2M    000004265825240000000426582524000000042658252400NPP     2022121006062420230209
20221209UIBRUSD2W    000004014044230000000401404423000000040140442300NPP     2022121006062420221223
20221209UIBRUSD3M    000004305702260000000430570226000000043057022600NPP     2022121006062420230309
20221209UIBRUSD6M    000004532677340000000453267734000000045326773400NPP     2022121006062420230608
20221209UIBRUSD9M    000004589080160000000458908016000000045890801600NPP     2022121006062420230911
20221209UIBRUSDON    000003494000090000000349400009000000034940000900NPP     2022121006062420221210
20221209SRTMUSD1Y    000004855110000000000485511000000000048551100000NPP     20221209211139        
20221209DEPOCOF10Y   000012288379440000001228837944000000122883794400NPP     2022121006062520321213
20221209DEPOCOF12Y   000013507315260000001350731526000000135073152600NPP     2022121006062520341213
20221209DEPOCOF15Y   000015905670840000001590567084000000159056708400NPP     2022121006062520371214
20221209DEPOCOF18M   000012746983010000001274698301000000127469830100NPP     2022121006062520240611
20221209DEPOCOF20Y   000020852271330000002085227133000000208522713300NPP     2022121006062520421215
20221209DEPOCOF25Y   000026628197130000002662819713000000266281971300NPP     2022121006062520471213
20221209DEPOCOF2Y    000011068662620000001106866262000000110686626200NPP     2022121006062520241213
20221209DEPOCOF3Y    000010695514430000001069551443000000106955144300NPP     2022121006062520251215
20221209DEPOCOF4Y    000010688763070000001068876307000000106887630700NPP     2022121006062520261214
20221209DEPOCOF5Y    000010657855930000001065785593000000106578559300NPP     2022121006062520271213
20221209DEPOCOF6Y    000010787062750000001078706275000000107870627500NPP     2022121006062520281213
20221209DEPOCOF7Y    000011129179390000001112917939000000111291793900NPP     2022121006062520291213
20221209DEPOCOF8Y    000011593672960000001159367296000000115936729600NPP     2022121006062520301213
20221209DEPOCOF9Y    000012042153980000001204215398000000120421539800NPP     2022121006062520311215
20221209DTFPCOP10Y   000016093672780000001609367278000000160936727800NPP     2022121006062620321213
20221209DTFPCOP2Y    000012336219420000001233621942000000123362194200NPP     2022121006062620241213
20221209DTFPCOP3Y    000012322226010000001232222601000000123222260100NPP     2022121006062620251215
20221209DTFPCOP4Y    000012580321850000001258032185000000125803218500NPP     2022121006062620261214
20221209DTFPCOP5Y    000012813947580000001281394758000000128139475800NPP     2022121006062620271213
20221209DTFPCOP6Y    000013144890700000001314489070000000131448907000NPP     2022121006062620281213
20221209DTFPCOP7Y    000013737055300000001373705530000000137370553000NPP     2022121006062620291213
20221209DTFPCOP8Y    000014395723090000001439572309000000143957230900NPP     2022121006062620301213
20221209DTFPCOP9Y    000015043008330000001504300833000000150430083300NPP     2022121006062620311215
20221209ESTRUSD10M   000002555944540000000255594454000000025559445400NPP     2022121006062620231013
20221209ESTRUSD10Y   000002605664270000000260566427000000026056642700NPP     2022121006062620321213
20221209ESTRUSD11M   000002584267670000000258426767000000025842676700NPP     2022121006062620231113
20221209ESTRUSD12Y   000002695289500000000269528950000000026952895000NPP     2022121006062620341213
20221209ESTRUSD15Y   000002776980990000000277698099000000027769809900NPP     2022121006062620371214
20221209ESTRUSD18M   000002637133900000000263713390000000026371339000NPP     2022121006062620240613
20221209ESTRUSD1M    000001760949700000000176094970000000017609497000NPP     2022121006062620230113
20221209ESTRUSD1W    000001402645610000000140264561000000014026456100NPP     2022121006062620221220
20221209ESTRUSD1Y    000002607181890000000260718189000000026071818900NPP     2022121006062620231213
20221209ESTRUSD20Y   000002682844340000000268284434000000026828443400NPP     2022121006062620421215
20221209ESTRUSD25Y   000002488431830000000248843183000000024884318300NPP     2022121006062620471213
20221209ESTRUSD2M    000001882443630000000188244363000000018824436300NPP     2022121006062620230213
20221209ESTRUSD2W    000001585071670000000158507167000000015850716700NPP     2022121006062620221227
20221209ESTRUSD2Y    000002641187320000000264118732000000026411873200NPP     2022121006062620241213
20221209ESTRUSD3M    000002024383560000000202438356000000020243835600NPP     2022121006062620230313
20221209ESTRUSD3Y    000002554540410000000255454041000000025545404100NPP     2022121006062620251215
20221209ESTRUSD4M    000002161671900000000216167190000000021616719000NPP     2022121006062620230413
20221209ESTRUSD4Y    000002498674980000000249867498000000024986749800NPP     2022121006062620261214
20221209ESTRUSD5M    000002269873510000000226987351000000022698735100NPP     2022121006062620230515
20221209ESTRUSD5Y    000002484066870000000248406687000000024840668700NPP     2022121006062720271213
20221209ESTRUSD6M    000002357336890000000235733689000000023573368900NPP     2022121006062720230613
20221209ESTRUSD7M    000002427009280000000242700928000000024270092800NPP     2022121006062720230713
20221209ESTRUSD7Y    000002482076170000000248207617000000024820761700NPP     2022121006062720291213
20221209ESTRUSD8M    000002482646110000000248264611000000024826461100NPP     2022121006062720230814
20221209ESTRUSD9M    000002523005630000000252300563000000025230056300NPP     2022121006062720230913
20221209ESTRUSDON    000001400000000000000140000000000000014000000000NPP     2022121006062720221212
20221209FFE USD10M   000004854138520000000485413852000000048541385200NPP     2022121006062720231013
20221209FFE USD10Y   000003746621820000000374662182000000037466218200NPP     2022121006062720321213
20221209FFE USD11M   000004864365470000000486436547000000048643654700NPP     2022121006062720231113
20221209FFE USD12Y   000003838018240000000383801824000000038380182400NPP     2022121006062720341213
20221209FFE USD15Y   000004048760550000000404876055000000040487605500NPP     2022121006062720371214
20221209FFE USD1M    000004270105740000000427010574000000042701057400NPP     2022121006062720230113
20221209FFE USD1W    000004078992320000000407899232000000040789923200NPP     2022121006062720221220
20221209FFE USD1Y    000004863349660000000486334966000000048633496600NPP     2022121006062720231213
20221209FFE USD20Y   000004228941780000000422894178000000042289417800NPP     2022121006062720421215
20221209FFE USD25Y   000004211158670000000421115867000000042111586700NPP     2022121006062720471213
20221209FFE USD2M    000004380181480000000438018148000000043801814800NPP     2022121006062720230213
20221209FFE USD2W    000004184862680000000418486268000000041848626800NPP     2022121006062720221227
20221209FFE USD2Y    000004442175110000000444217511000000044421751100NPP     2022121006062720241213
20221209FFE USD3M    000004494284090000000449428409000000044942840900NPP     2022121006062720230313
20221209FFE USD3W    000004232506020000000423250602000000042325060200NPP     2022121006062720230103
20221209FFE USD3Y    000004035412170000000403541217000000040354121700NPP     2022121006062720251215
20221209FFE USD4M    000004593605280000000459360528000000045936052800NPP     2022121006062720230413
20221209FFE USD4Y    000003824880370000000382488037000000038248803700NPP     2022121006062720261214
20221209FFE USD5M    000004674346200000000467434620000000046743462000NPP     2022121006062720230515
20221209FFE USD5Y    000003726907440000000372690744000000037269074400NPP     2022121006062720271213
20221209FFE USD6M    000004733430940000000473343094000000047334309400NPP     2022121006062720230613
20221209FFE USD7M    000004778744810000000477874481000000047787448100NPP     2022121006062720230713
20221209FFE USD7Y    000003677836310000000367783631000000036778363100NPP     2022121006062720291213
20221209FFE USD8M    000004813974200000000481397420000000048139742000NPP     2022121006062720230814
20221209FFE USD9M    000004841360320000000484136032000000048413603200NPP     2022121006062720230913
20221209FFE USDON    000003830000000000000383000000000000038300000000NPP     2022121006062720221212
20221209IMGBGBP15M   000004183756120000000418375612000000041837561200NPP     2022121006062720240313
20221209IMGBGBP18M   000004159919360000000415991936000000041599193600NPP     2022121006062720240613
20221209IMGBGBP21M   000004155041220000000415504122000000041550412200NPP     2022121006062720240913
20221209IMGBGBP2Y    000004119903050000000411990305000000041199030500NPP     2022121006062720241213
20221209IMGBGBP3Y    000003944847350000000394484735000000039448473500NPP     2022121006062720251215
20221209IMGBGBP4Y    000003808401510000000380840151000000038084015100NPP     2022121006062820261214
20221209IMGBGBP5Y    000003740200960000000374020096000000037402009600NPP     2022121006062820271213
20221209IBL USD10Y   000002651085860000000265108586000000026510858600NPP     2022121006062820321213
20221209IBL USD2Y    000003735475730000000373547573000000037354757300NPP     2022121006062820241213
20221209IBL USD3Y    000003103609950000000310360995000000031036099500NPP     2022121006062820251215
20221209IBL USD4Y    000002810820930000000281082093000000028108209300NPP     2022121006062820261214
20221209IBL USD5Y    000002665270310000000266527031000000026652703100NPP     2022121006062820271213
20221209IBL USD6Y    000002638256290000000263825629000000026382562900NPP     2022121006062820281213
20221209IBL USD7Y    000002623590220000000262359022000000026235902200NPP     2022121006062820291213
20221209IBL USD8Y    000002672108830000000267210883000000026721088300NPP     2022121006062820301213
20221209IBL USD9Y    000002730446950000000273044695000000027304469500NPP     2022121006062820311215
20221209IBR COP10Y   000016264486780000001626448678000000162644867800NPP     2022121006062820321213
20221209IBR COP12Y   000018034959530000001803495953000000180349595300NPP     2022121006062820341213
20221209IBR COP15Y   000021530474860000002153047486000000215304748600NPP     2022121006062820371214
20221209IBR COP18M   000012150372680000001215037268000000121503726800NPP     2022121006062820240613
20221209IBR COP20Y   000031119269550000003111926955000000311192695500NPP     2022121006062820421215
20221209IBR COP2Y    000012249387990000001224938799000000122493879900NPP     2022121006062820241213
20221209IBR COP3Y    000012287605540000001228760554000000122876055400NPP     2022121006062820251215
20221209IBR COP4Y    000012591879180000001259187918000000125918791800NPP     2022121006062820261214
20221209IBR COP5Y    000012844963320000001284496332000000128449633200NPP     2022121006062820271213
20221209IBR COP6Y    000013212684000000001321268400000000132126840000NPP     2022121006062820281213
20221209IBR COP7Y    000013813052130000001381305213000000138130521300NPP     2022121006062820291213
20221209IBR COP8Y    000014512266500000001451226650000000145122665000NPP     2022121006062820301213
20221209IBR COP9Y    000015172985900000001517298590000000151729859000NPP     2022121006062820311215
20221209IPECEUR10Y   000001384443320000000138444332000000013844433200NPP     2022121006062920321213
20221209IPECEUR12Y   000001551234240000000155123424000000015512342400NPP     2022121006062920341213
20221209IPECEUR2Y    000001840122050000000184012205000000018401220500NPP     2022121006062920241213
20221209IPECEUR3Y    000001523132890000000152313289000000015231328900NPP     2022121006062920251215
20221209IPECEUR4Y    000001378472440000000137847244000000013784724400NPP     2022121006062920261214
20221209IPECEUR5Y    000001304068280000000130406828000000013040682800NPP     2022121006062920271213
20221209IPECEUR6Y    000001321645130000000132164513000000013216451300NPP     2022121006062920281213
20221209IPECEUR7Y    000001319033050000000131903305000000013190330500NPP     2022121006062920291213
20221209IPECEUR8Y    000001385640740000000138564074000000013856407400NPP     2022121006062920301213
20221209IPECEUR9Y    000001456128470000000145612847000000014561284700NPP     2022121006062920311215
20221209CPI COP100M  000193020998650500019302099865050001930209986505NPP     2022121006062920310414
20221209CPI COP101M  000193966801543900019396680154390001939668015439NPP     2022121006062920310513
20221209CPI COP102M  000194878445511100019487844551110001948784455111NPP     2022121006062920310613
20221209CPI COP103M  000195833349894200019583334989420001958333498942NPP     2022121006062920310714
20221209CPI COP104M  000196792933308600019679293330860001967929333086NPP     2022121006062920310813
20221209CPI COP105M  000197717860095200019771786009520001977178600952NPP     2022121006062920310915
20221209CPI COP106M  000198686677609600019868667760960001986866776096NPP     2022121006062920311014
20221209CPI COP107M  000199620504994400019962050499440001996205049944NPP     2022121006062920311113
20221209CPI COP108M  000201037810579900020103781057990002010378105799NPP     2022121006062920311215
20221209CPI COP109M  000202465179035000020246517903500002024651790350NPP     2022121006062920320113
20221209CPI COP10M   000132301632148800013230163214880001323016321488NPP     2022121006062920231013
20221209CPI COP110M  000203801449216600020380144921660002038014492166NPP     2022121006062920320213
20221209CPI COP111M  000205248439506100020524843950610002052484395061NPP     2022121006062920320315
20221209CPI COP112M  000206664653738700020666465373870002066646537387NPP     2022121006062920320413
20221209CPI COP113M  000208131972780200020813197278020002081319727802NPP     2022121006062920320513
20221209CPI COP114M  000209568083392400020956808339240002095680833924NPP     2022121006062920320614
20221209CPI COP115M  000211056016784500021105601678450002110560167845NPP     2022121006062920320713
20221209CPI COP116M  000212554514503600021255451450360002125545145036NPP     2022121006062920320813
20221209CPI COP117M  000214021140653700021402114065370002140211406537NPP     2022121006062920320913
20221209CPI COP118M  000215540690752400021554069075240002155406907524NPP     2022121006062920321013
20221209CPI COP119M  000216984813380400021698481338040002169848133804NPP     2022121006062920321116
20221209CPI COP11M   000132235481332800013223548133280001322354813328NPP     2022121006062920231114
20221209CPI COP120M  000217961245040600021796124504060002179612450406NPP     2022121006062920321213
20221209CPI COP121M  000218942070643300021894207064330002189420706433NPP     2022121006062920330113
20221209CPI COP122M  000219817838925900021981783892590002198178389259NPP     2022121006062920330214
20221209CPI COP123M  000220785037417100022078503741710002207850374171NPP     2022121006062920330314
20221209CPI COP124M  000221734413078000022173441307800002217344130780NPP     2022121006062920330413
20221209CPI COP125M  000222710044495600022271004449560002227100444956NPP     2022121006062920330513
20221209CPI COP126M  000223645426682500022364542668250002236454266825NPP     2022121006062920330613
20221209CPI COP127M  000224629466559900022462946655990002246294665599NPP     2022121006062920330713
20221209CPI COP128M  000225617836212700022561783621270002256178362127NPP     2022121006062920330816
20221209CPI COP129M  000226565431124800022656543112480002265654311248NPP     2022121006062920330913
20221209CPI COP12M   000133055341317000013305534131700001330553413170NPP     2022121006062920231213
20221209CPI COP130M  000227539662478700022753966247870002275396624787NPP     2022121006062920331013
20221209CPI COP131M  000228495329061100022849532906110002284953290611NPP     2022121006062920331115
20221209CPI COP132M  000229477858976000022947785897600002294778589760NPP     2022121006062920331213
20221209CPI COP133M  000230464613769600023046461376960002304646137696NPP     2022121006062920340113
20221209CPI COP134M  000231340379301900023134037930190002313403793019NPP     2022121006062920340213
20221209CPI COP135M  000232312008895000023231200889500002323120088950NPP     2022121006063020340313
20221209CPI COP136M  000233264488131500023326448813150002332644881315NPP     2022121006063020340413
20221209CPI COP137M  000234244198981600023424419898160002342441989816NPP     2022121006063020340515
20221209CPI COP138M  000235181175777600023518117577760002351811757776NPP     2022121006063020340613
20221209CPI COP139M  000236145418598200023614541859820002361454185982NPP     2022121006063020340713
20221209CPI COP13M   000133866978899100013386697889910001338669788991NPP     2022121006063020240115
20221209CPI COP140M  000237113614814500023711361481450002371136148145NPP     2022121006063020340814
20221209CPI COP141M  000238062069273800023806206927380002380620692738NPP     2022121006063020340913
20221209CPI COP142M  000239038123757800023903812375780002390381237578NPP     2022121006063020341013
20221209CPI COP143M  000239994276252800023999427625280002399942762528NPP     2022121006063020341114
20221209CPI COP144M  000241194247634100024119424763410002411942476341NPP     2022121006063020341213
20221209CPI COP145M  000242400218872200024240021887220002424002188722NPP     2022121006063020350115
20221209CPI COP146M  000243491019857200024349101985720002434910198572NPP     2022121006063020350213
20221209CPI COP147M  000244708474956500024470847495650002447084749565NPP     2022121006063020350313
20221209CPI COP148M  000245883075636200024588307563620002458830756362NPP     2022121006063020350413
20221209CPI COP149M  000247087902706900024708790270690002470879027069NPP     2022121006063020350514
20221209CPI COP14M   000134630020678800013463002067880001346300206788NPP     2022121006063020240213
20221209CPI COP150M  000248249215849600024824921584960002482492158496NPP     2022121006063020350613
20221209CPI COP151M  000249465637007300024946563700730002494656370073NPP     2022121006063020350713
20221209CPI COP152M  000250688018628600025068801862860002506880186286NPP     2022121006063020350813
20221209CPI COP153M  000251866252316100025186625231610002518662523161NPP     2022121006063020350913
20221209CPI COP154M  000253075210327300025307521032730002530752103273NPP     2022121006063020351016
20221209CPI COP155M  000254239356294800025423935629480002542393562948NPP     2022121006063020351113
20221209CPI COP156M  000255459705205000025545970520500002554597052050NPP     2022121006063020351213
20221209CPI COP157M  000256685911790000025668591179000002566859117900NPP     2022121006063020360114
20221209CPI COP158M  000257815329801800025781532980180002578153298018NPP     2022121006063020360213
20221209CPI COP159M  000259027061851900025902706185190002590270618519NPP     2022121006063020360313
20221209CPI COP15M   000135451263804900013545126380490001354512638049NPP     2022121006063020240313
20221209CPI COP160M  000260192683630200026019268363020002601926836302NPP     2022121006063020360414
20221209CPI COP161M  000261415589243300026141558924330002614155892433NPP     2022121006063020360513
20221209CPI COP162M  000262591959394900026259195939490002625919593949NPP     2022121006063020360613
20221209CPI COP163M  000263799882408100026379988240810002637998824081NPP     2022121006063020360714
20221209CPI COP164M  000265013361867200026501336186720002650133618672NPP     2022121006063020360813
20221209CPI COP165M  000266179420659400026617942065940002661794206594NPP     2022121006063020360915
20221209CPI COP166M  000267403845994400026740384599440002674038459944NPP     2022121006063020361014
20221209CPI COP167M  000268580422916800026858042291680002685804229168NPP     2022121006063020361113
20221209CPI COP168M  000269789034819900026978903481990002697890348199NPP     2022121006063020361215
20221209CPI COP169M  000271003085476600027100308547660002710030854766NPP     2022121006063020370113
20221209CPI COP16M   000136236881135000013623688113500001362368811350NPP     2022121006063020240415
20221209CPI COP170M  000272114198127100027211419812710002721141981271NPP     2022121006063020370213
20221209CPI COP171M  000273338712018700027333871201870002733387120187NPP     2022121006063020370313
20221209CPI COP172M  000274514068480300027451406848030002745140684803NPP     2022121006063020370413
20221209CPI COP173M  000275721930381700027572193038170002757219303817NPP     2022121006063020370513
20221209CPI COP174M  000276907534682300027690753468230002769075346823NPP     2022121006063120370616
20221209CPI COP175M  000278125927834900027812592783490002781259278349NPP     2022121006063120370713
20221209CPI COP176M  000279349681917400027934968191740002793496819174NPP     2022121006063120370813
20221209CPI COP177M  000280522950581400028052295058140002805229505814NPP     2022121006063120370914
20221209CPI COP17M   000137067926109900013706792610990001370679261099NPP     2022121006063120240514
20221209CPI COP18M   000138123349141000013812334914100001381233491410NPP     2022121006063120240613
20221209CPI COP19M   000139242148269000013924214826900001392421482690NPP     2022121006063120240715
20221209CPI COP1M    000125177385000000012517738500000001251773850000NPP     2022121006063120230113
20221209CPI COP20M   000140397858099600014039785809960001403978580996NPP     2022121006063120240813
20221209CPI COP21M   000141549120536100014154912053610001415491205361NPP     2022121006063120240913
20221209CPI COP22M   000142766442972700014276644297270001427664429727NPP     2022121006063120241015
20221209CPI COP23M   000143951404449300014395140444930001439514044493NPP     2022121006063120241113
20221209CPI COP24M   000144671161471600014467116147160001446711614716NPP     2022121006063120241213
20221209CPI COP25M   000145380050162800014538005016280001453800501628NPP     2022121006063120250113
20221209CPI COP26M   000146005184378500014600518437850001460051843785NPP     2022121006063120250213
20221209CPI COP27M   000146676808226600014667680822660001466768082266NPP     2022121006063120250313
20221209CPI COP28M   000147307518502000014730751850200001473075185020NPP     2022121006063120250414
20221209CPI COP29M   000147955671583400014795567158340001479556715834NPP     2022121006063120250513
20221209CPI COP2M    000127142669944500012714266994450001271426699445NPP     2022121006063120230213
20221209CPI COP30M   000148562289836900014856228983690001485622898369NPP     2022121006063120250613
20221209CPI COP31M   000149171395225200014917139522520001491713952252NPP     2022121006063120250714
20221209CPI COP32M   000149768080806100014976808080610001497680808061NPP     2022121006063120250813
20221209CPI COP33M   000150337199513200015033719951320001503371995132NPP     2022121006063120250915
20221209CPI COP34M   000150908480871400015090848087140001509084808714NPP     2022121006063120251014
20221209CPI COP35M   000151436660554400015143666055440001514366605544NPP     2022121006063120251113
20221209CPI COP36M   000152042407196600015204240719660001520424071966NPP     2022121006063120251215
20221209CPI COP37M   000152635372584700015263537258470001526353725847NPP     2022121006063120260113
20221209CPI COP38M   000153154332851500015315433285150001531543328515NPP     2022121006063120260213
20221209CPI COP39M   000153721003883000015372100388300001537210038830NPP     2022121006063120260313
20221209CPI COP3M    000128223382639000012822338263900001282233826390NPP     2022121006063120230313
20221209CPI COP40M   000154259027396600015425902739660001542590273966NPP     2022121006063120260413
20221209CPI COP41M   000154814359895200015481435989520001548143598952NPP     2022121006063120260513
20221209CPI COP42M   000155340728718900015534072871890001553407287189NPP     2022121006063120260616
20221209CPI COP43M   000155868887196500015586888719650001558688871965NPP     2022121006063120260713
20221209CPI COP44M   000156383254524300015638325452430001563832545243NPP     2022121006063120260813
20221209CPI COP45M   000156868042613300015686804261330001568680426133NPP     2022121006063120260914
20221209CPI COP46M   000157354333545400015735433354540001573543335454NPP     2022121006063120261013
20221209CPI COP47M   000157826396546000015782639654600001578263965460NPP     2022121006063120261113
20221209CPI COP48M   000158363006294300015836300629430001583630062943NPP     2022121006063120261214
20221209CPI COP49M   000158901440515700015890144051570001589014405157NPP     2022121006063120270113
20221209CPI COP4M    000129056834626200012905683462620001290568346262NPP     2022121006063120230413
20221209CPI COP50M   000159378144837300015937814483730001593781448373NPP     2022121006063120270215
20221209CPI COP51M   000159888154900700015988815490070001598881549007NPP     2022121006063120270315
20221209CPI COP52M   000160383808180900016038380818090001603838081809NPP     2022121006063120270413
20221209CPI COP53M   000160880997986300016088099798630001608809979863NPP     2022121006063120270513
20221209CPI COP54M   000161347552880400016134755288040001613475528804NPP     2022121006063220270614
20221209CPI COP55M   000161831595539100016183159553910001618315955391NPP     2022121006063220270713
20221209CPI COP56M   000162300907166100016230090716610001623009071661NPP     2022121006063220270813
20221209CPI COP57M   000162755349706200016275534970620001627553497062NPP     2022121006063220270913
20221209CPI COP58M   000163211064685400016321106468540001632110646854NPP     2022121006063220271013
20221209CPI COP59M   000163668055666500016366805566650001636680556665NPP     2022121006063220271116
20221209CPI COP5M    000129715024482800012971502448280001297150244828NPP     2022121006063220230515
20221209CPI COP60M   000164437295528100016443729552810001644372955281NPP     2022121006063220271213
20221209CPI COP61M   000165210150817100016521015081710001652101508171NPP     2022121006063220280113
20221209CPI COP62M   000165937075480700016593707548070001659370754807NPP     2022121006063220280214
20221209CPI COP63M   000166716979735500016671697973550001667169797355NPP     2022121006063220280313
20221209CPI COP64M   000167467206144300016746720614430001674672061443NPP     2022121006063220280417
20221209CPI COP65M   000168237555292600016823755529260001682375552926NPP     2022121006063220280515
20221209CPI COP66M   000168994624291400016899462429140001689946242914NPP     2022121006063220280613
20221209CPI COP67M   000169771999563100016977199956310001697719995631NPP     2022121006063220280713
20221209CPI COP68M   000170552950761100017055295076110001705529507611NPP     2022121006063220280814
20221209CPI COP69M   000171320439039500017132043903950001713204390395NPP     2022121006063220280913
20221209CPI COP6M    000130584115146800013058411514680001305841151468NPP     2022121006063220230613
20221209CPI COP70M   000172108513059100017210851305910001721085130591NPP     2022121006063220281013
20221209CPI COP71M   000172865790516600017286579051660001728657905166NPP     2022121006063220281114
20221209CPI COP72M   000173436247625300017343624762530001734362476253NPP     2022121006063220281213
20221209CPI COP73M   000174008587242400017400858724240001740085872424NPP     2022121006063220290115
20221209CPI COP74M   000174513212145400017451321214540001745132121454NPP     2022121006063220290213
20221209CPI COP75M   000175071654424300017507165442430001750716544243NPP     2022121006063220290313
20221209CPI COP76M   000175614376553000017561437655300001756143765530NPP     2022121006063220290413
20221209CPI COP77M   000176158781120300017615878112030001761587811203NPP     2022121006063220290515
20221209CPI COP78M   000176687257463700017668725746370001766872574637NPP     2022121006063220290613
20221209CPI COP79M   000177234987961800017723498796180001772349879618NPP     2022121006063220290713
20221209CPI COP7M    000131380678249200013138067824920001313806782492NPP     2022121006063220230713
20221209CPI COP80M   000177766692925700017776669292570001777666929257NPP     2022121006063220290813
20221209CPI COP81M   000178282216335200017828221633520001782822163352NPP     2022121006063220290913
20221209CPI COP82M   000178817062984200017881706298420001788170629842NPP     2022121006063220291016
20221209CPI COP83M   000179335632466900017933563246690001793356324669NPP     2022121006063220291113
20221209CPI COP84M   000180106775686500018010677568650001801067756865NPP     2022121006063220291213
20221209CPI COP85M   000180881234821900018088123482190001808812348219NPP     2022121006063220300114
20221209CPI COP86M   000181586671637700018158667163770001815866716377NPP     2022121006063220300213
20221209CPI COP87M   000182367494325800018236749432580001823674943258NPP     2022121006063220300313
20221209CPI COP88M   000183115201052500018311520105250001831152010525NPP     2022121006063220300415
20221209CPI COP89M   000183884284896900018388428489690001838842848969NPP     2022121006063220300513
20221209CPI COP8M    000132063857776100013206385777610001320638577761NPP     2022121006063220230814
20221209CPI COP90M   000184638210465000018463821046500001846382104650NPP     2022121006063220300613
20221209CPI COP91M   000185413690949000018541369094900001854136909490NPP     2022121006063220300715
20221209CPI COP92M   000186192428450900018619242845090001861924284509NPP     2022121006063220300813
20221209CPI COP93M   000186937198164700018693719816470001869371981647NPP     2022121006063220300913
20221209CPI COP94M   000187722334397000018772233439700001877223343970NPP     2022121006063220301015
20221209CPI COP95M   000188491995968100018849199596810001884919959681NPP     2022121006063320301113
20221209CPI COP96M   000189415606748300018941560674830001894156067483NPP     2022121006063320301213
20221209CPI COP97M   000190343743221400019034374322140001903437432214NPP     2022121006063320310113
20221209CPI COP98M   000191181255691500019118125569150001911812556915NPP     2022121006063320310213
20221209CPI COP99M   000192118043844400019211804384440001921180438444NPP     2022121006063320310313
20221209CPI COP9M    000132261953562800013226195356280001322619535628NPP     2022121006063320230913
20221209CPI COPON    000123510000000000012351000000000001235100000000NPP     2022121006063320221212
20221209L12MUSD10Y   000004723268355900000472326835590000047232683559NPP     2022121006063320321213
20221209L12MUSD12Y   000004875804046800000487580404680000048758040468NPP     2022121006063320341213
20221209L12MUSD15Y   000005222912817200000522291281720000052229128172NPP     2022121006063320371214
20221209L12MUSD20Y   000005463508966100000546350896610000054635089661NPP     2022121006063320421215
20221209L12MUSD25Y   000005822232285000000582223228500000058222322850NPP     2022121006063320471213
20221209L12MUSD2Y    000005215241690000000521524169000000052152416900NPP     2022121006063320241213
20221209L12MUSD30Y   000005728543894800000572854389480000057285438948NPP     2022121006063320521213
20221209L12MUSD3Y    000004787802172000000478780217200000047878021720NPP     2022121006063320251215
20221209L12MUSD4Y    000004607349653700000460734965370000046073496537NPP     2022121006063320261214
20221209L12MUSD5Y    000004529821844400000452982184440000045298218444NPP     2022121006063320271213
20221209L12MUSD7Y    000004513366884400000451336688440000045133668844NPP     2022121006063320291213
20221209L1M USD10Y   000003890132689800000389013268980000038901326898NPP     2022121006063320321213
20221209L1M USD12Y   000004018701823500000401870182350000040187018235NPP     2022121006063320341213
20221209L1M USD15Y   000004222183535200000422218353520000042221835352NPP     2022121006063320371214
20221209L1M USD20Y   000004452922825500000445292282550000044529228255NPP     2022121006063320421215
20221209L1M USD25Y   000004510236083100000451023608310000045102360831NPP     2022121006063320471213
20221209L1M USD2Y    000004556475814800000455647581480000045564758148NPP     2022121006063320241213
20221209L1M USD30Y   000004516634339700000451663433970000045166343397NPP     2022121006063320521213
20221209L1M USD3Y    000004153747619200000415374761920000041537476192NPP     2022121006063320251215
20221209L1M USD4Y    000003943666795900000394366679590000039436667959NPP     2022121006063320261214
20221209L1M USD5Y    000003854095213600000385409521360000038540952136NPP     2022121006063320271213
20221209L1M USD7Y    000003799380812600000379938081260000037993808126NPP     2022121006063320291213
20221209L3M USD10Y   000004093844260000000409384426000000040938442600NPP     2022121006063320321213
20221209L3M USD11Y   000004164695140000000416469514000000041646951400NPP     2022121006063320331213
20221209L3M USD12Y   000004236185280000000423618528000000042361852800NPP     2022121006063320341213
20221209L3M USD13Y   000004309832990000000430983299000000043098329900NPP     2022121006063320351213
20221209L3M USD14Y   000004387026930000000438702693000000043870269300NPP     2022121006063320361215
20221209L3M USD15Y   000004462471460000000446247146000000044624714600NPP     2022121006063320371214
20221209L3M USD20Y   000004732067580000000473206758000000047320675800NPP     2022121006063320421215
20221209L3M USD25Y   000004826945750000000482694575000000048269457500NPP     2022121006063320471213
20221209L3M USD2Y    000004707987250000000470798725000000047079872500NPP     2022121006063320241213
20221209L3M USD30Y   000004867119110000000486711911000000048671191100NPP     2022121006063320521213
20221209L3M USD3Y    000004310967820000000431096782000000043109678200NPP     2022121006063320251215
20221209L3M USD4Y    000004108127060000000410812706000000041081270600NPP     2022121006063320261214
20221209L3M USD5Y    000004025355020000000402535502000000040253550200NPP     2022121006063320271213
20221209L3M USD6Y    000003985285160000000398528516000000039852851600NPP     2022121006063320281213
20221209L3M USD7Y    000003981633500000000398163350000000039816335000NPP     2022121006063320291213
20221209L3M USD8Y    000004004254640000000400425464000000040042546400NPP     2022121006063320301213
20221209L3M USD9Y    000004028104000000000402810400000000040281040000NPP     2022121006063320311215
20221209L6M USD10Y   000004328311740000000432831174000000043283117400NPP     2022121006063320321213
20221209L6M USD12Y   000004487841800000000448784180000000044878418000NPP     2022121006063320341213
20221209L6M USD15Y   000004742392220000000474239222000000047423922200NPP     2022121006063320371214
20221209L6M USD20Y   000005063948690000000506394869000000050639486900NPP     2022121006063320421215
20221209L6M USD25Y   000005205276670000000520527667000000052052766700NPP     2022121006063420471213
20221209L6M USD2Y    000004883230010000000488323001000000048832300100NPP     2022121006063420241213
20221209L6M USD30Y   000005291947680000000529194768000000052919476800NPP     2022121006063420521213
20221209L6M USD3Y    000004494383960000000449438396000000044943839600NPP     2022121006063420251215
20221209L6M USD4Y    000004299435240000000429943524000000042994352400NPP     2022121006063420261214
20221209L6M USD5Y    000004223165740000000422316574000000042231657400NPP     2022121006063420271213
20221209L6M USD7Y    000004194364810000000419436481000000041943648100NPP     2022121006063420291213
20221209DEPOV1 102M  000002392201990000000239220199000000023922019900NPP     2022121006063420240726
20221209DEPOV1 10Y   000002737560350000000273756035000000027375603500NPP     2022121006063420260126
20221209DEPOV1 114M  000002609085850000000260908585000000026090858500NPP     2022121006063420250728
20221209DEPOV1 18M   000000325781970000000032578197000000003257819700NPP     2022121006063420170724
20221209DEPOV1 2Y    000000693058180000000069305818000000006930581800NPP     2022121006063420180126
20221209DEPOV1 30M   000000847808360000000084780836000000008478083600NPP     2022121006063420180726
20221209DEPOV1 3Y    000001008610600000000100861060000000010086106000NPP     2022121006063420190128
20221209DEPOV1 42M   000001151561060000000115156106000000011515610600NPP     2022121006063420190726
20221209DEPOV1 4Y    000001302076170000000130207617000000013020761700NPP     2022121006063420200127
20221209DEPOV1 54M   000001442137940000000144213794000000014421379400NPP     2022121006063420200727
20221209DEPOV1 5Y    000001586417960000000158641796000000015864179600NPP     2022121006063420210126
20221209DEPOV1 66M   000001733023480000000173302348000000017330234800NPP     2022121006063420210726
20221209DEPOV1 6Y    000001886518400000000188651840000000018865184000NPP     2022121006063420220126
20221209DEPOV1 78M   000002000425720000000200042572000000020004257200NPP     2022121006063420220726
20221209DEPOV1 7Y    000002119763050000000211976305000000021197630500NPP     2022121006063420230126
20221209DEPOV1 8Y    000002303394800000000230339480000000023033948000NPP     2022121006063420240126
20221209DEPOV1 90M   000002209446340000000220944634000000022094463400NPP     2022121006063420230726
20221209DEPOV1 9Y    000002485367490000000248536749000000024853674900NPP     2022121006063420250127
20221209SOFRUSD10M   000004825451880000000482545188000000048254518800NPP     2022121006063420231013
20221209SOFRUSD10Y   000003750698150000000375069815000000037506981500NPP     2022121006063420321213
20221209SOFRUSD11M   000004832914170000000483291417000000048329141700NPP     2022121006063420231113
20221209SOFRUSD12Y   000003837274430000000383727443000000038372744300NPP     2022121006063420341213
20221209SOFRUSD13M   000000042561510000000004256151000000000425615100NPP     2022121006063420210915
20221209SOFRUSD15Y   000004061516940000000406151694000000040615169400NPP     2022121006063420371214
20221209SOFRUSD16M   000000038552150000000003855215000000000385521500NPP     2022121006063420211215
20221209SOFRUSD1M    000004183816950000000418381695000000041838169500NPP     2022121006063420230113
20221209SOFRUSD1Y    000004840135750000000484013575000000048401357500NPP     2022121006063420231213
20221209SOFRUSD20Y   000004262906570000000426290657000000042629065700NPP     2022121006063420421215
20221209SOFRUSD25Y   000004219010290000000421901029000000042190102900NPP     2022121006063420471213
20221209SOFRUSD2M    000004330793490000000433079349000000043307934900NPP     2022121006063420230213
20221209SOFRUSD2W    000004103216920000000410321692000000041032169200NPP     2022121006063420221227
20221209SOFRUSD2Y    000004427218810000000442721881000000044272188100NPP     2022121006063420241213
20221209SOFRUSD3M    000004463546500000000446354650000000044635465000NPP     2022121006063520230313
20221209SOFRUSD3W    000004136405170000000413640517000000041364051700NPP     2022121006063520230103
20221209SOFRUSD3Y    000004022707130000000402270713000000040227071300NPP     2022121006063520251215
20221209SOFRUSD4M    000004545695900000000454569590000000045456959000NPP     2022121006063520230413
20221209SOFRUSD4Y    000003817925780000000381792578000000038179257800NPP     2022121006063520261214
20221209SOFRUSD5M    000004625880220000000462588022000000046258802200NPP     2022121006063520230515
20221209SOFRUSD5Y    000003717522350000000371752235000000037175223500NPP     2022121006063520271213
20221209SOFRUSD6M    000004698547260000000469854726000000046985472600NPP     2022121006063520230613
20221209SOFRUSD7M    000004743088760000000474308876000000047430887600NPP     2022121006063520230713
20221209SOFRUSD7Y    000003674453540000000367445354000000036744535400NPP     2022121006063520291213
20221209SOFRUSD8M    000004778718480000000477871848000000047787184800NPP     2022121006063520230814
20221209SOFRUSD9M    000004812121330000000481212133000000048121213300NPP     2022121006063520230913
20221209SOFRUSDON    000003800000000000000380000000000000038000000000NPP     2022121006063520221212
20221209SOFRUSDSW    000004044239860000000404423986000000040442398600NPP     2022121006063520221220
20221209IUV UVR10Y   000004889746380000000488974638000000048897463800NPP     2022121006063520321213
20221209IUV UVR15Y   000005594039180000000559403918000000055940391800NPP     2022121006063520371214
20221209IUV UVR2Y    000003100148490000000310014849000000031001484900NPP     2022121006063520241213
20221209IUV UVR3Y    000003673517170000000367351717000000036735171700NPP     2022121006063520251215
20221209IUV UVR4Y    000004261567940000000426156794000000042615679400NPP     2022121006063520261214
20221209IUV UVR5Y    000004657339840000000465733984000000046573398400NPP     2022121006063520271213
20221209IUV UVR6Y    000004581970350000000458197035000000045819703500NPP     2022121006063520281213
20221209IUV UVR7Y    000004976370670000000497637067000000049763706700NPP     2022121006063520291213
20221209IUV UVR8Y    000005119543120000000511954312000000051195431200NPP     2022121006063520301213
20221209IUV UVR9Y    000005075407180000000507540718000000050754071800NPP     2022121006063520311215
20221209DEPOUSD10Y   000003750698150000000375069815000000037506981500NPP     2022121006063520321213
20221209DEPOUSD12Y   000003837274430000000383727443000000038372744300NPP     2022121006063520341213
20221209DEPOUSD15Y   000004061516940000000406151694000000040615169400NPP     2022121006063520371214
20221209DEPOUSD20Y   000004262906570000000426290657000000042629065700NPP     2022121006063520421215
20221209DEPOUSD25Y   000004219010290000000421901029000000042190102900NPP     2022121006063620471213
20221209DEPOUSD2Y    000004427218810000000442721881000000044272188100NPP     2022121006063620241213
20221209DEPOUSD3Y    000004022707130000000402270713000000040227071300NPP     2022121006063620251215
20221209DEPOUSD4Y    000003817925780000000381792578000000038179257800NPP     2022121006063620261214
20221209DEPOUSD5Y    000003717522350000000371752235000000037175223500NPP     2022121006063620271213
20221209DEPOUSD7Y    000003674453540000000367445354000000036744535400NPP     2022121006063620291213
20221209UIBRUSD10Y   000002651085860000000265108586000000026510858600NPP     2022121006063620321213
20221209UIBRUSD12Y   000002814181910000000281418191000000028141819100NPP     2022121006063620341213
20221209UIBRUSD15Y   000003129537580000000312953758000000031295375800NPP     2022121006063620371214
20221209UIBRUSD18M   000004147849210000000414784921000000041478492100NPP     2022121006063620240611
20221209UIBRUSD20Y   000003359288800000000335928880000000033592888000NPP     2022121006063620421215
20221209UIBRUSD25Y   000003406888250000000340688825000000034068882500NPP     2022121006063620471213
20221209UIBRUSD2Y    000003735475730000000373547573000000037354757300NPP     2022121006063620241213
20221209UIBRUSD3Y    000003103609950000000310360995000000031036099500NPP     2022121006063620251215
20221209UIBRUSD4Y    000002810820930000000281082093000000028108209300NPP     2022121006063620261214
20221209UIBRUSD5Y    000002665270310000000266527031000000026652703100NPP     2022121006063620271213
20221209UIBRUSD6Y    000002638256290000000263825629000000026382562900NPP     2022121006063620281213
20221209UIBRUSD7Y    000002623590220000000262359022000000026235902200NPP     2022121006063620291213
20221209UIBRUSD8Y    000002672108830000000267210883000000026721088300NPP     2022121006063620301213
20221209UIBRUSD9Y    000002730446950000000273044695000000027304469500NPP     2022121006063620311215
20221209T2COCOF1M    000010916327200000001091632720000000109163272000NPP     2022121006062120230111
20221209T2COCOF1Y    000012616746480000001261674648000000126167464800NPP     2022121006062120231211
20221209T2COCOF2M    000011207482840000001120748284000000112074828400NPP     2022121006062120230209
20221209T2COCOF2W    000010613960850000001061396085000000106139608500NPP     2022121006062120221223
20221209T2COCOF3M    000011496505530000001149650553000000114965055300NPP     2022121006062120230309
20221209T2COCOF6M    000012082673230000001208267323000000120826732300NPP     2022121006062120230608
20221209T2COCOF9M    000012385473090000001238547309000000123854730900NPP     2022121006062120230911
20221209T2COCOFON    000010541986220000001054198622000000105419862200NPP     2022121006062120221210
20221209T2COCOFSW    000010783081620000001078308162000000107830816200NPP     2022121006062120221216
20221209T2DTCOP1Y    000013042862620000001304286262000000130428626200NPP     2022121006062120231213
20221209T2DTCOP3M    000012430000000000001243000000000000124300000000NPP     2022121006062120230313
20221209T2DTCOP6M    000012450000000000001245000000000000124500000000NPP     2022121006062120230613
20221209T2DTCOP9M    000012480000000000001248000000000000124800000000NPP     2022121006062120230913
20221209T2DTCOPON    000012410000000000001241000000000000124100000000NPP     2022121006062120221210
20221209T2IMEUC10M   000002224606390000000222460639000000022246063900NPP     2022121006062120231013
20221209T2IMEUC11M   000002256749810000000225674981000000022567498100NPP     2022121006062120231113
20221209T2IMEUC1D    000008543375680000000854337568000000085433756800NPP     2022121006062120221210
20221209T2IMEUC1M    000000506237880000000050623788000000005062378800NPP     2022121006062120230113
20221209T2IMEUC1Y    000002296915060000000229691506000000022969150600NPP     2022121006062120231213
20221209T2IMEUC2M    000001156350520000000115635052000000011563505200NPP     2022121006062120230213
20221209T2IMEUC2W    -000000112831800-000000112831800-000000112831800NPP     2022121006062120221227
20221209T2IMEUC3D    -000172753284700-000172753284700-000172753284700NPP     2022121006062120221214
20221209T2IMEUC3M    000001494429460000000149442946000000014944294600NPP     2022121006062220230313
20221209T2IMEUC3W    -000002068652700-000002068652700-000002068652700NPP     2022121006062220230103
20221209T2IMEUC4M    000001697575160000000169757516000000016975751600NPP     2022121006062220230413
20221209T2IMEUC5M    000001886243280000000188624328000000018862432800NPP     2022121006062220230515
20221209T2IMEUC6M    000001992228410000000199222841000000019922284100NPP     2022121006062220230613
20221209T2IMEUC7M    000002057989030000000205798903000000020579890300NPP     2022121006062220230713
20221209T2IMEUC8M    000002127665740000000212766574000000021276657400NPP     2022121006062220230814
20221209T2IMEUC9M    000002198643060000000219864306000000021986430600NPP     2022121006062220230913
20221209T2IMEUCSW    -000012598243800-000012598243800-000012598243800NPP     2022121006062220221220
20221209T2GBGBP10M   000004047620090000000404762009000000040476200900NPP     2022121006062220231013
20221209T2GBGBP11M   000004083900100000000408390010000000040839001000NPP     2022121006062220231113
20221209T2GBGBP1M    000002765586870000000276558687000000027655868700NPP     2022121006062220230113
20221209T2GBGBP1Y    000004135525000000000413552500000000041355250000NPP     2022121006062220231213
20221209T2GBGBP2M    000003172871220000000317287122000000031728712200NPP     2022121006062220230213
20221209T2GBGBP2W    000002913959510000000291395951000000029139595100NPP     2022121006062220221228
20221209T2GBGBP3M    000003409688540000000340968854000000034096885400NPP     2022121006062220230313
20221209T2GBGBP3W    000002438537180000000243853718000000024385371800NPP     2022121006062220230103
20221209T2GBGBP4M    000003546616470000000354661647000000035466164700NPP     2022121006062220230413
20221209T2GBGBP5M    000003684627570000000368462757000000036846275700NPP     2022121006062220230515
20221209T2GBGBP6M    000003804746670000000380474667000000038047466700NPP     2022121006062220230613
20221209T2GBGBP7M    000003876551120000000387655112000000038765511200NPP     2022121006062220230713
20221209T2GBGBP8M    000003952494440000000395249444000000039524944400NPP     2022121006062220230814
20221209T2GBGBP9M    000004026782590000000402678259000000040267825900NPP     2022121006062220230913
20221209T2GBGBPON    000004891721820000000489172182000000048917218200NPP     2022121006062220221210
20221209T2GBGBPSW    000002674264090000000267426409000000026742640900NPP     2022121006062220221220
20221209T2IBCOP1M    000011012500000000001101250000000000110125000000NPP     2022121006062220230113
20221209T2IBCOP1Y    000012200000000000001220000000000000122000000000NPP     2022121006062220231213
20221209T2IBCOP3M    000011387500000000001138750000000000113875000000NPP     2022121006062220230313
20221209T2IBCOP6M    000011957500000000001195750000000000119575000000NPP     2022121006062220230613
20221209T2IBCOP9M    000012157500000000001215750000000000121575000000NPP     2022121006062220230913
20221209T2IBCOPON    000010550471270000001055047127000000105504712700NPP     2022121006062320221210
20221209T2ECEUR10M   000001940522820000000194052282000000019405228200NPP     2022121006062320231013
20221209T2ECEUR11M   000001919820960000000191982096000000019198209600NPP     2022121006062320231113
20221209T2ECEUR1M    000000574045290000000057404529000000005740452900NPP     2022121006062320230113
20221209T2ECEUR1W    -000013969163900-000013969163900-000013969163900NPP     2022121006062320221220
20221209T2ECEUR1Y    000001694227280000000169422728000000016942272800NPP     2022121006062320231213
20221209T2ECEUR2M    000001102374280000000110237428000000011023742800NPP     2022121006062320230213
20221209T2ECEUR2W    -000000430497500-000000430497500-000000430497500NPP     2022121006062320221227
20221209T2ECEUR3M    000001344023100000000134402310000000013440231000NPP     2022121006062320230313
20221209T2ECEUR3W    -000008104274200-000008104274200-000008104274200NPP     2022121006062320210518
20221209T2ECEUR4M    000001507180270000000150718027000000015071802700NPP     2022121006062320230413
20221209T2ECEUR5M    000001710059500000000171005950000000017100595000NPP     2022121006062320230515
20221209T2ECEUR6M    000001849999320000000184999932000000018499993200NPP     2022121006062320230613
20221209T2ECEUR7M    000001876440310000000187644031000000018764403100NPP     2022121006062320230713
20221209T2ECEUR8M    000001925105430000000192510543000000019251054300NPP     2022121006062320230814
20221209T2ECEUR9M    000001979860560000000197986056000000019798605600NPP     2022121006062320230913
20221209T2ECEURON    000004022955120000000402295512000000040229551200NPP     2022121006062320221212
202212092L12USD1Y    000005499430000000000549943000000000054994300000NPP     2022121006062320231213
202212092L12USDON    000003818000000000000381800000000000038180000000NPP     2022121006062320221210
20221209T2L1USD18M   000004811590660000000481159066000000048115906600NPP     2022121006062320240613
20221209T2L1USD1M    000004270290000000000427029000000000042702900000NPP     2022121006062320230113
20221209T2L1USD1Y    000004943853880000000494385388000000049438538800NPP     2022121006062320231213
20221209T2L1USD3M    000004465202930000000446520293000000044652029300NPP     2022121006062320230313
20221209T2L1USD6M    000004784171890000000478417189000000047841718900NPP     2022121006062320230613
20221209T2L1USD9M    000004910525120000000491052512000000049105251200NPP     2022121006062320230913
20221209T2L1USDON    000003818000000000000381800000000000038180000000NPP     2022121006062320221210
20221209T2L3USD18M   000004962145353700000496214535370000049621453537NPP     2022121006062320240613
20221209T2L3USD3M    000004694153220000000469415322000000046941532200NPP     2022121006062320230313
20221209T2L3USD6M    000004928229098800000492822909880000049282290988NPP     2022121006062320230613
20221209T2L3USD9M    000005047356622800000504735662280000050473566228NPP     2022121006062320230913
20221209T2L3USDON    000003818000000000000381800000000000038180000000NPP     2022121006062320221210
20221209T2L6USD18M   000005122120660000000512212066000000051221206600NPP     2022121006062320240613
20221209T2L6USD1Y    000005244368480000000524436848000000052443684800NPP     2022121006062320231213
20221209T2L6USD6M    000005139710000000000513971000000000051397100000NPP     2022121006062320230613
20221209T2L6USDON    000003818000000000000381800000000000038180000000NPP     2022121006062320221210
20221209T2UVV1 1M    -000014100000000-000014100000000-000014100000000NPP     2022121006062320160224
20221209T2UVV1 1Y    000000200000000000000020000000000000002000000000NPP     2022121006062320170124
20221209T2UVV1 2M    -000011700000000-000011700000000-000011700000000NPP     2022121006062320160322
20221209T2UVV1 2W    -000015269419800-000015269419800-000015269419800NPP     2022121006062320160205
20221209T2UVV1 3M    -000010000000000-000010000000000-000010000000000NPP     2022121006062320160422
20221209T2UVV1 6M    -000005300000000-000005300000000-000005300000000NPP     2022121006062320160722
20221209T2UVV1 9M    -000001900000000-000001900000000-000001900000000NPP     2022121006062320161024
20221209T2UVV1 ON    -000017700000000-000017700000000-000017700000000NPP     2022121006062320160123
20221209T2UVV1 SW    -000017270021000-000017270021000-000017270021000NPP     2022121006062320160129
20221209T2BLUSD1M    000004291123400000000429112340000000042911234000NPP     2022121006062420230111
20221209T2BLUSD1W    000003550337710000000355033771000000035503377100NPP     2022121006062420221216
20221209T2BLUSD1Y    000004461078320000000446107832000000044610783200NPP     2022121006062420231211
20221209T2BLUSD2M    000004317378460000000431737846000000043173784600NPP     2022121006062420230209
20221209T2BLUSD2W    000004014044230000000401404423000000040140442300NPP     2022121006062420221223
20221209T2BLUSD3M    000004341770280000000434177028000000043417702800NPP     2022121006062420230309
20221209T2BLUSD6M    000004554382160000000455438216000000045543821600NPP     2022121006062420230608
20221209T2BLUSD9M    000004603397140000000460339714000000046033971400NPP     2022121006062420230911
20221209T2BLUSDON    000003494000090000000349400009000000034940000900NPP     2022121006062420221210
20221209T2IUUVR18M   000003922000000000000392200000000000039220000000NPP     2022121006062420240613
20221209T2IUUVR1M    000002073781980000000207378198000000020737819800NPP     2022121006062420230113
20221209T2IUUVR1Y    000004094000000000000409400000000000040940000000NPP     2022121006062420231213
20221209T2IUUVR3M    -000033810000000-000033810000000-000033810000000NPP     2022121006062420230313
20221209T2IUUVR6M    000000400000000000000040000000000000004000000000NPP     2022121006062420230613
20221209T2IUUVR9M    000001794000000000000179400000000000017940000000NPP     2022121006062420230913
20221209T2IUUVRON    000001682883890000000168288389000000016828838900NPP     2022121006062420221210
20221209T2USUSD10M   000004837738310000000483773831000000048377383100NPP     2022121006062420231013
20221209T2USUSD11M   000004843964180000000484396418000000048439641800NPP     2022121006062420231113
20221209T2USUSD1M    000004239459190000000423945919000000042394591900NPP     2022121006062420230113
20221209T2USUSD1Y    000004850188700000000485018870000000048501887000NPP     2022121006062420231213
20221209T2USUSD2M    000004367163300000000436716330000000043671633000NPP     2022121006062420230213
20221209T2USUSD2W    000004205548890000000420554889000000042055488900NPP     2022121006062420221227
20221209T2USUSD3M    000004493884300000000449388430000000044938843000NPP     2022121006062420230313
20221209T2USUSD3W    000004210363670000000421036367000000042103636700NPP     2022121006062420230103
20221209T2USUSD4M    000004570466770000000457046677000000045704667700NPP     2022121006062420230413
20221209T2USUSD5M    000004647137600000000464713760000000046471376000NPP     2022121006062420230515
20221209T2USUSD6M    000004717677630000000471767763000000047176776300NPP     2022121006062420230613
20221209T2USUSD7M    000004760057450000000476005745000000047600574500NPP     2022121006062420230713
20221209T2USUSD8M    000004793772510000000479377251000000047937725100NPP     2022121006062420230814
20221209T2USUSD9M    000004825783400000000482578340000000048257834000NPP     2022121006062420230913
20221209T2USUSDON    000003738940030000000373894003000000037389400300NPP     2022121006062420221212
20221209T2USUSDSW    000004216945030000000421694503000000042169450300NPP     2022121006062420221220
20221209T2UIUSD1M    000004291123400000000429112340000000042911234000NPP     2022121006062420230111
20221209T2UIUSD1W    000003550337710000000355033771000000035503377100NPP     2022121006062420221216
20221209T2UIUSD1Y    000004461078320000000446107832000000044610783200NPP     2022121006062420231211
20221209T2UIUSD2M    000004317378460000000431737846000000043173784600NPP     2022121006062420230209
20221209T2UIUSD2W    000004014044230000000401404423000000040140442300NPP     2022121006062420221223
20221209T2UIUSD3M    000004341770280000000434177028000000043417702800NPP     2022121006062420230309
20221209T2UIUSD6M    000004554382160000000455438216000000045543821600NPP     2022121006062420230608
20221209T2UIUSD9M    000004603397140000000460339714000000046033971400NPP     2022121006062420230911
20221209T2UIUSDON    000003494000090000000349400009000000034940000900NPP     2022121006062420221210
20221209T2COCOF10Y   000012275912560000001227591256000000122759125600NPP     2022121006062520321213
20221209T2COCOF12Y   000013494215270000001349421527000000134942152700NPP     2022121006062520341213
20221209T2COCOF15Y   000015890972340000001589097234000000158909723400NPP     2022121006062520371214
20221209T2COCOF18M   000012748204460000001274820446000000127482044600NPP     2022121006062520240611
20221209T2COCOF20Y   000020833512430000002083351243000000208335124300NPP     2022121006062520421215
20221209T2COCOF25Y   000026604081780000002660408178000000266040817800NPP     2022121006062520471213
20221209T2COCOF2Y    000011058591290000001105859129000000110585912900NPP     2022121006062520241213
20221209T2COCOF3Y    000010683559730000001068355973000000106835597300NPP     2022121006062520251215
20221209T2COCOF4Y    000010676658740000001067665874000000106766587400NPP     2022121006062520261214
20221209T2COCOF5Y    000010645640180000001064564018000000106456401800NPP     2022121006062520271213
20221209T2COCOF6Y    000010774889000000001077488900000000107748890000NPP     2022121006062520281213
20221209T2COCOF7Y    000011117076170000001111707617000000111170761700NPP     2022121006062520291213
20221209T2COCOF8Y    000011581546810000001158154681000000115815468100NPP     2022121006062520301213
20221209T2COCOF9Y    000012029887460000001202988746000000120298874600NPP     2022121006062520311215
20221209T2DTCOP10Y   000016075843220000001607584322000000160758432200NPP     2022121006062620321213
20221209T2DTCOP2Y    000012319061770000001231906177000000123190617700NPP     2022121006062620241213
20221209T2DTCOP3Y    000012305171220000001230517122000000123051712200NPP     2022121006062620251215
20221209T2DTCOP4Y    000012563701210000001256370121000000125637012100NPP     2022121006062620261214
20221209T2DTCOP5Y    000012797427960000001279742796000000127974279600NPP     2022121006062620271213
20221209T2DTCOP6Y    000013128377150000001312837715000000131283771500NPP     2022121006062620281213
20221209T2DTCOP7Y    000013720471420000001372047142000000137204714200NPP     2022121006062620291213
20221209T2DTCOP8Y    000014378886110000001437888611000000143788861100NPP     2022121006062620301213
20221209T2DTCOP9Y    000015025775470000001502577547000000150257754700NPP     2022121006062620311215
20221209T2ESUSD10M   000002570763330000000257076333000000025707633300NPP     2022121006062620231013
20221209T2ESUSD10Y   000002606579910000000260657991000000026065799100NPP     2022121006062620321213
20221209T2ESUSD11M   000002598012130000000259801213000000025980121300NPP     2022121006062620231113
20221209T2ESUSD12Y   000002696053020000000269605302000000026960530200NPP     2022121006062620341213
20221209T2ESUSD15Y   000002777554710000000277755471000000027775547100NPP     2022121006062620371214
20221209T2ESUSD18M   000002645757530000000264575753000000026457575300NPP     2022121006062620240613
20221209T2ESUSD1M    000001807328190000000180732819000000018073281900NPP     2022121006062620230113
20221209T2ESUSD1W    000001404316980000000140431698000000014043169800NPP     2022121006062620221220
20221209T2ESUSD1Y    000002620011160000000262001116000000026200111600NPP     2022121006062620231213
20221209T2ESUSD20Y   000002683129780000000268312978000000026831297800NPP     2022121006062620421215
20221209T2ESUSD25Y   000002488522010000000248852201000000024885220100NPP     2022121006062620471213
20221209T2ESUSD2M    000001913314210000000191331421000000019133142100NPP     2022121006062620230213
20221209T2ESUSD2W    000001637883600000000163788360000000016378836000NPP     2022121006062620221227
20221209T2ESUSD2Y    000002647571010000000264757101000000026475710100NPP     2022121006062620241213
20221209T2ESUSD3M    000002051844310000000205184431000000020518443100NPP     2022121006062620230313
20221209T2ESUSD3Y    000002558351020000000255835102000000025583510200NPP     2022121006062620251215
20221209T2ESUSD4M    000002186533030000000218653303000000021865330300NPP     2022121006062620230413
20221209T2ESUSD4Y    000002501293830000000250129383000000025012938300NPP     2022121006062620261214
20221209T2ESUSD5M    000002292276180000000229227618000000022922761800NPP     2022121006062620230515
20221209T2ESUSD5Y    000002486056520000000248605652000000024860565200NPP     2022121006062720271213
20221209T2ESUSD6M    000002378022060000000237802206000000023780220600NPP     2022121006062720230613
20221209T2ESUSD7M    000002446018980000000244601898000000024460189800NPP     2022121006062720230713
20221209T2ESUSD7Y    000002483383810000000248338381000000024833838100NPP     2022121006062720291213
20221209T2ESUSD8M    000002500016540000000250001654000000025000165400NPP     2022121006062720230814
20221209T2ESUSD9M    000002539014760000000253901476000000025390147600NPP     2022121006062720230913
20221209T2ESUSDON    000001399338600000000139933860000000013993386000NPP     2022121006062720221212
20221209T2IMEUC15M   000002309731330000000230973133000000023097313300NPP     20221210060627        
20221209T2IMEUC18M   000002314338410000000231433841000000023143384100NPP     20221210060627        
20221209T2IMEUC21M   000002324721420000000232472142000000023247214200NPP     20221210060627        
20221209T2IMEUC2Y    000002330787920000000233078792000000023307879200NPP     20221210060627        
20221209T2IMEUC3Y    000002226817520000000222681752000000022268175200NPP     20221210060627        
20221209T2IMEUC4Y    000002176839150000000217683915000000021768391500NPP     20221210060627        
20221209T2IMEUC5Y    000002191791140000000219179114000000021917911400NPP     20221210060627        
20221209T2FFUSD10M   000004866395820000000486639582000000048663958200NPP     2022121006062720231013
20221209T2FFUSD10Y   000003745030870000000374503087000000037450308700NPP     2022121006062720321213
20221209T2FFUSD11M   000004875418320000000487541832000000048754183200NPP     2022121006062720231113
20221209T2FFUSD12Y   000003836476270000000383647627000000038364762700NPP     2022121006062720341213
20221209T2FFUSD15Y   000004047271320000000404727132000000040472713200NPP     2022121006062720371214
20221209T2FFUSD1M    000004333111580000000433311158000000043331115800NPP     2022121006062720230113
20221209T2FFUSD1W    000004255062640000000425506264000000042550626400NPP     2022121006062720221220
20221209T2FFUSD1Y    000004873316050000000487331605000000048733160500NPP     2022121006062720231213
20221209T2FFUSD20Y   000004227424480000000422742448000000042274244800NPP     2022121006062720421215
20221209T2FFUSD25Y   000004209590610000000420959061000000042095906100NPP     2022121006062720471213
20221209T2FFUSD2M    000004417843580000000441784358000000044178435800NPP     2022121006062720230213
20221209T2FFUSD2W    000004302236100000000430223610000000043022361000NPP     2022121006062720221227
20221209T2FFUSD2Y    000004444005090000000444400509000000044440050900NPP     2022121006062720241213
20221209T2FFUSD3M    000004524680200000000452468020000000045246802000NPP     2022121006062720230313
20221209T2FFUSD3W    000004319222420000000431922242000000043192224200NPP     2022121006062720230103
20221209T2FFUSD3Y    000004034698170000000403469817000000040346981700NPP     2022121006062720251215
20221209T2FFUSD4M    000004618972540000000461897254000000046189725400NPP     2022121006062720230413
20221209T2FFUSD4Y    000003823436030000000382343603000000038234360300NPP     2022121006062720261214
20221209T2FFUSD5M    000004696082050000000469608205000000046960820500NPP     2022121006062720230515
20221209T2FFUSD5Y    000003725258430000000372525843000000037252584300NPP     2022121006062720271213
20221209T2FFUSD6M    000004752665000000000475266500000000047526650000NPP     2022121006062720230613
20221209T2FFUSD7M    000004795812430000000479581243000000047958124300NPP     2022121006062720230713
20221209T2FFUSD7Y    000003676156670000000367615667000000036761566700NPP     2022121006062720291213
20221209T2FFUSD8M    000004829103730000000482910373000000048291037300NPP     2022121006062720230814
20221209T2FFUSD9M    000004855000940000000485500094000000048550009400NPP     2022121006062720230913
20221209T2FFUSDON    000003767751920000000376775192000000037677519200NPP     2022121006062720221212
20221209T2GBGBP15M   000004175276530000000417527653000000041752765300NPP     2022121006062720240313
20221209T2GBGBP18M   000004152320850000000415232085000000041523208500NPP     2022121006062720240613
20221209T2GBGBP21M   000004148182330000000414818233000000041481823300NPP     2022121006062720240913
20221209T2GBGBP2Y    000004113443930000000411344393000000041134439300NPP     2022121006062720241213
20221209T2GBGBP3Y    000003939256820000000393925682000000039392568200NPP     2022121006062720251215
20221209T2GBGBP4Y    000003803370340000000380337034000000038033703400NPP     2022121006062820261214
20221209T2GBGBP5Y    000003735648040000000373564804000000037356480400NPP     2022121006062820271213
20221209T2BLUSD10Y   000002649134420000000264913442000000026491344200NPP     2022121006062820321213
20221209T2BLUSD2Y    000003735346930000000373534693000000037353469300NPP     2022121006062820241213
20221209T2BLUSD3Y    000003100983890000000310098389000000031009838900NPP     2022121006062820251215
20221209T2BLUSD4Y    000002807861690000000280786169000000028078616900NPP     2022121006062820261214
20221209T2BLUSD5Y    000002662421300000000266242130000000026624213000NPP     2022121006062820271213
20221209T2BLUSD6Y    000002635671490000000263567149000000026356714900NPP     2022121006062820281213
20221209T2BLUSD7Y    000002621211000000000262121100000000026212110000NPP     2022121006062820291213
20221209T2BLUSD8Y    000002669947190000000266994719000000026699471900NPP     2022121006062820301213
20221209T2BLUSD9Y    000002728459090000000272845909000000027284590900NPP     2022121006062820311215
20221209T2IBCOP10Y   000016252426540000001625242654000000162524265400NPP     2022121006062820321213
20221209T2IBCOP12Y   000018021402840000001802140284000000180214028400NPP     2022121006062820341213
20221209T2IBCOP15Y   000021514060000000002151406000000000215140600000NPP     2022121006062820371214
20221209T2IBCOP18M   000012150000000000001215000000000000121500000000NPP     2022121006062820240613
20221209T2IBCOP20Y   000031095091840000003109509184000000310950918400NPP     2022121006062820421215
20221209T2IBCOP2Y    000012246060520000001224606052000000122460605200NPP     2022121006062820241213
20221209T2IBCOP3Y    000012280806680000001228080668000000122808066800NPP     2022121006062820251215
20221209T2IBCOP4Y    000012583760700000001258376070000000125837607000NPP     2022121006062820261214
20221209T2IBCOP5Y    000012835859190000001283585919000000128358591900NPP     2022121006062820271213
20221209T2IBCOP6Y    000013202899010000001320289901000000132028990100NPP     2022121006062820281213
20221209T2IBCOP7Y    000013802760520000001380276052000000138027605200NPP     2022121006062820291213
20221209T2IBCOP8Y    000014501445620000001450144562000000145014456200NPP     2022121006062820301213
20221209T2IBCOP9Y    000015161569430000001516156943000000151615694300NPP     2022121006062820311215
20221209T2ECEUR10Y   000001375604230000000137560423000000013756042300NPP     2022121006062920321213
20221209T2ECEUR12Y   000001543653340000000154365334000000015436533400NPP     2022121006062920341213
20221209T2ECEUR2Y    000001803120060000000180312006000000018031200600NPP     2022121006062920241213
20221209T2ECEUR3Y    000001497070300000000149707030000000014970703000NPP     2022121006062920251215
20221209T2ECEUR4Y    000001358287260000000135828726000000013582872600NPP     2022121006062920261214
20221209T2ECEUR5Y    000001287559440000000128755944000000012875594400NPP     2022121006062920271213
20221209T2ECEUR6Y    000001307708050000000130770805000000013077080500NPP     2022121006062920281213
20221209T2ECEUR7Y    000001306909960000000130690996000000013069099600NPP     2022121006062920291213
20221209T2ECEUR8Y    000001374909960000000137490996000000013749099600NPP     2022121006062920301213
20221209T2ECEUR9Y    000001446473350000000144647335000000014464733500NPP     2022121006062920311215
202212092L12USD10Y   000004722256330000000472225633000000047222563300NPP     2022121006063320321213
202212092L12USD12Y   000004874701460000000487470146000000048747014600NPP     2022121006063320341213
202212092L12USD15Y   000005221723130000000522172313000000052217231300NPP     2022121006063320371214
202212092L12USD20Y   000005462092610000000546209261000000054620926100NPP     2022121006063320421215
202212092L12USD25Y   000005820641030000000582064103000000058206410300NPP     2022121006063320471213
202212092L12USD2Y    000005220672610000000522067261000000052206726100NPP     2022121006063320241213
202212092L12USD30Y   000005726811860000000572681186000000057268118600NPP     2022121006063320521213
202212092L12USD3Y    000004789303420000000478930342000000047893034200NPP     2022121006063320251215
202212092L12USD4Y    000004607554670000000460755467000000046075546700NPP     2022121006063320261214
202212092L12USD5Y    000004529459650000000452945965000000045294596500NPP     2022121006063320271213
202212092L12USD7Y    000004512540350000000451254035000000045125403500NPP     2022121006063320291213
20221209T2L1USD10Y   000003888562060000000388856206000000038885620600NPP     2022121006063320321213
20221209T2L1USD12Y   000004017180810000000401718081000000040171808100NPP     2022121006063320341213
20221209T2L1USD15Y   000004220688050000000422068805000000042206880500NPP     2022121006063320371214
20221209T2L1USD20Y   000004451382020000000445138202000000044513820200NPP     2022121006063320421215
20221209T2L1USD25Y   000004508626670000000450862667000000045086266700NPP     2022121006063320471213
20221209T2L1USD2Y    000004558582870000000455858287000000045585828700NPP     2022121006063320241213
20221209T2L1USD30Y   000004514974010000000451497401000000045149740100NPP     2022121006063320521213
20221209T2L1USD3Y    000004153208860000000415320886000000041532088600NPP     2022121006063320251215
20221209T2L1USD4Y    000003942338190000000394233819000000039423381900NPP     2022121006063320261214
20221209T2L1USD5Y    000003852539950000000385253995000000038525399500NPP     2022121006063320271213
20221209T2L1USD7Y    000003797740600000000379774060000000037977406000NPP     2022121006063320291213
20221209T2L3USD10Y   000004092410220000000409241022000000040924102200NPP     2022121006063320321213
20221209T2L3USD11Y   000004163274130000000416327413000000041632741300NPP     2022121006063320331213
20221209T2L3USD12Y   000004234770440000000423477044000000042347704400NPP     2022121006063320341213
20221209T2L3USD13Y   000004308419610000000430841961000000043084196100NPP     2022121006063320351213
20221209T2L3USD14Y   000004385611360000000438561136000000043856113600NPP     2022121006063320361215
20221209T2L3USD15Y   000004461049400000000446104940000000044610494000NPP     2022121006063320371214
20221209T2L3USD20Y   000004730561150000000473056115000000047305611500NPP     2022121006063320421215
20221209T2L3USD25Y   000004825340720000000482534072000000048253407200NPP     2022121006063320471213
20221209T2L3USD2Y    000004710858770000000471085877000000047108587700NPP     2022121006063320241213
20221209T2L3USD30Y   000004865438040000000486543804000000048654380400NPP     2022121006063320521213
20221209T2L3USD3Y    000004310934900000000431093490000000043109349000NPP     2022121006063320251215
20221209T2L3USD4Y    000004107178480000000410717848000000041071784800NPP     2022121006063320261214
20221209T2L3USD5Y    000004024102130000000402410213000000040241021300NPP     2022121006063320271213
20221209T2L3USD6Y    000003983900370000000398390037000000039839003700NPP     2022121006063320281213
20221209T2L3USD7Y    000003980200990000000398020099000000039802009900NPP     2022121006063320291213
20221209T2L3USD8Y    000004002811530000000400281153000000040028115300NPP     2022121006063320301213
20221209T2L3USD9Y    000004026651330000000402665133000000040266513300NPP     2022121006063320311215
20221209T2L6USD10Y   000004327034900000000432703490000000043270349000NPP     2022121006063320321213
20221209T2L6USD12Y   000004486549810000000448654981000000044865498100NPP     2022121006063320341213
20221209T2L6USD15Y   000004741055700000000474105570000000047410557000NPP     2022121006063320371214
20221209T2L6USD20Y   000005062483130000000506248313000000050624831300NPP     2022121006063320421215
20221209T2L6USD25Y   000005203676880000000520367688000000052036768800NPP     2022121006063420471213
20221209T2L6USD2Y    000004886985730000000488698573000000048869857300NPP     2022121006063420241213
20221209T2L6USD30Y   000005290241480000000529024148000000052902414800NPP     2022121006063420521213
20221209T2L6USD3Y    000004494941160000000449494116000000044949411600NPP     2022121006063420251215
20221209T2L6USD4Y    000004298928740000000429892874000000042989287400NPP     2022121006063420261214
20221209T2L6USD5Y    000004222262110000000422226211000000042222621100NPP     2022121006063420271213
20221209T2L6USD7Y    000004193174730000000419317473000000041931747300NPP     2022121006063420291213
20221209T2UVV1 102M  000002398037260000000239803726000000023980372600NPP     2022121006063420240726
20221209T2UVV1 10Y   000002743035550000000274303555000000027430355500NPP     2022121006063420260126
20221209T2UVV1 114M  000002614646550000000261464655000000026146465500NPP     2022121006063420250728
20221209T2UVV1 18M   000000341230960000000034123096000000003412309600NPP     2022121006063420170724
20221209T2UVV1 2Y    000000706674910000000070667491000000007066749100NPP     2022121006063420180126
20221209T2UVV1 30M   000000859459010000000085945901000000008594590100NPP     2022121006063420180726
20221209T2UVV1 3Y    000001018933430000000101893343000000010189334300NPP     2022121006063420190128
20221209T2UVV1 42M   000001160940700000000116094070000000011609407000NPP     2022121006063420190726
20221209T2UVV1 4Y    000001310739080000000131073908000000013107390800NPP     2022121006063420200127
20221209T2UVV1 54M   000001450238580000000145023858000000014502385800NPP     2022121006063420200727
20221209T2UVV1 5Y    000001594079940000000159407994000000015940799400NPP     2022121006063420210126
20221209T2UVV1 66M   000001740343880000000174034388000000017403438800NPP     2022121006063420210726
20221209T2UVV1 6Y    000001893563280000000189356328000000018935632800NPP     2022121006063420220126
20221209T2UVV1 78M   000002007176010000000200717601000000020071760100NPP     2022121006063420220726
20221209T2UVV1 7Y    000002126266100000000212626610000000021262661000NPP     2022121006063420230126
20221209T2UVV1 8Y    000002309425160000000230942516000000023094251600NPP     2022121006063420240126
20221209T2UVV1 90M   000002215695750000000221569575000000022156957500NPP     2022121006063420230726
20221209T2UVV1 9Y    000002491032660000000249103266000000024910326600NPP     2022121006063420250127
20221209T2SOUSD10M   000004837738310000000483773831000000048377383100NPP     2022121006063420231013
20221209T2SOUSD10Y   000003749153490000000374915349000000037491534900NPP     2022121006063420321213
20221209T2SOUSD11M   000004843964180000000484396418000000048439641800NPP     2022121006063420231113
20221209T2SOUSD12Y   000003835770650000000383577065000000038357706500NPP     2022121006063420341213
20221209T2SOUSD15Y   000004060065690000000406006569000000040600656900NPP     2022121006063420371214
20221209T2SOUSD1M    000004239459190000000423945919000000042394591900NPP     2022121006063420230113
20221209T2SOUSD1Y    000004850188700000000485018870000000048501887000NPP     2022121006063420231213
20221209T2SOUSD20Y   000004261423040000000426142304000000042614230400NPP     2022121006063420421215
20221209T2SOUSD25Y   000004217468500000000421746850000000042174685000NPP     2022121006063420471213
20221209T2SOUSD2M    000004367163300000000436716330000000043671633000NPP     2022121006063420230213
20221209T2SOUSD2W    000004205548890000000420554889000000042055488900NPP     2022121006063420221227
20221209T2SOUSD2Y    000004429145010000000442914501000000044291450100NPP     2022121006063420241213
20221209T2SOUSD3M    000004493884300000000449388430000000044938843000NPP     2022121006063520230313
20221209T2SOUSD3W    000004210363670000000421036367000000042103636700NPP     2022121006063520230103
20221209T2SOUSD3Y    000004022069970000000402206997000000040220699700NPP     2022121006063520251215
20221209T2SOUSD4M    000004570466770000000457046677000000045704667700NPP     2022121006063520230413
20221209T2SOUSD4Y    000003816556340000000381655634000000038165563400NPP     2022121006063520261214
20221209T2SOUSD5M    000004647137600000000464713760000000046471376000NPP     2022121006063520230515
20221209T2SOUSD5Y    000003715931690000000371593169000000037159316900NPP     2022121006063520271213
20221209T2SOUSD6M    000004717677630000000471767763000000047176776300NPP     2022121006063520230613
20221209T2SOUSD7M    000004760057450000000476005745000000047600574500NPP     2022121006063520230713
20221209T2SOUSD7Y    000003672826830000000367282683000000036728268300NPP     2022121006063520291213
20221209T2SOUSD8M    000004793772510000000479377251000000047937725100NPP     2022121006063520230814
20221209T2SOUSD9M    000004825783400000000482578340000000048257834000NPP     2022121006063520230913
20221209T2SOUSDON    000003738940030000000373894003000000037389400300NPP     2022121006063520221212
20221209T2SOUSDSW    000004216945030000000421694503000000042169450300NPP     2022121006063520221220
20221209T2IUUVR10Y   000004892343060000000489234306000000048923430600NPP     2022121006063520321213
20221209T2IUUVR15Y   000005595847690000000559584769000000055958476900NPP     2022121006063520371214
20221209T2IUUVR2Y    000003107322670000000310732267000000031073226700NPP     2022121006063520241213
20221209T2IUUVR3Y    000003680080890000000368008089000000036800808900NPP     2022121006063520251215
20221209T2IUUVR4Y    000004267825130000000426782513000000042678251300NPP     2022121006063520261214
20221209T2IUUVR5Y    000004662983710000000466298371000000046629837100NPP     2022121006063520271213
20221209T2IUUVR6Y    000004586403060000000458640306000000045864030600NPP     2022121006063520281213
20221209T2IUUVR7Y    000004980591470000000498059147000000049805914700NPP     2022121006063520291213
20221209T2IUUVR8Y    000005123289660000000512328966000000051232896600NPP     2022121006063520301213
20221209T2IUUVR9Y    000005078583450000000507858345000000050785834500NPP     2022121006063520311215
20221209T2USUSD10Y   000003749153490000000374915349000000037491534900NPP     2022121006063520321213
20221209T2USUSD12Y   000003835770650000000383577065000000038357706500NPP     2022121006063520341213
20221209T2USUSD15Y   000004060065690000000406006569000000040600656900NPP     2022121006063520371214
20221209T2USUSD20Y   000004261423040000000426142304000000042614230400NPP     2022121006063520421215
20221209T2USUSD25Y   000004217468500000000421746850000000042174685000NPP     2022121006063620471213
20221209T2USUSD2Y    000004429145010000000442914501000000044291450100NPP     2022121006063620241213
20221209T2USUSD3Y    000004022069970000000402206997000000040220699700NPP     2022121006063620251215
20221209T2USUSD4Y    000003816556340000000381655634000000038165563400NPP     2022121006063620261214
20221209T2USUSD5Y    000003715931690000000371593169000000037159316900NPP     2022121006063620271213
20221209T2USUSD7Y    000003672826830000000367282683000000036728268300NPP     2022121006063620291213
20221209T2UIUSD10Y   000002649134420000000264913442000000026491344200NPP     2022121006063620321213
20221209T2UIUSD12Y   000002812469630000000281246963000000028124696300NPP     2022121006063620341213
20221209T2UIUSD15Y   000003128057170000000312805717000000031280571700NPP     2022121006063620371214
20221209T2UIUSD18M   000004151027790000000415102779000000041510277900NPP     2022121006063620240611
20221209T2UIUSD20Y   000003357911440000000335791144000000033579114400NPP     2022121006063620421215
20221209T2UIUSD25Y   000003405527990000000340552799000000034055279900NPP     2022121006063620471213
20221209T2UIUSD2Y    000003735346930000000373534693000000037353469300NPP     2022121006063620241213
20221209T2UIUSD3Y    000003100983890000000310098389000000031009838900NPP     2022121006063620251215
20221209T2UIUSD4Y    000002807861690000000280786169000000028078616900NPP     2022121006063620261214
20221209T2UIUSD5Y    000002662421300000000266242130000000026624213000NPP     2022121006063620271213
20221209T2UIUSD6Y    000002635671490000000263567149000000026356714900NPP     2022121006063620281213
20221209T2UIUSD7Y    000002621211000000000262121100000000026212110000NPP     2022121006063620291213
20221209T2UIUSD8Y    000002669947190000000266994719000000026699471900NPP     2022121006063620301213
20221209T2UIUSD9Y    000002728459090000000272845909000000027284590900NPP     2022121006063620311215
20221209CPFFUSD001   000003800000000000000380000000000000038000000000NPP     20221209091204        
20221209CPFFUSD002   000003800000000000000380000000000000038000000000NPP     20221209091204        
20221209CPFFUSD003   000003800000000000000380000000000000038000000000NPP     20221209091204        
20221209CPFFUSD004   000003802500000000000380250000000000038025000000NPP     20221209091204        
20221209CPFFUSD005   000003804000000000000380400000000000038040000000NPP     20221209091204        
20221209CPFFUSD006   000003805000000000000380500000000000038050000000NPP     20221209091204        
20221209CPFFUSD007   000003805710000000000380571000000000038057100000NPP     20221209091204        
20221209CPFFUSD008   000003807500000000000380750000000000038075000000NPP     20221209091204        
20221209CPFFUSD009   000003808890000000000380889000000000038088900000NPP     20221209091204        
20221209CPFFUSD010   000003809000000000000380900000000000038090000000NPP     20221209091204        
20221209CPFFUSD011   000003808180000000000380818000000000038081800000NPP     20221209091204        
20221209CPFFUSD012   000003807500000000000380750000000000038075000000NPP     20221209091204        
20221209CPFFUSD013   000003806920000000000380692000000000038069200000NPP     20221209091204        
20221209CPFFUSD014   000003806430000000000380643000000000038064300000NPP     20221209091204        
20221209CPFFUSD015   000003805330000000000380533000000000038053300000NPP     20221209091204        
20221209CPFFUSD016   000003804370000000000380437000000000038043700000NPP     20221209091204        
20221209CPFFUSD017   000003804120000000000380412000000000038041200000NPP     20221209091204        
20221209CPFFUSD018   000003803890000000000380389000000000038038900000NPP     20221209091204        
20221209CPFFUSD019   000003803680000000000380368000000000038036800000NPP     20221209091204        
20221209CPFFUSD020   000003803500000000000380350000000000038035000000NPP     20221209091204        
20221209CPFFUSD021   000003803330000000000380333000000000038033300000NPP     20221209091204        
20221209CPFFUSD022   000003803180000000000380318000000000038031800000NPP     20221209091204        
20221209CPFFUSD023   000003803480000000000380348000000000038034800000NPP     20221209091204        
20221209CPFFUSD024   000003803330000000000380333000000000038033300000NPP     20221209091204        
20221209CPFFUSD025   000003802800000000000380280000000000038028000000NPP     20221209091204        
20221209CPFFUSD026   000003801920000000000380192000000000038019200000NPP     20221209091204        
20221209CPFFUSD027   000003801110000000000380111000000000038011100000NPP     20221209091204        
20221209CPFFUSD028   000003800360000000000380036000000000038003600000NPP     20221209091204        
20221209CPFFUSD029   000003799660000000000379966000000000037996600000NPP     20221209091204        
20221209CPFFUSD030   000003799000000000000379900000000000037990000000NPP     20221209091204        
20221209CPFFUSD031   000003798390000000000379839000000000037983900000NPP     20221209091204        
20221209CPFFUSD032   000003797810000000000379781000000000037978100000NPP     20221209091204        
20221209CPFFUSD033   000003797880000000000379788000000000037978800000NPP     20221209091204        
20221209CPFFUSD034   000003797940000000000379794000000000037979400000NPP     20221209091204        
20221209CPFFUSD035   000003798000000000000379800000000000037980000000NPP     20221209091204        
20221209CPFFUSD036   000003798060000000000379806000000000037980600000NPP     20221209091204        
20221209CPFFUSD037   000003777840000000000377784000000000037778400000NPP     20221209091204        
20221209CPFFUSD038   000003758680000000000375868000000000037586800000NPP     20221209091204        
20221209CPFFUSD039   000003740510000000000374051000000000037405100000NPP     20221209091204        
20221209CPFFUSD040   000003723250000000000372325000000000037232500000NPP     20221209091204        
