20230130DEPOB121M    000016316300000000001631630000000000163163000000NPP     20230131072206        
20230130DEPOB121Y    000019669100000000001966910000000000196691000000NPP     20230131072206        
20230130DEPOB122M    000017048700000000001704870000000000170487000000NPP     20230131072206        
20230130DEPOB122W    000015837600000000001583760000000000158376000000NPP     20230131072206        
20230130DEPOB122Y    000019910600000000001991060000000000199106000000NPP     20230131072206        
20230130DEPOB123M    000017671000000000001767100000000000176710000000NPP     20230131072206        
20230130DEPOB123Y    000019951700000000001995170000000000199517000000NPP     20230131072206        
20230130DEPOB124Y    000019983500000000001998350000000000199835000000NPP     20230131072206        
20230130DEPOB125Y    000020008500000000002000850000000000200085000000NPP     20230131072206        
20230130DEPOB126M    000018829000000000001882900000000000188290000000NPP     20230131072206        
20230130DEPOB129M    000019397500000000001939750000000000193975000000NPP     20230131072206        
20230130DEPOB12ON    000015403800000000001540380000000000154038000000NPP     20230131072206        
20230130DEPOB12SW    000015609300000000001560930000000000156093000000NPP     20230131072206        
20230130DEPOB12TN    000015473300000000001547330000000000154733000000NPP     20230131072206        
20230130DEPOCOF1M    000011842263990000001184226399000000118422639900NPP     2023013107220620230227
20230130DEPOCOF1Y    000012926636810000001292663681000000129266368100NPP     2023013107220620240130
20230130DEPOCOF2M    000012036691190000001203669119000000120366911900NPP     2023013107220620230330
20230130DEPOCOF2W    000011890153250000001189015325000000118901532500NPP     2023013107220620230213
20230130DEPOCOF3M    000012184724950000001218472495000000121847249500NPP     2023013107220620230427
20230130DEPOCOF6M    000012513208810000001251320881000000125132088100NPP     2023013107220620230728
20230130DEPOCOF9M    000012716047710000001271604771000000127160477100NPP     2023013107220620231030
20230130DEPOCOFON    000011683982770000001168398277000000116839827700NPP     2023013107220620230131
20230130DEPOCOFSW    000011791861920000001179186192000000117918619200NPP     2023013107220620230206
20230130DTFPCOP1Y    000013394945760000001339494576000000133949457600NPP     2023013107220620240201
20230130DTFPCOP3M    000013561059650000001356105965000000135610596500NPP     2023013107220620230502
20230130DTFPCOP6M    000013050952870000001305095287000000130509528700NPP     2023013107220620230801
20230130DTFPCOP9M    000012908207990000001290820799000000129082079900NPP     2023013107220620231101
20230130DTFPCOPON    000014040000000000001404000000000000140400000000NPP     2023013107220620230131
20230130DEPOEUC10M   000002950641860000000295064186000000029506418600NPP     2023013107220620231201
20230130DEPOEUC11M   000003000766730000000300076673000000030007667300NPP     2023013107220620240102
20230130DEPOEUC1D    -000051089186100-000051089186100-000051089186100NPP     2023013107220620230131
20230130DEPOEUC1M    000002270163590000000227016359000000022701635900NPP     2023013107220620230301
20230130DEPOEUC1Y    000002924362230000000292436223000000029243622300NPP     2023013107220620240201
20230130DEPOEUC2M    000002458469190000000245846919000000024584691900NPP     2023013107220620230403
20230130DEPOEUC2W    000002244423970000000224442397000000022444239700NPP     2023013107220620230215
20230130DEPOEUC3D    000003486254580000000348625458000000034862545800NPP     2023013107220620230202
20230130DEPOEUC3M    000002534122690000000253412269000000025341226900NPP     2023013107220620230502
20230130DEPOEUC3W    000002249159870000000224915987000000022491598700NPP     2023013107220620230222
20230130DEPOEUC4M    000002584100810000000258410081000000025841008100NPP     2023013107220620230601
20230130DEPOEUC5M    000002714238860000000271423886000000027142388600NPP     2023013107220620230703
20230130DEPOEUC6M    000002748854910000000274885491000000027488549100NPP     2023013107220620230801
20230130DEPOEUC7M    000002831565410000000283156541000000028315654100NPP     2023013107220620230901
20230130DEPOEUC8M    000002909706340000000290970634000000029097063400NPP     2023013107220620231002
20230130DEPOEUC9M    000002916348170000000291634817000000029163481700NPP     2023013107220620231101
20230130DEPOEUCSW    000002319680580000000231968058000000023196805800NPP     2023013107220620230208
20230130IMGBGBP10M   000004223384290000000422338429000000042233842900NPP     2023013107220720231201
20230130IMGBGBP11M   000004236410620000000423641062000000042364106200NPP     2023013107220720240102
20230130IMGBGBP1M    000003736126390000000373612639000000037361263900NPP     2023013107220720230301
20230130IMGBGBP1Y    000004192679750000000419267975000000041926797500NPP     2023013107220720240201
20230130IMGBGBP2M    000003876803010000000387680301000000038768030100NPP     2023013107220720230403
20230130IMGBGBP2W    000003697710410000000369771041000000036977104100NPP     2023013107220720230215
20230130IMGBGBP3M    000003930552490000000393055249000000039305524900NPP     2023013107220720230502
20230130IMGBGBP3W    000003712425240000000371242524000000037124252400NPP     2023013107220720230222
20230130IMGBGBP4M    000003985620020000000398562002000000039856200200NPP     2023013107220720230601
20230130IMGBGBP5M    000004069724070000000406972407000000040697240700NPP     2023013107220720230703
20230130IMGBGBP6M    000004098157730000000409815773000000040981577300NPP     2023013107220720230801
20230130IMGBGBP7M    000004155706170000000415570617000000041557061700NPP     2023013107220720230901
20230130IMGBGBP8M    000004198134380000000419813438000000041981343800NPP     2023013107220720231002
20230130IMGBGBP9M    000004199324490000000419932449000000041993244900NPP     2023013107220720231101
20230130IMGBGBPON    000000757412930000000075741293000000007574129300NPP     2023013107220720230131
20230130IMGBGBPSW    000003721073630000000372107363000000037210736300NPP     2023013107220720230208
20230130IBR COP1M    000011880360730000001188036073000000118803607300NPP     2023013107220720230301
20230130IBR COP1Y    000012439929210000001243992921000000124399292100NPP     2023013107220720240201
20230130IBR COP3M    000012146319000000001214631900000000121463190000NPP     2023013107220720230502
20230130IBR COP6M    000012357479260000001235747926000000123574792600NPP     2023013107220720230801
20230130IBR COP9M    000012453741170000001245374117000000124537411700NPP     2023013107220720231101
20230130IBR COPON    000011846000000000001184600000000000118460000000NPP     2023013107220720230131
20230130IPECEUR10M   000002618253680000000261825368000000026182536800NPP     2023013107220720231201
20230130IPECEUR11M   000002599594680000000259959468000000025995946800NPP     2023013107220720240102
20230130IPECEUR1M    000002289711400000000228971140000000022897114000NPP     2023013107220720230301
20230130IPECEUR1W    000002347231040000000234723104000000023472310400NPP     2023013107220720230208
20230130IPECEUR1Y    000002201256540000000220125654000000022012565400NPP     2023013107220720240201
20230130IPECEUR2M    000002420069120000000242006912000000024200691200NPP     2023013107220720230403
20230130IPECEUR2W    000002240394850000000224039485000000022403948500NPP     2023013107220720230215
20230130IPECEUR3M    000002473377170000000247337717000000024733771700NPP     2023013107220720230502
20230130IPECEUR3W    -000005131578100-000005131578100-000005131578100NPP     2023013107220720210518
20230130IPECEUR4M    000002465152370000000246515237000000024651523700NPP     2023013107220720230601
20230130IPECEUR5M    000002560767510000000256076751000000025607675100NPP     2023013107220720230703
20230130IPECEUR6M    000002590019840000000259001984000000025900198400NPP     2023013107220720230801
20230130IPECEUR7M    000002627589650000000262758965000000026275896500NPP     2023013107220720230901
20230130IPECEUR8M    000002674654950000000267465495000000026746549500NPP     2023013107220720231002
20230130IPECEUR9M    000002666231310000000266623131000000026662313100NPP     2023013107220720231101
20230130IPECEURON    -000049469769300-000049469769300-000049469769300NPP     2023013107220720230131
20230130L12MUSD1Y    000005321704493000000532170449300000053217044930NPP     2023013107220720240201
20230130L12MUSDON    000004305290000000000430529000000000043052900000NPP     2023013107220720230131
20230130L1M USD18M   000004743561783900000474356178390000047435617839NPP     2023013107220720240801
20230130L1M USD1M    000004549237205300000454923720530000045492372053NPP     2023013107220720230301
20230130L1M USD1Y    000004934047544000000493404754400000049340475440NPP     2023013107220720240201
20230130L1M USD3M    000004619524018000000461952401800000046195240180NPP     2023013107220720230502
20230130L1M USD6M    000004865829528500000486582952850000048658295285NPP     2023013107220720230801
20230130L1M USD9M    000004924821086800000492482108680000049248210868NPP     2023013107220720231101
20230130L1M USDON    000004305290000000000430529000000000043052900000NPP     2023013107220820230131
20230130L3M USD18M   000004875165074300000487516507430000048751650743NPP     2023013107220820240801
20230130L3M USD3M    000004698047056500000469804705650000046980470565NPP     2023013107220820230502
20230130L3M USD6M    000004933070620200000493307062020000049330706202NPP     2023013107220820230801
20230130L3M USD9M    000005030831477400000503083147740000050308314774NPP     2023013107220820231101
20230130L3M USDON    000004305290000000000430529000000000043052900000NPP     2023013107220820230131
20230130L6M USD18M   000005036863010000000503686301000000050368630100NPP     2023013107220820240801
20230130L6M USD1Y    000005212713380000000521271338000000052127133800NPP     2023013107220820240201
20230130L6M USD6M    000005084181280000000508418128000000050841812800NPP     2023013107220820230801
20230130L6M USDON    000004305290000000000430529000000000043052900000NPP     2023013107220820230131
20230130DEPOV1 1M    -000014533926800-000014533926800-000014533926800NPP     2023013107220820160224
20230130DEPOV1 1Y    000000178548050000000017854805000000001785480500NPP     2023013107220820170124
20230130DEPOV1 2M    -000012097852400-000012097852400-000012097852400NPP     2023013107220820160322
20230130DEPOV1 2W    -000015269419800-000015269419800-000015269419800NPP     2023013107220820160205
20230130DEPOV1 3M    -000010336581300-000010336581300-000010336581300NPP     2023013107220820160422
20230130DEPOV1 6M    -000005571508000-000005571508000-000005571508000NPP     2023013107220820160722
20230130DEPOV1 9M    -000002128617300-000002128617300-000002128617300NPP     2023013107220820161024
20230130DEPOV1 ON    -000017700000000-000017700000000-000017700000000NPP     2023013107220820160123
20230130DEPOV1 SW    -000017270021000-000017270021000-000017270021000NPP     2023013107220820160129
20230130IBL USD1M    000004496920060000000449692006000000044969200600NPP     2023013107220820230227
20230130IBL USD1W    000004397024440000000439702444000000043970244400NPP     2023013107220820230206
20230130IBL USD1Y    000004412091590000000441209159000000044120915900NPP     2023013107220820240130
20230130IBL USD2M    000004558538520000000455853852000000045585385200NPP     2023013107220820230330
20230130IBL USD2W    000004349042750000000434904275000000043490427500NPP     2023013107220820230213
20230130IBL USD3M    000004592981880000000459298188000000045929818800NPP     2023013107220820230427
20230130IBL USD6M    000004652164730000000465216473000000046521647300NPP     2023013107220820230728
20230130IBL USD9M    000004624856180000000462485618000000046248561800NPP     2023013107220820231030
20230130IBL USDON    000004461984010000000446198401000000044619840100NPP     2023013107220820230131
20230130IUV UVR18M   000001882987020000000188298702000000018829870200NPP     2023013107220820240801
20230130IUV UVR1M    -000062172525900-000062172525900-000062172525900NPP     2023013107220820230301
20230130IUV UVR1Y    000002262507640000000226250764000000022625076400NPP     2023013107220820240201
20230130IUV UVR3M    -000059272163500-000059272163500-000059272163500NPP     2023013107220820230502
20230130IUV UVR6M    -000010974614000-000010974614000-000010974614000NPP     2023013107220820230801
20230130IUV UVR9M    000000695076090000000069507609000000006950760900NPP     2023013107220820231101
20230130IUV UVRON    -000026923372600-000026923372600-000026923372600NPP     2023013107220820230131
20230130DEPOUSD10M   000004881183630000000488118363000000048811836300NPP     2023013107220820231201
20230130DEPOUSD11M   000004878067670000000487806767000000048780676700NPP     2023013107220820240102
20230130DEPOUSD1M    000004473351510000000447335151000000044733515100NPP     2023013107220820230301
20230130DEPOUSD1Y    000004862289670000000486228967000000048622896700NPP     2023013107220820240201
20230130DEPOUSD2M    000004598899940000000459889994000000045988999400NPP     2023013107220820230403
20230130DEPOUSD2W    000004389664580000000438966458000000043896645800NPP     2023013107220820230215
20230130DEPOUSD3M    000004660590570000000466059057000000046605905700NPP     2023013107220820230501
20230130DEPOUSD3W    000004431508050000000443150805000000044315080500NPP     2023013107220820230222
20230130DEPOUSD4M    000004728890900000000472889090000000047288909000NPP     2023013107220820230601
20230130DEPOUSD5M    000004785367940000000478536794000000047853679400NPP     2023013107220820230703
20230130DEPOUSD6M    000004815364370000000481536437000000048153643700NPP     2023013107220820230801
20230130DEPOUSD7M    000004847429510000000484742951000000048474295100NPP     2023013107220820230901
20230130DEPOUSD8M    000004869432560000000486943256000000048694325600NPP     2023013107220820231002
20230130DEPOUSD9M    000004875308100000000487530810000000048753081000NPP     2023013107220820231101
20230130DEPOUSDON    000004300000000000000430000000000000043000000000NPP     2023013107220820230131
20230130DEPOUSDSW    000004347821110000000434782111000000043478211100NPP     2023013107220820230208
20230130UIBRUSD1M    000004496920060000000449692006000000044969200600NPP     2023013107220920230227
20230130UIBRUSD1W    000004397024440000000439702444000000043970244400NPP     2023013107220920230206
20230130UIBRUSD1Y    000004412091590000000441209159000000044120915900NPP     2023013107220920240130
20230130UIBRUSD2M    000004558538520000000455853852000000045585385200NPP     2023013107220920230330
20230130UIBRUSD2W    000004349042750000000434904275000000043490427500NPP     2023013107220920230213
20230130UIBRUSD3M    000004592981880000000459298188000000045929818800NPP     2023013107220920230427
20230130UIBRUSD6M    000004652164730000000465216473000000046521647300NPP     2023013107220920230728
20230130UIBRUSD9M    000004624856180000000462485618000000046248561800NPP     2023013107220920231030
20230130UIBRUSDON    000004461984010000000446198401000000044619840100NPP     2023013107220920230131
20230130SRTMUSD1Y    000004844760000000000484476000000000048447600000NPP     20230130211246        
20230130DEPOCOF10Y   000011909190550000001190919055000000119091905500NPP     2023013107220920330201
20230130DEPOCOF12Y   000012785798090000001278579809000000127857980900NPP     2023013107220920350201
20230130DEPOCOF15Y   000015232524220000001523252422000000152325242200NPP     2023013107220920380201
20230130DEPOCOF18M   000013104329330000001310432933000000131043293300NPP     2023013107220920240730
20230130DEPOCOF20Y   000020365657200000002036565720000000203656572000NPP     2023013107220920430202
20230130DEPOCOF25Y   000025830417630000002583041763000000258304176300NPP     2023013107220920480203
20230130DEPOCOF2Y    000010577251900000001057725190000000105772519000NPP     2023013107220920250203
20230130DEPOCOF3Y    000009914696060000000991469606000000099146960600NPP     2023013107220920260202
20230130DEPOCOF4Y    000009839661700000000983966170000000098396617000NPP     2023013107220920270201
20230130DEPOCOF5Y    000009875722050000000987572205000000098757220500NPP     2023013107220920280201
20230130DEPOCOF6Y    000010162163860000001016216386000000101621638600NPP     2023013107220920290201
20230130DEPOCOF7Y    000010458451890000001045845189000000104584518900NPP     2023013107220920300201
20230130DEPOCOF8Y    000010945123860000001094512386000000109451238600NPP     2023013107220920310203
20230130DEPOCOF9Y    000011233550350000001123355035000000112335503500NPP     2023013107220920320202
20230130DTFPCOP10Y   000015515791700000001551579170000000155157917000NPP     2023013107220920330201
20230130DTFPCOP2Y    000012087392170000001208739217000000120873921700NPP     2023013107221020250203
20230130DTFPCOP3Y    000011812807730000001181280773000000118128077300NPP     2023013107221020260202
20230130DTFPCOP4Y    000011940779250000001194077925000000119407792500NPP     2023013107221020270201
20230130DTFPCOP5Y    000012193131620000001219313162000000121931316200NPP     2023013107221020280201
20230130DTFPCOP6Y    000012609079440000001260907944000000126090794400NPP     2023013107221020290201
20230130DTFPCOP7Y    000013201406010000001320140601000000132014060100NPP     2023013107221020300201
20230130DTFPCOP8Y    000013869815710000001386981571000000138698157100NPP     2023013107221020310203
20230130DTFPCOP9Y    000014525756630000001452575663000000145257566300NPP     2023013107221020320202
20230130ESTRUSD10M   000003129256590000000312925659000000031292565900NPP     2023013107221020231201
20230130ESTRUSD10Y   000002943258700000000294325870000000029432587000NPP     2023013107221020330201
20230130ESTRUSD11M   000003159500560000000315950056000000031595005600NPP     2023013107221020240102
20230130ESTRUSD12Y   000003065121080000000306512108000000030651210800NPP     2023013107221020350201
20230130ESTRUSD15Y   000003205465830000000320546583000000032054658300NPP     2023013107221020380201
20230130ESTRUSD18M   000003165230750000000316523075000000031652307500NPP     2023013107221020240801
20230130ESTRUSD1M    000002254719260000000225471926000000022547192600NPP     2023013107221020230301
20230130ESTRUSD1W    000001904481270000000190448127000000019044812700NPP     2023013107221020230208
20230130ESTRUSD1Y    000003181845620000000318184562000000031818456200NPP     2023013107221020240201
20230130ESTRUSD20Y   000003226543990000000322654399000000032265439900NPP     2023013107221020430202
20230130ESTRUSD25Y   000003144816480000000314481648000000031448164800NPP     2023013107221020480203
20230130ESTRUSD2M    000002421258190000000242125819000000024212581900NPP     2023013107221020230403
20230130ESTRUSD2W    000002123175820000000212317582000000021231758200NPP     2023013107221020230215
20230130ESTRUSD2Y    000003119642610000000311964261000000031196426100NPP     2023013107221020250203
20230130ESTRUSD3M    000002563165020000000256316502000000025631650200NPP     2023013107221020230502
20230130ESTRUSD3Y    000002963501170000000296350117000000029635011700NPP     2023013107221020260202
20230130ESTRUSD4M    000002694147650000000269414765000000026941476500NPP     2023013107221020230601
20230130ESTRUSD4Y    000002863186790000000286318679000000028631867900NPP     2023013107221020270201
20230130ESTRUSD5M    000002810396340000000281039634000000028103963400NPP     2023013107221020230703
20230130ESTRUSD5Y    000002823751300000000282375130000000028237513000NPP     2023013107221020280201
20230130ESTRUSD6M    000002900071870000000290007187000000029000718700NPP     2023013107221020230801
20230130ESTRUSD7M    000002982162520000000298216252000000029821625200NPP     2023013107221020230901
20230130ESTRUSD7Y    000002814710240000000281471024000000028147102400NPP     2023013107221020300201
20230130ESTRUSD8M    000003043955790000000304395579000000030439557900NPP     2023013107221020231002
20230130ESTRUSD9M    000003093130070000000309313007000000030931300700NPP     2023013107221020231101
20230130ESTRUSDON    000001906000000000000190600000000000019060000000NPP     2023013107221020230131
20230130FFE USD10M   000004898831680000000489883168000000048988316800NPP     2023013107221020231201
20230130FFE USD10Y   000003733555810000000373355581000000037335558100NPP     2023013107221020330201
20230130FFE USD11M   000004889909500000000488990950000000048899095000NPP     2023013107221020240102
20230130FFE USD12Y   000003829913330000000382991333000000038299133300NPP     2023013107221020350201
20230130FFE USD15Y   000004085483770000000408548377000000040854837700NPP     2023013107221020380201
20230130FFE USD1M    000004574559470000000457455947000000045745594700NPP     2023013107221020230301
20230130FFE USD1W    000004510564490000000451056449000000045105644900NPP     2023013107221020230208
20230130FFE USD1Y    000004874825950000000487482595000000048748259500NPP     2023013107221020240201
20230130FFE USD20Y   000004301167880000000430116788000000043011678800NPP     2023013107221020430202
20230130FFE USD25Y   000004371170160000000437117016000000043711701600NPP     2023013107221020480203
20230130FFE USD2M    000004633356900000000463335690000000046333569000NPP     2023013107221020230403
20230130FFE USD2W    000004548863490000000454886349000000045488634900NPP     2023013107221020230215
20230130FFE USD2Y    000004351048840000000435104884000000043510488400NPP     2023013107221020250203
20230130FFE USD3M    000004699213540000000469921354000000046992135400NPP     2023013107221020230501
20230130FFE USD3W    000004564594330000000456459433000000045645943300NPP     2023013107221020230222
20230130FFE USD3Y    000003964597850000000396459785000000039645978500NPP     2023013107221020260202
20230130FFE USD4M    000004766501810000000476650181000000047665018100NPP     2023013107221120230601
20230130FFE USD4Y    000003766366540000000376636654000000037663665400NPP     2023013107221120270201
20230130FFE USD5M    000004818600380000000481860038000000048186003800NPP     2023013107221120230703
20230130FFE USD5Y    000003675234940000000367523494000000036752349400NPP     2023013107221120280201
20230130FFE USD6M    000004853050580000000485305058000000048530505800NPP     2023013107221120230801
20230130FFE USD7M    000004879126840000000487912684000000048791268400NPP     2023013107221120230901
20230130FFE USD7Y    000003633433750000000363343375000000036334337500NPP     2023013107221120300201
20230130FFE USD8M    000004890510940000000489051094000000048905109400NPP     2023013107221120231002
20230130FFE USD9M    000004901834270000000490183427000000049018342700NPP     2023013107221120231101
20230130FFE USDON    000004330000000000000433000000000000043300000000NPP     2023013107221120230131
20230130IMGBGBP15M   000004175356410000000417535641000000041753564100NPP     2023013107221120240501
20230130IMGBGBP18M   000004127141870000000412714187000000041271418700NPP     2023013107221120240801
20230130IMGBGBP21M   000004067775570000000406777557000000040677755700NPP     2023013107221120241101
20230130IMGBGBP2Y    000003985313530000000398531353000000039853135300NPP     2023013107221120250203
20230130IMGBGBP3Y    000003828615690000000382861569000000038286156900NPP     2023013107221120260202
20230130IMGBGBP4Y    000003740854680000000374085468000000037408546800NPP     2023013107221120270201
20230130IMGBGBP5Y    000003658475860000000365847586000000036584758600NPP     2023013107221120280201
20230130IBL USD10Y   000002628961460000000262896146000000026289614600NPP     2023013107221120330201
20230130IBL USD2Y    000003464143110000000346414311000000034641431100NPP     2023013107221120250203
20230130IBL USD3Y    000002840224460000000284022446000000028402244600NPP     2023013107221120260202
20230130IBL USD4Y    000002605660980000000260566098000000026056609800NPP     2023013107221120270201
20230130IBL USD5Y    000002491847750000000249184775000000024918477500NPP     2023013107221120280201
20230130IBL USD6Y    000002508443010000000250844301000000025084430100NPP     2023013107221120290201
20230130IBL USD7Y    000002482050410000000248205041000000024820504100NPP     2023013107221120300201
20230130IBL USD8Y    000002552410470000000255241047000000025524104700NPP     2023013107221120310203
20230130IBL USD9Y    000002567880380000000256788038000000025678803800NPP     2023013107221120320202
20230130IBR COP10Y   000015663807840000001566380784000000156638078400NPP     2023013107221120330201
20230130IBR COP12Y   000017101720940000001710172094000000171017209400NPP     2023013107221120350201
20230130IBR COP15Y   000019995640600000001999564060000000199956406000NPP     2023013107221120380201
20230130IBR COP18M   000012196739960000001219673996000000121967399600NPP     2023013107221120240801
20230130IBR COP20Y   000024724030830000002472403083000000247240308300NPP     2023013107221120430202
20230130IBR COP2Y    000011962064970000001196206497000000119620649700NPP     2023013107221120250203
20230130IBR COP3Y    000011745796450000001174579645000000117457964500NPP     2023013107221120260202
20230130IBR COP4Y    000011921005320000001192100532000000119210053200NPP     2023013107221120270201
20230130IBR COP5Y    000012206669470000001220666947000000122066694700NPP     2023013107221120280201
20230130IBR COP6Y    000012655351940000001265535194000000126553519400NPP     2023013107221120290201
20230130IBR COP7Y    000013252247280000001325224728000000132522472800NPP     2023013107221120300201
20230130IBR COP8Y    000013956719590000001395671959000000139567195900NPP     2023013107221120310203
20230130IBR COP9Y    000014656214770000001465621477000000146562147700NPP     2023013107221120320202
20230130IPECEUR10Y   000001689368630000000168936863000000016893686300NPP     2023013107221220330201
20230130IPECEUR12Y   000001813693710000000181369371000000018136937100NPP     2023013107221220350201
20230130IPECEUR2Y    000002145518380000000214551838000000021455183800NPP     2023013107221220250203
20230130IPECEUR3Y    000001738348130000000173834813000000017383481300NPP     2023013107221220260202
20230130IPECEUR4Y    000001576322320000000157632232000000015763223200NPP     2023013107221220270201
20230130IPECEUR5Y    000001525332100000000152533210000000015253321000NPP     2023013107221220280201
20230130IPECEUR6Y    000001570138770000000157013877000000015701387700NPP     2023013107221220290201
20230130IPECEUR7Y    000001549942470000000154994247000000015499424700NPP     2023013107221220300201
20230130IPECEUR8Y    000001631872870000000163187287000000016318728700NPP     2023013107221220310203
20230130IPECEUR9Y    000001641249960000000164124996000000016412499600NPP     2023013107221220320202
20230130CPI COP100M  000201462845972700020146284597270002014628459727NPP     2023013107221220310602
20230130CPI COP101M  000201966503087700020196650308770002019665030877NPP     2023013107221220310701
20230130CPI COP102M  000202471419345400020247141934540002024714193454NPP     2023013107221220310801
20230130CPI COP103M  000202977597893800020297759789380002029775978938NPP     2023013107221220310901
20230130CPI COP104M  000203464744128700020346474412870002034647441287NPP     2023013107221220311001
20230130CPI COP105M  000203953059514600020395305951460002039530595146NPP     2023013107221220311104
20230130CPI COP106M  000204422151551500020442215155150002044221515515NPP     2023013107221220311201
20230130CPI COP107M  000204892322500100020489232250010002048923225001NPP     2023013107221220320102
20230130CPI COP108M  000205875805648100020587580564810002058758056481NPP     2023013107221220320202
20230130CPI COP109M  000207481636932100020748163693210002074816369321NPP     2023013107221220320301
20230130CPI COP10M   000137244933683200013724493368320001372449336832NPP     2023013107221220231201
20230130CPI COP110M  000209224482682300020922448268230002092244826823NPP     2023013107221220320401
20230130CPI COP111M  000210940123440300021094012344030002109401234403NPP     2023013107221220320503
20230130CPI COP112M  000212733114489600021273311448960002127331144896NPP     2023013107221220320601
20230130CPI COP113M  000214477526028400021447752602840002144775260284NPP     2023013107221220320701
20230130CPI COP114M  000216300584999600021630058499960002163005849996NPP     2023013107221220320802
20230130CPI COP115M  000218160770030600021816077003060002181607700306NPP     2023013107221220320901
20230130CPI COP116M  000219971504421900021997150442190002199715044219NPP     2023013107221220321001
20230130CPI COP117M  000221863259359900022186325935990002218632593599NPP     2023013107221220321102
20230130CPI COP118M  000223726910738500022372691073850002237269107385NPP     2023013107221220321201
20230130CPI COP119M  000225673334862000022567333486200002256733348620NPP     2023013107221220330103
20230130CPI COP11M   000137697841964300013769784196430001376978419643NPP     2023013107221220240102
20230130CPI COP120M  000227185346205500022718534620550002271853462055NPP     2023013107221220330201
20230130CPI COP121M  000228071369055700022807136905570002280713690557NPP     2023013107221220330301
20230130CPI COP122M  000229052075942700022905207594270002290520759427NPP     2023013107221220330401
20230130CPI COP123M  000229991189454000022999118945400002299911894540NPP     2023013107221220330502
20230130CPI COP124M  000230957152449800023095715244980002309571524498NPP     2023013107221220330601
20230130CPI COP125M  000231904076774800023190407677480002319040767748NPP     2023013107221220330701
20230130CPI COP126M  000232878073897300023287807389730002328780738973NPP     2023013107221220330801
20230130CPI COP127M  000233856161807600023385616180760002338561618076NPP     2023013107221220330901
20230130CPI COP128M  000234791586454900023479158645490002347915864549NPP     2023013107221220331003
20230130CPI COP129M  000235754231959300023575423195930002357542319593NPP     2023013107221220331101
20230130CPI COP12M   000138386331174100013838633117410001383863311741NPP     2023013107221220240201
20230130CPI COP130M  000236697248887200023669724888720002366972488872NPP     2023013107221220331201
20230130CPI COP131M  000237667707607600023766770760760002376677076076NPP     2023013107221220340102
20230130CPI COP132M  000238642145208800023864214520880002386421452088NPP     2023013107221220340201
20230130CPI COP133M  000239525121146100023952512114610002395251211461NPP     2023013107221220340301
20230130CPI COP134M  000240483221630600024048322163060002404832216306NPP     2023013107221220340403
20230130CPI COP135M  000241421106195000024142110619500002414211061950NPP     2023013107221220340502
20230130CPI COP136M  000242386790619800024238679061980002423867906198NPP     2023013107221220340601
20230130CPI COP137M  000243332099103200024333209910320002433320991032NPP     2023013107221220340704
20230130CPI COP138M  000244305427499600024430542749960002443054274996NPP     2023013107221220340801
20230130CPI COP139M  000245258218666900024525821866690002452582186669NPP     2023013107221220340901
20230130CPI COP13M   000139410390024800013941039002480001394103900248NPP     2023013107221220240301
20230130CPI COP140M  000246190199897800024619019989780002461901998978NPP     2023013107221220341002
20230130CPI COP141M  000247150341677400024715034167740002471503416774NPP     2023013107221220341101
20230130CPI COP142M  000248089512975800024808951297580002480895129758NPP     2023013107221220341201
20230130CPI COP143M  000249057062076400024905706207640002490570620764NPP     2023013107221220350102
20230130CPI COP144M  000250128007443300025012800744330002501280074433NPP     2023013107221220350201
20230130CPI COP145M  000251253583476800025125358347680002512535834768NPP     2023013107221220350301
20230130CPI COP146M  000252484726035800025248472603580002524847260358NPP     2023013107221220350402
20230130CPI COP147M  000253671404248200025367140424820002536714042482NPP     2023013107221220350502
20230130CPI COP148M  000254914394129000025491439412900002549143941290NPP     2023013107221220350601
20230130CPI COP149M  000256112491781400025611249178140002561124917814NPP     2023013107221220350703
20230130CPI COP14M   000140497791067000014049779106700001404977910670NPP     2023013107221220240401
20230130CPI COP150M  000257341831742000025734183174200002573418317420NPP     2023013107221220350801
20230130CPI COP151M  000258577072534300025857707253430002585770725343NPP     2023013107221220350903
20230130CPI COP152M  000259792384775200025979238477520002597923847752NPP     2023013107221220351001
20230130CPI COP153M  000261039388222200026103938822220002610393882222NPP     2023013107221220351101
20230130CPI COP154M  000262240169408000026224016940800002622401694080NPP     2023013107221220351203
20230130CPI COP155M  000263498922221100026349892222110002634989222211NPP     2023013107221220360102
20230130CPI COP156M  000264737367155600026473736715560002647373671556NPP     2023013107221220360201
20230130CPI COP157M  000265902211571100026590221157110002659022115711NPP     2023013107221220360303
20230130CPI COP158M  000267151951965500026715195196550002671519519655NPP     2023013107221320360401
20230130CPI COP159M  000268354135749300026835413574930002683541357493NPP     2023013107221320360502
20230130CPI COP15M   000141565574279100014156557427910001415655742791NPP     2023013107221320240502
20230130CPI COP160M  000269615400187300026961540018730002696154001873NPP     2023013107221320360602
20230130CPI COP161M  000270828669488200027082866948820002708286694882NPP     2023013107221320360701
20230130CPI COP162M  000272074481367800027207448136780002720744813678NPP     2023013107221320360801
20230130CPI COP163M  000273326023982100027332602398210002733260239821NPP     2023013107221320360901
20230130CPI COP164M  000274555991090000027455599109000002745559910900NPP     2023013107221320361001
20230130CPI COP165M  000275818948649000027581894864900002758189486490NPP     2023013107221320361104
20230130CPI COP166M  000277032552023100027703255202310002770325520231NPP     2023013107221320361201
20230130CPI COP167M  000278306901762400027830690176240002783069017624NPP     2023013107221320370102
20230130CPI COP168M  000279559282820300027955928282030002795592828203NPP     2023013107221320370202
20230130CPI COP169M  000280705475879900028070547587990002807054758799NPP     2023013107221320370302
20230130CPI COP16M   000142669785758500014266978575850001426697857585NPP     2023013107221320240604
20230130CPI COP170M  000281968650521400028196865052140002819686505214NPP     2023013107221320370401
20230130CPI COP171M  000283181115718600028318111571860002831811157186NPP     2023013107221320370504
20230130CPI COP172M  000284455430739300028445543073930002844554307393NPP     2023013107221320370601
20230130CPI COP173M  000285678589091500028567858909150002856785890915NPP     2023013107221320370701
20230130CPI COP174M  000286935574883500028693557488350002869355748835NPP     2023013107221320370803
20230130CPI COP175M  000288198091413000028819809141300002881980914130NPP     2023013107221320370901
20230130CPI COP176M  000289437343206100028943734320610002894373432061NPP     2023013107221320371001
20230130CPI COP177M  000290710867516200029071086751620002907108675162NPP     2023013107221320371103
20230130CPI COP17M   000143739809151700014373980915170001437398091517NPP     2023013107221320240702
20230130CPI COP18M   000144674117911200014467411791120001446741179112NPP     2023013107221320240801
20230130CPI COP19M   000145354086265400014535408626540001453540862654NPP     2023013107221320240902
20230130CPI COP1M    000128008671000000012800867100000001280086710000NPP     2023013107221320230301
20230130CPI COP20M   000145979108836300014597910883630001459791088363NPP     2023013107221320241001
20230130CPI COP21M   000146577623182500014657762318250001465776231825NPP     2023013107221320241101
20230130CPI COP22M   000147119960388300014711996038830001471199603883NPP     2023013107221320241202
20230130CPI COP23M   000147649592245700014764959224570001476495922457NPP     2023013107221320250102
20230130CPI COP24M   000148240190614700014824019061470001482401906147NPP     2023013107221320250203
20230130CPI COP25M   000148907271472500014890727147250001489072714725NPP     2023013107221320250303
20230130CPI COP26M   000149622026375500014962202637550001496220263755NPP     2023013107221320250401
20230130CPI COP27M   000150295325494200015029532549420001502953254942NPP     2023013107221320250502
20230130CPI COP28M   000150971654458900015097165445890001509716544589NPP     2023013107221320250603
20230130CPI COP29M   000151620832573100015162083257310001516208325731NPP     2023013107221320250701
20230130CPI COP2M    000129992805400500012999280540050001299928054005NPP     2023013107221320230403
20230130CPI COP30M   000152272802153200015227280215320001522728021532NPP     2023013107221320250801
20230130CPI COP31M   000152897120642000015289712064200001528971206420NPP     2023013107221320250901
20230130CPI COP32M   000153493419412500015349341941250001534934194125NPP     2023013107221320251001
20230130CPI COP33M   000154092043748200015409204374820001540920437482NPP     2023013107221320251104
20230130CPI COP34M   000154646775105700015464677510570001546467751057NPP     2023013107221320251201
20230130CPI COP35M   000155203503496100015520350349610001552035034961NPP     2023013107221320260102
20230130CPI COP36M   000155793276809400015579327680940001557932768094NPP     2023013107221320260202
20230130CPI COP37M   000156385291261200015638529126120001563852912612NPP     2023013107221320260302
20230130CPI COP38M   000157042109484500015704210948450001570421094845NPP     2023013107221320260401
20230130CPI COP39M   000157654573711500015765457371150001576545737115NPP     2023013107221320260504
20230130CPI COP3M    000131669712590200013166971259020001316697125902NPP     2023013107221320230502
20230130CPI COP40M   000158285192006400015828519200640001582851920064NPP     2023013107221320260601
20230130CPI COP41M   000158886675736000015888667573600001588866757360NPP     2023013107221320260701
20230130CPI COP42M   000159490445103800015949044510380001594904451038NPP     2023013107221320260803
20230130CPI COP43M   000160080559750700016008055975070001600805597507NPP     2023013107221320260901
20230130CPI COP44M   000160640841709800016064084170980001606408417098NPP     2023013107221320261001
20230130CPI COP45M   000161219148740000016121914874000001612191487400NPP     2023013107221320261103
20230130CPI COP46M   000161767293845700016176729384570001617672938457NPP     2023013107221320261201
20230130CPI COP47M   000162317302644800016231730264480001623173026448NPP     2023013107221320270104
20230130CPI COP48M   000162950340125100016295034012510001629503401251NPP     2023013107221320270201
20230130CPI COP49M   000163618436519600016361843651960001636184365196NPP     2023013107221320270301
20230130CPI COP4M    000132802072118400013280207211840001328020721184NPP     2023013107221320230601
20230130CPI COP50M   000164354719483900016435471948390001643547194839NPP     2023013107221320270401
20230130CPI COP51M   000165061444777700016506144477770001650614447777NPP     2023013107221320270503
20230130CPI COP52M   000165787715134700016578771513470001657877151347NPP     2023013107221320270601
20230130CPI COP53M   000166484023538300016648402353830001664840235383NPP     2023013107221320270701
20230130CPI COP54M   000167199904839500016719990483950001671999048395NPP     2023013107221320270802
20230130CPI COP55M   000167918864430300016791886443030001679188644303NPP     2023013107221320270901
20230130CPI COP56M   000168607331774500016860733177450001686073317745NPP     2023013107221320271001
20230130CPI COP57M   000169315482567900016931548256790001693154825679NPP     2023013107221320271102
20230130CPI COP58M   000170009676046500017000967604650001700096760465NPP     2023013107221320271201
20230130CPI COP59M   000170723716685900017072371668590001707237166859NPP     2023013107221320280103
20230130CPI COP5M    000133545763722300013354576372230001335457637223NPP     2023013107221420230704
20230130CPI COP60M   000171423683924300017142368392430001714236839243NPP     2023013107221420280201
20230130CPI COP61M   000172075093923200017207509392320001720750939232NPP     2023013107221420280301
20230130CPI COP62M   000172763394298900017276339429890001727633942989NPP     2023013107221420280403
20230130CPI COP63M   000173437171536600017343717153660001734371715366NPP     2023013107221420280502
20230130CPI COP64M   000174130920222800017413092022280001741309202228NPP     2023013107221420280601
20230130CPI COP65M   000174792617719600017479261771960001747926177196NPP     2023013107221420280704
20230130CPI COP66M   000175474308928700017547430892870001754743089287NPP     2023013107221420280801
20230130CPI COP67M   000176141111302700017614111130270001761411113027NPP     2023013107221420280901
20230130CPI COP68M   000176792833414500017679283341450001767928334145NPP     2023013107221420281002
20230130CPI COP69M   000177464646181500017746464618150001774646461815NPP     2023013107221420281101
20230130CPI COP6M    000134280265422800013428026542280001342802654228NPP     2023013107221420230801
20230130CPI COP70M   000178103518907700017810351890770001781035189077NPP     2023013107221420281201
20230130CPI COP71M   000178762501927700017876250192770001787625019277NPP     2023013107221420290102
20230130CPI COP72M   000179477551935400017947755193540001794775519354NPP     2023013107221420290201
20230130CPI COP73M   000180195462143100018019546214310001801954621431NPP     2023013107221420290301
20230130CPI COP74M   000181006341722800018100634172280001810063417228NPP     2023013107221420290402
20230130CPI COP75M   000181784668992200018178466899220001817846689922NPP     2023013107221420290502
20230130CPI COP76M   000182584521535800018258452153580001825845215358NPP     2023013107221420290601
20230130CPI COP77M   000183369634978400018336963497840001833696349784NPP     2023013107221420290703
20230130CPI COP78M   000184176461372300018417646137230001841764613723NPP     2023013107221420290801
20230130CPI COP79M   000184986837802300018498683780230001849868378023NPP     2023013107221420290903
20230130CPI COP7M    000135220227280700013522022728070001352202272807NPP     2023013107221420230901
20230130CPI COP80M   000185763782521100018576378252110001857637825211NPP     2023013107221420291001
20230130CPI COP81M   000186562566785900018656256678590001865625667859NPP     2023013107221420291101
20230130CPI COP82M   000187346129566400018734612956640001873461295664NPP     2023013107221420291203
20230130CPI COP83M   000188151717923500018815171792350001881517179235NPP     2023013107221420300102
20230130CPI COP84M   000188998400654200018899840065420001889984006542NPP     2023013107221420300201
20230130CPI COP85M   000189811093777000018981109377700001898110937770NPP     2023013107221420300301
20230130CPI COP86M   000190703205917800019070320591780001907032059178NPP     2023013107221420300401
20230130CPI COP87M   000191561370344400019156137034440001915613703444NPP     2023013107221420300502
20230130CPI COP88M   000192461708785000019246170878500001924617087850NPP     2023013107221420300604
20230130CPI COP89M   000193327786474500019332778647450001933277864745NPP     2023013107221420300702
20230130CPI COP8M    000136004504599000013600450459900001360045045990NPP     2023013107221420231002
20230130CPI COP90M   000194217094292300019421709429230001942170942923NPP     2023013107221420300801
20230130CPI COP91M   000195110492926100019511049292610001951104929261NPP     2023013107221420300902
20230130CPI COP92M   000195988490144200019598849014420001959884901442NPP     2023013107221420301001
20230130CPI COP93M   000196890037198900019689003719890001968900371989NPP     2023013107221420301101
20230130CPI COP94M   000197756353362600019775635336260001977563533626NPP     2023013107221420301202
20230130CPI COP95M   000198666032588000019866603258800001986660325880NPP     2023013107221420310102
20230130CPI COP96M   000199420963511900019942096351190001994209635119NPP     2023013107221420310203
20230130CPI COP97M   000199899573824300019989957382430001998995738243NPP     2023013107221420310303
20230130CPI COP98M   000200439302673600020043930267360002004393026736NPP     2023013107221420310401
20230130CPI COP99M   000200940400930300020094040093030002009404009303NPP     2023013107221420310502
20230130CPI COP9M    000136684527122000013668452712200001366845271220NPP     2023013107221420231101
20230130CPI COPON    000126030000000000012603000000000001260300000000NPP     2023013107221420230131
20230130L12MUSD10Y   000004696031263400000469603126340000046960312634NPP     2023013107221420330201
20230130L12MUSD12Y   000004870819763300000487081976330000048708197633NPP     2023013107221420350201
20230130L12MUSD15Y   000005138625996900000513862599690000051386259969NPP     2023013107221420380201
20230130L12MUSD20Y   000005739719836000000573971983600000057397198360NPP     2023013107221420430202
20230130L12MUSD25Y   000006017719082100000601771908210000060177190821NPP     2023013107221420480203
20230130L12MUSD2Y    000004973193899200000497319389920000049731938992NPP     2023013107221420250203
20230130L12MUSD30Y   000006083612713600000608361271360000060836127136NPP     2023013107221420530203
20230130L12MUSD3Y    000004702362214400000470236221440000047023622144NPP     2023013107221420260202
20230130L12MUSD4Y    000004541114917200000454111491720000045411149172NPP     2023013107221420270201
20230130L12MUSD5Y    000004450916422900000445091642290000044509164229NPP     2023013107221420280201
20230130L12MUSD7Y    000004452424182600000445242418260000044524241826NPP     2023013107221420300201
20230130L1M USD10Y   000003887119221400000388711922140000038871192214NPP     2023013107221420330201
20230130L1M USD12Y   000004029420928900000402942092890000040294209289NPP     2023013107221420350201
20230130L1M USD15Y   000004264602864100000426460286410000042646028641NPP     2023013107221420380201
20230130L1M USD20Y   000004594000658100000459400065810000045940006581NPP     2023013107221420430202
20230130L1M USD25Y   000004735602563800000473560256380000047356025638NPP     2023013107221420480203
20230130L1M USD2Y    000004462831366300000446283136630000044628313663NPP     2023013107221420250203
20230130L1M USD30Y   000004843197937600000484319793760000048431979376NPP     2023013107221420530203
20230130L1M USD3Y    000004087738408100000408773840810000040877384081NPP     2023013107221420260202
20230130L1M USD4Y    000003917525234600000391752523460000039175252346NPP     2023013107221420270201
20230130L1M USD5Y    000003817084721200000381708472120000038170847212NPP     2023013107221420280201
20230130L1M USD7Y    000003767064752700000376706475270000037670647527NPP     2023013107221420300201
20230130L3M USD10Y   000004086638710000000408663871000000040866387100NPP     2023013107221420330201
20230130L3M USD11Y   000004165061250000000416506125000000041650612500NPP     2023013107221420340201
20230130L3M USD12Y   000004243031480000000424303148000000042430314800NPP     2023013107221420350201
20230130L3M USD13Y   000004328102790000000432810279000000043281027900NPP     2023013107221520360201
20230130L3M USD14Y   000004413567680000000441356768000000044135676800NPP     2023013107221520370202
20230130L3M USD15Y   000004502384300000000450238430000000045023843000NPP     2023013107221520380201
20230130L3M USD20Y   000004874791390000000487479139000000048747913900NPP     2023013107221520430202
20230130L3M USD25Y   000005058375080000000505837508000000050583750800NPP     2023013107221520480203
20230130L3M USD2Y    000004599297250000000459929725000000045992972500NPP     2023013107221520250203
20230130L3M USD30Y   000005206405890000000520640589000000052064058900NPP     2023013107221520530203
20230130L3M USD3Y    000004234078350000000423407835000000042340783500NPP     2023013107221520260202
20230130L3M USD4Y    000004073625880000000407362588000000040736258800NPP     2023013107221520270201
20230130L3M USD5Y    000003980074370000000398007437000000039800743700NPP     2023013107221520280201
20230130L3M USD6Y    000003948461940000000394846194000000039484619400NPP     2023013107221520290201
20230130L3M USD7Y    000003944460640000000394446064000000039444606400NPP     2023013107221520300201
20230130L3M USD8Y    000003970569190000000397056919000000039705691900NPP     2023013107221520310203
20230130L3M USD9Y    000004026417500000000402641750000000040264175000NPP     2023013107221520320202
20230130L6M USD10Y   000004319978150000000431997815000000043199781500NPP     2023013107221520330201
20230130L6M USD12Y   000004493545140000000449354514000000044935451400NPP     2023013107221520350201
20230130L6M USD15Y   000004784433020000000478443302000000047844330200NPP     2023013107221520380201
20230130L6M USD20Y   000005208869680000000520886968000000052088696800NPP     2023013107221520430202
20230130L6M USD25Y   000005443616450000000544361645000000054436164500NPP     2023013107221520480203
20230130L6M USD2Y    000004766858170000000476685817000000047668581700NPP     2023013107221520250203
20230130L6M USD30Y   000005645462820000000564546282000000056454628200NPP     2023013107221520530203
20230130L6M USD3Y    000004412083030000000441208303000000044120830300NPP     2023013107221520260202
20230130L6M USD4Y    000004260740580000000426074058000000042607405800NPP     2023013107221520270201
20230130L6M USD5Y    000004175019140000000417501914000000041750191400NPP     2023013107221520280201
20230130L6M USD7Y    000004154041850000000415404185000000041540418500NPP     2023013107221520300201
20230130DEPOV1 102M  000002392201990000000239220199000000023922019900NPP     2023013107221520240726
20230130DEPOV1 10Y   000002737560350000000273756035000000027375603500NPP     2023013107221520260126
20230130DEPOV1 114M  000002609085850000000260908585000000026090858500NPP     2023013107221520250728
20230130DEPOV1 18M   000000325781970000000032578197000000003257819700NPP     2023013107221520170724
20230130DEPOV1 2Y    000000693058180000000069305818000000006930581800NPP     2023013107221520180126
20230130DEPOV1 30M   000000847808360000000084780836000000008478083600NPP     2023013107221520180726
20230130DEPOV1 3Y    000001008610600000000100861060000000010086106000NPP     2023013107221520190128
20230130DEPOV1 42M   000001151561060000000115156106000000011515610600NPP     2023013107221520190726
20230130DEPOV1 4Y    000001302076170000000130207617000000013020761700NPP     2023013107221520200127
20230130DEPOV1 54M   000001442137940000000144213794000000014421379400NPP     2023013107221520200727
20230130DEPOV1 5Y    000001586417960000000158641796000000015864179600NPP     2023013107221520210126
20230130DEPOV1 66M   000001733023480000000173302348000000017330234800NPP     2023013107221520210726
20230130DEPOV1 6Y    000001886518400000000188651840000000018865184000NPP     2023013107221520220126
20230130DEPOV1 78M   000002000425720000000200042572000000020004257200NPP     2023013107221520220726
20230130DEPOV1 7Y    000002119763050000000211976305000000021197630500NPP     2023013107221520230126
20230130DEPOV1 8Y    000002303394800000000230339480000000023033948000NPP     2023013107221520240126
20230130DEPOV1 90M   000002209446340000000220944634000000022094463400NPP     2023013107221520230726
20230130DEPOV1 9Y    000002485367490000000248536749000000024853674900NPP     2023013107221520250127
20230130SOFRUSD10M   000004881183630000000488118363000000048811836300NPP     2023013107221520231201
20230130SOFRUSD10Y   000003752428180000000375242818000000037524281800NPP     2023013107221520330201
20230130SOFRUSD11M   000004878067670000000487806767000000048780676700NPP     2023013107221520240102
20230130SOFRUSD12Y   000003841379270000000384137927000000038413792700NPP     2023013107221520350201
20230130SOFRUSD13M   000000042561510000000004256151000000000425615100NPP     2023013107221520210915
20230130SOFRUSD15Y   000004134003310000000413400331000000041340033100NPP     2023013107221520380201
20230130SOFRUSD16M   000000038552150000000003855215000000000385521500NPP     2023013107221520211215
20230130SOFRUSD1M    000004473351510000000447335151000000044733515100NPP     2023013107221520230301
20230130SOFRUSD1Y    000004862289670000000486228967000000048622896700NPP     2023013107221520240201
20230130SOFRUSD20Y   000004347535230000000434753523000000043475352300NPP     2023013107221520430202
20230130SOFRUSD25Y   000004429433790000000442943379000000044294337900NPP     2023013107221520480203
20230130SOFRUSD2M    000004598899940000000459889994000000045988999400NPP     2023013107221520230403
20230130SOFRUSD2W    000004389664580000000438966458000000043896645800NPP     2023013107221520230215
20230130SOFRUSD2Y    000004353374130000000435337413000000043533741300NPP     2023013107221520250203
20230130SOFRUSD3M    000004660590570000000466059057000000046605905700NPP     2023013107221520230501
20230130SOFRUSD3W    000004431508050000000443150805000000044315080500NPP     2023013107221520230222
20230130SOFRUSD3Y    000003963824040000000396382404000000039638240400NPP     2023013107221520260202
20230130SOFRUSD4M    000004728890900000000472889090000000047288909000NPP     2023013107221520230601
20230130SOFRUSD4Y    000003774937310000000377493731000000037749373100NPP     2023013107221520270201
20230130SOFRUSD5M    000004785367940000000478536794000000047853679400NPP     2023013107221520230703
20230130SOFRUSD5Y    000003681464510000000368146451000000036814645100NPP     2023013107221520280201
20230130SOFRUSD6M    000004815364370000000481536437000000048153643700NPP     2023013107221520230801
20230130SOFRUSD7M    000004847429510000000484742951000000048474295100NPP     2023013107221520230901
20230130SOFRUSD7Y    000003642426300000000364242630000000036424263000NPP     2023013107221520300201
20230130SOFRUSD8M    000004869432560000000486943256000000048694325600NPP     2023013107221620231002
20230130SOFRUSD9M    000004875308100000000487530810000000048753081000NPP     2023013107221620231101
20230130SOFRUSDON    000004300000000000000430000000000000043000000000NPP     2023013107221620230131
20230130SOFRUSDSW    000004347821110000000434782111000000043478211100NPP     2023013107221620230208
20230130IUV UVR10Y   000004233276130000000423327613000000042332761300NPP     2023013107221620330201
20230130IUV UVR15Y   000004744858350000000474485835000000047448583500NPP     2023013107221620380201
20230130IUV UVR2Y    000002588502930000000258850293000000025885029300NPP     2023013107221620250203
20230130IUV UVR3Y    000003066077120000000306607712000000030660771200NPP     2023013107221620260202
20230130IUV UVR4Y    000003512489830000000351248983000000035124898300NPP     2023013107221620270201
20230130IUV UVR5Y    000003640501640000000364050164000000036405016400NPP     2023013107221620280201
20230130IUV UVR6Y    000003900346460000000390034646000000039003464600NPP     2023013107221620290201
20230130IUV UVR7Y    000004065673750000000406567375000000040656737500NPP     2023013107221620300201
20230130IUV UVR8Y    000004197174150000000419717415000000041971741500NPP     2023013107221620310203
20230130IUV UVR9Y    000004675201840000000467520184000000046752018400NPP     2023013107221620320202
20230130DEPOUSD10Y   000003752428180000000375242818000000037524281800NPP     2023013107221620330201
20230130DEPOUSD12Y   000003841379270000000384137927000000038413792700NPP     2023013107221620350201
20230130DEPOUSD15Y   000004134003310000000413400331000000041340033100NPP     2023013107221620380201
20230130DEPOUSD20Y   000004347535230000000434753523000000043475352300NPP     2023013107221620430202
20230130DEPOUSD25Y   000004429433790000000442943379000000044294337900NPP     2023013107221620480203
20230130DEPOUSD2Y    000004353374130000000435337413000000043533741300NPP     2023013107221620250203
20230130DEPOUSD3Y    000003963824040000000396382404000000039638240400NPP     2023013107221620260202
20230130DEPOUSD4Y    000003774937310000000377493731000000037749373100NPP     2023013107221620270201
20230130DEPOUSD5Y    000003681464510000000368146451000000036814645100NPP     2023013107221620280201
20230130DEPOUSD7Y    000003642426300000000364242630000000036424263000NPP     2023013107221620300201
20230130UIBRUSD10Y   000002628961460000000262896146000000026289614600NPP     2023013107221620330201
20230130UIBRUSD12Y   000002777692600000000277769260000000027776926000NPP     2023013107221620350201
20230130UIBRUSD15Y   000003228168090000000322816809000000032281680900NPP     2023013107221620380201
20230130UIBRUSD18M   000003852484920000000385248492000000038524849200NPP     2023013107221620240730
20230130UIBRUSD20Y   000003745431310000000374543131000000037454313100NPP     2023013107221620430202
20230130UIBRUSD25Y   000003884459400000000388445940000000038844594000NPP     2023013107221620480203
20230130UIBRUSD2Y    000003464143110000000346414311000000034641431100NPP     2023013107221620250203
20230130UIBRUSD3Y    000002840224460000000284022446000000028402244600NPP     2023013107221620260202
20230130UIBRUSD4Y    000002605660980000000260566098000000026056609800NPP     2023013107221620270201
20230130UIBRUSD5Y    000002491847750000000249184775000000024918477500NPP     2023013107221620280201
20230130UIBRUSD6Y    000002508443010000000250844301000000025084430100NPP     2023013107221620290201
20230130UIBRUSD7Y    000002482050410000000248205041000000024820504100NPP     2023013107221620300201
20230130UIBRUSD8Y    000002552410470000000255241047000000025524104700NPP     2023013107221620310203
20230130UIBRUSD9Y    000002567880380000000256788038000000025678803800NPP     2023013107221620320202
20230130T2COCOF1M    000011846749620000001184674962000000118467496200NPP     2023013107220620230227
20230130T2COCOF1Y    000012925093580000001292509358000000129250935800NPP     2023013107220620240130
20230130T2COCOF2M    000012041250830000001204125083000000120412508300NPP     2023013107220620230330
20230130T2COCOF2W    000011890153250000001189015325000000118901532500NPP     2023013107220620230213
20230130T2COCOF3M    000012188595380000001218859538000000121885953800NPP     2023013107220620230427
20230130T2COCOF6M    000012514455340000001251445534000000125144553400NPP     2023013107220620230728
20230130T2COCOF9M    000012715410720000001271541072000000127154107200NPP     2023013107220620231030
20230130T2COCOFON    000011683982770000001168398277000000116839827700NPP     2023013107220620230131
20230130T2COCOFSW    000011791861920000001179186192000000117918619200NPP     2023013107220620230206
20230130T2DTCOP1Y    000013381116920000001338111692000000133811169200NPP     2023013107220620240201
20230130T2DTCOP3M    000013540000000000001354000000000000135400000000NPP     2023013107220620230502
20230130T2DTCOP6M    000013030000000000001303000000000000130300000000NPP     2023013107220620230801
20230130T2DTCOP9M    000012890000000000001289000000000000128900000000NPP     2023013107220620231101
20230130T2DTCOPON    000014040000000000001404000000000000140400000000NPP     2023013107220620230131
20230130T2IMEUC10M   000003004693100000000300469310000000030046931000NPP     2023013107220620231201
20230130T2IMEUC11M   000003050048450000000305004845000000030500484500NPP     2023013107220620240102
20230130T2IMEUC1D    -000051089186100-000051089186100-000051089186100NPP     2023013107220620230131
20230130T2IMEUC1M    000002798035050000000279803505000000027980350500NPP     2023013107220620230301
20230130T2IMEUC1Y    000002969222960000000296922296000000029692229600NPP     2023013107220620240201
20230130T2IMEUC2M    000002707348690000000270734869000000027073486900NPP     2023013107220620230403
20230130T2IMEUC2W    000003295836930000000329583693000000032958369300NPP     2023013107220620230215
20230130T2IMEUC3D    000020682471240000002068247124000000206824712400NPP     2023013107220620230202
20230130T2IMEUC3M    000002704735730000000270473573000000027047357300NPP     2023013107220620230502
20230130T2IMEUC3W    000002950766760000000295076676000000029507667600NPP     2023013107220620230222
20230130T2IMEUC4M    000002713087850000000271308785000000027130878500NPP     2023013107220620230601
20230130T2IMEUC5M    000002817974960000000281797496000000028179749600NPP     2023013107220620230703
20230130T2IMEUC6M    000002836486210000000283648621000000028364862100NPP     2023013107220620230801
20230130T2IMEUC7M    000002907300810000000290730081000000029073008100NPP     2023013107220620230901
20230130T2IMEUC8M    000002976548080000000297654808000000029765480800NPP     2023013107220620231002
20230130T2IMEUC9M    000002975986000000000297598600000000029759860000NPP     2023013107220620231101
20230130T2IMEUCSW    000004443398660000000444339866000000044433986600NPP     2023013107220620230208
20230130T2GBGBP10M   000004246083320000000424608332000000042460833200NPP     2023013107220720231201
20230130T2GBGBP11M   000004257001630000000425700163000000042570016300NPP     2023013107220720240102
20230130T2GBGBP1M    000003948725480000000394872548000000039487254800NPP     2023013107220720230301
20230130T2GBGBP1Y    000004211325920000000421132592000000042113259200NPP     2023013107220720240201
20230130T2GBGBP2M    000003978910670000000397891067000000039789106700NPP     2023013107220720230403
20230130T2GBGBP2W    000004117579650000000411757965000000041175796500NPP     2023013107220720230215
20230130T2GBGBP3M    000004000898350000000400089835000000040008983500NPP     2023013107220720230502
20230130T2GBGBP3W    000003993686940000000399368694000000039936869400NPP     2023013107220720230222
20230130T2GBGBP4M    000004039253510000000403925351000000040392535100NPP     2023013107220720230601
20230130T2GBGBP5M    000004113134040000000411313404000000041131340400NPP     2023013107220720230703
20230130T2GBGBP6M    000004134898050000000413489805000000041348980500NPP     2023013107220720230801
20230130T2GBGBP7M    000004187589330000000418758933000000041875893300NPP     2023013107220720230901
20230130T2GBGBP8M    000004226275240000000422627524000000042262752400NPP     2023013107220720231002
20230130T2GBGBP9M    000004224362200000000422436220000000042243622000NPP     2023013107220720231101
20230130T2GBGBPON    000000757412930000000075741293000000007574129300NPP     2023013107220720230131
20230130T2GBGBPSW    000004567641630000000456764163000000045676416300NPP     2023013107220720230208
20230130T2IBCOP1M    000011875000000000001187500000000000118750000000NPP     2023013107220720230301
20230130T2IBCOP1Y    000012435000000000001243500000000000124350000000NPP     2023013107220720240201
20230130T2IBCOP3M    000012145000000000001214500000000000121450000000NPP     2023013107220720230502
20230130T2IBCOP6M    000012355000000000001235500000000000123550000000NPP     2023013107220720230801
20230130T2IBCOP9M    000012450000000000001245000000000000124500000000NPP     2023013107220720231101
20230130T2IBCOPON    000011846000000000001184600000000000118460000000NPP     2023013107220720230131
20230130T2ECEUR10M   000002668922700000000266892270000000026689227000NPP     2023013107220720231201
20230130T2ECEUR11M   000002645375870000000264537587000000026453758700NPP     2023013107220720240102
20230130T2ECEUR1M    000002807389270000000280738927000000028073892700NPP     2023013107220720230301
20230130T2ECEUR1W    000004432508660000000443250866000000044325086600NPP     2023013107220720230208
20230130T2ECEUR1Y    000002241040850000000224104085000000022410408500NPP     2023013107220720240201
20230130T2ECEUR2M    000002662343310000000266234331000000026623433100NPP     2023013107220720230403
20230130T2ECEUR2W    000003268060410000000326806041000000032680604100NPP     2023013107220720230215
20230130T2ECEUR3M    000002638999210000000263899921000000026389992100NPP     2023013107220720230502
20230130T2ECEUR3W    -000008104274200-000008104274200-000008104274200NPP     2023013107220720210518
20230130T2ECEUR4M    000002589399510000000258939951000000025893995100NPP     2023013107220720230601
20230130T2ECEUR5M    000002660284750000000266028475000000026602847500NPP     2023013107220720230703
20230130T2ECEUR6M    000002674036480000000267403648000000026740364800NPP     2023013107220720230801
20230130T2ECEUR7M    000002699789810000000269978981000000026997898100NPP     2023013107220720230901
20230130T2ECEUR8M    000002738136960000000273813696000000027381369600NPP     2023013107220720231002
20230130T2ECEUR9M    000002722754030000000272275403000000027227540300NPP     2023013107220720231101
20230130T2ECEURON    -000049469769300-000049469769300-000049469769300NPP     2023013107220720230131
202301302L12USD1Y    000005326000000000000532600000000000053260000000NPP     2023013107220720240201
202301302L12USDON    000004305290000000000430529000000000043052900000NPP     2023013107220720230131
20230130T2L1USD18M   000004744029550000000474402955000000047440295500NPP     2023013107220720240801
20230130T2L1USD1M    000004565570000000000456557000000000045655700000NPP     2023013107220720230301
20230130T2L1USD1Y    000004936312110000000493631211000000049363121100NPP     2023013107220720240201
20230130T2L1USD3M    000004625400680000000462540068000000046254006800NPP     2023013107220720230502
20230130T2L1USD6M    000004870858310000000487085831000000048708583100NPP     2023013107220720230801
20230130T2L1USD9M    000004928181040000000492818104000000049281810400NPP     2023013107220720231101
20230130T2L1USDON    000004305290000000000430529000000000043052900000NPP     2023013107220820230131
20230130T2L3USD18M   000004876116786600000487611678660000048761167866NPP     2023013107220820240801
20230130T2L3USD3M    000004706320552200000470632055220000047063205522NPP     2023013107220820230502
20230130T2L3USD6M    000004939088953400000493908895340000049390889534NPP     2023013107220820230801
20230130T2L3USD9M    000005035056746400000503505674640000050350567464NPP     2023013107220820231101
20230130T2L3USDON    000004305290000000000430529000000000043052900000NPP     2023013107220820230131
20230130T2L6USD18M   000005038332780000000503833278000000050383327800NPP     2023013107220820240801
20230130T2L6USD1Y    000005216437880000000521643788000000052164378800NPP     2023013107220820240201
20230130T2L6USD6M    000005091570000000000509157000000000050915700000NPP     2023013107220820230801
20230130T2L6USDON    000004305290000000000430529000000000043052900000NPP     2023013107220820230131
20230130T2UVV1 1M    -000014100000000-000014100000000-000014100000000NPP     2023013107220820160224
20230130T2UVV1 1Y    000000200000000000000020000000000000002000000000NPP     2023013107220820170124
20230130T2UVV1 2M    -000011700000000-000011700000000-000011700000000NPP     2023013107220820160322
20230130T2UVV1 2W    -000015269419800-000015269419800-000015269419800NPP     2023013107220820160205
20230130T2UVV1 3M    -000010000000000-000010000000000-000010000000000NPP     2023013107220820160422
20230130T2UVV1 6M    -000005300000000-000005300000000-000005300000000NPP     2023013107220820160722
20230130T2UVV1 9M    -000001900000000-000001900000000-000001900000000NPP     2023013107220820161024
20230130T2UVV1 ON    -000017700000000-000017700000000-000017700000000NPP     2023013107220820160123
20230130T2UVV1 SW    -000017270021000-000017270021000-000017270021000NPP     2023013107220820160129
20230130T2BLUSD1M    000004498492330000000449849233000000044984923300NPP     2023013107220820230227
20230130T2BLUSD1W    000004397024440000000439702444000000043970244400NPP     2023013107220820230206
20230130T2BLUSD1Y    000004410723340000000441072334000000044107233400NPP     2023013107220820240130
20230130T2BLUSD2M    000004560795830000000456079583000000045607958300NPP     2023013107220820230330
20230130T2BLUSD2W    000004349042750000000434904275000000043490427500NPP     2023013107220820230213
20230130T2BLUSD3M    000004594925160000000459492516000000045949251600NPP     2023013107220820230427
20230130T2BLUSD6M    000004653160200000000465316020000000046531602000NPP     2023013107220820230728
20230130T2BLUSD9M    000004624911730000000462491173000000046249117300NPP     2023013107220820231030
20230130T2BLUSDON    000004461984010000000446198401000000044619840100NPP     2023013107220820230131
20230130T2IUUVR18M   000001900000000000000190000000000000019000000000NPP     2023013107220820240801
20230130T2IUUVR1M    -000064700000000-000064700000000-000064700000000NPP     2023013107220820230301
20230130T2IUUVR1Y    000002290000000000000229000000000000022900000000NPP     2023013107220820240201
20230130T2IUUVR3M    -000060000000000-000060000000000-000060000000000NPP     2023013107220820230502
20230130T2IUUVR6M    -000010800000000-000010800000000-000010800000000NPP     2023013107220820230801
20230130T2IUUVR9M    000000720000000000000072000000000000007200000000NPP     2023013107220820231101
20230130T2IUUVRON    -000026923372600-000026923372600-000026923372600NPP     2023013107220820230131
20230130T2USUSD10M   000004883853130000000488385313000000048838531300NPP     2023013107220820231201
20230130T2USUSD11M   000004880352960000000488035296000000048803529600NPP     2023013107220820240102
20230130T2USUSD1M    000004484662420000000448466242000000044846624200NPP     2023013107220820230301
20230130T2USUSD1Y    000004864208700000000486420870000000048642087000NPP     2023013107220820240201
20230130T2USUSD2M    000004607599230000000460759923000000046075992300NPP     2023013107220820230403
20230130T2USUSD2W    000004401422350000000440142235000000044014223500NPP     2023013107220820230215
20230130T2USUSD3M    000004667578700000000466757870000000046675787000NPP     2023013107220820230501
20230130T2USUSD3W    000004442971250000000444297125000000044429712500NPP     2023013107220820230222
20230130T2USUSD4M    000004734907960000000473490796000000047349079600NPP     2023013107220820230601
20230130T2USUSD5M    000004790609940000000479060994000000047906099400NPP     2023013107220820230703
20230130T2USUSD6M    000004819907580000000481990758000000048199075800NPP     2023013107220820230801
20230130T2USUSD7M    000004851434990000000485143499000000048514349900NPP     2023013107220820230901
20230130T2USUSD8M    000004872955150000000487295515000000048729551500NPP     2023013107220820231002
20230130T2USUSD9M    000004878357430000000487835743000000048783574300NPP     2023013107220820231101
20230130T2USUSDON    000004300000000000000430000000000000043000000000NPP     2023013107220820230131
20230130T2USUSDSW    000004360442620000000436044262000000043604426200NPP     2023013107220820230208
20230130T2UIUSD1M    000004498492330000000449849233000000044984923300NPP     2023013107220920230227
20230130T2UIUSD1W    000004397024440000000439702444000000043970244400NPP     2023013107220920230206
20230130T2UIUSD1Y    000004410723340000000441072334000000044107233400NPP     2023013107220920240130
20230130T2UIUSD2M    000004560795830000000456079583000000045607958300NPP     2023013107220920230330
20230130T2UIUSD2W    000004349042750000000434904275000000043490427500NPP     2023013107220920230213
20230130T2UIUSD3M    000004594925160000000459492516000000045949251600NPP     2023013107220920230427
20230130T2UIUSD6M    000004653160200000000465316020000000046531602000NPP     2023013107220920230728
20230130T2UIUSD9M    000004624911730000000462491173000000046249117300NPP     2023013107220920231030
20230130T2UIUSDON    000004461984010000000446198401000000044619840100NPP     2023013107220920230131
20230130T2COCOF10Y   000011901588410000001190158841000000119015884100NPP     2023013107220920330201
20230130T2COCOF12Y   000012778006520000001277800652000000127780065200NPP     2023013107220920350201
20230130T2COCOF15Y   000015223937530000001522393753000000152239375300NPP     2023013107220920380201
20230130T2COCOF18M   000013101037590000001310103759000000131010375900NPP     2023013107220920240730
20230130T2COCOF20Y   000020354821260000002035482126000000203548212600NPP     2023013107220920430202
20230130T2COCOF25Y   000025816757580000002581675758000000258167575800NPP     2023013107220920480203
20230130T2COCOF2Y    000010567372790000001056737279000000105673727900NPP     2023013107220920250203
20230130T2COCOF3Y    000009905040910000000990504091000000099050409100NPP     2023013107220920260202
20230130T2COCOF4Y    000009830755720000000983075572000000098307557200NPP     2023013107220920270201
20230130T2COCOF5Y    000009867336490000000986733649000000098673364900NPP     2023013107220920280201
20230130T2COCOF6Y    000010154184160000001015418416000000101541841600NPP     2023013107220920290201
20230130T2COCOF7Y    000010450709660000001045070966000000104507096600NPP     2023013107220920300201
20230130T2COCOF8Y    000010937518830000001093751883000000109375188300NPP     2023013107220920310203
20230130T2COCOF9Y    000011225989460000001122598946000000112259894600NPP     2023013107220920320202
20230130T2DTCOP10Y   000015504671710000001550467171000000155046717100NPP     2023013107220920330201
20230130T2DTCOP2Y    000012072776690000001207277669000000120727766900NPP     2023013107221020250203
20230130T2DTCOP3Y    000011799669550000001179966955000000117996695500NPP     2023013107221020260202
20230130T2DTCOP4Y    000011928728620000001192872862000000119287286200NPP     2023013107221020270201
20230130T2DTCOP5Y    000012181737170000001218173717000000121817371700NPP     2023013107221020280201
20230130T2DTCOP6Y    000012598081960000001259808196000000125980819600NPP     2023013107221020290201
20230130T2DTCOP7Y    000013190602360000001319060236000000131906023600NPP     2023013107221020300201
20230130T2DTCOP8Y    000013859037340000001385903734000000138590373400NPP     2023013107221020310203
20230130T2DTCOP9Y    000014514885580000001451488558000000145148855800NPP     2023013107221020320202
20230130T2ESUSD10M   000003136998720000000313699872000000031369987200NPP     2023013107221020231201
20230130T2ESUSD10Y   000002943514910000000294351491000000029435149100NPP     2023013107221020330201
20230130T2ESUSD11M   000003166648830000000316664883000000031666488300NPP     2023013107221020240102
20230130T2ESUSD12Y   000003065325410000000306532541000000030653254100NPP     2023013107221020350201
20230130T2ESUSD15Y   000003205600740000000320560074000000032056007400NPP     2023013107221020380201
20230130T2ESUSD18M   000003169499270000000316949927000000031694992700NPP     2023013107221020240801
20230130T2ESUSD1M    000002279386420000000227938642000000022793864200NPP     2023013107221020230301
20230130T2ESUSD1W    000001903845750000000190384575000000019038457500NPP     2023013107221020230208
20230130T2ESUSD1Y    000003188498930000000318849893000000031884989300NPP     2023013107221020240201
20230130T2ESUSD20Y   000003226563830000000322656383000000032265638300NPP     2023013107221020430202
20230130T2ESUSD25Y   000003144754770000000314475477000000031447547700NPP     2023013107221020480203
20230130T2ESUSD2M    000002437893760000000243789376000000024378937600NPP     2023013107221020230403
20230130T2ESUSD2W    000002153972860000000215397286000000021539728600NPP     2023013107221020230215
20230130T2ESUSD2Y    000003122623400000000312262340000000031226234000NPP     2023013107221020250203
20230130T2ESUSD3M    000002577495760000000257749576000000025774957600NPP     2023013107221020230502
20230130T2ESUSD3Y    000002965115180000000296511518000000029651151800NPP     2023013107221020260202
20230130T2ESUSD4M    000002706996800000000270699680000000027069968000NPP     2023013107221020230601
20230130T2ESUSD4Y    000002864193820000000286419382000000028641938200NPP     2023013107221020270201
20230130T2ESUSD5M    000002821997470000000282199747000000028219974700NPP     2023013107221020230703
20230130T2ESUSD5Y    000002824457430000000282445743000000028244574300NPP     2023013107221020280201
20230130T2ESUSD6M    000002910747870000000291074787000000029107478700NPP     2023013107221020230801
20230130T2ESUSD7M    000002991998180000000299199818000000029919981800NPP     2023013107221020230901
20230130T2ESUSD7Y    000002815122910000000281512291000000028151229100NPP     2023013107221020300201
20230130T2ESUSD8M    000003052998400000000305299840000000030529984000NPP     2023013107221020231002
20230130T2ESUSD9M    000003101498580000000310149858000000031014985800NPP     2023013107221020231101
20230130T2ESUSDON    000001906000000000000190600000000000019060000000NPP     2023013107221020230131
20230130T2IMEUC15M   000002995763850000000299576385000000029957638500NPP     20230131072210        
20230130T2IMEUC18M   000002982498000000000298249800000000029824980000NPP     20230131072210        
20230130T2IMEUC21M   000002949963130000000294996313000000029499631300NPP     20230131072210        
20230130T2IMEUC2Y    000002879498750000000287949875000000028794987500NPP     20230131072210        
20230130T2IMEUC3Y    000002714140060000000271414006000000027141400600NPP     20230131072210        
20230130T2IMEUC4Y    000002616680810000000261668081000000026166808100NPP     20230131072210        
20230130T2IMEUC5Y    000002557756680000000255775668000000025577566800NPP     20230131072210        
20230130T2FFUSD10M   000004901407280000000490140728000000049014072800NPP     2023013107221020231201
20230130T2FFUSD10Y   000003732331430000000373233143000000037323314300NPP     2023013107221020330201
20230130T2FFUSD11M   000004892075430000000489207543000000048920754300NPP     2023013107221020240102
20230130T2FFUSD12Y   000003828764110000000382876411000000038287641100NPP     2023013107221020350201
20230130T2FFUSD15Y   000004084411990000000408441199000000040844119900NPP     2023013107221020380201
20230130T2FFUSD1M    000004590923630000000459092363000000045909236300NPP     2023013107221020230301
20230130T2FFUSD1W    000004561057160000000456105716000000045610571600NPP     2023013107221020230208
20230130T2FFUSD1Y    000004876638200000000487663820000000048766382000NPP     2023013107221020240201
20230130T2FFUSD20Y   000004300125570000000430012557000000043001255700NPP     2023013107221020430202
20230130T2FFUSD25Y   000004370127920000000437012792000000043701279200NPP     2023013107221020480203
20230130T2FFUSD2M    000004642186320000000464218632000000046421863200NPP     2023013107221020230403
20230130T2FFUSD2W    000004579028190000000457902819000000045790281900NPP     2023013107221020230215
20230130T2FFUSD2Y    000004350059840000000435005984000000043500598400NPP     2023013107221020250203
20230130T2FFUSD3M    000004706378330000000470637833000000047063783300NPP     2023013107221020230501
20230130T2FFUSD3W    000004585833500000000458583350000000045858335000NPP     2023013107221020230222
20230130T2FFUSD3Y    000003962978350000000396297835000000039629783500NPP     2023013107221020260202
20230130T2FFUSD4M    000004772628760000000477262876000000047726287600NPP     2023013107221120230601
20230130T2FFUSD4Y    000003764689350000000376468935000000037646893500NPP     2023013107221120270201
20230130T2FFUSD5M    000004823868920000000482386892000000048238689200NPP     2023013107221120230703
20230130T2FFUSD5Y    000003673634070000000367363407000000036736340700NPP     2023013107221120280201
20230130T2FFUSD6M    000004857661610000000485766161000000048576616100NPP     2023013107221120230801
20230130T2FFUSD7M    000004883132620000000488313262000000048831326200NPP     2023013107221120230901
20230130T2FFUSD7Y    000003632015220000000363201522000000036320152200NPP     2023013107221120300201
20230130T2FFUSD8M    000004893946930000000489394693000000048939469300NPP     2023013107221120231002
20230130T2FFUSD9M    000004904843640000000490484364000000049048436400NPP     2023013107221120231101
20230130T2FFUSDON    000004330000000000000433000000000000043300000000NPP     2023013107221120230131
20230130T2GBGBP15M   000004190204020000000419020402000000041902040200NPP     2023013107221120240501
20230130T2GBGBP18M   000004139288460000000413928846000000041392884600NPP     2023013107221120240801
20230130T2GBGBP21M   000004077965050000000407796505000000040779650500NPP     2023013107221120241101
20230130T2GBGBP2Y    000003993952840000000399395284000000039939528400NPP     2023013107221120250203
20230130T2GBGBP3Y    000003834053630000000383405363000000038340536300NPP     2023013107221120260202
20230130T2GBGBP4Y    000003744781210000000374478121000000037447812100NPP     2023013107221120270201
20230130T2GBGBP5Y    000003661499300000000366149930000000036614993000NPP     2023013107221120280201
20230130T2BLUSD10Y   000002627306610000000262730661000000026273066100NPP     2023013107221120330201
20230130T2BLUSD2Y    000003460562660000000346056266000000034605626600NPP     2023013107221120250203
20230130T2BLUSD3Y    000002836564590000000283656459000000028365645900NPP     2023013107221120260202
20230130T2BLUSD4Y    000002602474690000000260247469000000026024746900NPP     2023013107221120270201
20230130T2BLUSD5Y    000002489072870000000248907287000000024890728700NPP     2023013107221120280201
20230130T2BLUSD6Y    000002506039360000000250603936000000025060393600NPP     2023013107221120290201
20230130T2BLUSD7Y    000002479887040000000247988704000000024798870400NPP     2023013107221120300201
20230130T2BLUSD8Y    000002550472100000000255047210000000025504721000NPP     2023013107221120310203
20230130T2BLUSD9Y    000002566092150000000256609215000000025660921500NPP     2023013107221120320202
20230130T2IBCOP10Y   000015655594950000001565559495000000156555949500NPP     2023013107221120330201
20230130T2IBCOP12Y   000017092870160000001709287016000000170928701600NPP     2023013107221120350201
20230130T2IBCOP15Y   000019985462810000001998546281000000199854628100NPP     2023013107221120380201
20230130T2IBCOP18M   000012190000000000001219000000000000121900000000NPP     2023013107221120240801
20230130T2IBCOP20Y   000024711293380000002471129338000000247112933800NPP     2023013107221120430202
20230130T2IBCOP2Y    000011954514260000001195451426000000119545142600NPP     2023013107221120250203
20230130T2IBCOP3Y    000011737888930000001173788893000000117378889300NPP     2023013107221120260202
20230130T2IBCOP4Y    000011913267740000001191326774000000119132677400NPP     2023013107221120270201
20230130T2IBCOP5Y    000012199036190000001219903619000000121990361900NPP     2023013107221120280201
20230130T2IBCOP6Y    000012647766760000001264776676000000126477667600NPP     2023013107221120290201
20230130T2IBCOP7Y    000013244630760000001324463076000000132446307600NPP     2023013107221120300201
20230130T2IBCOP8Y    000013948983330000001394898333000000139489833300NPP     2023013107221120310203
20230130T2IBCOP9Y    000014648283950000001464828395000000146482839500NPP     2023013107221120320202
20230130T2ECEUR10Y   000001693467420000000169346742000000016934674200NPP     2023013107221220330201
20230130T2ECEUR12Y   000001817278110000000181727811000000018172781100NPP     2023013107221220350201
20230130T2ECEUR2Y    000002165465480000000216546548000000021654654800NPP     2023013107221220250203
20230130T2ECEUR3Y    000001751017740000000175101774000000017510177400NPP     2023013107221220260202
20230130T2ECEUR4Y    000001585688030000000158568803000000015856880300NPP     2023013107221220270201
20230130T2ECEUR5Y    000001532842430000000153284243000000015328424300NPP     2023013107221220280201
20230130T2ECEUR6Y    000001576518320000000157651832000000015765183200NPP     2023013107221220290201
20230130T2ECEUR7Y    000001555451630000000155545163000000015554516300NPP     2023013107221220300201
20230130T2ECEUR8Y    000001636822620000000163682262000000016368226200NPP     2023013107221220310203
20230130T2ECEUR9Y    000001645709690000000164570969000000016457096900NPP     2023013107221220320202
202301302L12USD10Y   000004695122200000000469512220000000046951222000NPP     2023013107221420330201
202301302L12USD12Y   000004869913020000000486991302000000048699130200NPP     2023013107221420350201
202301302L12USD15Y   000005137701340000000513770134000000051377013400NPP     2023013107221420380201
202301302L12USD20Y   000005738739900000000573873990000000057387399000NPP     2023013107221420430202
202301302L12USD25Y   000006016655000000000601665500000000060166550000NPP     2023013107221420480203
202301302L12USD2Y    000004973826630000000497382663000000049738266300NPP     2023013107221420250203
202301302L12USD30Y   000006082482400000000608248240000000060824824000NPP     2023013107221420530203
202301302L12USD3Y    000004701961510000000470196151000000047019615100NPP     2023013107221420260202
202301302L12USD4Y    000004540351770000000454035177000000045403517700NPP     2023013107221420270201
202301302L12USD5Y    000004450011560000000445001156000000044500115600NPP     2023013107221420280201
202301302L12USD7Y    000004451474550000000445147455000000044514745500NPP     2023013107221420300201
20230130T2L1USD10Y   000003885960820000000388596082000000038859608200NPP     2023013107221420330201
20230130T2L1USD12Y   000004028331540000000402833154000000040283315400NPP     2023013107221420350201
20230130T2L1USD15Y   000004263568240000000426356824000000042635682400NPP     2023013107221420380201
20230130T2L1USD20Y   000004592981130000000459298113000000045929811300NPP     2023013107221420430202
20230130T2L1USD25Y   000004734564370000000473456437000000047345643700NPP     2023013107221420480203
20230130T2L1USD2Y    000004462193940000000446219394000000044621939400NPP     2023013107221420250203
20230130T2L1USD30Y   000004842137940000000484213794000000048421379400NPP     2023013107221420530203
20230130T2L1USD3Y    000004086364390000000408636439000000040863643900NPP     2023013107221420260202
20230130T2L1USD4Y    000003916057760000000391605776000000039160577600NPP     2023013107221420270201
20230130T2L1USD5Y    000003815637360000000381563736000000038156373600NPP     2023013107221420280201
20230130T2L1USD7Y    000003765743070000000376574307000000037657430700NPP     2023013107221420300201
20230130T2L3USD10Y   000004085541810000000408554181000000040855418100NPP     2023013107221420330201
20230130T2L3USD11Y   000004163995490000000416399549000000041639954900NPP     2023013107221420340201
20230130T2L3USD12Y   000004241988460000000424198846000000042419884600NPP     2023013107221420350201
20230130T2L3USD13Y   000004327077440000000432707744000000043270774400NPP     2023013107221520360201
20230130T2L3USD14Y   000004412554610000000441255461000000044125546100NPP     2023013107221520370202
20230130T2L3USD15Y   000004501379590000000450137959000000045013795900NPP     2023013107221520380201
20230130T2L3USD20Y   000004873781570000000487378157000000048737815700NPP     2023013107221520430202
20230130T2L3USD25Y   000005057330370000000505733037000000050573303700NPP     2023013107221520480203
20230130T2L3USD2Y    000004598999450000000459899945000000045989994500NPP     2023013107221520250203
20230130T2L3USD30Y   000005205325300000000520532530000000052053253000NPP     2023013107221520530203
20230130T2L3USD3Y    000004232936070000000423293607000000042329360700NPP     2023013107221520260202
20230130T2L3USD4Y    000004072334720000000407233472000000040723347200NPP     2023013107221520270201
20230130T2L3USD5Y    000003978766510000000397876651000000039787665100NPP     2023013107221520280201
20230130T2L3USD6Y    000003947192270000000394719227000000039471922700NPP     2023013107221520290201
20230130T2L3USD7Y    000003943235260000000394323526000000039432352600NPP     2023013107221520300201
20230130T2L3USD8Y    000003969390830000000396939083000000039693908300NPP     2023013107221520310203
20230130T2L3USD9Y    000004025285090000000402528509000000040252850900NPP     2023013107221520320202
20230130T2L6USD10Y   000004318953170000000431895317000000043189531700NPP     2023013107221520330201
20230130T2L6USD12Y   000004492556500000000449255650000000044925565000NPP     2023013107221520350201
20230130T2L6USD15Y   000004783463800000000478346380000000047834638000NPP     2023013107221520380201
20230130T2L6USD20Y   000005207871400000000520787140000000052078714000NPP     2023013107221520430202
20230130T2L6USD25Y   000005442563960000000544256396000000054425639600NPP     2023013107221520480203
20230130T2L6USD2Y    000004766977390000000476697739000000047669773900NPP     2023013107221520250203
20230130T2L6USD30Y   000005644357340000000564435734000000056443573400NPP     2023013107221520530203
20230130T2L6USD3Y    000004411222640000000441122264000000044112226400NPP     2023013107221520260202
20230130T2L6USD4Y    000004259660760000000425966076000000042596607600NPP     2023013107221520270201
20230130T2L6USD5Y    000004173878140000000417387814000000041738781400NPP     2023013107221520280201
20230130T2L6USD7Y    000004152930240000000415293024000000041529302400NPP     2023013107221520300201
20230130T2UVV1 102M  000002398037260000000239803726000000023980372600NPP     2023013107221520240726
20230130T2UVV1 10Y   000002743035550000000274303555000000027430355500NPP     2023013107221520260126
20230130T2UVV1 114M  000002614646550000000261464655000000026146465500NPP     2023013107221520250728
20230130T2UVV1 18M   000000341230960000000034123096000000003412309600NPP     2023013107221520170724
20230130T2UVV1 2Y    000000706674910000000070667491000000007066749100NPP     2023013107221520180126
20230130T2UVV1 30M   000000859459010000000085945901000000008594590100NPP     2023013107221520180726
20230130T2UVV1 3Y    000001018933430000000101893343000000010189334300NPP     2023013107221520190128
20230130T2UVV1 42M   000001160940700000000116094070000000011609407000NPP     2023013107221520190726
20230130T2UVV1 4Y    000001310739080000000131073908000000013107390800NPP     2023013107221520200127
20230130T2UVV1 54M   000001450238580000000145023858000000014502385800NPP     2023013107221520200727
20230130T2UVV1 5Y    000001594079940000000159407994000000015940799400NPP     2023013107221520210126
20230130T2UVV1 66M   000001740343880000000174034388000000017403438800NPP     2023013107221520210726
20230130T2UVV1 6Y    000001893563280000000189356328000000018935632800NPP     2023013107221520220126
20230130T2UVV1 78M   000002007176010000000200717601000000020071760100NPP     2023013107221520220726
20230130T2UVV1 7Y    000002126266100000000212626610000000021262661000NPP     2023013107221520230126
20230130T2UVV1 8Y    000002309425160000000230942516000000023094251600NPP     2023013107221520240126
20230130T2UVV1 90M   000002215695750000000221569575000000022156957500NPP     2023013107221520230726
20230130T2UVV1 9Y    000002491032660000000249103266000000024910326600NPP     2023013107221520250127
20230130T2SOUSD10M   000004883853130000000488385313000000048838531300NPP     2023013107221520231201
20230130T2SOUSD10Y   000003751232260000000375123226000000037512322600NPP     2023013107221520330201
20230130T2SOUSD11M   000004880352960000000488035296000000048803529600NPP     2023013107221520240102
20230130T2SOUSD12Y   000003840252600000000384025260000000038402526000NPP     2023013107221520350201
20230130T2SOUSD15Y   000004132955400000000413295540000000041329554000NPP     2023013107221520380201
20230130T2SOUSD1M    000004484662420000000448466242000000044846624200NPP     2023013107221520230301
20230130T2SOUSD1Y    000004864208700000000486420870000000048642087000NPP     2023013107221520240201
20230130T2SOUSD20Y   000004346509910000000434650991000000043465099100NPP     2023013107221520430202
20230130T2SOUSD25Y   000004428404240000000442840424000000044284042400NPP     2023013107221520480203
20230130T2SOUSD2M    000004607599230000000460759923000000046075992300NPP     2023013107221520230403
20230130T2SOUSD2W    000004401422350000000440142235000000044014223500NPP     2023013107221520230215
20230130T2SOUSD2Y    000004352480000000000435248000000000043524800000NPP     2023013107221520250203
20230130T2SOUSD3M    000004667578700000000466757870000000046675787000NPP     2023013107221520230501
20230130T2SOUSD3W    000004442971250000000444297125000000044429712500NPP     2023013107221520230222
20230130T2SOUSD3Y    000003962264600000000396226460000000039622646000NPP     2023013107221520260202
20230130T2SOUSD4M    000004734907960000000473490796000000047349079600NPP     2023013107221520230601
20230130T2SOUSD4Y    000003773317130000000377331713000000037733171300NPP     2023013107221520270201
20230130T2SOUSD5M    000004790609940000000479060994000000047906099400NPP     2023013107221520230703
20230130T2SOUSD5Y    000003679907940000000367990794000000036799079400NPP     2023013107221520280201
20230130T2SOUSD6M    000004819907580000000481990758000000048199075800NPP     2023013107221520230801
20230130T2SOUSD7M    000004851434990000000485143499000000048514349900NPP     2023013107221520230901
20230130T2SOUSD7Y    000003641042160000000364104216000000036410421600NPP     2023013107221520300201
20230130T2SOUSD8M    000004872955150000000487295515000000048729551500NPP     2023013107221620231002
20230130T2SOUSD9M    000004878357430000000487835743000000048783574300NPP     2023013107221620231101
20230130T2SOUSDON    000004300000000000000430000000000000043000000000NPP     2023013107221620230131
20230130T2SOUSDSW    000004360442620000000436044262000000043604426200NPP     2023013107221620230208
20230130T2IUUVR10Y   000004237701720000000423770172000000042377017200NPP     2023013107221620330201
20230130T2IUUVR15Y   000004748283370000000474828337000000047482833700NPP     2023013107221620380201
20230130T2IUUVR2Y    000002603301160000000260330116000000026033011600NPP     2023013107221620250203
20230130T2IUUVR3Y    000003077035840000000307703584000000030770358400NPP     2023013107221620260202
20230130T2IUUVR4Y    000003521510500000000352151050000000035215105000NPP     2023013107221620270201
20230130T2IUUVR5Y    000003647983580000000364798358000000036479835800NPP     2023013107221620280201
20230130T2IUUVR6Y    000003906946060000000390694606000000039069460600NPP     2023013107221620290201
20230130T2IUUVR7Y    000004071568640000000407156864000000040715686400NPP     2023013107221620300201
20230130T2IUUVR8Y    000004202515130000000420251513000000042025151300NPP     2023013107221620310203
20230130T2IUUVR9Y    000004680383380000000468038338000000046803833800NPP     2023013107221620320202
20230130T2USUSD10Y   000003751232260000000375123226000000037512322600NPP     2023013107221620330201
20230130T2USUSD12Y   000003840252600000000384025260000000038402526000NPP     2023013107221620350201
20230130T2USUSD15Y   000004132955400000000413295540000000041329554000NPP     2023013107221620380201
20230130T2USUSD20Y   000004346509910000000434650991000000043465099100NPP     2023013107221620430202
20230130T2USUSD25Y   000004428404240000000442840424000000044284042400NPP     2023013107221620480203
20230130T2USUSD2Y    000004352480000000000435248000000000043524800000NPP     2023013107221620250203
20230130T2USUSD3Y    000003962264600000000396226460000000039622646000NPP     2023013107221620260202
20230130T2USUSD4Y    000003773317130000000377331713000000037733171300NPP     2023013107221620270201
20230130T2USUSD5Y    000003679907940000000367990794000000036799079400NPP     2023013107221620280201
20230130T2USUSD7Y    000003641042160000000364104216000000036410421600NPP     2023013107221620300201
20230130T2UIUSD10Y   000002627306610000000262730661000000026273066100NPP     2023013107221620330201
20230130T2UIUSD12Y   000002776235850000000277623585000000027762358500NPP     2023013107221620350201
20230130T2UIUSD15Y   000003226917800000000322691780000000032269178000NPP     2023013107221620380201
20230130T2UIUSD18M   000003849294030000000384929403000000038492940300NPP     2023013107221620240730
20230130T2UIUSD20Y   000003744306990000000374430699000000037443069900NPP     2023013107221620430202
20230130T2UIUSD25Y   000003883370290000000388337029000000038833702900NPP     2023013107221620480203
20230130T2UIUSD2Y    000003460562660000000346056266000000034605626600NPP     2023013107221620250203
20230130T2UIUSD3Y    000002836564590000000283656459000000028365645900NPP     2023013107221620260202
20230130T2UIUSD4Y    000002602474690000000260247469000000026024746900NPP     2023013107221620270201
20230130T2UIUSD5Y    000002489072870000000248907287000000024890728700NPP     2023013107221620280201
20230130T2UIUSD6Y    000002506039360000000250603936000000025060393600NPP     2023013107221620290201
20230130T2UIUSD7Y    000002479887040000000247988704000000024798870400NPP     2023013107221620300201
20230130T2UIUSD8Y    000002550472100000000255047210000000025504721000NPP     2023013107221620310203
20230130T2UIUSD9Y    000002566092150000000256609215000000025660921500NPP     2023013107221620320202
20230130CPFFUSD001   000004300000000000000430000000000000043000000000NPP     20230130091314        
20230130CPFFUSD002   000004300000000000000430000000000000043000000000NPP     20230130091314        
20230130CPFFUSD003   000004300000000000000430000000000000043000000000NPP     20230130091314        
20230130CPFFUSD004   000004300000000000000430000000000000043000000000NPP     20230130091314        
20230130CPFFUSD005   000004302000000000000430200000000000043020000000NPP     20230130091314        
20230130CPFFUSD006   000004301670000000000430167000000000043016700000NPP     20230130091314        
20230130CPFFUSD007   000004301430000000000430143000000000043014300000NPP     20230130091314        
20230130CPFFUSD008   000004301250000000000430125000000000043012500000NPP     20230130091314        
20230130CPFFUSD009   000004301110000000000430111000000000043011100000NPP     20230130091314        
20230130CPFFUSD010   000004301000000000000430100000000000043010000000NPP     20230130091314        
20230130CPFFUSD011   000004301820000000000430182000000000043018200000NPP     20230130091314        
20230130CPFFUSD012   000004301670000000000430167000000000043016700000NPP     20230130091314        
20230130CPFFUSD013   000004302310000000000430231000000000043023100000NPP     20230130091314        
20230130CPFFUSD014   000004302140000000000430214000000000043021400000NPP     20230130091314        
20230130CPFFUSD015   000004302000000000000430200000000000043020000000NPP     20230130091314        
20230130CPFFUSD016   000004301870000000000430187000000000043018700000NPP     20230130091314        
20230130CPFFUSD017   000004301760000000000430176000000000043017600000NPP     20230130091314        
20230130CPFFUSD018   000004301670000000000430167000000000043016700000NPP     20230130091314        
20230130CPFFUSD019   000004301580000000000430158000000000043015800000NPP     20230130091314        
20230130CPFFUSD020   000004302000000000000430200000000000043020000000NPP     20230130091314        
20230130CPFFUSD021   000004302380000000000430238000000000043023800000NPP     20230130091314        
20230130CPFFUSD022   000004302730000000000430273000000000043027300000NPP     20230130091314        
20230130CPFFUSD023   000004303040000000000430304000000000043030400000NPP     20230130091314        
20230130CPFFUSD024   000004303330000000000430333000000000043033300000NPP     20230130091314        
20230130CPFFUSD025   000004303600000000000430360000000000043036000000NPP     20230130091314        
20230130CPFFUSD026   000004303460000000000430346000000000043034600000NPP     20230130091314        
20230130CPFFUSD027   000004303700000000000430370000000000043037000000NPP     20230130091314        
20230130CPFFUSD028   000004303570000000000430357000000000043035700000NPP     20230130091314        
20230130CPFFUSD029   000004303450000000000430345000000000043034500000NPP     20230130091314        
20230130CPFFUSD030   000004303330000000000430333000000000043033300000NPP     20230130091314        
20230130CPFFUSD031   000004303230000000000430323000000000043032300000NPP     20230130091314        
20230130CPFFUSD032   000004303130000000000430313000000000043031300000NPP     20230130091314        
20230130CPFFUSD033   000004303030000000000430303000000000043030300000NPP     20230130091314        
20230130CPFFUSD034   000004302940000000000430294000000000043029400000NPP     20230130091314        
20230130CPFFUSD035   000004302860000000000430286000000000043028600000NPP     20230130091314        
20230130CPFFUSD036   000004302780000000000430278000000000043027800000NPP     20230130091314        
20230130CPFFUSD037   000004302700000000000430270000000000043027000000NPP     20230130091314        
20230130CPFFUSD038   000004302630000000000430263000000000043026300000NPP     20230130091314        
20230130CPFFUSD039   000004302560000000000430256000000000043025600000NPP     20230130091314        
20230130CPFFUSD040   000004302500000000000430250000000000043025000000NPP     20230130091314        
