20230127DEPOB121M    000016268900000000001626890000000000162689000000NPP     20230128065659        
20230127DEPOB121Y    000019691500000000001969150000000000196915000000NPP     20230128065659        
20230127DEPOB122M    000017067100000000001706710000000000170671000000NPP     20230128065659        
20230127DEPOB122W    000015737800000000001573780000000000157378000000NPP     20230128065659        
20230127DEPOB122Y    000019899100000000001989910000000000198991000000NPP     20230128065659        
20230127DEPOB123M    000017729300000000001772930000000000177293000000NPP     20230128065659        
20230127DEPOB123Y    000019936800000000001993680000000000199368000000NPP     20230128065659        
20230127DEPOB124Y    000019960600000000001996060000000000199606000000NPP     20230128065659        
20230127DEPOB125Y    000019976800000000001997680000000000199768000000NPP     20230128065659        
20230127DEPOB126M    000018908200000000001890820000000000189082000000NPP     20230128065659        
20230127DEPOB129M    000019448500000000001944850000000000194485000000NPP     20230128065659        
20230127DEPOB12ON    000015250900000000001525090000000000152509000000NPP     20230128065659        
20230127DEPOB12SW    000015482200000000001548220000000000154822000000NPP     20230128065659        
20230127DEPOB12TN    000015329300000000001532930000000000153293000000NPP     20230128065659        
20230127DEPOCOF1M    000011858056350000001185805635000000118580563500NPP     2023012806565920230224
20230127DEPOCOF1Y    000013080699850000001308069985000000130806998500NPP     2023012806565920240129
20230127DEPOCOF2M    000012146885450000001214688545000000121468854500NPP     2023012806565920230329
20230127DEPOCOF2W    000011763405170000001176340517000000117634051700NPP     2023012806565920230210
20230127DEPOCOF3M    000012266648450000001226664845000000122666484500NPP     2023012806565920230426
20230127DEPOCOF6M    000012534323870000001253432387000000125343238700NPP     2023012806570020230727
20230127DEPOCOF9M    000012713028610000001271302861000000127130286100NPP     2023012806570020231027
20230127DEPOCOFON    000011571127730000001157112773000000115711277300NPP     2023012806570020230128
20230127DEPOCOFSW    000011723325790000001172332579000000117233257900NPP     2023012806570020230203
20230127DTFPCOP1Y    000013307065020000001330706502000000133070650200NPP     2023012806570020240131
20230127DTFPCOP3M    000013243245360000001324324536000000132432453600NPP     2023012806570020230428
20230127DTFPCOP6M    000012893372240000001289337224000000128933722400NPP     2023012806570020230731
20230127DTFPCOP9M    000012878755850000001287875585000000128787558500NPP     2023012806570020231031
20230127DTFPCOPON    000013540000000000001354000000000000135400000000NPP     2023012806570020230128
20230127DEPOEUC10M   000002916502140000000291650214000000029165021400NPP     2023012806570020231130
20230127DEPOEUC11M   000002940812430000000294081243000000029408124300NPP     2023012806570020231229
20230127DEPOEUC1D    000002695958390000000269595839000000026959583900NPP     2023012806570020230130
20230127DEPOEUC1M    000002302579660000000230257966000000023025796600NPP     2023012806570020230228
20230127DEPOEUC1Y    000002890902710000000289090271000000028909027100NPP     2023012806570020240131
20230127DEPOEUC2M    000002416132630000000241613263000000024161326300NPP     2023012806570020230331
20230127DEPOEUC2W    000002450200020000000245020002000000024502000200NPP     2023012806570020230214
20230127DEPOEUC3D    000004311261110000000431126111000000043112611100NPP     2023012806570020230201
20230127DEPOEUC3M    000002443168800000000244316880000000024431688000NPP     2023012806570020230428
20230127DEPOEUC3W    000002303891430000000230389143000000023038914300NPP     2023012806570020230221
20230127DEPOEUC4M    000002580556720000000258055672000000025805567200NPP     2023012806570020230531
20230127DEPOEUC5M    000002665644050000000266564405000000026656440500NPP     2023012806570020230630
20230127DEPOEUC6M    000002726405040000000272640504000000027264050400NPP     2023012806570020230731
20230127DEPOEUC7M    000002811804010000000281180401000000028118040100NPP     2023012806570020230831
20230127DEPOEUC8M    000002861654550000000286165455000000028616545500NPP     2023012806570020230929
20230127DEPOEUC9M    000002885750740000000288575074000000028857507400NPP     2023012806570020231031
20230127DEPOEUCSW    000002705067410000000270506741000000027050674100NPP     2023012806570020230207
20230127IMGBGBP10M   000004174218370000000417421837000000041742183700NPP     2023012806570120231130
20230127IMGBGBP11M   000004192533940000000419253394000000041925339400NPP     2023012806570120231229
20230127IMGBGBP1M    000003742454870000000374245487000000037424548700NPP     2023012806570120230228
20230127IMGBGBP1Y    000004148860530000000414886053000000041488605300NPP     2023012806570120240131
20230127IMGBGBP2M    000003845852320000000384585232000000038458523200NPP     2023012806570120230331
20230127IMGBGBP2W    000003747483620000000374748362000000037474836200NPP     2023012806570120230214
20230127IMGBGBP3M    000003884327370000000388432737000000038843273700NPP     2023012806570120230428
20230127IMGBGBP3W    000003716185420000000371618542000000037161854200NPP     2023012806570120230221
20230127IMGBGBP4M    000003979534600000000397953460000000039795346000NPP     2023012806570120230531
20230127IMGBGBP5M    000004040575280000000404057528000000040405752800NPP     2023012806570120230630
20230127IMGBGBP6M    000004072610900000000407261090000000040726109000NPP     2023012806570120230731
20230127IMGBGBP7M    000004126488350000000412648835000000041264883500NPP     2023012806570120230831
20230127IMGBGBP8M    000004154418660000000415441866000000041544186600NPP     2023012806570120230929
20230127IMGBGBP9M    000004171742000000000417174200000000041717420000NPP     2023012806570120231031
20230127IMGBGBPON    000003892998940000000389299894000000038929989400NPP     2023012806570120230130
20230127IMGBGBPSW    000003804375790000000380437579000000038043757900NPP     2023012806570120230207
20230127IBR COP1M    000011774245250000001177424525000000117742452500NPP     2023012806570220230228
20230127IBR COP1Y    000012409390750000001240939075000000124093907500NPP     2023012806570220240131
20230127IBR COP3M    000012025888110000001202588811000000120258881100NPP     2023012806570220230428
20230127IBR COP6M    000012310232780000001231023278000000123102327800NPP     2023012806570220230731
20230127IBR COP9M    000012496178940000001249617894000000124961789400NPP     2023012806570220231031
20230127IBR COPON    000011176000000000001117600000000000111760000000NPP     2023012806570220230128
20230127IPECEUR10M   000002538625400000000253862540000000025386254000NPP     2023012806570220231130
20230127IPECEUR11M   000002436659710000000243665971000000024366597100NPP     2023012806570220231229
20230127IPECEUR1M    000002166212810000000216621281000000021662128100NPP     2023012806570220230228
20230127IPECEUR1W    000002329752230000000232975223000000023297522300NPP     2023012806570220230207
20230127IPECEUR1Y    000002052688970000000205268897000000020526889700NPP     2023012806570220240131
20230127IPECEUR2M    000002170480270000000217048027000000021704802700NPP     2023012806570220230331
20230127IPECEUR2W    000002164750730000000216475073000000021647507300NPP     2023012806570220230214
20230127IPECEUR3M    000002201290330000000220129033000000022012903300NPP     2023012806570220230428
20230127IPECEUR3W    -000005131578100-000005131578100-000005131578100NPP     2023012806570220210518
20230127IPECEUR4M    000002326411110000000232641111000000023264111100NPP     2023012806570220230531
20230127IPECEUR5M    000002413812550000000241381255000000024138125500NPP     2023012806570220230630
20230127IPECEUR6M    000002503710160000000250371016000000025037101600NPP     2023012806570220230731
20230127IPECEUR7M    000002580979250000000258097925000000025809792500NPP     2023012806570220230831
20230127IPECEUR8M    000002632884710000000263288471000000026328847100NPP     2023012806570220230929
20230127IPECEUR9M    000002664468220000000266446822000000026644682200NPP     2023012806570220231031
20230127IPECEURON    000002238793560000000223879356000000022387935600NPP     2023012806570220230130
20230127L12MUSD1Y    000005307691141500000530769114150000053076911415NPP     2023012806570220240131
20230127L12MUSDON    000004304710000000000430471000000000043047100000NPP     2023012806570220230128
20230127L1M USD18M   000004697382559000000469738255900000046973825590NPP     2023012806570220240731
20230127L1M USD1M    000004538497485200000453849748520000045384974852NPP     2023012806570220230228
20230127L1M USD1Y    000004899322386200000489932238620000048993223862NPP     2023012806570220240131
20230127L1M USD3M    000004607354090400000460735409040000046073540904NPP     2023012806570220230428
20230127L1M USD6M    000004850892076200000485089207620000048508920762NPP     2023012806570220230731
20230127L1M USD9M    000004898723461700000489872346170000048987234617NPP     2023012806570220231031
20230127L1M USDON    000004304710000000000430471000000000043047100000NPP     2023012806570220230128
20230127L3M USD18M   000004829790658900000482979065890000048297906589NPP     2023012806570220240731
20230127L3M USD3M    000004686841254700000468684125470000046868412547NPP     2023012806570320230428
20230127L3M USD6M    000004922102906200000492210290620000049221029062NPP     2023012806570320230731
20230127L3M USD9M    000005008069169800000500806916980000050080691698NPP     2023012806570320231031
20230127L3M USDON    000004304710000000000430471000000000043047100000NPP     2023012806570320230128
20230127L6M USD18M   000004997222920000000499722292000000049972229200NPP     2023012806570320240731
20230127L6M USD1Y    000005187816010000000518781601000000051878160100NPP     2023012806570320240131
20230127L6M USD6M    000005087432690000000508743269000000050874326900NPP     2023012806570320230731
20230127L6M USDON    000004304710000000000430471000000000043047100000NPP     2023012806570320230128
20230127DEPOV1 1M    -000014533926800-000014533926800-000014533926800NPP     2023012806570320160224
20230127DEPOV1 1Y    000000178548050000000017854805000000001785480500NPP     2023012806570320170124
20230127DEPOV1 2M    -000012097852400-000012097852400-000012097852400NPP     2023012806570320160322
20230127DEPOV1 2W    -000015269419800-000015269419800-000015269419800NPP     2023012806570320160205
20230127DEPOV1 3M    -000010336581300-000010336581300-000010336581300NPP     2023012806570320160422
20230127DEPOV1 6M    -000005571508000-000005571508000-000005571508000NPP     2023012806570320160722
20230127DEPOV1 9M    -000002128617300-000002128617300-000002128617300NPP     2023012806570320161024
20230127DEPOV1 ON    -000017700000000-000017700000000-000017700000000NPP     2023012806570320160123
20230127DEPOV1 SW    -000017270021000-000017270021000-000017270021000NPP     2023012806570320160129
20230127IBL USD1M    000004280680240000000428068024000000042806802400NPP     2023012806570420230224
20230127IBL USD1W    000003891605420000000389160542000000038916054200NPP     2023012806570420230203
20230127IBL USD1Y    000004212889700000000421288970000000042128897000NPP     2023012806570420240129
20230127IBL USD2M    000004332917560000000433291756000000043329175600NPP     2023012806570420230329
20230127IBL USD2W    000004026372230000000402637223000000040263722300NPP     2023012806570420230210
20230127IBL USD3M    000004396004220000000439600422000000043960042200NPP     2023012806570420230426
20230127IBL USD6M    000004570599310000000457059931000000045705993100NPP     2023012806570420230727
20230127IBL USD9M    000004640037540000000464003754000000046400375400NPP     2023012806570420231027
20230127IBL USDON    000003893691060000000389369106000000038936910600NPP     2023012806570420230128
20230127IUV UVR18M   000001761808910000000176180891000000017618089100NPP     2023012806570420240731
20230127IUV UVR1M    -000059052826400-000059052826400-000059052826400NPP     2023012806570420230228
20230127IUV UVR1Y    000002148708170000000214870817000000021487081700NPP     2023012806570420240131
20230127IUV UVR3M    -000058726340500-000058726340500-000058726340500NPP     2023012806570420230428
20230127IUV UVR6M    -000012268908900-000012268908900-000012268908900NPP     2023012806570420230731
20230127IUV UVR9M    000000660691950000000066069195000000006606919500NPP     2023012806570420231031
20230127IUV UVRON    -000033686891200-000033686891200-000033686891200NPP     2023012806570420230128
20230127DEPOUSD10M   000004855979530000000485597953000000048559795300NPP     2023012806570420231130
20230127DEPOUSD11M   000004852205160000000485220516000000048522051600NPP     2023012806570420231229
20230127DEPOUSD1M    000004463286170000000446328617000000044632861700NPP     2023012806570420230228
20230127DEPOUSD1Y    000004831385220000000483138522000000048313852200NPP     2023012806570420240131
20230127DEPOUSD2M    000004583168820000000458316882000000045831688200NPP     2023012806570420230331
20230127DEPOUSD2W    000004384458360000000438445836000000043844583600NPP     2023012806570420230214
20230127DEPOUSD3M    000004645161330000000464516133000000046451613300NPP     2023012806570420230428
20230127DEPOUSD3W    000004423872260000000442387226000000044238722600NPP     2023012806570420230221
20230127DEPOUSD4M    000004718223930000000471822393000000047182239300NPP     2023012806570420230531
20230127DEPOUSD5M    000004773075730000000477307573000000047730757300NPP     2023012806570420230630
20230127DEPOUSD6M    000004801862370000000480186237000000048018623700NPP     2023012806570420230731
20230127DEPOUSD7M    000004830649020000000483064902000000048306490200NPP     2023012806570420230831
20230127DEPOUSD8M    000004850077750000000485007775000000048500777500NPP     2023012806570420230929
20230127DEPOUSD9M    000004853123830000000485312383000000048531238300NPP     2023012806570420231031
20230127DEPOUSDON    000004300000000000000430000000000000043000000000NPP     2023012806570420230130
20230127DEPOUSDSW    000004345044460000000434504446000000043450444600NPP     2023012806570420230207
20230127UIBRUSD1M    000004280680240000000428068024000000042806802400NPP     2023012806570420230224
20230127UIBRUSD1W    000003891605420000000389160542000000038916054200NPP     2023012806570420230203
20230127UIBRUSD1Y    000004212889700000000421288970000000042128897000NPP     2023012806570420240129
20230127UIBRUSD2M    000004332917560000000433291756000000043329175600NPP     2023012806570420230329
20230127UIBRUSD2W    000004026372230000000402637223000000040263722300NPP     2023012806570420230210
20230127UIBRUSD3M    000004396004220000000439600422000000043960042200NPP     2023012806570420230426
20230127UIBRUSD6M    000004570599310000000457059931000000045705993100NPP     2023012806570420230727
20230127UIBRUSD9M    000004640037540000000464003754000000046400375400NPP     2023012806570520231027
20230127UIBRUSDON    000003893691060000000389369106000000038936910600NPP     2023012806570520230128
20230127SRTMUSD1Y    000004835910000000000483591000000000048359100000NPP     20230127211217        
20230127DEPOCOF10Y   000011859038560000001185903856000000118590385600NPP     2023012806570520330131
20230127DEPOCOF12Y   000012856242410000001285624241000000128562424100NPP     2023012806570520350131
20230127DEPOCOF15Y   000015308353290000001530835329000000153083532900NPP     2023012806570520380129
20230127DEPOCOF18M   000013202736610000001320273661000000132027366100NPP     2023012806570520240729
20230127DEPOCOF20Y   000020472787300000002047278730000000204727873000NPP     2023012806570520430130
20230127DEPOCOF25Y   000025969629500000002596962950000000259696295000NPP     2023012806570520480131
20230127DEPOCOF2Y    000010607308400000001060730840000000106073084000NPP     2023012806570620250131
20230127DEPOCOF3Y    000009958032880000000995803288000000099580328800NPP     2023012806570620260130
20230127DEPOCOF4Y    000009837364280000000983736428000000098373642800NPP     2023012806570620270129
20230127DEPOCOF5Y    000009828333210000000982833321000000098283332100NPP     2023012806570620280131
20230127DEPOCOF6Y    000010164133880000001016413388000000101641338800NPP     2023012806570620290131
20230127DEPOCOF7Y    000010416655040000001041665504000000104166550400NPP     2023012806570620300131
20230127DEPOCOF8Y    000010887668980000001088766898000000108876689800NPP     2023012806570620310131
20230127DEPOCOF9Y    000011247919080000001124791908000000112479190800NPP     2023012806570620320130
20230127DTFPCOP10Y   000015462477660000001546247766000000154624776600NPP     2023012806570620330131
20230127DTFPCOP2Y    000012128663700000001212866370000000121286637000NPP     2023012806570620250131
20230127DTFPCOP3Y    000011853165200000001185316520000000118531652000NPP     2023012806570620260130
20230127DTFPCOP4Y    000011931904640000001193190464000000119319046400NPP     2023012806570620270129
20230127DTFPCOP5Y    000012129913900000001212991390000000121299139000NPP     2023012806570620280131
20230127DTFPCOP6Y    000012627935900000001262793590000000126279359000NPP     2023012806570620290131
20230127DTFPCOP7Y    000013169561830000001316956183000000131695618300NPP     2023012806570620300131
20230127DTFPCOP8Y    000013830641680000001383064168000000138306416800NPP     2023012806570720310131
20230127DTFPCOP9Y    000014583039920000001458303992000000145830399200NPP     2023012806570720320130
20230127ESTRUSD10M   000003065814390000000306581439000000030658143900NPP     2023012806570720231130
20230127ESTRUSD10Y   000002881101560000000288110156000000028811015600NPP     2023012806570720330131
20230127ESTRUSD11M   000003091845750000000309184575000000030918457500NPP     2023012806570720231229
20230127ESTRUSD12Y   000003006704350000000300670435000000030067043500NPP     2023012806570720350131
20230127ESTRUSD15Y   000003149156820000000314915682000000031491568200NPP     2023012806570720380129
20230127ESTRUSD18M   000003091968760000000309196876000000030919687600NPP     2023012806570720240731
20230127ESTRUSD1M    000002215044760000000221504476000000022150447600NPP     2023012806570720230228
20230127ESTRUSD1W    000001904101840000000190410184000000019041018400NPP     2023012806570720230207
20230127ESTRUSD1Y    000003114149710000000311414971000000031141497100NPP     2023012806570720240131
20230127ESTRUSD20Y   000003172405380000000317240538000000031724053800NPP     2023012806570720430130
20230127ESTRUSD25Y   000003098997060000000309899706000000030989970600NPP     2023012806570720480131
20230127ESTRUSD2M    000002370389300000000237038930000000023703893000NPP     2023012806570720230331
20230127ESTRUSD2W    000002069706660000000206970666000000020697066600NPP     2023012806570720230214
20230127ESTRUSD2Y    000003043604090000000304360409000000030436040900NPP     2023012806570720250131
20230127ESTRUSD3M    000002518056670000000251805667000000025180566700NPP     2023012806570720230428
20230127ESTRUSD3Y    000002885251740000000288525174000000028852517400NPP     2023012806570720260130
20230127ESTRUSD4M    000002655516830000000265551683000000026555168300NPP     2023012806570720230531
20230127ESTRUSD4Y    000002791086380000000279108638000000027910863800NPP     2023012806570720270129
20230127ESTRUSD5M    000002761229750000000276122975000000027612297500NPP     2023012806570720230630
20230127ESTRUSD5Y    000002751978200000000275197820000000027519782000NPP     2023012806570720280131
20230127ESTRUSD6M    000002854111460000000285411146000000028541114600NPP     2023012806570720230731
20230127ESTRUSD7M    000002929769870000000292976987000000029297698700NPP     2023012806570720230831
20230127ESTRUSD7Y    000002746296020000000274629602000000027462960200NPP     2023012806570720300131
20230127ESTRUSD8M    000002984354040000000298435404000000029843540400NPP     2023012806570720230929
20230127ESTRUSD9M    000003032608720000000303260872000000030326087200NPP     2023012806570720231031
20230127ESTRUSDON    000001904000000000000190400000000000019040000000NPP     2023012806570720230130
20230127FFE USD10M   000004869836700000000486983670000000048698367000NPP     2023012806570720231130
20230127FFE USD10Y   000003693863860000000369386386000000036938638600NPP     2023012806570820330131
20230127FFE USD11M   000004858943410000000485894341000000048589434100NPP     2023012806570820231229
20230127FFE USD12Y   000003803588800000000380358880000000038035888000NPP     2023012806570820350131
20230127FFE USD15Y   000004016520620000000401652062000000040165206200NPP     2023012806570820380129
20230127FFE USD1M    000004549566340000000454956634000000045495663400NPP     2023012806570820230228
20230127FFE USD1W    000004455986690000000445598669000000044559866900NPP     2023012806570820230207
20230127FFE USD1Y    000004840378750000000484037875000000048403787500NPP     2023012806570820240131
20230127FFE USD20Y   000004300161130000000430016113000000043001611300NPP     2023012806570820430130
20230127FFE USD25Y   000004347662370000000434766237000000043476623700NPP     2023012806570820480131
20230127FFE USD2M    000004608986190000000460898619000000046089861900NPP     2023012806570820230331
20230127FFE USD2W    000004510463990000000451046399000000045104639900NPP     2023012806570820230214
20230127FFE USD2Y    000004300997290000000430099729000000043009972900NPP     2023012806570820250131
20230127FFE USD3M    000004680280010000000468028001000000046802800100NPP     2023012806570820230428
20230127FFE USD3W    000004535124750000000453512475000000045351247500NPP     2023012806570820230221
20230127FFE USD3Y    000003906835520000000390683552000000039068355200NPP     2023012806570820260130
20230127FFE USD4M    000004751660940000000475166094000000047516609400NPP     2023012806570820230531
20230127FFE USD4Y    000003712618840000000371261884000000037126188400NPP     2023012806570820270129
20230127FFE USD5M    000004799185190000000479918519000000047991851900NPP     2023012806570820230630
20230127FFE USD5Y    000003619022030000000361902203000000036190220300NPP     2023012806570820280131
20230127FFE USD6M    000004835271740000000483527174000000048352717400NPP     2023012806570820230731
20230127FFE USD7M    000004855952840000000485595284000000048559528400NPP     2023012806570820230831
20230127FFE USD7Y    000003580329360000000358032936000000035803293600NPP     2023012806570820300131
20230127FFE USD8M    000004869647690000000486964769000000048696476900NPP     2023012806570820230929
20230127FFE USD9M    000004875994480000000487599448000000048759944800NPP     2023012806570820231031
20230127FFE USDON    000004330000000000000433000000000000043300000000NPP     2023012806570820230130
20230127IMGBGBP15M   000004129098090000000412909809000000041290980900NPP     2023012806570820240430
20230127IMGBGBP18M   000004073612110000000407361211000000040736121100NPP     2023012806570820240731
20230127IMGBGBP21M   000004002109520000000400210952000000040021095200NPP     2023012806570820241031
20230127IMGBGBP2Y    000003924928180000000392492818000000039249281800NPP     2023012806570820250131
20230127IMGBGBP3Y    000003745157400000000374515740000000037451574000NPP     2023012806570920260130
20230127IMGBGBP4Y    000003671305010000000367130501000000036713050100NPP     2023012806570920270129
20230127IMGBGBP5Y    000003616400420000000361640042000000036164004200NPP     2023012806570920280131
20230127IBL USD10Y   000002596386420000000259638642000000025963864200NPP     2023012806570920330131
20230127IBL USD2Y    000003461102900000000346110290000000034611029000NPP     2023012806570920250131
20230127IBL USD3Y    000002821118010000000282111801000000028211180100NPP     2023012806570920260130
20230127IBL USD4Y    000002584430110000000258443011000000025844301100NPP     2023012806570920270129
20230127IBL USD5Y    000002466612170000000246661217000000024666121700NPP     2023012806570920280131
20230127IBL USD6Y    000002472071650000000247207165000000024720716500NPP     2023012806570920290131
20230127IBL USD7Y    000002444405960000000244440596000000024444059600NPP     2023012806570920300131
20230127IBL USD8Y    000002515695630000000251569563000000025156956300NPP     2023012806570920310131
20230127IBL USD9Y    000002533385560000000253338556000000025333855600NPP     2023012806570920320130
20230127IBR COP10Y   000015628144780000001562814478000000156281447800NPP     2023012806570920330131
20230127IBR COP12Y   000017212384870000001721238487000000172123848700NPP     2023012806570920350131
20230127IBR COP15Y   000020120826630000002012082663000000201208266300NPP     2023012806570920380129
20230127IBR COP18M   000012299548480000001229954848000000122995484800NPP     2023012806570920240731
20230127IBR COP20Y   000024885562370000002488556237000000248855623700NPP     2023012806570920430130
20230127IBR COP2Y    000012023142330000001202314233000000120231423300NPP     2023012806570920250131
20230127IBR COP3Y    000011813799130000001181379913000000118137991300NPP     2023012806570920260130
20230127IBR COP4Y    000011920295970000001192029597000000119202959700NPP     2023012806570920270129
20230127IBR COP5Y    000012154907830000001215490783000000121549078300NPP     2023012806570920280131
20230127IBR COP6Y    000012678443370000001267844337000000126784433700NPP     2023012806570920290131
20230127IBR COP7Y    000013226694880000001322669488000000132266948800NPP     2023012806570920300131
20230127IBR COP8Y    000013911382730000001391138273000000139113827300NPP     2023012806570920310131
20230127IBR COP9Y    000014692867940000001469286794000000146928679400NPP     2023012806571020320130
20230127IPECEUR10Y   000001598907330000000159890733000000015989073300NPP     2023012806571020330131
20230127IPECEUR12Y   000001758004160000000175800416000000017580041600NPP     2023012806571020350131
20230127IPECEUR2Y    000002109473360000000210947336000000021094733600NPP     2023012806571020250131
20230127IPECEUR3Y    000001694213430000000169421343000000016942134300NPP     2023012806571020260130
20230127IPECEUR4Y    000001533913550000000153391355000000015339135500NPP     2023012806571020270129
20230127IPECEUR5Y    000001456542980000000145654298000000014565429800NPP     2023012806571020280131
20230127IPECEUR6Y    000001494121460000000149412146000000014941214600NPP     2023012806571020290131
20230127IPECEUR7Y    000001467747370000000146774737000000014677473700NPP     2023012806571020300131
20230127IPECEUR8Y    000001539562850000000153956285000000015395628500NPP     2023012806571020310131
20230127IPECEUR9Y    000001557770570000000155777057000000015577705700NPP     2023012806571020320130
20230127CPI COP100M  000201362086000000020136208600000002013620860000NPP     2023012806571020310530
20230127CPI COP101M  000201905763632200020190576363220002019057636322NPP     2023012806571020310627
20230127CPI COP102M  000202471099770400020247109977040002024710997704NPP     2023012806571020310731
20230127CPI COP103M  000203017771739800020301777173980002030177717398NPP     2023012806571020310829
20230127CPI COP104M  000203545617946300020354561794630002035456179463NPP     2023012806571020310930
20230127CPI COP105M  000204095191114800020409519111480002040951911148NPP     2023012806571020311031
20230127CPI COP106M  000204625838611600020462583861160002046258386116NPP     2023012806571020311128
20230127CPI COP107M  000205157865792000020515786579200002051578657920NPP     2023012806571020311231
20230127CPI COP108M  000206265718267300020626571826730002062657182673NPP     2023012806571020320130
20230127CPI COP109M  000207833337726100020783333772610002078333377261NPP     2023012806571120320227
20230127CPI COP10M   000137300085646800013730008564680001373000856468NPP     2023012806571120231130
20230127CPI COP110M  000209516787761700020951678776170002095167877617NPP     2023012806571120320331
20230127CPI COP111M  000211171970385000021117197038500002111719703850NPP     2023012806571120320430
20230127CPI COP112M  000212903580542200021290358054220002129035805422NPP     2023012806571120320528
20230127CPI COP113M  000214606809186500021460680918650002146068091865NPP     2023012806571120320630
20230127CPI COP114M  000216388045702800021638804570280002163880457028NPP     2023012806571120320730
20230127CPI COP115M  000218184066482100021818406648210002181840664821NPP     2023012806571120320831
20230127CPI COP116M  000219951357420600021995135742060002199513574206NPP     2023012806571120320930
20230127CPI COP117M  000221776953687200022177695368720002217769536872NPP     2023012806571120321029
20230127CPI COP118M  000223573347012100022357334701210002235733470121NPP     2023012806571120321130
20230127CPI COP119M  000225451363127000022545136312700002254513631270NPP     2023012806571120321231
20230127CPI COP11M   000137753175929500013775317592950001377531759295NPP     2023012806571120231229
20230127CPI COP120M  000226916796987300022691679698730002269167969873NPP     2023012806571120330131
20230127CPI COP121M  000227847155855000022784715585500002278471558550NPP     2023012806571120330228
20230127CPI COP122M  000228872468056300022887246805630002288724680563NPP     2023012806571120330331
20230127CPI COP123M  000229856619669000022985661966900002298566196690NPP     2023012806571120330429
20230127CPI COP124M  000230890974457500023089097445750002308909744575NPP     2023012806571120330531
20230127CPI COP125M  000231883805647600023188380564760002318838056476NPP     2023012806571120330630
20230127CPI COP126M  000232904094392500023290409439250002329040943925NPP     2023012806571120330729
20230127CPI COP127M  000233928872407800023392887240780002339288724078NPP     2023012806571120330831
20230127CPI COP128M  000234934766559200023493476655920002349347665592NPP     2023012806571120330930
20230127CPI COP129M  000235968479532000023596847953200002359684795320NPP     2023012806571120331031
20230127CPI COP12M   000138483267761900013848326776190001384832677619NPP     2023012806571120240131
20230127CPI COP130M  000236959547146100023695954714610002369595471461NPP     2023012806571120331130
20230127CPI COP131M  000237978473198800023797847319880002379784731988NPP     2023012806571120331230
20230127CPI COP132M  000239001780633500023900178063350002390017806335NPP     2023012806571120340131
20230127CPI COP133M  000239933887578000023993388757800002399338875780NPP     2023012806571120340228
20230127CPI COP134M  000240965603294600024096560329460002409656032946NPP     2023012806571120340331
20230127CPI COP135M  000241953562268100024195356226810002419535622681NPP     2023012806571120340428
20230127CPI COP136M  000242969767229600024296976722960002429697672296NPP     2023012806571120340531
20230127CPI COP137M  000243965943275300024396594327530002439659432753NPP     2023012806571120340630
20230127CPI COP138M  000244990600237000024499060023700002449906002370NPP     2023012806571120340731
20230127CPI COP139M  000246019560758000024601956075800002460195607580NPP     2023012806571120340831
20230127CPI COP13M   000139549588923700013954958892370001395495889237NPP     2023012806571120240229
20230127CPI COP140M  000247003639001100024700363900110002470036390011NPP     2023012806571120340929
20230127CPI COP141M  000248041054284900024804105428490002480410542849NPP     2023012806571120341031
20230127CPI COP142M  000249033218502000024903321850200002490332185020NPP     2023012806571120341130
20230127CPI COP143M  000250054254697900025005425469790002500542546979NPP     2023012806571220341229
20230127CPI COP144M  000251179498844000025117949884400002511794988440NPP     2023012806571220350131
20230127CPI COP145M  000252309806588800025230980658880002523098065888NPP     2023012806571220350228
20230127CPI COP146M  000253546124641100025354612464110002535461246411NPP     2023012806571220350330
20230127CPI COP147M  000254763146039400025476314603940002547631460394NPP     2023012806571220350430
20230127CPI COP148M  000256011485454900025601148545490002560114854549NPP     2023012806571220350531
20230127CPI COP149M  000257214739436600025721473943660002572147394366NPP     2023012806571220350629
20230127CPI COP14M   000140693895552900014069389555290001406938955529NPP     2023012806571220240327
20230127CPI COP150M  000258475091659800025847509165980002584750916598NPP     2023012806571220350731
20230127CPI COP151M  000259715772099800025971577209980002597157720998NPP     2023012806571220350831
20230127CPI COP152M  000260936436228700026093643622870002609364362287NPP     2023012806571220350928
20230127CPI COP153M  000262188931122600026218893112260002621889311226NPP     2023012806571220351031
20230127CPI COP154M  000263395000205700026339500020570002633950002057NPP     2023012806571220351130
20230127CPI COP155M  000264659296206700026465929620670002646592962067NPP     2023012806571220351231
20230127CPI COP156M  000265929660828500026592966082850002659296608285NPP     2023012806571220360131
20230127CPI COP157M  000267099751336100026709975133610002670997513361NPP     2023012806571220360229
20230127CPI COP158M  000268355120167400026835512016740002683551201674NPP     2023012806571220360331
20230127CPI COP159M  000269589553720200026958955372020002695895537202NPP     2023012806571220360430
20230127CPI COP15M   000141805377327700014180537732770001418053773277NPP     2023012806571220240430
20230127CPI COP160M  000270856624622700027085662462270002708566246227NPP     2023012806571220360530
20230127CPI COP161M  000272075479433500027207547943350002720754794335NPP     2023012806571220360627
20230127CPI COP162M  000273354234186800027335423418680002733542341868NPP     2023012806571220360731
20230127CPI COP163M  000274611663664100027461166366410002746116636641NPP     2023012806571220360829
20230127CPI COP164M  000275847416150600027584741615060002758474161506NPP     2023012806571220360930
20230127CPI COP165M  000277116314264900027711631426490002771163142649NPP     2023012806571220361031
20230127CPI COP166M  000278335626047600027833562604760002783356260476NPP     2023012806571220361128
20230127CPI COP167M  000279615969927400027961596992740002796159699274NPP     2023012806571220361231
20230127CPI COP168M  000280874241792100028087424179210002808742417921NPP     2023012806571220370130
20230127CPI COP169M  000282025826183500028202582618350002820258261835NPP     2023012806571220370227
20230127CPI COP16M   000142968181421800014296818142180001429681814218NPP     2023012806571220240531
20230127CPI COP170M  000283294942401300028329494240130002832949424013NPP     2023012806571220370331
20230127CPI COP171M  000284541440147900028454144014790002845414401479NPP     2023012806571220370430
20230127CPI COP172M  000285821876628500028582187662850002858218766285NPP     2023012806571220370529
20230127CPI COP173M  000287050910698000028705091069800002870509106980NPP     2023012806571220370630
20230127CPI COP174M  000288313934705100028831393470510002883139347051NPP     2023012806571220370731
20230127CPI COP175M  000289582516017800028958251601780002895825160178NPP     2023012806571220370831
20230127CPI COP176M  000290827720836700029082772083670002908277208367NPP     2023012806571220370930
20230127CPI COP177M  000292107362808400029210736280840002921073628084NPP     2023012806571220371030
20230127CPI COP17M   000144097630055000014409763005500001440976300550NPP     2023012806571220240628
20230127CPI COP18M   000145034264650400014503426465040001450342646504NPP     2023012806571320240731
20230127CPI COP19M   000145686918841300014568691884130001456869188413NPP     2023012806571320240830
20230127CPI COP1M    000127983465000000012798346500000001279834650000NPP     2023012806571320230228
20230127CPI COP20M   000146269666516700014626966651670001462696665167NPP     2023012806571320240930
20230127CPI COP21M   000146825491249500014682549124950001468254912495NPP     2023012806571320241031
20230127CPI COP22M   000147310015370600014731001537060001473100153706NPP     2023012806571320241129
20230127CPI COP23M   000147766676418200014776667641820001477666764182NPP     2023012806571320241231
20230127CPI COP24M   000148357743123900014835774312390001483577431239NPP     2023012806571320250131
20230127CPI COP25M   000149025352968000014902535296800001490253529680NPP     2023012806571320250228
20230127CPI COP26M   000149755577197500014975557719750001497555771975NPP     2023012806571320250331
20230127CPI COP27M   000150444452852600015044445285260001504444528526NPP     2023012806571320250430
20230127CPI COP28M   000151136497335700015113649733570001511364973357NPP     2023012806571320250530
20230127CPI COP29M   000151786384274300015178638427430001517863842743NPP     2023012806571320250627
20230127CPI COP2M    000129967208707500012996720870750001299672087075NPP     2023012806571320230331
20230127CPI COP30M   000152439065726600015243906572660001524390657266NPP     2023012806571320250731
20230127CPI COP31M   000153079309802700015307930980270001530793098027NPP     2023012806571320250829
20230127CPI COP32M   000153676319110900015367631911090001536763191109NPP     2023012806571320250930
20230127CPI COP33M   000154275656755500015427565675550001542756567555NPP     2023012806571320251031
20230127CPI COP34M   000154846476685500015484647668550001548464766855NPP     2023012806571320251128
20230127CPI COP35M   000155419408649200015541940864920001554194086492NPP     2023012806571320251231
20230127CPI COP36M   000156025544342900015602554434290001560255443429NPP     2023012806571320260130
20230127CPI COP37M   000156602838857000015660283885700001566028388570NPP     2023012806571320260227
20230127CPI COP38M   000157229250212400015722925021240001572292502124NPP     2023012806571320260331
20230127CPI COP39M   000157826721363200015782672136320001578267213632NPP     2023012806571320260430
20230127CPI COP3M    000131591798816300013159179881630001315917988163NPP     2023012806571320230428
20230127CPI COP40M   000158442245576500015844224557650001584422455765NPP     2023012806571320260529
20230127CPI COP41M   000159012637660600015901263766060001590126376606NPP     2023012806571320260630
20230127CPI COP42M   000159600984420000015960098442000001596009844200NPP     2023012806571320260731
20230127CPI COP43M   000160175547963900016017554796390001601755479639NPP     2023012806571320260831
20230127CPI COP44M   000160720144827000016072014482700001607201448270NPP     2023012806571320260930
20230127CPI COP45M   000161266593319400016126659331940001612665933194NPP     2023012806571320261030
20230127CPI COP46M   000161782646418000016178264641800001617826464180NPP     2023012806571320261130
20230127CPI COP47M   000162300350886500016230035088650001623003508865NPP     2023012806571320261231
20230127CPI COP48M   000162933322255000016293332225500001629333222550NPP     2023012806571320270129
20230127CPI COP49M   000163585055544000016358505554400001635850555440NPP     2023012806571320270226
20230127CPI COP4M    000132749806645900013274980664590001327498066459NPP     2023012806571320230531
20230127CPI COP50M   000164304829788400016430482978840001643048297884NPP     2023012806571320270331
20230127CPI COP51M   000164994910073500016499491007350001649949100735NPP     2023012806571320270430
20230127CPI COP52M   000165704388186800016570438818680001657043881868NPP     2023012806571320270528
20230127CPI COP53M   000166383776178400016638377617840001663837761784NPP     2023012806571420270630
20230127CPI COP54M   000167082588038300016708258803830001670825880383NPP     2023012806571420270730
20230127CPI COP55M   000167784334908100016778433490810001677843349081NPP     2023012806571420270831
20230127CPI COP56M   000168455472247700016845547224770001684554722477NPP     2023012806571420270930
20230127CPI COP57M   000169146139684000016914613968400001691461396840NPP     2023012806571420271029
20230127CPI COP58M   000169805809628700016980580962870001698058096287NPP     2023012806571420271130
20230127CPI COP59M   000170485032867200017048503286720001704850328672NPP     2023012806571420271231
20230127CPI COP5M    000133546305485800013354630548580001335463054858NPP     2023012806571420230630
20230127CPI COP60M   000171184021502000017118402150200001711840215020NPP     2023012806571420280131
20230127CPI COP61M   000171868757588000017186875758800001718687575880NPP     2023012806571420280229
20230127CPI COP62M   000172590606369900017259060636990001725906063699NPP     2023012806571420280331
20230127CPI COP63M   000173280968795300017328096879530001732809687953NPP     2023012806571420280428
20230127CPI COP64M   000174008748864300017400874886430001740087488643NPP     2023012806571420280531
20230127CPI COP65M   000174704783859700017470478385970001747047838597NPP     2023012806571420280630
20230127CPI COP66M   000175421073473600017542107347360001754210734736NPP     2023012806571420280731
20230127CPI COP67M   000176140299874800017614029987480001761402998748NPP     2023012806571420280831
20230127CPI COP68M   000176827247044300017682724704430001768272470443NPP     2023012806571420280929
20230127CPI COP69M   000177534556032500017753455603250001775345560325NPP     2023012806571420281031
20230127CPI COP6M    000134347583318700013434758331870001343475833187NPP     2023012806571420230731
20230127CPI COP70M   000178209187345400017820918734540001782091873454NPP     2023012806571420281130
20230127CPI COP71M   000178904203176100017890420317610001789042031761NPP     2023012806571420281229
20230127CPI COP72M   000179637710409100017963771040910001796377104091NPP     2023012806571420290131
20230127CPI COP73M   000180338297479700018033829747970001803382974797NPP     2023012806571420290228
20230127CPI COP74M   000181113752158900018111375215890001811137521589NPP     2023012806571420290328
20230127CPI COP75M   000181874429917900018187442991790001818744299179NPP     2023012806571420290430
20230127CPI COP76M   000182656489966600018265648996660001826564899666NPP     2023012806571420290531
20230127CPI COP77M   000183405381575400018340538157540001834053815754NPP     2023012806571420290629
20230127CPI COP78M   000184175684178000018417568417800001841756841780NPP     2023012806571420290731
20230127CPI COP79M   000184949222051600018494922205160001849492220516NPP     2023012806571420290831
20230127CPI COP7M    000135288016401900013528801640190001352880164019NPP     2023012806571420230831
20230127CPI COP80M   000185689018939800018568901893980001856890189398NPP     2023012806571420290928
20230127CPI COP81M   000186468912819300018646891281930001864689128193NPP     2023012806571420291031
20230127CPI COP82M   000187214788470600018721478847060001872147884706NPP     2023012806571420291130
20230127CPI COP83M   000187982369103400018798236910340001879823691034NPP     2023012806571420291231
20230127CPI COP84M   000188809491527400018880949152740001888094915274NPP     2023012806571420300131
20230127CPI COP85M   000189602491391800018960249139180001896024913918NPP     2023012806571420300228
20230127CPI COP86M   000190474662852200019047466285220001904746628522NPP     2023012806571420300329
20230127CPI COP87M   000191331798835100019133179883510001913317988351NPP     2023012806571420300430
20230127CPI COP88M   000192211925109700019221192510970001922119251097NPP     2023012806571420300531
20230127CPI COP89M   000193076878772700019307687877270001930768787727NPP     2023012806571420300628
20230127CPI COP8M    000136059158095400013605915809540001360591580954NPP     2023012806571520230929
20230127CPI COP90M   000193965032415000019396503241500001939650324150NPP     2023012806571520300731
20230127CPI COP91M   000194857271564200019485727156420001948572715642NPP     2023012806571520300830
20230127CPI COP92M   000195714643559000019571464355900001957146435590NPP     2023012806571520300930
20230127CPI COP93M   000196595359455100019659535945510001965953594551NPP     2023012806571520301031
20230127CPI COP94M   000197460379036700019746037903670001974603790367NPP     2023012806571520301129
20230127CPI COP95M   000198348950742300019834895074230001983489507423NPP     2023012806571520301231
20230127CPI COP96M   000199102676755100019910267675510001991026767551NPP     2023012806571520310131
20230127CPI COP97M   000199640253982400019964025398240001996402539824NPP     2023012806571520310228
20230127CPI COP98M   000200219210718900020021921071890002002192107189NPP     2023012806571520310331
20230127CPI COP99M   000200779824508900020077982450890002007798245089NPP     2023012806571520310430
20230127CPI COP9M    000136739453885900013673945388590001367394538859NPP     2023012806571520231031
20230127CPI COPON    000126030000000000012603000000000001260300000000NPP     2023012806571520230130
20230127L12MUSD10Y   000004667762859500000466776285950000046677628595NPP     2023012806571520330131
20230127L12MUSD12Y   000004843697234500000484369723450000048436972345NPP     2023012806571520350131
20230127L12MUSD15Y   000005098000449200000509800044920000050980004492NPP     2023012806571520380129
20230127L12MUSD20Y   000005619575238800000561957523880000056195752388NPP     2023012806571520430130
20230127L12MUSD25Y   000005975750972100000597575097210000059757509721NPP     2023012806571520480131
20230127L12MUSD2Y    000004942432002000000494243200200000049424320020NPP     2023012806571520250131
20230127L12MUSD30Y   000006028168397800000602816839780000060281683978NPP     2023012806571520530131
20230127L12MUSD3Y    000004653207528600000465320752860000046532075286NPP     2023012806571520260130
20230127L12MUSD4Y    000004485763191000000448576319100000044857631910NPP     2023012806571520270129
20230127L12MUSD5Y    000004407735289500000440773528950000044077352895NPP     2023012806571520280131
20230127L12MUSD7Y    000004420792684000000442079268400000044207926840NPP     2023012806571520300131
20230127L1M USD10Y   000003858974002500000385897400250000038589740025NPP     2023012806571520330131
20230127L1M USD12Y   000003997633507700000399763350770000039976335077NPP     2023012806571520350131
20230127L1M USD15Y   000004227101953100000422710195310000042271019531NPP     2023012806571520380129
20230127L1M USD20Y   000004554755882400000455475588240000045547558824NPP     2023012806571520430130
20230127L1M USD25Y   000004696175025500000469617502550000046961750255NPP     2023012806571520480131
20230127L1M USD2Y    000004425540197400000442554019740000044255401974NPP     2023012806571520250131
20230127L1M USD30Y   000004784540898200000478454089820000047845408982NPP     2023012806571520530131
20230127L1M USD3Y    000004033562076100000403356207610000040335620761NPP     2023012806571520260130
20230127L1M USD4Y    000003862334594100000386233459410000038623345941NPP     2023012806571520270129
20230127L1M USD5Y    000003772578385600000377257838560000037725783856NPP     2023012806571520280131
20230127L1M USD7Y    000003730354173900000373035417390000037303541739NPP     2023012806571520300131
20230127L3M USD10Y   000004058780140000000405878014000000040587801400NPP     2023012806571520330131
20230127L3M USD11Y   000004135743370000000413574337000000041357433700NPP     2023012806571520340131
20230127L3M USD12Y   000004213138480000000421313848000000042131384800NPP     2023012806571520350131
20230127L3M USD13Y   000004296231970000000429623197000000042962319700NPP     2023012806571520360131
20230127L3M USD14Y   000004379207760000000437920776000000043792077600NPP     2023012806571520370130
20230127L3M USD15Y   000004465830030000000446583003000000044658300300NPP     2023012806571520380129
20230127L3M USD20Y   000004835692000000000483569200000000048356920000NPP     2023012806571520430130
20230127L3M USD25Y   000005016442800000000501644280000000050164428000NPP     2023012806571520480131
20230127L3M USD2Y    000004563671430000000456367143000000045636714300NPP     2023012806571620250131
20230127L3M USD30Y   000005146489750000000514648975000000051464897500NPP     2023012806571620530131
20230127L3M USD3Y    000004183985820000000418398582000000041839858200NPP     2023012806571620260130
20230127L3M USD4Y    000004018660600000000401866060000000040186606000NPP     2023012806571620270129
20230127L3M USD5Y    000003936311370000000393631137000000039363113700NPP     2023012806571620280131
20230127L3M USD6Y    000003905716620000000390571662000000039057166200NPP     2023012806571620290131
20230127L3M USD7Y    000003908351210000000390835121000000039083512100NPP     2023012806571620300131
20230127L3M USD8Y    000003945496700000000394549670000000039454967000NPP     2023012806571620310131
20230127L3M USD9Y    000003990953020000000399095302000000039909530200NPP     2023012806571620320130
20230127L6M USD10Y   000004291239420000000429123942000000042912394200NPP     2023012806571620330131
20230127L6M USD12Y   000004465019910000000446501991000000044650199100NPP     2023012806571620350131
20230127L6M USD15Y   000004746190950000000474619095000000047461909500NPP     2023012806571620380129
20230127L6M USD20Y   000005168199870000000516819987000000051681998700NPP     2023012806571620430130
20230127L6M USD25Y   000005399501270000000539950127000000053995012700NPP     2023012806571620480131
20230127L6M USD2Y    000004733107510000000473310751000000047331075100NPP     2023012806571620250131
20230127L6M USD30Y   000005581933600000000558193360000000055819336000NPP     2023012806571620530131
20230127L6M USD3Y    000004364092560000000436409256000000043640925600NPP     2023012806571620260130
20230127L6M USD4Y    000004206446870000000420644687000000042064468700NPP     2023012806571620270129
20230127L6M USD5Y    000004132024580000000413202458000000041320245800NPP     2023012806571620280131
20230127L6M USD7Y    000004118724920000000411872492000000041187249200NPP     2023012806571620300131
20230127DEPOV1 102M  000002392201990000000239220199000000023922019900NPP     2023012806571620240726
20230127DEPOV1 10Y   000002737560350000000273756035000000027375603500NPP     2023012806571620260126
20230127DEPOV1 114M  000002609085850000000260908585000000026090858500NPP     2023012806571620250728
20230127DEPOV1 18M   000000325781970000000032578197000000003257819700NPP     2023012806571620170724
20230127DEPOV1 2Y    000000693058180000000069305818000000006930581800NPP     2023012806571620180126
20230127DEPOV1 30M   000000847808360000000084780836000000008478083600NPP     2023012806571620180726
20230127DEPOV1 3Y    000001008610600000000100861060000000010086106000NPP     2023012806571620190128
20230127DEPOV1 42M   000001151561060000000115156106000000011515610600NPP     2023012806571620190726
20230127DEPOV1 4Y    000001302076170000000130207617000000013020761700NPP     2023012806571620200127
20230127DEPOV1 54M   000001442137940000000144213794000000014421379400NPP     2023012806571620200727
20230127DEPOV1 5Y    000001586417960000000158641796000000015864179600NPP     2023012806571620210126
20230127DEPOV1 66M   000001733023480000000173302348000000017330234800NPP     2023012806571620210726
20230127DEPOV1 6Y    000001886518400000000188651840000000018865184000NPP     2023012806571620220126
20230127DEPOV1 78M   000002000425720000000200042572000000020004257200NPP     2023012806571620220726
20230127DEPOV1 7Y    000002119763050000000211976305000000021197630500NPP     2023012806571620230126
20230127DEPOV1 8Y    000002303394800000000230339480000000023033948000NPP     2023012806571620240126
20230127DEPOV1 90M   000002209446340000000220944634000000022094463400NPP     2023012806571620230726
20230127DEPOV1 9Y    000002485367490000000248536749000000024853674900NPP     2023012806571620250127
20230127SOFRUSD10M   000004855979530000000485597953000000048559795300NPP     2023012806571620231130
20230127SOFRUSD10Y   000003704230150000000370423015000000037042301500NPP     2023012806571720330131
20230127SOFRUSD11M   000004852205160000000485220516000000048522051600NPP     2023012806571720231229
20230127SOFRUSD12Y   000003808822420000000380882242000000038088224200NPP     2023012806571720350131
20230127SOFRUSD13M   000000042561510000000004256151000000000425615100NPP     2023012806571720210915
20230127SOFRUSD15Y   000004034201680000000403420168000000040342016800NPP     2023012806571720380129
20230127SOFRUSD16M   000000038552150000000003855215000000000385521500NPP     2023012806571720211215
20230127SOFRUSD1M    000004463286170000000446328617000000044632861700NPP     2023012806571720230228
20230127SOFRUSD1Y    000004831385220000000483138522000000048313852200NPP     2023012806571720240131
20230127SOFRUSD20Y   000004345908050000000434590805000000043459080500NPP     2023012806571720430130
20230127SOFRUSD25Y   000004379044240000000437904424000000043790442400NPP     2023012806571720480131
20230127SOFRUSD2M    000004583168820000000458316882000000045831688200NPP     2023012806571720230331
20230127SOFRUSD2W    000004384458360000000438445836000000043844583600NPP     2023012806571720230214
20230127SOFRUSD2Y    000004305920150000000430592015000000043059201500NPP     2023012806571720250131
20230127SOFRUSD3M    000004645161330000000464516133000000046451613300NPP     2023012806571720230428
20230127SOFRUSD3W    000004423872260000000442387226000000044238722600NPP     2023012806571720230221
20230127SOFRUSD3Y    000003912275020000000391227502000000039122750200NPP     2023012806571720260130
20230127SOFRUSD4M    000004718223930000000471822393000000047182239300NPP     2023012806571720230531
20230127SOFRUSD4Y    000003717967710000000371796771000000037179677100NPP     2023012806571720270129
20230127SOFRUSD5M    000004773075730000000477307573000000047730757300NPP     2023012806571720230630
20230127SOFRUSD5Y    000003624689020000000362468902000000036246890200NPP     2023012806571720280131
20230127SOFRUSD6M    000004801862370000000480186237000000048018623700NPP     2023012806571720230731
20230127SOFRUSD7M    000004830649020000000483064902000000048306490200NPP     2023012806571720230831
20230127SOFRUSD7Y    000003586384800000000358638480000000035863848000NPP     2023012806571720300131
20230127SOFRUSD8M    000004850077750000000485007775000000048500777500NPP     2023012806571720230929
20230127SOFRUSD9M    000004853123830000000485312383000000048531238300NPP     2023012806571720231031
20230127SOFRUSDON    000004300000000000000430000000000000043000000000NPP     2023012806571720230130
20230127SOFRUSDSW    000004345044460000000434504446000000043450444600NPP     2023012806571720230207
20230127IUV UVR10Y   000004228223570000000422822357000000042282235700NPP     2023012806571720330131
20230127IUV UVR15Y   000004740443060000000474044306000000047404430600NPP     2023012806571720380129
20230127IUV UVR2Y    000002571031510000000257103151000000025710315100NPP     2023012806571820250131
20230127IUV UVR3Y    000003053247790000000305324779000000030532477900NPP     2023012806571820260130
20230127IUV UVR4Y    000003501929820000000350192982000000035019298200NPP     2023012806571820270129
20230127IUV UVR5Y    000003631960580000000363196058000000036319605800NPP     2023012806571820280131
20230127IUV UVR6Y    000003892852610000000389285261000000038928526100NPP     2023012806571820290131
20230127IUV UVR7Y    000004058992400000000405899240000000040589924000NPP     2023012806571820300131
20230127IUV UVR8Y    000004190733330000000419073333000000041907333300NPP     2023012806571820310131
20230127IUV UVR9Y    000004668864310000000466886431000000046688643100NPP     2023012806571820320130
20230127DEPOUSD10Y   000003704230150000000370423015000000037042301500NPP     2023012806571820330131
20230127DEPOUSD12Y   000003808822420000000380882242000000038088224200NPP     2023012806571820350131
20230127DEPOUSD15Y   000004034201680000000403420168000000040342016800NPP     2023012806571820380129
20230127DEPOUSD20Y   000004345908050000000434590805000000043459080500NPP     2023012806571820430130
20230127DEPOUSD25Y   000004379044240000000437904424000000043790442400NPP     2023012806571820480131
20230127DEPOUSD2Y    000004305920150000000430592015000000043059201500NPP     2023012806571820250131
20230127DEPOUSD3Y    000003912275020000000391227502000000039122750200NPP     2023012806571820260130
20230127DEPOUSD4Y    000003717967710000000371796771000000037179677100NPP     2023012806571820270129
20230127DEPOUSD5Y    000003624689020000000362468902000000036246890200NPP     2023012806571820280131
20230127DEPOUSD7Y    000003586384800000000358638480000000035863848000NPP     2023012806571820300131
20230127UIBRUSD10Y   000002596386420000000259638642000000025963864200NPP     2023012806571820330131
20230127UIBRUSD12Y   000002758383010000000275838301000000027583830100NPP     2023012806571820350131
20230127UIBRUSD15Y   000003146144780000000314614478000000031461447800NPP     2023012806571820380129
20230127UIBRUSD18M   000003811593190000000381159319000000038115931900NPP     2023012806571920240729
20230127UIBRUSD20Y   000003751294160000000375129416000000037512941600NPP     2023012806571920430130
20230127UIBRUSD25Y   000003844910460000000384491046000000038449104600NPP     2023012806571920480131
20230127UIBRUSD2Y    000003461102900000000346110290000000034611029000NPP     2023012806571920250131
20230127UIBRUSD3Y    000002821118010000000282111801000000028211180100NPP     2023012806571920260130
20230127UIBRUSD4Y    000002584430110000000258443011000000025844301100NPP     2023012806571920270129
20230127UIBRUSD5Y    000002466612170000000246661217000000024666121700NPP     2023012806571920280131
20230127UIBRUSD6Y    000002472071650000000247207165000000024720716500NPP     2023012806571920290131
20230127UIBRUSD7Y    000002444405960000000244440596000000024444059600NPP     2023012806571920300131
20230127UIBRUSD8Y    000002515695630000000251569563000000025156956300NPP     2023012806571920310131
20230127UIBRUSD9Y    000002533385560000000253338556000000025333855600NPP     2023012806571920320130
20230127T2COCOF1M    000011890590280000001189059028000000118905902800NPP     2023012806565920230224
20230127T2COCOF1Y    000013080516880000001308051688000000130805168800NPP     2023012806565920240129
20230127T2COCOF2M    000012171640660000001217164066000000121716406600NPP     2023012806565920230329
20230127T2COCOF2W    000011763405170000001176340517000000117634051700NPP     2023012806565920230210
20230127T2COCOF3M    000012283586070000001228358607000000122835860700NPP     2023012806565920230426
20230127T2COCOF6M    000012539968620000001253996862000000125399686200NPP     2023012806570020230727
20230127T2COCOF9M    000012713662840000001271366284000000127136628400NPP     2023012806570020231027
20230127T2COCOFON    000011571127730000001157112773000000115711277300NPP     2023012806570020230128
20230127T2COCOFSW    000011723325790000001172332579000000117233257900NPP     2023012806570020230203
20230127T2DTCOP1Y    000013284799850000001328479985000000132847998500NPP     2023012806570020240131
20230127T2DTCOP3M    000013210000000000001321000000000000132100000000NPP     2023012806570020230428
20230127T2DTCOP6M    000012860000000000001286000000000000128600000000NPP     2023012806570020230731
20230127T2DTCOP9M    000012850000000000001285000000000000128500000000NPP     2023012806570020231031
20230127T2DTCOPON    000013540000000000001354000000000000135400000000NPP     2023012806570020230128
20230127T2IMEUC10M   000002897006300000000289700630000000028970063000NPP     2023012806570020231130
20230127T2IMEUC11M   000002923179380000000292317938000000029231793800NPP     2023012806570020231229
20230127T2IMEUC1D    000004288738890000000428873889000000042887388900NPP     2023012806570020230130
20230127T2IMEUC1M    000002017881050000000201788105000000020178810500NPP     2023012806570020230228
20230127T2IMEUC1Y    000002874214320000000287421432000000028742143200NPP     2023012806570020240131
20230127T2IMEUC2M    000002288085940000000228808594000000022880859400NPP     2023012806570020230331
20230127T2IMEUC2W    000001923986370000000192398637000000019239863700NPP     2023012806570020230214
20230127T2IMEUC3D    000004399253630000000439925363000000043992536300NPP     2023012806570020230201
20230127T2IMEUC3M    000002357191740000000235719174000000023571917400NPP     2023012806570020230428
20230127T2IMEUC3W    000001924907980000000192490798000000019249079800NPP     2023012806570020230221
20230127T2IMEUC4M    000002522415320000000252241532000000025224153200NPP     2023012806570020230531
20230127T2IMEUC5M    000002621112490000000262111249000000026211124900NPP     2023012806570020230630
20230127T2IMEUC6M    000002690596180000000269059618000000026905961800NPP     2023012806570020230731
20230127T2IMEUC7M    000002782611330000000278261133000000027826113300NPP     2023012806570020230831
20230127T2IMEUC8M    000002836616780000000283661678000000028366167800NPP     2023012806570020230929
20230127T2IMEUC9M    000002863829450000000286382945000000028638294500NPP     2023012806570020231031
20230127T2IMEUCSW    000001799254890000000179925489000000017992548900NPP     2023012806570020230207
20230127T2GBGBP10M   000004170719090000000417071909000000041707190900NPP     2023012806570120231130
20230127T2GBGBP11M   000004189378490000000418937849000000041893784900NPP     2023012806570120231229
20230127T2GBGBP1M    000003662668940000000366266894000000036626689400NPP     2023012806570120230228
20230127T2GBGBP1Y    000004145352250000000414535225000000041453522500NPP     2023012806570120240131
20230127T2GBGBP2M    000003814008640000000381400864000000038140086400NPP     2023012806570120230331
20230127T2GBGBP2W    000003591127990000000359112799000000035911279900NPP     2023012806570120230214
20230127T2GBGBP3M    000003863892490000000386389249000000038638924900NPP     2023012806570120230428
20230127T2GBGBP3W    000003605409540000000360540954000000036054095400NPP     2023012806570120230221
20230127T2GBGBP4M    000003967337250000000396733725000000039673372500NPP     2023012806570120230531
20230127T2GBGBP5M    000004032036210000000403203621000000040320362100NPP     2023012806570120230630
20230127T2GBGBP6M    000004065897080000000406589708000000040658970800NPP     2023012806570120230731
20230127T2GBGBP7M    000004121463030000000412146303000000041214630300NPP     2023012806570120230831
20230127T2GBGBP8M    000004150211590000000415021159000000041502115900NPP     2023012806570120230929
20230127T2GBGBP9M    000004168041580000000416804158000000041680415800NPP     2023012806570120231031
20230127T2GBGBPON    000004288738890000000428873889000000042887388900NPP     2023012806570120230130
20230127T2GBGBPSW    000003525916680000000352591668000000035259166800NPP     2023012806570120230207
20230127T2IBCOP1M    000011845000000000001184500000000000118450000000NPP     2023012806570220230228
20230127T2IBCOP1Y    000012407500000000001240750000000000124075000000NPP     2023012806570220240131
20230127T2IBCOP3M    000012050000000000001205000000000000120500000000NPP     2023012806570220230428
20230127T2IBCOP6M    000012320000000000001232000000000000123200000000NPP     2023012806570220230731
20230127T2IBCOP9M    000012500000000000001250000000000000125000000000NPP     2023012806570220231031
20230127T2IBCOPON    000011431979290000001143197929000000114319792900NPP     2023012806570220230128
20230127T2ECEUR10M   000002519646660000000251964666000000025196466600NPP     2023012806570220231130
20230127T2ECEUR11M   000002418058980000000241805898000000024180589800NPP     2023012806570220231229
20230127T2ECEUR1M    000001918600150000000191860015000000019186001500NPP     2023012806570220230228
20230127T2ECEUR1W    000001435451880000000143545188000000014354518800NPP     2023012806570220230207
20230127T2ECEUR1Y    000002031634650000000203163465000000020316346500NPP     2023012806570220240131
20230127T2ECEUR2M    000002052764330000000205276433000000020527643300NPP     2023012806570220230331
20230127T2ECEUR2W    000001670045260000000167004526000000016700452600NPP     2023012806570220230214
20230127T2ECEUR3M    000002122560510000000212256051000000021225605100NPP     2023012806570220230428
20230127T2ECEUR3W    -000008104274200-000008104274200-000008104274200NPP     2023012806570220210518
20230127T2ECEUR4M    000002273184990000000227318499000000022731849900NPP     2023012806570220230531
20230127T2ECEUR5M    000002373322350000000237332235000000023733223500NPP     2023012806570220230630
20230127T2ECEUR6M    000002471922920000000247192292000000024719229200NPP     2023012806570220230731
20230127T2ECEUR7M    000002555105680000000255510568000000025551056800NPP     2023012806570220230831
20230127T2ECEUR8M    000002610828930000000261082893000000026108289300NPP     2023012806570220230929
20230127T2ECEUR9M    000002645313180000000264531318000000026453131800NPP     2023012806570220231031
20230127T2ECEURON    000002238793560000000223879356000000022387935600NPP     2023012806570220230130
202301272L12USD1Y    000005316140000000000531614000000000053161400000NPP     2023012806570220240131
202301272L12USDON    000004304710000000000430471000000000043047100000NPP     2023012806570220230128
20230127T2L1USD18M   000004698006960000000469800696000000046980069600NPP     2023012806570220240731
20230127T2L1USD1M    000004569710000000000456971000000000045697100000NPP     2023012806570220230228
20230127T2L1USD1Y    000004903493340000000490349334000000049034933400NPP     2023012806570220240131
20230127T2L1USD3M    000004619059460000000461905946000000046190594600NPP     2023012806570220230428
20230127T2L1USD6M    000004860637550000000486063755000000048606375500NPP     2023012806570220230731
20230127T2L1USD9M    000004905080850000000490508085000000049050808500NPP     2023012806570220231031
20230127T2L1USDON    000004304710000000000430471000000000043047100000NPP     2023012806570220230128
20230127T2L3USD18M   000004831387663700000483138766370000048313876637NPP     2023012806570220240731
20230127T2L3USD3M    000004703712016300000470371201630000047037120163NPP     2023012806570320230428
20230127T2L3USD6M    000004933928712300000493392871230000049339287123NPP     2023012806570320230731
20230127T2L3USD9M    000005016206682500000501620668250000050162066825NPP     2023012806570320231031
20230127T2L3USDON    000004304710000000000430471000000000043047100000NPP     2023012806570320230128
20230127T2L6USD18M   000004999895540000000499989554000000049998955400NPP     2023012806570320240731
20230127T2L6USD1Y    000005195009110000000519500911000000051950091100NPP     2023012806570320240131
20230127T2L6USD6M    000005102290000000000510229000000000051022900000NPP     2023012806570320230731
20230127T2L6USDON    000004304710000000000430471000000000043047100000NPP     2023012806570320230128
20230127T2UVV1 1M    -000014100000000-000014100000000-000014100000000NPP     2023012806570320160224
20230127T2UVV1 1Y    000000200000000000000020000000000000002000000000NPP     2023012806570320170124
20230127T2UVV1 2M    -000011700000000-000011700000000-000011700000000NPP     2023012806570320160322
20230127T2UVV1 2W    -000015269419800-000015269419800-000015269419800NPP     2023012806570320160205
20230127T2UVV1 3M    -000010000000000-000010000000000-000010000000000NPP     2023012806570320160422
20230127T2UVV1 6M    -000005300000000-000005300000000-000005300000000NPP     2023012806570320160722
20230127T2UVV1 9M    -000001900000000-000001900000000-000001900000000NPP     2023012806570320161024
20230127T2UVV1 ON    -000017700000000-000017700000000-000017700000000NPP     2023012806570320160123
20230127T2UVV1 SW    -000017270021000-000017270021000-000017270021000NPP     2023012806570320160129
20230127T2BLUSD1M    000004343299380000000434329938000000043432993800NPP     2023012806570420230224
20230127T2BLUSD1W    000003891605420000000389160542000000038916054200NPP     2023012806570420230203
20230127T2BLUSD1Y    000004214583680000000421458368000000042145836800NPP     2023012806570420240129
20230127T2BLUSD2M    000004361853390000000436185339000000043618533900NPP     2023012806570420230329
20230127T2BLUSD2W    000004026372230000000402637223000000040263722300NPP     2023012806570420230210
20230127T2BLUSD3M    000004417731230000000441773123000000044177312300NPP     2023012806570420230426
20230127T2BLUSD6M    000004583913520000000458391352000000045839135200NPP     2023012806570420230727
20230127T2BLUSD9M    000004649124270000000464912427000000046491242700NPP     2023012806570420231027
20230127T2BLUSDON    000003893691060000000389369106000000038936910600NPP     2023012806570420230128
20230127T2IUUVR18M   000001800000000000000180000000000000018000000000NPP     2023012806570420240731
20230127T2IUUVR1M    -000062700000000-000062700000000-000062700000000NPP     2023012806570420230228
20230127T2IUUVR1Y    000002210000000000000221000000000000022100000000NPP     2023012806570420240131
20230127T2IUUVR3M    -000059900000000-000059900000000-000059900000000NPP     2023012806570420230428
20230127T2IUUVR6M    -000011800000100-000011800000100-000011800000100NPP     2023012806570420230731
20230127T2IUUVR9M    000000720000000000000072000000000000007200000000NPP     2023012806570420231031
20230127T2IUUVRON    -000033686891200-000033686891200-000033686891200NPP     2023012806570420230128
20230127T2USUSD10M   000004861151390000000486115139000000048611513900NPP     2023012806570420231130
20230127T2USUSD11M   000004856679570000000485667957000000048566795700NPP     2023012806570420231229
20230127T2USUSD1M    000004486083760000000448608376000000044860837600NPP     2023012806570420230228
20230127T2USUSD1Y    000004835028010000000483502801000000048350280100NPP     2023012806570420240131
20230127T2USUSD2M    000004600937700000000460093770000000046009377000NPP     2023012806570420230331
20230127T2USUSD2W    000004409705440000000440970544000000044097054400NPP     2023012806570420230214
20230127T2USUSD3M    000004659328280000000465932828000000046593282800NPP     2023012806570420230428
20230127T2USUSD3W    000004447492600000000444749260000000044474926000NPP     2023012806570420230221
20230127T2USUSD4M    000004730285990000000473028599000000047302859900NPP     2023012806570420230531
20230127T2USUSD5M    000004783711810000000478371181000000047837118100NPP     2023012806570420230630
20230127T2USUSD6M    000004810909590000000481090959000000048109095900NPP     2023012806570420230731
20230127T2USUSD7M    000004838568030000000483856803000000048385680300NPP     2023012806570420230831
20230127T2USUSD8M    000004857080050000000485708005000000048570800500NPP     2023012806570420230929
20230127T2USUSD9M    000004859077730000000485907773000000048590777300NPP     2023012806570420231031
20230127T2USUSDON    000004288738890000000428873889000000042887388900NPP     2023012806570420230130
20230127T2USUSDSW    000004375134200000000437513420000000043751342000NPP     2023012806570420230207
20230127T2UIUSD1M    000004343299380000000434329938000000043432993800NPP     2023012806570420230224
20230127T2UIUSD1W    000003891605420000000389160542000000038916054200NPP     2023012806570420230203
20230127T2UIUSD1Y    000004214583680000000421458368000000042145836800NPP     2023012806570420240129
20230127T2UIUSD2M    000004361853390000000436185339000000043618533900NPP     2023012806570420230329
20230127T2UIUSD2W    000004026372230000000402637223000000040263722300NPP     2023012806570420230210
20230127T2UIUSD3M    000004417731230000000441773123000000044177312300NPP     2023012806570420230426
20230127T2UIUSD6M    000004583913520000000458391352000000045839135200NPP     2023012806570420230727
20230127T2UIUSD9M    000004649124270000000464912427000000046491242700NPP     2023012806570520231027
20230127T2UIUSDON    000003893691060000000389369106000000038936910600NPP     2023012806570520230128
20230127T2COCOF10Y   000011844126050000001184412605000000118441260500NPP     2023012806570520330131
20230127T2COCOF12Y   000012840905920000001284090592000000128409059200NPP     2023012806570520350131
20230127T2COCOF15Y   000015291422800000001529142280000000152914228000NPP     2023012806570520380129
20230127T2COCOF18M   000013197743630000001319774363000000131977436300NPP     2023012806570520240729
20230127T2COCOF20Y   000020451368320000002045136832000000204513683200NPP     2023012806570520430130
20230127T2COCOF25Y   000025942583140000002594258314000000259425831400NPP     2023012806570520480131
20230127T2COCOF2Y    000010588421090000001058842109000000105884210900NPP     2023012806570620250131
20230127T2COCOF3Y    000009939361450000000993936145000000099393614500NPP     2023012806570620260130
20230127T2COCOF4Y    000009819985620000000981998562000000098199856200NPP     2023012806570620270129
20230127T2COCOF5Y    000009811900510000000981190051000000098119005100NPP     2023012806570620280131
20230127T2COCOF6Y    000010148518610000001014851861000000101485186100NPP     2023012806570620290131
20230127T2COCOF7Y    000010401476080000001040147608000000104014760800NPP     2023012806570620300131
20230127T2COCOF8Y    000010872754480000001087275448000000108727544800NPP     2023012806570620310131
20230127T2COCOF9Y    000011233083480000001123308348000000112330834800NPP     2023012806570620320130
20230127T2DTCOP10Y   000015441669850000001544166985000000154416698500NPP     2023012806570620330131
20230127T2DTCOP2Y    000012102982090000001210298209000000121029820900NPP     2023012806570620250131
20230127T2DTCOP3Y    000011829450290000001182945029000000118294502900NPP     2023012806570620260130
20230127T2DTCOP4Y    000011909823660000001190982366000000119098236600NPP     2023012806570620270129
20230127T2DTCOP5Y    000012108857440000001210885744000000121088574400NPP     2023012806570620280131
20230127T2DTCOP6Y    000012607564000000001260756400000000126075640000NPP     2023012806570620290131
20230127T2DTCOP7Y    000013149470690000001314947069000000131494706900NPP     2023012806570620300131
20230127T2DTCOP8Y    000013810546970000001381054697000000138105469700NPP     2023012806570720310131
20230127T2DTCOP9Y    000014562700940000001456270094000000145627009400NPP     2023012806570720320130
20230127T2ESUSD10M   000003080500520000000308050052000000030805005200NPP     2023012806570720231130
20230127T2ESUSD10Y   000002881561900000000288156190000000028815619000NPP     2023012806570720330131
20230127T2ESUSD11M   000003105500470000000310550047000000031055004700NPP     2023012806570720231229
20230127T2ESUSD12Y   000003007074570000000300707457000000030070745700NPP     2023012806570720350131
20230127T2ESUSD15Y   000003149399950000000314939995000000031493999500NPP     2023012806570720380129
20230127T2ESUSD18M   000003100000290000000310000029000000031000002900NPP     2023012806570720240731
20230127T2ESUSD1M    000002259005460000000225900546000000022590054600NPP     2023012806570720230228
20230127T2ESUSD1W    000001903771830000000190377183000000019037718300NPP     2023012806570720230207
20230127T2ESUSD1Y    000003126750430000000312675043000000031267504300NPP     2023012806570720240131
20230127T2ESUSD20Y   000003172428890000000317242889000000031724288900NPP     2023012806570720430130
20230127T2ESUSD25Y   000003098864990000000309886499000000030988649900NPP     2023012806570720480131
20230127T2ESUSD2M    000002401502600000000240150260000000024015026000NPP     2023012806570720230331
20230127T2ESUSD2W    000002116610920000000211661092000000021166109200NPP     2023012806570720230214
20230127T2ESUSD2Y    000003049195030000000304919503000000030491950300NPP     2023012806570720250131
20230127T2ESUSD3M    000002545751770000000254575177000000025457517700NPP     2023012806570720230428
20230127T2ESUSD3Y    000002888225300000000288822530000000028882253000NPP     2023012806570720260130
20230127T2ESUSD4M    000002680001280000000268000128000000026800012800NPP     2023012806570720230531
20230127T2ESUSD4Y    000002792927640000000279292764000000027929276400NPP     2023012806570720270129
20230127T2ESUSD5M    000002783501030000000278350103000000027835010300NPP     2023012806570720230630
20230127T2ESUSD5Y    000002753253360000000275325336000000027532533600NPP     2023012806570720280131
20230127T2ESUSD6M    000002874500850000000287450085000000028745008500NPP     2023012806570720230731
20230127T2ESUSD7M    000002948500740000000294850074000000029485007400NPP     2023012806570720230831
20230127T2ESUSD7Y    000002747032550000000274703255000000027470325500NPP     2023012806570720300131
20230127T2ESUSD8M    000003001650640000000300165064000000030016506400NPP     2023012806570720230929
20230127T2ESUSD9M    000003048500570000000304850057000000030485005700NPP     2023012806570720231031
20230127T2ESUSDON    000001903974540000000190397454000000019039745400NPP     2023012806570720230130
20230127T2IMEUC15M   000002896135260000000289613526000000028961352600NPP     20230128065707        
20230127T2IMEUC18M   000002890225890000000289022589000000028902258900NPP     20230128065707        
20230127T2IMEUC21M   000002857167590000000285716759000000028571675900NPP     20230128065707        
20230127T2IMEUC2Y    000002804256350000000280425635000000028042563500NPP     20230128065707        
20230127T2IMEUC3Y    000002639097590000000263909759000000026390975900NPP     20230128065707        
20230127T2IMEUC4Y    000002535022060000000253502206000000025350220600NPP     20230128065707        
20230127T2IMEUC5Y    000002487941540000000248794154000000024879415400NPP     20230128065707        
20230127T2FFUSD10M   000004875050670000000487505067000000048750506700NPP     2023012806570720231130
20230127T2FFUSD10Y   000003691438710000000369143871000000036914387100NPP     2023012806570820330131
20230127T2FFUSD11M   000004863372900000000486337290000000048633729000NPP     2023012806570820231229
20230127T2FFUSD12Y   000003801321580000000380132158000000038013215800NPP     2023012806570820350131
20230127T2FFUSD15Y   000004014397360000000401439736000000040143973600NPP     2023012806570820380129
20230127T2FFUSD1M    000004583243470000000458324347000000045832434700NPP     2023012806570820230228
20230127T2FFUSD1W    000004543807010000000454380701000000045438070100NPP     2023012806570820230207
20230127T2FFUSD1Y    000004844003560000000484400356000000048440035600NPP     2023012806570820240131
20230127T2FFUSD20Y   000004298109210000000429810921000000042981092100NPP     2023012806570820430130
20230127T2FFUSD25Y   000004345608390000000434560839000000043456083900NPP     2023012806570820480131
20230127T2FFUSD2M    000004627825570000000462782557000000046278255700NPP     2023012806570820230331
20230127T2FFUSD2W    000004568842050000000456884205000000045688420500NPP     2023012806570820230214
20230127T2FFUSD2Y    000004298957710000000429895771000000042989577100NPP     2023012806570820250131
20230127T2FFUSD3M    000004695590290000000469559029000000046955902900NPP     2023012806570820230428
20230127T2FFUSD3W    000004578008990000000457800899000000045780089900NPP     2023012806570820230221
20230127T2FFUSD3Y    000003903540390000000390354039000000039035403900NPP     2023012806570820260130
20230127T2FFUSD4M    000004764490620000000476449062000000047644906200NPP     2023012806570820230531
20230127T2FFUSD4Y    000003709241000000000370924100000000037092410000NPP     2023012806570820270129
20230127T2FFUSD5M    000004810239280000000481023928000000048102392800NPP     2023012806570820230630
20230127T2FFUSD5Y    000003615806620000000361580662000000036158066200NPP     2023012806570820280131
20230127T2FFUSD6M    000004844820080000000484482008000000048448200800NPP     2023012806570820230731
20230127T2FFUSD7M    000004864147580000000486414758000000048641475800NPP     2023012806570820230831
20230127T2FFUSD7Y    000003577497240000000357749724000000035774972400NPP     2023012806570820300131
20230127T2FFUSD8M    000004876798050000000487679805000000048767980500NPP     2023012806570820230929
20230127T2FFUSD9M    000004882124130000000488212413000000048821241300NPP     2023012806570820231031
20230127T2FFUSDON    000004298503330000000429850333000000042985033300NPP     2023012806570820230130
20230127T2GBGBP15M   000004125728640000000412572864000000041257286400NPP     2023012806570820240430
20230127T2GBGBP18M   000004070099460000000407009946000000040700994600NPP     2023012806570820240731
20230127T2GBGBP21M   000003998409930000000399840993000000039984099300NPP     2023012806570820241031
20230127T2GBGBP2Y    000003921068930000000392106893000000039210689300NPP     2023012806570820250131
20230127T2GBGBP3Y    000003741388840000000374138884000000037413888400NPP     2023012806570920260130
20230127T2GBGBP4Y    000003667864420000000366786442000000036678644200NPP     2023012806570920270129
20230127T2GBGBP5Y    000003613205820000000361320582000000036132058200NPP     2023012806570920280131
20230127T2BLUSD10Y   000002593843700000000259384370000000025938437000NPP     2023012806570920330131
20230127T2BLUSD2Y    000003457240080000000345724008000000034572400800NPP     2023012806570920250131
20230127T2BLUSD3Y    000002815981650000000281598165000000028159816500NPP     2023012806570920260130
20230127T2BLUSD4Y    000002579724560000000257972456000000025797245600NPP     2023012806570920270129
20230127T2BLUSD5Y    000002462420720000000246242072000000024624207200NPP     2023012806570920280131
20230127T2BLUSD6Y    000002468409540000000246840954000000024684095400NPP     2023012806570920290131
20230127T2BLUSD7Y    000002441082700000000244108270000000024410827000NPP     2023012806570920300131
20230127T2BLUSD8Y    000002512722170000000251272217000000025127221700NPP     2023012806570920310131
20230127T2BLUSD9Y    000002530634850000000253063485000000025306348500NPP     2023012806570920320130
20230127T2IBCOP10Y   000015613631180000001561363118000000156136311800NPP     2023012806570920330131
20230127T2IBCOP12Y   000017196539500000001719653950000000171965395000NPP     2023012806570920350131
20230127T2IBCOP15Y   000020102396570000002010239657000000201023965700NPP     2023012806570920380129
20230127T2IBCOP18M   000012292500000000001229250000000000122925000000NPP     2023012806570920240731
20230127T2IBCOP20Y   000024862197020000002486219702000000248621970200NPP     2023012806570920430130
20230127T2IBCOP2Y    000012012860550000001201286055000000120128605500NPP     2023012806570920250131
20230127T2IBCOP3Y    000011801474180000001180147418000000118014741800NPP     2023012806570920260130
20230127T2IBCOP4Y    000011907550000000001190755000000000119075500000NPP     2023012806570920270129
20230127T2IBCOP5Y    000012141974570000001214197457000000121419745700NPP     2023012806570920280131
20230127T2IBCOP6Y    000012665457370000001266545737000000126654573700NPP     2023012806570920290131
20230127T2IBCOP7Y    000013213494630000001321349463000000132134946300NPP     2023012806570920300131
20230127T2IBCOP8Y    000013897869200000001389786920000000138978692000NPP     2023012806570920310131
20230127T2IBCOP9Y    000014678921010000001467892101000000146789210100NPP     2023012806571020320130
20230127T2ECEUR10Y   000001595704210000000159570421000000015957042100NPP     2023012806571020330131
20230127T2ECEUR12Y   000001755295700000000175529570000000017552957000NPP     2023012806571020350131
20230127T2ECEUR2Y    000002098802190000000209880219000000020988021900NPP     2023012806571020250131
20230127T2ECEUR3Y    000001685449630000000168544963000000016854496300NPP     2023012806571020260130
20230127T2ECEUR4Y    000001526783440000000152678344000000015267834400NPP     2023012806571020270129
20230127T2ECEUR5Y    000001450576640000000145057664000000014505766400NPP     2023012806571020280131
20230127T2ECEUR6Y    000001489098450000000148909845000000014890984500NPP     2023012806571020290131
20230127T2ECEUR7Y    000001463319310000000146331931000000014633193100NPP     2023012806571020300131
20230127T2ECEUR8Y    000001535675840000000153567584000000015356758400NPP     2023012806571020310131
20230127T2ECEUR9Y    000001554254670000000155425467000000015542546700NPP     2023012806571020320130
202301272L12USD10Y   000004665928680000000466592868000000046659286800NPP     2023012806571520330131
202301272L12USD12Y   000004841873250000000484187325000000048418732500NPP     2023012806571520350131
202301272L12USD15Y   000005096142320000000509614232000000050961423200NPP     2023012806571520380129
202301272L12USD20Y   000005617608410000000561760841000000056176084100NPP     2023012806571520430130
202301272L12USD25Y   000005973625810000000597362581000000059736258100NPP     2023012806571520480131
202301272L12USD2Y    000004943557080000000494355708000000049435570800NPP     2023012806571520250131
202301272L12USD30Y   000006025915310000000602591531000000060259153100NPP     2023012806571520530131
202301272L12USD3Y    000004652255400000000465225540000000046522554000NPP     2023012806571520260130
202301272L12USD4Y    000004484114810000000448411481000000044841148100NPP     2023012806571520270129
202301272L12USD5Y    000004405853650000000440585365000000044058536500NPP     2023012806571520280131
202301272L12USD7Y    000004418860730000000441886073000000044188607300NPP     2023012806571520300131
20230127T2L1USD10Y   000003856641290000000385664129000000038566412900NPP     2023012806571520330131
20230127T2L1USD12Y   000003995442240000000399544224000000039954422400NPP     2023012806571520350131
20230127T2L1USD15Y   000004225024440000000422502444000000042250244400NPP     2023012806571520380129
20230127T2L1USD20Y   000004552715250000000455271525000000045527152500NPP     2023012806571520430130
20230127T2L1USD25Y   000004694101320000000469410132000000046941013200NPP     2023012806571520480131
20230127T2L1USD2Y    000004424085330000000442408533000000044240853300NPP     2023012806571520250131
20230127T2L1USD30Y   000004782428610000000478242861000000047824286100NPP     2023012806571520530131
20230127T2L1USD3Y    000004030643720000000403064372000000040306437200NPP     2023012806571520260130
20230127T2L1USD4Y    000003859275880000000385927588000000038592758800NPP     2023012806571520270129
20230127T2L1USD5Y    000003769609700000000376960970000000037696097000NPP     2023012806571520280131
20230127T2L1USD7Y    000003727672740000000372767274000000037276727400NPP     2023012806571520300131
20230127T2L3USD10Y   000004056570590000000405657059000000040565705900NPP     2023012806571520330131
20230127T2L3USD11Y   000004133598060000000413359806000000041335980600NPP     2023012806571520340131
20230127T2L3USD12Y   000004211040760000000421104076000000042110407600NPP     2023012806571520350131
20230127T2L3USD13Y   000004294170920000000429417092000000042941709200NPP     2023012806571520360131
20230127T2L3USD14Y   000004377172430000000437717243000000043771724300NPP     2023012806571520370130
20230127T2L3USD15Y   000004463812650000000446381265000000044638126500NPP     2023012806571520380129
20230127T2L3USD20Y   000004833670840000000483367084000000048336708400NPP     2023012806571520430130
20230127T2L3USD25Y   000005014356220000000501435622000000050143562200NPP     2023012806571520480131
20230127T2L3USD2Y    000004562906010000000456290601000000045629060100NPP     2023012806571620250131
20230127T2L3USD30Y   000005144336480000000514433648000000051443364800NPP     2023012806571620530131
20230127T2L3USD3Y    000004181544780000000418154478000000041815447800NPP     2023012806571620260130
20230127T2L3USD4Y    000004015955530000000401595553000000040159555300NPP     2023012806571620270129
20230127T2L3USD5Y    000003933622910000000393362291000000039336229100NPP     2023012806571620280131
20230127T2L3USD6Y    000003903121660000000390312166000000039031216600NPP     2023012806571620290131
20230127T2L3USD7Y    000003905862990000000390586299000000039058629900NPP     2023012806571620300131
20230127T2L3USD8Y    000003943118970000000394311897000000039431189700NPP     2023012806571620310131
20230127T2L3USD9Y    000003988663310000000398866331000000039886633100NPP     2023012806571620320130
20230127T2L6USD10Y   000004289173150000000428917315000000042891731500NPP     2023012806571620330131
20230127T2L6USD12Y   000004463031540000000446303154000000044630315400NPP     2023012806571620350131
20230127T2L6USD15Y   000004744244200000000474424420000000047442442000NPP     2023012806571620380129
20230127T2L6USD20Y   000005166201760000000516620176000000051662017600NPP     2023012806571620430130
20230127T2L6USD25Y   000005397399280000000539739928000000053973992800NPP     2023012806571620480131
20230127T2L6USD2Y    000004733187790000000473318779000000047331877900NPP     2023012806571620250131
20230127T2L6USD30Y   000005579731030000000557973103000000055797310300NPP     2023012806571620530131
20230127T2L6USD3Y    000004362223030000000436222303000000043622230300NPP     2023012806571620260130
20230127T2L6USD4Y    000004204166610000000420416661000000042041666100NPP     2023012806571620270129
20230127T2L6USD5Y    000004129671070000000412967107000000041296710700NPP     2023012806571620280131
20230127T2L6USD7Y    000004116465070000000411646507000000041164650700NPP     2023012806571620300131
20230127T2UVV1 102M  000002398037260000000239803726000000023980372600NPP     2023012806571620240726
20230127T2UVV1 10Y   000002743035550000000274303555000000027430355500NPP     2023012806571620260126
20230127T2UVV1 114M  000002614646550000000261464655000000026146465500NPP     2023012806571620250728
20230127T2UVV1 18M   000000341230960000000034123096000000003412309600NPP     2023012806571620170724
20230127T2UVV1 2Y    000000706674910000000070667491000000007066749100NPP     2023012806571620180126
20230127T2UVV1 30M   000000859459010000000085945901000000008594590100NPP     2023012806571620180726
20230127T2UVV1 3Y    000001018933430000000101893343000000010189334300NPP     2023012806571620190128
20230127T2UVV1 42M   000001160940700000000116094070000000011609407000NPP     2023012806571620190726
20230127T2UVV1 4Y    000001310739080000000131073908000000013107390800NPP     2023012806571620200127
20230127T2UVV1 54M   000001450238580000000145023858000000014502385800NPP     2023012806571620200727
20230127T2UVV1 5Y    000001594079940000000159407994000000015940799400NPP     2023012806571620210126
20230127T2UVV1 66M   000001740343880000000174034388000000017403438800NPP     2023012806571620210726
20230127T2UVV1 6Y    000001893563280000000189356328000000018935632800NPP     2023012806571620220126
20230127T2UVV1 78M   000002007176010000000200717601000000020071760100NPP     2023012806571620220726
20230127T2UVV1 7Y    000002126266100000000212626610000000021262661000NPP     2023012806571620230126
20230127T2UVV1 8Y    000002309425160000000230942516000000023094251600NPP     2023012806571620240126
20230127T2UVV1 90M   000002215695750000000221569575000000022156957500NPP     2023012806571620230726
20230127T2UVV1 9Y    000002491032660000000249103266000000024910326600NPP     2023012806571620250127
20230127T2SOUSD10M   000004861151390000000486115139000000048611513900NPP     2023012806571620231130
20230127T2SOUSD10Y   000003701826100000000370182610000000037018261000NPP     2023012806571720330131
20230127T2SOUSD11M   000004856679570000000485667957000000048566795700NPP     2023012806571720231229
20230127T2SOUSD12Y   000003806570510000000380657051000000038065705100NPP     2023012806571720350131
20230127T2SOUSD15Y   000004032094380000000403209438000000040320943800NPP     2023012806571720380129
20230127T2SOUSD1M    000004486083760000000448608376000000044860837600NPP     2023012806571720230228
20230127T2SOUSD1Y    000004835028010000000483502801000000048350280100NPP     2023012806571720240131
20230127T2SOUSD20Y   000004343869390000000434386939000000043438693900NPP     2023012806571720430130
20230127T2SOUSD25Y   000004376998040000000437699804000000043769980400NPP     2023012806571720480131
20230127T2SOUSD2M    000004600937700000000460093770000000046009377000NPP     2023012806571720230331
20230127T2SOUSD2W    000004409705440000000440970544000000044097054400NPP     2023012806571720230214
20230127T2SOUSD2Y    000004303963210000000430396321000000043039632100NPP     2023012806571720250131
20230127T2SOUSD3M    000004659328280000000465932828000000046593282800NPP     2023012806571720230428
20230127T2SOUSD3W    000004447492600000000444749260000000044474926000NPP     2023012806571720230221
20230127T2SOUSD3Y    000003909037050000000390903705000000039090370500NPP     2023012806571720260130
20230127T2SOUSD4M    000004730285990000000473028599000000047302859900NPP     2023012806571720230531
20230127T2SOUSD4Y    000003714632760000000371463276000000037146327600NPP     2023012806571720270129
20230127T2SOUSD5M    000004783711810000000478371181000000047837118100NPP     2023012806571720230630
20230127T2SOUSD5Y    000003621508620000000362150862000000036215086200NPP     2023012806571720280131
20230127T2SOUSD6M    000004810909590000000481090959000000048109095900NPP     2023012806571720230731
20230127T2SOUSD7M    000004838568030000000483856803000000048385680300NPP     2023012806571720230831
20230127T2SOUSD7Y    000003583578410000000358357841000000035835784100NPP     2023012806571720300131
20230127T2SOUSD8M    000004857080050000000485708005000000048570800500NPP     2023012806571720230929
20230127T2SOUSD9M    000004859077730000000485907773000000048590777300NPP     2023012806571720231031
20230127T2SOUSDON    000004288738890000000428873889000000042887388900NPP     2023012806571720230130
20230127T2SOUSDSW    000004375134200000000437513420000000043751342000NPP     2023012806571720230207
20230127T2IUUVR10Y   000004238128440000000423812844000000042381284400NPP     2023012806571720330131
20230127T2IUUVR15Y   000004748142600000000474814260000000047481426000NPP     2023012806571720380129
20230127T2IUUVR2Y    000002604508270000000260450827000000026045082700NPP     2023012806571820250131
20230127T2IUUVR3Y    000003077858960000000307785896000000030778589600NPP     2023012806571820260130
20230127T2IUUVR4Y    000003522084650000000352208465000000035220846500NPP     2023012806571820270129
20230127T2IUUVR5Y    000003648661760000000364866176000000036486617600NPP     2023012806571820280131
20230127T2IUUVR6Y    000003907566200000000390756620000000039075662000NPP     2023012806571820290131
20230127T2IUUVR7Y    000004072135960000000407213596000000040721359600NPP     2023012806571820300131
20230127T2IUUVR8Y    000004202654660000000420265466000000042026546600NPP     2023012806571820310131
20230127T2IUUVR9Y    000004680400170000000468040017000000046804001700NPP     2023012806571820320130
20230127T2USUSD10Y   000003701826100000000370182610000000037018261000NPP     2023012806571820330131
20230127T2USUSD12Y   000003806570510000000380657051000000038065705100NPP     2023012806571820350131
20230127T2USUSD15Y   000004032094380000000403209438000000040320943800NPP     2023012806571820380129
20230127T2USUSD20Y   000004343869390000000434386939000000043438693900NPP     2023012806571820430130
20230127T2USUSD25Y   000004376998040000000437699804000000043769980400NPP     2023012806571820480131
20230127T2USUSD2Y    000004303963210000000430396321000000043039632100NPP     2023012806571820250131
20230127T2USUSD3Y    000003909037050000000390903705000000039090370500NPP     2023012806571820260130
20230127T2USUSD4Y    000003714632760000000371463276000000037146327600NPP     2023012806571820270129
20230127T2USUSD5Y    000003621508620000000362150862000000036215086200NPP     2023012806571820280131
20230127T2USUSD7Y    000003583578410000000358357841000000035835784100NPP     2023012806571820300131
20230127T2UIUSD10Y   000002593843700000000259384370000000025938437000NPP     2023012806571820330131
20230127T2UIUSD12Y   000002756154510000000275615451000000027561545100NPP     2023012806571820350131
20230127T2UIUSD15Y   000003144238530000000314423853000000031442385300NPP     2023012806571820380129
20230127T2UIUSD18M   000003809342590000000380934259000000038093425900NPP     2023012806571920240729
20230127T2UIUSD20Y   000003749593980000000374959398000000037495939800NPP     2023012806571920430130
20230127T2UIUSD25Y   000003843226390000000384322639000000038432263900NPP     2023012806571920480131
20230127T2UIUSD2Y    000003457240080000000345724008000000034572400800NPP     2023012806571920250131
20230127T2UIUSD3Y    000002815981650000000281598165000000028159816500NPP     2023012806571920260130
20230127T2UIUSD4Y    000002579724560000000257972456000000025797245600NPP     2023012806571920270129
20230127T2UIUSD5Y    000002462420720000000246242072000000024624207200NPP     2023012806571920280131
20230127T2UIUSD6Y    000002468409540000000246840954000000024684095400NPP     2023012806571920290131
20230127T2UIUSD7Y    000002441082700000000244108270000000024410827000NPP     2023012806571920300131
20230127T2UIUSD8Y    000002512722170000000251272217000000025127221700NPP     2023012806571920310131
20230127T2UIUSD9Y    000002530634850000000253063485000000025306348500NPP     2023012806571920320130
20230127CPFFUSD001   000004310000000000000431000000000000043100000000NPP     20230127091243        
20230127CPFFUSD002   000004310000000000000431000000000000043100000000NPP     20230127091243        
20230127CPFFUSD003   000004306670000000000430667000000000043066700000NPP     20230127091243        
20230127CPFFUSD004   000004305000000000000430500000000000043050000000NPP     20230127091243        
20230127CPFFUSD005   000004304000000000000430400000000000043040000000NPP     20230127091243        
20230127CPFFUSD006   000004303330000000000430333000000000043033300000NPP     20230127091243        
20230127CPFFUSD007   000004302860000000000430286000000000043028600000NPP     20230127091243        
20230127CPFFUSD008   000004303750000000000430375000000000043037500000NPP     20230127091243        
20230127CPFFUSD009   000004303330000000000430333000000000043033300000NPP     20230127091243        
20230127CPFFUSD010   000004304000000000000430400000000000043040000000NPP     20230127091243        
20230127CPFFUSD011   000004303640000000000430364000000000043036400000NPP     20230127091243        
20230127CPFFUSD012   000004303330000000000430333000000000043033300000NPP     20230127091243        
20230127CPFFUSD013   000004303080000000000430308000000000043030800000NPP     20230127091243        
20230127CPFFUSD014   000004302860000000000430286000000000043028600000NPP     20230127091243        
20230127CPFFUSD015   000004302670000000000430267000000000043026700000NPP     20230127091243        
20230127CPFFUSD016   000004302500000000000430250000000000043025000000NPP     20230127091243        
20230127CPFFUSD017   000004302940000000000430294000000000043029400000NPP     20230127091243        
20230127CPFFUSD018   000004303330000000000430333000000000043033300000NPP     20230127091243        
20230127CPFFUSD019   000004303680000000000430368000000000043036800000NPP     20230127091243        
20230127CPFFUSD020   000004304000000000000430400000000000043040000000NPP     20230127091243        
20230127CPFFUSD021   000004304290000000000430429000000000043042900000NPP     20230127091243        
20230127CPFFUSD022   000004304550000000000430455000000000043045500000NPP     20230127091243        
20230127CPFFUSD023   000004304350000000000430435000000000043043500000NPP     20230127091243        
20230127CPFFUSD024   000004304580000000000430458000000000043045800000NPP     20230127091243        
20230127CPFFUSD025   000004304400000000000430440000000000043044000000NPP     20230127091243        
20230127CPFFUSD026   000004304230000000000430423000000000043042300000NPP     20230127091243        
20230127CPFFUSD027   000004304070000000000430407000000000043040700000NPP     20230127091243        
20230127CPFFUSD028   000004303930000000000430393000000000043039300000NPP     20230127091243        
20230127CPFFUSD029   000004303790000000000430379000000000043037900000NPP     20230127091243        
20230127CPFFUSD030   000004303670000000000430367000000000043036700000NPP     20230127091243        
20230127CPFFUSD031   000004303550000000000430355000000000043035500000NPP     20230127091243        
20230127CPFFUSD032   000004303440000000000430344000000000043034400000NPP     20230127091243        
20230127CPFFUSD033   000004303330000000000430333000000000043033300000NPP     20230127091243        
20230127CPFFUSD034   000004303240000000000430324000000000043032400000NPP     20230127091243        
20230127CPFFUSD035   000004303140000000000430314000000000043031400000NPP     20230127091243        
20230127CPFFUSD036   000004303060000000000430306000000000043030600000NPP     20230127091243        
20230127CPFFUSD037   000004302970000000000430297000000000043029700000NPP     20230127091243        
20230127CPFFUSD038   000004302890000000000430289000000000043028900000NPP     20230127091243        
20230127CPFFUSD039   000004302820000000000430282000000000043028200000NPP     20230127091243        
20230127CPFFUSD040   000004303250000000000430325000000000043032500000NPP     20230127091243        
