20230126DEPOB121M    000016248700000000001624870000000000162487000000NPP     20230127065709        
20230126DEPOB121Y    000019699300000000001969930000000000196993000000NPP     20230127065709        
20230126DEPOB122M    000017035800000000001703580000000000170358000000NPP     20230127065709        
20230126DEPOB122W    000015727300000000001572730000000000157273000000NPP     20230127065709        
20230126DEPOB122Y    000019926000000000001992600000000000199260000000NPP     20230127065709        
20230126DEPOB123M    000017693100000000001769310000000000176931000000NPP     20230127065709        
20230126DEPOB123Y    000019951800000000001995180000000000199518000000NPP     20230127065709        
20230126DEPOB124Y    000019963000000000001996300000000000199630000000NPP     20230127065709        
20230126DEPOB125Y    000019970000000000001997000000000000199700000000NPP     20230127065709        
20230126DEPOB126M    000018880200000000001888020000000000188802000000NPP     20230127065709        
20230126DEPOB129M    000019439500000000001943950000000000194395000000NPP     20230127065709        
20230126DEPOB12ON    000015250700000000001525070000000000152507000000NPP     20230127065709        
20230126DEPOB12SW    000015477000000000001547700000000000154770000000NPP     20230127065709        
20230126DEPOB12TN    000015327400000000001532740000000000153274000000NPP     20230127065709        
20230126DEPOCOF1M    000011851915500000001185191550000000118519155000NPP     2023012706570920230224
20230126DEPOCOF1Y    000013099871600000001309987160000000130998716000NPP     2023012706570920240126
20230126DEPOCOF2M    000012214687850000001221468785000000122146878500NPP     2023012706570920230328
20230126DEPOCOF2W    000011714796760000001171479676000000117147967600NPP     2023012706570920230209
20230126DEPOCOF3M    000012323598450000001232359845000000123235984500NPP     2023012706570920230426
20230126DEPOCOF6M    000012603431600000001260343160000000126034316000NPP     2023012706570920230727
20230126DEPOCOF9M    000012851502720000001285150272000000128515027200NPP     2023012706570920231026
20230126DEPOCOFON    000011619309910000001161930991000000116193099100NPP     2023012706570920230127
20230126DEPOCOFSW    000011666824960000001166682496000000116668249600NPP     2023012706570920230202
20230126DTFPCOP1Y    000013408967560000001340896756000000134089675600NPP     2023012706570920240130
20230126DTFPCOP3M    000013243545690000001324354569000000132435456900NPP     2023012706570920230428
20230126DTFPCOP6M    000012873925310000001287392531000000128739253100NPP     2023012706570920230731
20230126DTFPCOP9M    000012918395050000001291839505000000129183950500NPP     2023012706570920231030
20230126DTFPCOPON    000013550000000000001355000000000000135500000000NPP     2023012706570920230127
20230126DEPOEUC10M   000002922645590000000292264559000000029226455900NPP     2023012706570920231130
20230126DEPOEUC11M   000002942022950000000294202295000000029420229500NPP     2023012706570920231229
20230126DEPOEUC1D    000001416999490000000141699949000000014169994900NPP     2023012706570920230127
20230126DEPOEUC1M    000002221120140000000222112014000000022211201400NPP     2023012706570920230228
20230126DEPOEUC1Y    000002879463370000000287946337000000028794633700NPP     2023012706570920240130
20230126DEPOEUC2M    000002397049630000000239704963000000023970496300NPP     2023012706570920230330
20230126DEPOEUC2W    000002423510170000000242351017000000024235101700NPP     2023012706571020230213
20230126DEPOEUC3D    000002886692550000000288669255000000028866925500NPP     2023012706571020230131
20230126DEPOEUC3M    000002411908700000000241190870000000024119087000NPP     2023012706571020230428
20230126DEPOEUC3W    000002458880820000000245888082000000024588808200NPP     2023012706571020230221
20230126DEPOEUC4M    000002517688360000000251768836000000025176883600NPP     2023012706571020230530
20230126DEPOEUC5M    000002664681130000000266468113000000026646811300NPP     2023012706571020230630
20230126DEPOEUC6M    000002731715660000000273171566000000027317156600NPP     2023012706571020230731
20230126DEPOEUC7M    000002793711120000000279371112000000027937111200NPP     2023012706571020230830
20230126DEPOEUC8M    000002853863650000000285386365000000028538636500NPP     2023012706571020230929
20230126DEPOEUC9M    000002883437740000000288343774000000028834377400NPP     2023012706571020231030
20230126DEPOEUCSW    000002786065590000000278606559000000027860655900NPP     2023012706571020230206
20230126IMGBGBP10M   000004214663830000000421466383000000042146638300NPP     2023012706571020231130
20230126IMGBGBP11M   000004193952670000000419395267000000041939526700NPP     2023012706571020231229
20230126IMGBGBP1M    000003713835310000000371383531000000037138353100NPP     2023012706571020230228
20230126IMGBGBP1Y    000004155638800000000415563880000000041556388000NPP     2023012706571020240130
20230126IMGBGBP2M    000003837522620000000383752262000000038375226200NPP     2023012706571020230330
20230126IMGBGBP2W    000003730258140000000373025814000000037302581400NPP     2023012706571020230213
20230126IMGBGBP3M    000003871296550000000387129655000000038712965500NPP     2023012706571020230428
20230126IMGBGBP3W    000003775691710000000377569171000000037756917100NPP     2023012706571020230221
20230126IMGBGBP4M    000003959790100000000395979010000000039597901000NPP     2023012706571020230530
20230126IMGBGBP5M    000004053864660000000405386466000000040538646600NPP     2023012706571020230630
20230126IMGBGBP6M    000004098900920000000409890092000000040989009200NPP     2023012706571020230731
20230126IMGBGBP7M    000004143330490000000414333049000000041433304900NPP     2023012706571020230830
20230126IMGBGBP8M    000004167032720000000416703272000000041670327200NPP     2023012706571020230929
20230126IMGBGBP9M    000004176705710000000417670571000000041767057100NPP     2023012706571020231030
20230126IMGBGBPON    000002458787070000000245878707000000024587870700NPP     2023012706571020230127
20230126IMGBGBPSW    000003776934290000000377693429000000037769342900NPP     2023012706571020230206
20230126IBR COP1M    000011816551990000001181655199000000118165519900NPP     2023012706571020230228
20230126IBR COP1Y    000012505965810000001250596581000000125059658100NPP     2023012706571020240130
20230126IBR COP3M    000012069454530000001206945453000000120694545300NPP     2023012706571020230428
20230126IBR COP6M    000012315288940000001231528894000000123152889400NPP     2023012706571120230731
20230126IBR COP9M    000012545533930000001254553393000000125455339300NPP     2023012706571120231030
20230126IBR COPON    000011177000000000001117700000000000111770000000NPP     2023012706571120230127
20230126IPECEUR10M   000002520095230000000252009523000000025200952300NPP     2023012706571120231130
20230126IPECEUR11M   000002459350460000000245935046000000024593504600NPP     2023012706571120231229
20230126IPECEUR1M    000002115014240000000211501424000000021150142400NPP     2023012706571120230228
20230126IPECEUR1W    000002468679700000000246867970000000024686797000NPP     2023012706571120230206
20230126IPECEUR1Y    000002101358750000000210135875000000021013587500NPP     2023012706571120240130
20230126IPECEUR2M    000002124236220000000212423622000000021242362200NPP     2023012706571120230330
20230126IPECEUR2W    000002182587000000000218258700000000021825870000NPP     2023012706571120230213
20230126IPECEUR3M    000002156614220000000215661422000000021566142200NPP     2023012706571120230428
20230126IPECEUR3W    -000005131578100-000005131578100-000005131578100NPP     2023012706571120210518
20230126IPECEUR4M    000002232346560000000223234656000000022323465600NPP     2023012706571120230530
20230126IPECEUR5M    000002365972730000000236597273000000023659727300NPP     2023012706571120230630
20230126IPECEUR6M    000002443871330000000244387133000000024438713300NPP     2023012706571120230731
20230126IPECEUR7M    000002485803700000000248580370000000024858037000NPP     2023012706571120230830
20230126IPECEUR8M    000002542184460000000254218446000000025421844600NPP     2023012706571120230929
20230126IPECEUR9M    000002585533850000000258553385000000025855338500NPP     2023012706571120231030
20230126IPECEURON    000000974814880000000097481488000000009748148800NPP     2023012706571120230127
20230126L12MUSD1Y    000005292567950000000529256795000000052925679500NPP     2023012706571120240130
20230126L12MUSDON    000004304570000000000430457000000000043045700000NPP     2023012706571120230127
20230126L1M USD18M   000004695333788000000469533378800000046953337880NPP     2023012706571120240730
20230126L1M USD1M    000004519780672400000451978067240000045197806724NPP     2023012706571120230228
20230126L1M USD1Y    000004901297911600000490129791160000049012979116NPP     2023012706571120240130
20230126L1M USD3M    000004603971334700000460397133470000046039713347NPP     2023012706571120230428
20230126L1M USD6M    000004854585866400000485458586640000048545858664NPP     2023012706571120230731
20230126L1M USD9M    000004901661393600000490166139360000049016613936NPP     2023012706571120231030
20230126L1M USDON    000004304570000000000430457000000000043045700000NPP     2023012706571120230127
20230126L3M USD18M   000004820181265600000482018126560000048201812656NPP     2023012706571120240730
20230126L3M USD3M    000004681479972200000468147997220000046814799722NPP     2023012706571120230428
20230126L3M USD6M    000004919565606200000491956560620000049195656062NPP     2023012706571120230731
20230126L3M USD9M    000005006902510000000500690251000000050069025100NPP     2023012706571120231030
20230126L3M USDON    000004304570000000000430457000000000043045700000NPP     2023012706571120230127
20230126L6M USD18M   000004979722360000000497972236000000049797223600NPP     2023012706571120240730
20230126L6M USD1Y    000005174444930000000517444493000000051744449300NPP     2023012706571120240130
20230126L6M USD6M    000005087522600000000508752260000000050875226000NPP     2023012706571120230731
20230126L6M USDON    000004304570000000000430457000000000043045700000NPP     2023012706571120230127
20230126DEPOV1 1M    -000014533926800-000014533926800-000014533926800NPP     2023012706571120160224
20230126DEPOV1 1Y    000000178548050000000017854805000000001785480500NPP     2023012706571120170124
20230126DEPOV1 2M    -000012097852400-000012097852400-000012097852400NPP     2023012706571120160322
20230126DEPOV1 2W    -000015269419800-000015269419800-000015269419800NPP     2023012706571120160205
20230126DEPOV1 3M    -000010336581300-000010336581300-000010336581300NPP     2023012706571120160422
20230126DEPOV1 6M    -000005571508000-000005571508000-000005571508000NPP     2023012706571120160722
20230126DEPOV1 9M    -000002128617300-000002128617300-000002128617300NPP     2023012706571120161024
20230126DEPOV1 ON    -000017700000000-000017700000000-000017700000000NPP     2023012706571120160123
20230126DEPOV1 SW    -000017270021000-000017270021000-000017270021000NPP     2023012706571120160129
20230126IBL USD1M    000004339401490000000433940149000000043394014900NPP     2023012706571220230224
20230126IBL USD1W    000003971479990000000397147999000000039714799900NPP     2023012706571220230202
20230126IBL USD1Y    000004289133580000000428913358000000042891335800NPP     2023012706571220240126
20230126IBL USD2M    000004305898810000000430589881000000043058988100NPP     2023012706571220230328
20230126IBL USD2W    000004099681190000000409968119000000040996811900NPP     2023012706571220230209
20230126IBL USD3M    000004386746790000000438674679000000043867467900NPP     2023012706571220230426
20230126IBL USD6M    000004514405380000000451440538000000045144053800NPP     2023012706571220230727
20230126IBL USD9M    000004557732660000000455773266000000045577326600NPP     2023012706571220231026
20230126IBL USDON    000003867779860000000386777986000000038677798600NPP     2023012706571220230127
20230126IUV UVR18M   000001712236140000000171223614000000017122361400NPP     2023012706571220240730
20230126IUV UVR1M    -000058276784300-000058276784300-000058276784300NPP     2023012706571220230228
20230126IUV UVR1Y    000002099336590000000209933659000000020993365900NPP     2023012706571220240130
20230126IUV UVR3M    -000059405543100-000059405543100-000059405543100NPP     2023012706571220230428
20230126IUV UVR6M    -000013243182900-000013243182900-000013243182900NPP     2023012706571220230731
20230126IUV UVR9M    000000611521380000000061152138000000006115213800NPP     2023012706571220231030
20230126IUV UVRON    -000033625599300-000033625599300-000033625599300NPP     2023012706571220230127
20230126DEPOUSD10M   000004859331310000000485933131000000048593313100NPP     2023012706571220231130
20230126DEPOUSD11M   000004855312750000000485531275000000048553127500NPP     2023012706571220231229
20230126DEPOUSD1M    000004474603810000000447460381000000044746038100NPP     2023012706571220230228
20230126DEPOUSD1Y    000004834986630000000483498663000000048349866300NPP     2023012706571220240130
20230126DEPOUSD2M    000004584907940000000458490794000000045849079400NPP     2023012706571220230330
20230126DEPOUSD2W    000004397445780000000439744578000000043974457800NPP     2023012706571220230213
20230126DEPOUSD3M    000004648990380000000464899038000000046489903800NPP     2023012706571220230428
20230126DEPOUSD3W    000004438596730000000443859673000000044385967300NPP     2023012706571220230221
20230126DEPOUSD4M    000004719702040000000471970204000000047197020400NPP     2023012706571220230530
20230126DEPOUSD5M    000004776721570000000477672157000000047767215700NPP     2023012706571220230630
20230126DEPOUSD6M    000004805673020000000480567302000000048056730200NPP     2023012706571220230731
20230126DEPOUSD7M    000004833690550000000483369055000000048336905500NPP     2023012706571220230830
20230126DEPOUSD8M    000004854067000000000485406700000000048540670000NPP     2023012706571220230929
20230126DEPOUSD9M    000004856699160000000485669916000000048566991600NPP     2023012706571220231030
20230126DEPOUSDON    000004310000000000000431000000000000043100000000NPP     2023012706571220230127
20230126DEPOUSDSW    000004361438690000000436143869000000043614386900NPP     2023012706571220230206
20230126UIBRUSD1M    000004339401490000000433940149000000043394014900NPP     2023012706571220230224
20230126UIBRUSD1W    000003971479990000000397147999000000039714799900NPP     2023012706571220230202
20230126UIBRUSD1Y    000004289133580000000428913358000000042891335800NPP     2023012706571220240126
20230126UIBRUSD2M    000004305898810000000430589881000000043058988100NPP     2023012706571220230328
20230126UIBRUSD2W    000004099681190000000409968119000000040996811900NPP     2023012706571220230209
20230126UIBRUSD3M    000004386746790000000438674679000000043867467900NPP     2023012706571220230426
20230126UIBRUSD6M    000004514405380000000451440538000000045144053800NPP     2023012706571220230727
20230126UIBRUSD9M    000004557732660000000455773266000000045577326600NPP     2023012706571220231026
20230126UIBRUSDON    000003867779860000000386777986000000038677798600NPP     2023012706571220230127
20230126SRTMUSD1Y    000004830210000000000483021000000000048302100000NPP     20230126211211        
20230126DEPOCOF10Y   000011517251700000001151725170000000115172517000NPP     2023012706571320330131
20230126DEPOCOF12Y   000012755745570000001275574557000000127557455700NPP     2023012706571320350130
20230126DEPOCOF15Y   000015187389420000001518738942000000151873894200NPP     2023012706571320380129
20230126DEPOCOF18M   000013241297830000001324129783000000132412978300NPP     2023012706571320240726
20230126DEPOCOF20Y   000020316364360000002031636436000000203163643600NPP     2023012706571320430130
20230126DEPOCOF25Y   000025794137920000002579413792000000257941379200NPP     2023012706571320480130
20230126DEPOCOF2Y    000010573695650000001057369565000000105736956500NPP     2023012706571320250130
20230126DEPOCOF3Y    000010075675480000001007567548000000100756754800NPP     2023012706571320260130
20230126DEPOCOF4Y    000009944074530000000994407453000000099440745300NPP     2023012706571320270129
20230126DEPOCOF5Y    000009774833050000000977483305000000097748330500NPP     2023012706571320280131
20230126DEPOCOF6Y    000010092314520000001009231452000000100923145200NPP     2023012706571320290130
20230126DEPOCOF7Y    000010346295900000001034629590000000103462959000NPP     2023012706571320300130
20230126DEPOCOF8Y    000010778636920000001077863692000000107786369200NPP     2023012706571320310130
20230126DEPOCOF9Y    000011124443190000001112444319000000111244431900NPP     2023012706571320320130
20230126DTFPCOP10Y   000015020000420000001502000042000000150200004200NPP     2023012706571320330131
20230126DTFPCOP2Y    000012225182390000001222518239000000122251823900NPP     2023012706571320250130
20230126DTFPCOP3Y    000011930389120000001193038912000000119303891200NPP     2023012706571320260130
20230126DTFPCOP4Y    000011999756040000001199975604000000119997560400NPP     2023012706571320270129
20230126DTFPCOP5Y    000012035142320000001203514232000000120351423200NPP     2023012706571420280131
20230126DTFPCOP6Y    000012507650410000001250765041000000125076504100NPP     2023012706571420290130
20230126DTFPCOP7Y    000013019383370000001301938337000000130193833700NPP     2023012706571420300130
20230126DTFPCOP8Y    000013643157570000001364315757000000136431575700NPP     2023012706571420310130
20230126DTFPCOP9Y    000014384977280000001438497728000000143849772800NPP     2023012706571420320130
20230126ESTRUSD10M   000003054014930000000305401493000000030540149300NPP     2023012706571420231130
20230126ESTRUSD10Y   000002847216110000000284721611000000028472161100NPP     2023012706571420330131
20230126ESTRUSD11M   000003080025770000000308002577000000030800257700NPP     2023012706571420231229
20230126ESTRUSD12Y   000002974101420000000297410142000000029741014200NPP     2023012706571420350130
20230126ESTRUSD15Y   000003117202980000000311720298000000031172029800NPP     2023012706571420380129
20230126ESTRUSD18M   000003077569500000000307756950000000030775695000NPP     2023012706571420240730
20230126ESTRUSD1M    000002204281730000000220428173000000022042817300NPP     2023012706571420230228
20230126ESTRUSD1W    000001903394640000000190339464000000019033946400NPP     2023012706571420230206
20230126ESTRUSD1Y    000003101533080000000310153308000000031015330800NPP     2023012706571420240130
20230126ESTRUSD20Y   000003150980400000000315098040000000031509804000NPP     2023012706571420430130
20230126ESTRUSD25Y   000003081966060000000308196606000000030819660600NPP     2023012706571420480130
20230126ESTRUSD2M    000002355623790000000235562379000000023556237900NPP     2023012706571420230330
20230126ESTRUSD2W    000002041385230000000204138523000000020413852300NPP     2023012706571420230213
20230126ESTRUSD2Y    000003024303160000000302430316000000030243031600NPP     2023012706571420250130
20230126ESTRUSD3M    000002510940420000000251094042000000025109404200NPP     2023012706571420230428
20230126ESTRUSD3Y    000002859398020000000285939802000000028593980200NPP     2023012706571420260130
20230126ESTRUSD4M    000002643701560000000264370156000000026437015600NPP     2023012706571420230530
20230126ESTRUSD4Y    000002758451450000000275845145000000027584514500NPP     2023012706571420270129
20230126ESTRUSD5M    000002751676880000000275167688000000027516768800NPP     2023012706571420230630
20230126ESTRUSD5Y    000002716789210000000271678921000000027167892100NPP     2023012706571420280131
20230126ESTRUSD6M    000002844628830000000284462883000000028446288300NPP     2023012706571420230731
20230126ESTRUSD7M    000002917004250000000291700425000000029170042500NPP     2023012706571420230830
20230126ESTRUSD7Y    000002711773060000000271177306000000027117730600NPP     2023012706571420300130
20230126ESTRUSD8M    000002973452690000000297345269000000029734526900NPP     2023012706571420230929
20230126ESTRUSD9M    000003019790870000000301979087000000030197908700NPP     2023012706571420231030
20230126ESTRUSDON    000001904000000000000190400000000000019040000000NPP     2023012706571420230127
20230126FFE USD10M   000004869808970000000486980897000000048698089700NPP     2023012706571420231130
20230126FFE USD10Y   000003670377620000000367037762000000036703776200NPP     2023012706571420330131
20230126FFE USD11M   000004857606380000000485760638000000048576063800NPP     2023012706571420231229
20230126FFE USD12Y   000003783238070000000378323807000000037832380700NPP     2023012706571420350130
20230126FFE USD15Y   000004003426870000000400342687000000040034268700NPP     2023012706571420380129
20230126FFE USD1M    000004549576250000000454957625000000045495762500NPP     2023012706571420230228
20230126FFE USD1W    000004439686620000000443968662000000044396866200NPP     2023012706571420230206
20230126FFE USD1Y    000004839904640000000483990464000000048399046400NPP     2023012706571420240130
20230126FFE USD20Y   000004305762530000000430576253000000043057625300NPP     2023012706571420430130
20230126FFE USD25Y   000004363089520000000436308952000000043630895200NPP     2023012706571520480130
20230126FFE USD2M    000004606036240000000460603624000000046060362400NPP     2023012706571520230330
20230126FFE USD2W    000004501202940000000450120294000000045012029400NPP     2023012706571520230213
20230126FFE USD2Y    000004285664480000000428566448000000042856644800NPP     2023012706571520250130
20230126FFE USD3M    000004681399590000000468139959000000046813995900NPP     2023012706571520230428
20230126FFE USD3W    000004534092040000000453409204000000045340920400NPP     2023012706571520230221
20230126FFE USD3Y    000003886226530000000388622653000000038862265300NPP     2023012706571520260130
20230126FFE USD4M    000004750201250000000475020125000000047502012500NPP     2023012706571520230530
20230126FFE USD4Y    000003688776770000000368877677000000036887767700NPP     2023012706571520270129
20230126FFE USD5M    000004798985860000000479898586000000047989858600NPP     2023012706571520230630
20230126FFE USD5Y    000003594578140000000359457814000000035945781400NPP     2023012706571520280131
20230126FFE USD6M    000004834969570000000483496957000000048349695700NPP     2023012706571520230731
20230126FFE USD7M    000004855068400000000485506840000000048550684000NPP     2023012706571520230830
20230126FFE USD7Y    000003554671390000000355467139000000035546713900NPP     2023012706571520300130
20230126FFE USD8M    000004869991150000000486999115000000048699911500NPP     2023012706571520230929
20230126FFE USD9M    000004875460860000000487546086000000048754608600NPP     2023012706571520231030
20230126FFE USDON    000004330000000000000433000000000000043300000000NPP     2023012706571520230127
20230126IMGBGBP15M   000004123224070000000412322407000000041232240700NPP     2023012706571520240430
20230126IMGBGBP18M   000004067531210000000406753121000000040675312100NPP     2023012706571520240730
20230126IMGBGBP21M   000004000251990000000400025199000000040002519900NPP     2023012706571520241030
20230126IMGBGBP2Y    000003950620160000000395062016000000039506201600NPP     2023012706571520250130
20230126IMGBGBP3Y    000003732414290000000373241429000000037324142900NPP     2023012706571520260130
20230126IMGBGBP4Y    000003634046220000000363404622000000036340462200NPP     2023012706571520270129
20230126IMGBGBP5Y    000003583698900000000358369890000000035836989000NPP     2023012706571520280131
20230126IBL USD10Y   000002590973880000000259097388000000025909738800NPP     2023012706571520330131
20230126IBL USD2Y    000003348941190000000334894119000000033489411900NPP     2023012706571520250130
20230126IBL USD3Y    000002828776580000000282877658000000028287765800NPP     2023012706571520260130
20230126IBL USD4Y    000002583113450000000258311345000000025831134500NPP     2023012706571520270129
20230126IBL USD5Y    000002462313070000000246231307000000024623130700NPP     2023012706571520280131
20230126IBL USD6Y    000002467466510000000246746651000000024674665100NPP     2023012706571520290130
20230126IBL USD7Y    000002438948500000000243894850000000024389485000NPP     2023012706571520300130
20230126IBL USD8Y    000002510422130000000251042213000000025104221300NPP     2023012706571520310130
20230126IBL USD9Y    000002528686170000000252868617000000025286861700NPP     2023012706571520320130
20230126IBR COP10Y   000015155213940000001515521394000000151552139400NPP     2023012706571520330131
20230126IBR COP12Y   000016994343190000001699434319000000169943431900NPP     2023012706571520350130
20230126IBR COP15Y   000019842444200000001984244420000000198424442000NPP     2023012706571520380129
20230126IBR COP18M   000012396469490000001239646949000000123964694900NPP     2023012706571520240730
20230126IBR COP20Y   000024489450510000002448945051000000244894505100NPP     2023012706571520430130
20230126IBR COP2Y    000012126429150000001212642915000000121264291500NPP     2023012706571620250130
20230126IBR COP3Y    000011890979000000001189097900000000118909790000NPP     2023012706571620260130
20230126IBR COP4Y    000011996665680000001199666568000000119966656800NPP     2023012706571620270129
20230126IBR COP5Y    000012058784000000001205878400000000120587840000NPP     2023012706571620280131
20230126IBR COP6Y    000012556447150000001255644715000000125564471500NPP     2023012706571620290130
20230126IBR COP7Y    000013099502650000001309950265000000130995026500NPP     2023012706571620300130
20230126IBR COP8Y    000013733362650000001373336265000000137333626500NPP     2023012706571620310130
20230126IBR COP9Y    000014488013390000001448801339000000144880133900NPP     2023012706571620320130
20230126IPECEUR10Y   000001608114260000000160811426000000016081142600NPP     2023012706571620330131
20230126IPECEUR12Y   000001757389150000000175738915000000017573891500NPP     2023012706571620350130
20230126IPECEUR2Y    000001998573830000000199857383000000019985738300NPP     2023012706571620250130
20230126IPECEUR3Y    000001700971060000000170097106000000017009710600NPP     2023012706571620260130
20230126IPECEUR4Y    000001551056420000000155105642000000015510564200NPP     2023012706571620270129
20230126IPECEUR5Y    000001487902970000000148790297000000014879029700NPP     2023012706571620280131
20230126IPECEUR6Y    000001508067410000000150806741000000015080674100NPP     2023012706571620290130
20230126IPECEUR7Y    000001467135400000000146713540000000014671354000NPP     2023012706571620300130
20230126IPECEUR8Y    000001553703360000000155370336000000015537033600NPP     2023012706571620310130
20230126IPECEUR9Y    000001566050600000000156605060000000015660506000NPP     2023012706571620320130
20230126CPI COP100M  000200560023010400020056002301040002005600230104NPP     2023012706571620310530
20230126CPI COP101M  000201101535072600020110153507260002011015350726NPP     2023012706571620310627
20230126CPI COP102M  000201644509217300020164450921730002016445092173NPP     2023012706571620310730
20230126CPI COP103M  000202188949392200020218894939220002021889493922NPP     2023012706571620310829
20230126CPI COP104M  000202714640660600020271464066060002027146406606NPP     2023012706571620310930
20230126CPI COP105M  000203241698726300020324169872630002032416987263NPP     2023012706571620311030
20230126CPI COP106M  000203749802973100020374980297310002037498029731NPP     2023012706571620311128
20230126CPI COP107M  000204279552460800020427955246080002042795524608NPP     2023012706571620311230
20230126CPI COP108M  000205280522267900020528052226790002052805222679NPP     2023012706571620320130
20230126CPI COP109M  000206655901767100020665590176710002066559017671NPP     2023012706571620320227
20230126CPI COP10M   000137395242623900013739524262390001373952426239NPP     2023012706571620231130
20230126CPI COP110M  000208143824259800020814382425980002081438242598NPP     2023012706571620320330
20230126CPI COP111M  000209600831029600020960083102960002096008310296NPP     2023012706571620320430
20230126CPI COP112M  000211130917096200021113091709620002111309170962NPP     2023012706571620320528
20230126CPI COP113M  000212629946607500021262994660750002126299466075NPP     2023012706571620320630
20230126CPI COP114M  000214182145217800021418214521780002141821452178NPP     2023012706571620320730
20230126CPI COP115M  000215767093092400021576709309240002157670930924NPP     2023012706571620320830
20230126CPI COP116M  000217320616162600021732061616260002173206161626NPP     2023012706571620320930
20230126CPI COP117M  000218928788722200021892878872220002189287887222NPP     2023012706571620321029
20230126CPI COP118M  000220505076001000022050507600100002205050760010NPP     2023012706571620321130
20230126CPI COP119M  000222158864071100022215886407110002221588640711NPP     2023012706571620321230
20230126CPI COP11M   000137876125973100013787612597310001378761259731NPP     2023012706571620231229
20230126CPI COP120M  000223558464914700022355846491470002235584649147NPP     2023012706571720330131
20230126CPI COP121M  000224564478006800022456447800680002245644780068NPP     2023012706571720330228
20230126CPI COP122M  000225687300396900022568730039690002256873003969NPP     2023012706571720330330
20230126CPI COP123M  000226770599438800022677059943880002267705994388NPP     2023012706571720330429
20230126CPI COP124M  000227904452436000022790445243600002279044524360NPP     2023012706571720330531
20230126CPI COP125M  000228998393807600022899839380760002289983938076NPP     2023012706571720330630
20230126CPI COP126M  000230120485937300023012048593730002301204859373NPP     2023012706571720330729
20230126CPI COP127M  000231248076318400023124807631840002312480763184NPP     2023012706571720330830
20230126CPI COP128M  000232334942277100023233494227710002323349422771NPP     2023012706571720330930
20230126CPI COP129M  000233473383494300023347338349430002334733834943NPP     2023012706571720331031
20230126CPI COP12M   000138662019891200013866201989120001386620198912NPP     2023012706571720240130
20230126CPI COP130M  000234570708396700023457070839670002345707083967NPP     2023012706571720331130
20230126CPI COP131M  000235696647797000023569664779700002356966477970NPP     2023012706571720331230
20230126CPI COP132M  000236827991706400023682799170640002368279917064NPP     2023012706571720340130
20230126CPI COP133M  000237846352070700023784635207070002378463520707NPP     2023012706571720340228
20230126CPI COP134M  000238988014560700023898801456070002389880145607NPP     2023012706571720340330
20230126CPI COP135M  000240087359427700024008735942770002400873594277NPP     2023012706571720340428
20230126CPI COP136M  000241239778752900024123977875290002412397787529NPP     2023012706571720340530
20230126CPI COP137M  000242349481735200024234948173520002423494817352NPP     2023012706571720340630
20230126CPI COP138M  000243488524299300024348852429930002434885242993NPP     2023012706571720340731
20230126CPI COP139M  000244632920363500024463292036350002446329203635NPP     2023012706571720340830
20230126CPI COP13M   000139743583646300013974358364630001397435836463NPP     2023012706571720240229
20230126CPI COP140M  000245733768505200024573376850520002457337685052NPP     2023012706571720340929
20230126CPI COP141M  000246888717217100024688871721710002468887172171NPP     2023012706571720341030
20230126CPI COP142M  000247999716444600024799971644460002479997164446NPP     2023012706571720341130
20230126CPI COP143M  000249140515140300024914051514030002491405151403NPP     2023012706571720341229
20230126CPI COP144M  000250336389612900025033638961290002503363896129NPP     2023012706571720350130
20230126CPI COP145M  000251462903366200025146290336620002514629033662NPP     2023012706571720350228
20230126CPI COP146M  000252695071592700025269507159270002526950715927NPP     2023012706571720350330
20230126CPI COP147M  000253882738429200025388273842920002538827384292NPP     2023012706571720350430
20230126CPI COP148M  000255126763847500025512676384750002551267638475NPP     2023012706571720350530
20230126CPI COP149M  000256325859637600025632585963760002563258596376NPP     2023012706571720350629
20230126CPI COP14M   000140903455390600014090345539060001409034553906NPP     2023012706571720240327
20230126CPI COP150M  000257556223763800025755622376380002575562237638NPP     2023012706571720350730
20230126CPI COP151M  000258792493637900025879249363790002587924936379NPP     2023012706571720350830
20230126CPI COP152M  000260008818358000026000881835800002600088183580NPP     2023012706571720350928
20230126CPI COP153M  000261256860686100026125686068610002612568606861NPP     2023012706571720351030
20230126CPI COP154M  000262458642245300026245864224530002624586422453NPP     2023012706571720351130
20230126CPI COP155M  000263718443728000026371844372800002637184437280NPP     2023012706571720351231
20230126CPI COP156M  000264957920413600026495792041360002649579204136NPP     2023012706571720360130
20230126CPI COP157M  000266123735263400026612373526340002661237352634NPP     2023012706571720360229
20230126CPI COP158M  000267374516819100026737451681910002673745168191NPP     2023012706571720360331
20230126CPI COP159M  000268577702144800026857770214480002685777021448NPP     2023012706571720360430
20230126CPI COP15M   000142030683033700014203068303370001420306830337NPP     2023012706571720240430
20230126CPI COP160M  000269840017344900026984001734490002698400173449NPP     2023012706571720360530
20230126CPI COP161M  000271054297422900027105429742290002710542974229NPP     2023012706571720360627
20230126CPI COP162M  000272301147191100027230114719110002723011471911NPP     2023012706571720360730
20230126CPI COP163M  000273553732468200027355373246820002735537324682NPP     2023012706571720360829
20230126CPI COP164M  000274784724264300027478472426430002747847242643NPP     2023012706571720360930
20230126CPI COP165M  000276048733995900027604873399590002760487339959NPP     2023012706571720361030
20230126CPI COP166M  000277263348425500027726334842550002772633484255NPP     2023012706571720361128
20230126CPI COP167M  000278538759828200027853875982820002785387598282NPP     2023012706571720361230
20230126CPI COP168M  000279792184247500027979218424750002797921842475NPP     2023012706571720370130
20230126CPI COP169M  000280939332202900028093933220290002809393322029NPP     2023012706571720370227
20230126CPI COP16M   000143209537702900014320953770290001432095377029NPP     2023012706571720240530
20230126CPI COP170M  000282203559197800028220355919780002822035591978NPP     2023012706571720370330
20230126CPI COP171M  000283417034502300028341703450230002834170345023NPP     2023012706571720370430
20230126CPI COP172M  000284692411157600028469241115760002846924111576NPP     2023012706571720370529
20230126CPI COP173M  000285916588525600028591658852560002859165885256NPP     2023012706571820370630
20230126CPI COP174M  000287174621515100028717462151510002871746215151NPP     2023012706571820370730
20230126CPI COP175M  000288438189849800028843818984980002884381898498NPP     2023012706571820370831
20230126CPI COP176M  000289678474066100028967847406610002896784740661NPP     2023012706571820370930
20230126CPI COP177M  000290953059352000029095305935200002909530593520NPP     2023012706571820371030
20230126CPI COP17M   000144355214004500014435521400450001443552140045NPP     2023012706571820240628
20230126CPI COP18M   000145293522895500014529352289550001452935228955NPP     2023012706571820240730
20230126CPI COP19M   000145961873100900014596187310090001459618731009NPP     2023012706571820240830
20230126CPI COP1M    000127996068000000012799606800000001279960680000NPP     2023012706571820230228
20230126CPI COP20M   000146560316780600014656031678060001465603167806NPP     2023012706571820240930
20230126CPI COP21M   000147131902016000014713190201600001471319020160NPP     2023012706571820241030
20230126CPI COP22M   000147632150482900014763215048290001476321504829NPP     2023012706571820241129
20230126CPI COP23M   000148104573364400014810457336440001481045733644NPP     2023012706571820241230
20230126CPI COP24M   000148711802115200014871180211520001487118021152NPP     2023012706571820250130
20230126CPI COP25M   000149395876404900014939587640490001493958764049NPP     2023012706571820250228
20230126CPI COP26M   000150127916199300015012791619930001501279161993NPP     2023012706571820250331
20230126CPI COP27M   000150818504613800015081850461380001508185046138NPP     2023012706571820250430
20230126CPI COP28M   000151512269735100015151226973510001515122697351NPP     2023012706571820250530
20230126CPI COP29M   000152178923721900015217892372190001521789237219NPP     2023012706571820250627
20230126CPI COP2M    000130005606267600013000560626760001300056062676NPP     2023012706571820230330
20230126CPI COP30M   000152848510986300015284851098630001528485109863NPP     2023012706571820250730
20230126CPI COP31M   000153490474732400015349047473240001534904747324NPP     2023012706571820250829
20230126CPI COP32M   000154104436631300015410443663130001541044366313NPP     2023012706571820250930
20230126CPI COP33M   000154720854377900015472085437790001547208543779NPP     2023012706571820251030
20230126CPI COP34M   000155293321539100015529332153910001552933215391NPP     2023012706571820251128
20230126CPI COP35M   000155867906828800015586790682880001558679068288NPP     2023012706571820251230
20230126CPI COP36M   000156491378456100015649137845610001564913784561NPP     2023012706571820260130
20230126CPI COP37M   000157101694832100015710169483210001571016948321NPP     2023012706571820260227
20230126CPI COP38M   000157777232119800015777723211980001577772321198NPP     2023012706571820260330
20230126CPI COP39M   000158408341048300015840834104830001584083410483NPP     2023012706571820260430
20230126CPI COP3M    000131643676906600013164367690660001316436769066NPP     2023012706571820230428
20230126CPI COP40M   000159057815246600015905781524660001590578152466NPP     2023012706571820260529
20230126CPI COP41M   000159678140726100015967814072610001596781407261NPP     2023012706571820260630
20230126CPI COP42M   000160300885474900016030088547490001603008854749NPP     2023012706571820260730
20230126CPI COP43M   000160910028839700016091002883970001609100288397NPP     2023012706571820260831
20230126CPI COP44M   000161489304943500016148930494350001614893049435NPP     2023012706571820260930
20230126CPI COP45M   000162086815371800016208681537180001620868153718NPP     2023012706571820261030
20230126CPI COP46M   000162654119225600016265411922560001626541192256NPP     2023012706571820261130
20230126CPI COP47M   000163223408642900016322340864290001632234086429NPP     2023012706571820261230
20230126CPI COP48M   000163827335254900016382733525490001638273352549NPP     2023012706571820270129
20230126CPI COP49M   000164400730928300016440073092830001644007309283NPP     2023012706571820270226
20230126CPI COP4M    000132802141263300013280214126330001328021412633NPP     2023012706571820230530
20230126CPI COP50M   000165025453705800016502545370580001650254537058NPP     2023012706571820270330
20230126CPI COP51M   000165619545339200016561954533920001656195453392NPP     2023012706571820270430
20230126CPI COP52M   000166232337656900016623233765690001662323376569NPP     2023012706571820270528
20230126CPI COP53M   000166814150838700016681415083870001668141508387NPP     2023012706571820270630
20230126CPI COP54M   000167414681781700016741468178170001674146817817NPP     2023012706571820270730
20230126CPI COP55M   000168000633168000016800063316800001680006331680NPP     2023012706571820270830
20230126CPI COP56M   000168571835320700016857183532070001685718353207NPP     2023012706571820270930
20230126CPI COP57M   000169144979560800016914497956080001691449795608NPP     2023012706571820271029
20230126CPI COP58M   000169703157993400016970315799340001697031579934NPP     2023012706571820271130
20230126CPI COP59M   000170263178414800017026317841480001702631784148NPP     2023012706571820271230
20230126CPI COP5M    000133598954110900013359895411090001335989541109NPP     2023012706571820230630
20230126CPI COP60M   000170910178492700017091017849270001709101784927NPP     2023012706571820280131
20230126CPI COP61M   000171576728188900017157672818890001715767281889NPP     2023012706571820280229
20230126CPI COP62M   000172297350447300017229735044730001722973504473NPP     2023012706571820280330
20230126CPI COP63M   000172986539849000017298653984900001729865398490NPP     2023012706571820280428
20230126CPI COP64M   000173695784662400017369578466240001736957846624NPP     2023012706571920280530
20230126CPI COP65M   000174390567801100017439056780110001743905678011NPP     2023012706571920280630
20230126CPI COP66M   000175105569129100017510556912910001751055691291NPP     2023012706571920280731
20230126CPI COP67M   000175805991405600017580599140560001758059914056NPP     2023012706571920280830
20230126CPI COP68M   000176491634772100017649163477210001764916347721NPP     2023012706571920280929
20230126CPI COP69M   000177197601311100017719760131110001771976013111NPP     2023012706571920281030
20230126CPI COP6M    000134400547835600013440054783560001344005478356NPP     2023012706571920230731
20230126CPI COP70M   000177870952196100017787095219610001778709521961NPP     2023012706571920281130
20230126CPI COP71M   000178564648909700017856464890970001785646489097NPP     2023012706571920281229
20230126CPI COP72M   000179296763970200017929676397020001792967639702NPP     2023012706571920290130
20230126CPI COP73M   000179996021349700017999602134970001799960213497NPP     2023012706571920290228
20230126CPI COP74M   000180770004241500018077000424150001807700042415NPP     2023012706571920290328
20230126CPI COP75M   000181529238259300018152923825930001815292382593NPP     2023012706571920290430
20230126CPI COP76M   000182309813983800018230981398380001823098139838NPP     2023012706571920290530
20230126CPI COP77M   000183057284221200018305728422120001830572842212NPP     2023012706571920290629
20230126CPI COP78M   000183826124814900018382612481490001838261248149NPP     2023012706571920290730
20230126CPI COP79M   000184598194539100018459819453910001845981945391NPP     2023012706571920290830
20230126CPI COP7M    000135341351670400013534135167040001353413516704NPP     2023012706571920230830
20230126CPI COP80M   000185355047136700018535504713670001853550471367NPP     2023012706571920290928
20230126CPI COP81M   000186133538334700018613353833470001861335383347NPP     2023012706571920291030
20230126CPI COP82M   000186878072488000018687807248800001868780724880NPP     2023012706571920291130
20230126CPI COP83M   000187644272585200018764427258520001876442725852NPP     2023012706571920291231
20230126CPI COP84M   000188451142957400018845114295740001884511429574NPP     2023012706571920300130
20230126CPI COP85M   000189223792643500018922379264350001892237926435NPP     2023012706571920300228
20230126CPI COP86M   000190075299710400019007529971040001900752997104NPP     2023012706571920300329
20230126CPI COP87M   000190892623499100019089262349910001908926234991NPP     2023012706571920300430
20230126CPI COP88M   000191751640304900019175164030490001917516403049NPP     2023012706571920300530
20230126CPI COP89M   000192576172358200019257617235820001925761723582NPP     2023012706571920300628
20230126CPI COP8M    000136112797375000013611279737500001361127973750NPP     2023012706571920230929
20230126CPI COP90M   000193423507516600019342350751660001934235075166NPP     2023012706571920300730
20230126CPI COP91M   000194274570949600019427457094960001942745709496NPP     2023012706571920300830
20230126CPI COP92M   000195109951604700019510995160470001951099516047NPP     2023012706571920300930
20230126CPI COP93M   000195968435391800019596843539180001959684353918NPP     2023012706571920301030
20230126CPI COP94M   000196791502820400019679150282040001967915028204NPP     2023012706571920301129
20230126CPI COP95M   000197657385432800019765738543280001976573854328NPP     2023012706571920301230
20230126CPI COP96M   000198368952020400019836895202040001983689520204NPP     2023012706571920310130
20230126CPI COP97M   000198884711295700019888471129570001988847112957NPP     2023012706571920310228
20230126CPI COP98M   000199461476958400019946147695840001994614769584NPP     2023012706571920310331
20230126CPI COP99M   000200000022946200020000002294620002000000229462NPP     2023012706571920310430
20230126CPI COP9M    000136806972641600013680697264160001368069726416NPP     2023012706571920231030
20230126CPI COPON    000126030000000000012603000000000001260300000000NPP     2023012706571920230127
20230126L12MUSD10Y   000004640971099200000464097109920000046409710992NPP     2023012706571920330131
20230126L12MUSD12Y   000004807499565800000480749956580000048074995658NPP     2023012706571920350130
20230126L12MUSD15Y   000005218191281000000521819128100000052181912810NPP     2023012706571920380129
20230126L12MUSD20Y   000005546720998600000554672099860000055467209986NPP     2023012706571920430130
20230126L12MUSD25Y   000005951053265100000595105326510000059510532651NPP     2023012706571920480130
20230126L12MUSD2Y    000004955218468500000495521846850000049552184685NPP     2023012706571920250130
20230126L12MUSD30Y   000006049615310800000604961531080000060496153108NPP     2023012706571920530130
20230126L12MUSD3Y    000004584452169600000458445216960000045844521696NPP     2023012706571920260130
20230126L12MUSD4Y    000004436139684700000443613968470000044361396847NPP     2023012706571920270129
20230126L12MUSD5Y    000004349441257100000434944125710000043494412571NPP     2023012706571920280131
20230126L12MUSD7Y    000004393364560400000439336456040000043933645604NPP     2023012706571920300130
20230126L1M USD10Y   000003832404515500000383240451550000038324045155NPP     2023012706571920330131
20230126L1M USD12Y   000003977156997200000397715699720000039771569972NPP     2023012706571920350130
20230126L1M USD15Y   000004232180496200000423218049620000042321804962NPP     2023012706571920380129
20230126L1M USD20Y   000004541663760300000454166376030000045416637603NPP     2023012706571920430130
20230126L1M USD25Y   000004698389040200000469838904020000046983890402NPP     2023012706571920480130
20230126L1M USD2Y    000004407988209800000440798820980000044079882098NPP     2023012706571920250130
20230126L1M USD30Y   000004807174814900000480717481490000048071748149NPP     2023012706571920530130
20230126L1M USD3Y    000004011939977800000401193997780000040119399778NPP     2023012706572020260130
20230126L1M USD4Y    000003820187058900000382018705890000038201870589NPP     2023012706572020270129
20230126L1M USD5Y    000003714906408100000371490640810000037149064081NPP     2023012706572020280131
20230126L1M USD7Y    000003706299209400000370629920940000037062992094NPP     2023012706572020300130
20230126L3M USD10Y   000004032941770000000403294177000000040329417700NPP     2023012706572020330131
20230126L3M USD11Y   000004111085930000000411108593000000041110859300NPP     2023012706572020340130
20230126L3M USD12Y   000004190907430000000419090743000000041909074300NPP     2023012706572020350130
20230126L3M USD13Y   000004282214160000000428221416000000042822141600NPP     2023012706572020360130
20230126L3M USD14Y   000004375302580000000437530258000000043753025800NPP     2023012706572020370130
20230126L3M USD15Y   000004471642610000000447164261000000044716426100NPP     2023012706572020380129
20230126L3M USD20Y   000004823586190000000482358619000000048235861900NPP     2023012706572020430130
20230126L3M USD25Y   000005019215140000000501921514000000050192151400NPP     2023012706572020480130
20230126L3M USD2Y    000004542944750000000454294475000000045429447500NPP     2023012706572020250130
20230126L3M USD30Y   000005169074630000000516907463000000051690746300NPP     2023012706572020530130
20230126L3M USD3Y    000004159001520000000415900152000000041590015200NPP     2023012706572020260130
20230126L3M USD4Y    000003976327730000000397632773000000039763277300NPP     2023012706572020270129
20230126L3M USD5Y    000003877901910000000387790191000000038779019100NPP     2023012706572020280131
20230126L3M USD6Y    000003863797860000000386379786000000038637978600NPP     2023012706572020290130
20230126L3M USD7Y    000003884225500000000388422550000000038842255000NPP     2023012706572020300130
20230126L3M USD8Y    000003905994650000000390599465000000039059946500NPP     2023012706572020310130
20230126L3M USD9Y    000003962337900000000396233790000000039623379000NPP     2023012706572020320130
20230126L6M USD10Y   000004266488420000000426648842000000042664884200NPP     2023012706572020330131
20230126L6M USD12Y   000004441720590000000444172059000000044417205900NPP     2023012706572020350130
20230126L6M USD15Y   000004751444030000000475144403000000047514440300NPP     2023012706572020380129
20230126L6M USD20Y   000005155244700000000515524470000000051552447000NPP     2023012706572020430130
20230126L6M USD25Y   000005405953020000000540595302000000054059530200NPP     2023012706572020480130
20230126L6M USD2Y    000004716764710000000471676471000000047167647100NPP     2023012706572020250130
20230126L6M USD30Y   000005609596820000000560959682000000056095968200NPP     2023012706572020530130
20230126L6M USD3Y    000004340591110000000434059111000000043405911100NPP     2023012706572020260130
20230126L6M USD4Y    000004165527640000000416552764000000041655276400NPP     2023012706572020270129
20230126L6M USD5Y    000004074925910000000407492591000000040749259100NPP     2023012706572020280131
20230126L6M USD7Y    000004094259920000000409425992000000040942599200NPP     2023012706572020300130
20230126DEPOV1 102M  000002392201990000000239220199000000023922019900NPP     2023012706572020240726
20230126DEPOV1 10Y   000002737560350000000273756035000000027375603500NPP     2023012706572020260126
20230126DEPOV1 114M  000002609085850000000260908585000000026090858500NPP     2023012706572020250728
20230126DEPOV1 18M   000000325781970000000032578197000000003257819700NPP     2023012706572020170724
20230126DEPOV1 2Y    000000693058180000000069305818000000006930581800NPP     2023012706572020180126
20230126DEPOV1 30M   000000847808360000000084780836000000008478083600NPP     2023012706572020180726
20230126DEPOV1 3Y    000001008610600000000100861060000000010086106000NPP     2023012706572020190128
20230126DEPOV1 42M   000001151561060000000115156106000000011515610600NPP     2023012706572020190726
20230126DEPOV1 4Y    000001302076170000000130207617000000013020761700NPP     2023012706572020200127
20230126DEPOV1 54M   000001442137940000000144213794000000014421379400NPP     2023012706572020200727
20230126DEPOV1 5Y    000001586417960000000158641796000000015864179600NPP     2023012706572020210126
20230126DEPOV1 66M   000001733023480000000173302348000000017330234800NPP     2023012706572020210726
20230126DEPOV1 6Y    000001886518400000000188651840000000018865184000NPP     2023012706572020220126
20230126DEPOV1 78M   000002000425720000000200042572000000020004257200NPP     2023012706572020220726
20230126DEPOV1 7Y    000002119763050000000211976305000000021197630500NPP     2023012706572020230126
20230126DEPOV1 8Y    000002303394800000000230339480000000023033948000NPP     2023012706572020240126
20230126DEPOV1 90M   000002209446340000000220944634000000022094463400NPP     2023012706572020230726
20230126DEPOV1 9Y    000002485367490000000248536749000000024853674900NPP     2023012706572020250127
20230126SOFRUSD10M   000004859331310000000485933131000000048593313100NPP     2023012706572020231130
20230126SOFRUSD10Y   000003681977220000000368197722000000036819772200NPP     2023012706572020330131
20230126SOFRUSD11M   000004855312750000000485531275000000048553127500NPP     2023012706572020231229
20230126SOFRUSD12Y   000003789065950000000378906595000000037890659500NPP     2023012706572020350130
20230126SOFRUSD13M   000000042561510000000004256151000000000425615100NPP     2023012706572020210915
20230126SOFRUSD15Y   000004021142920000000402114292000000040211429200NPP     2023012706572020380129
20230126SOFRUSD16M   000000038552150000000003855215000000000385521500NPP     2023012706572020211215
20230126SOFRUSD1M    000004474603810000000447460381000000044746038100NPP     2023012706572020230228
20230126SOFRUSD1Y    000004834986630000000483498663000000048349866300NPP     2023012706572120240130
20230126SOFRUSD20Y   000004354151550000000435415155000000043541515500NPP     2023012706572120430130
20230126SOFRUSD25Y   000004393851690000000439385169000000043938516900NPP     2023012706572120480130
20230126SOFRUSD2M    000004584907940000000458490794000000045849079400NPP     2023012706572120230330
20230126SOFRUSD2W    000004397445780000000439744578000000043974457800NPP     2023012706572120230213
20230126SOFRUSD2Y    000004291570640000000429157064000000042915706400NPP     2023012706572120250130
20230126SOFRUSD3M    000004648990380000000464899038000000046489903800NPP     2023012706572120230428
20230126SOFRUSD3W    000004438596730000000443859673000000044385967300NPP     2023012706572120230221
20230126SOFRUSD3Y    000003892442660000000389244266000000038924426600NPP     2023012706572120260130
20230126SOFRUSD4M    000004719702040000000471970204000000047197020400NPP     2023012706572120230530
20230126SOFRUSD4Y    000003694135780000000369413578000000036941357800NPP     2023012706572120270129
20230126SOFRUSD5M    000004776721570000000477672157000000047767215700NPP     2023012706572120230630
20230126SOFRUSD5Y    000003599647950000000359964795000000035996479500NPP     2023012706572120280131
20230126SOFRUSD6M    000004805673020000000480567302000000048056730200NPP     2023012706572120230731
20230126SOFRUSD7M    000004833690550000000483369055000000048336905500NPP     2023012706572120230830
20230126SOFRUSD7Y    000003560837290000000356083729000000035608372900NPP     2023012706572120300130
20230126SOFRUSD8M    000004854067000000000485406700000000048540670000NPP     2023012706572120230929
20230126SOFRUSD9M    000004856699160000000485669916000000048566991600NPP     2023012706572120231030
20230126SOFRUSDON    000004310000000000000431000000000000043100000000NPP     2023012706572120230127
20230126SOFRUSDSW    000004361438690000000436143869000000043614386900NPP     2023012706572120230206
20230126IUV UVR10Y   000004166794390000000416679439000000041667943900NPP     2023012706572120330131
20230126IUV UVR15Y   000004655677570000000465567757000000046556775700NPP     2023012706572120380129
20230126IUV UVR2Y    000002524119040000000252411904000000025241190400NPP     2023012706572120250130
20230126IUV UVR3Y    000002998837650000000299883765000000029988376500NPP     2023012706572120260130
20230126IUV UVR4Y    000003384870850000000338487085000000033848708500NPP     2023012706572120270129
20230126IUV UVR5Y    000003580974130000000358097413000000035809741300NPP     2023012706572120280131
20230126IUV UVR6Y    000003832276850000000383227685000000038322768500NPP     2023012706572120290130
20230126IUV UVR7Y    000003995706270000000399570627000000039957062700NPP     2023012706572120300130
20230126IUV UVR8Y    000004124766530000000412476653000000041247665300NPP     2023012706572120310130
20230126IUV UVR9Y    000004598140280000000459814028000000045981402800NPP     2023012706572120320130
20230126DEPOUSD10Y   000003681977220000000368197722000000036819772200NPP     2023012706572120330131
20230126DEPOUSD12Y   000003789065950000000378906595000000037890659500NPP     2023012706572120350130
20230126DEPOUSD15Y   000004021142920000000402114292000000040211429200NPP     2023012706572120380129
20230126DEPOUSD20Y   000004354151550000000435415155000000043541515500NPP     2023012706572120430130
20230126DEPOUSD25Y   000004393851690000000439385169000000043938516900NPP     2023012706572120480130
20230126DEPOUSD2Y    000004291570640000000429157064000000042915706400NPP     2023012706572120250130
20230126DEPOUSD3Y    000003892442660000000389244266000000038924426600NPP     2023012706572120260130
20230126DEPOUSD4Y    000003694135780000000369413578000000036941357800NPP     2023012706572120270129
20230126DEPOUSD5Y    000003599647950000000359964795000000035996479500NPP     2023012706572220280131
20230126DEPOUSD7Y    000003560837290000000356083729000000035608372900NPP     2023012706572220300130
20230126UIBRUSD10Y   000002590973880000000259097388000000025909738800NPP     2023012706572220330131
20230126UIBRUSD12Y   000002755135540000000275513554000000027551355400NPP     2023012706572220350130
20230126UIBRUSD15Y   000003148695660000000314869566000000031486956600NPP     2023012706572220380129
20230126UIBRUSD18M   000003865355700000000386535570000000038653557000NPP     2023012706572220240726
20230126UIBRUSD20Y   000003774953910000000377495391000000037749539100NPP     2023012706572220430130
20230126UIBRUSD25Y   000003874365600000000387436560000000038743656000NPP     2023012706572220480130
20230126UIBRUSD2Y    000003348941190000000334894119000000033489411900NPP     2023012706572220250130
20230126UIBRUSD3Y    000002828776580000000282877658000000028287765800NPP     2023012706572220260130
20230126UIBRUSD4Y    000002583113450000000258311345000000025831134500NPP     2023012706572220270129
20230126UIBRUSD5Y    000002462313070000000246231307000000024623130700NPP     2023012706572220280131
20230126UIBRUSD6Y    000002467466510000000246746651000000024674665100NPP     2023012706572220290130
20230126UIBRUSD7Y    000002438948500000000243894850000000024389485000NPP     2023012706572220300130
20230126UIBRUSD8Y    000002510422130000000251042213000000025104221300NPP     2023012706572220310130
20230126UIBRUSD9Y    000002528686170000000252868617000000025286861700NPP     2023012706572220320130
20230126T2COCOF1M    000011873802910000001187380291000000118738029100NPP     2023012706570920230224
20230126T2COCOF1Y    000013099364980000001309936498000000130993649800NPP     2023012706570920240126
20230126T2COCOF2M    000012240665640000001224066564000000122406656400NPP     2023012706570920230328
20230126T2COCOF2W    000011714796760000001171479676000000117147967600NPP     2023012706570920230209
20230126T2COCOF3M    000012340424140000001234042414000000123404241400NPP     2023012706570920230426
20230126T2COCOF6M    000012609267700000001260926770000000126092677000NPP     2023012706570920230727
20230126T2COCOF9M    000012853231330000001285323133000000128532313300NPP     2023012706570920231026
20230126T2COCOFON    000011619309910000001161930991000000116193099100NPP     2023012706570920230127
20230126T2COCOFSW    000011666824960000001166682496000000116668249600NPP     2023012706570920230202
20230126T2DTCOP1Y    000013387542420000001338754242000000133875424200NPP     2023012706570920240130
20230126T2DTCOP3M    000013210000000000001321000000000000132100000000NPP     2023012706570920230428
20230126T2DTCOP6M    000012840000000000001284000000000000128400000000NPP     2023012706570920230731
20230126T2DTCOP9M    000012890000000000001289000000000000128900000000NPP     2023012706570920231030
20230126T2DTCOPON    000013550000000000001355000000000000135500000000NPP     2023012706570920230127
20230126T2IMEUC10M   000002941993520000000294199352000000029419935200NPP     2023012706570920231130
20230126T2IMEUC11M   000002959875530000000295987553000000029598755300NPP     2023012706570920231229
20230126T2IMEUC1D    000001416999490000000141699949000000014169994900NPP     2023012706570920230127
20230126T2IMEUC1M    000002331666230000000233166623000000023316662300NPP     2023012706570920230228
20230126T2IMEUC1Y    000002895034560000000289503456000000028950345600NPP     2023012706570920240130
20230126T2IMEUC2M    000002463105910000000246310591000000024631059100NPP     2023012706570920230330
20230126T2IMEUC2W    000002710657870000000271065787000000027106578700NPP     2023012706571020230213
20230126T2IMEUC3D    000008764084930000000876408493000000087640849300NPP     2023012706571020230131
20230126T2IMEUC3M    000002456745050000000245674505000000024567450500NPP     2023012706571020230428
20230126T2IMEUC3W    000002647896890000000264789689000000026478968900NPP     2023012706571020230221
20230126T2IMEUC4M    000002553975880000000255397588000000025539758800NPP     2023012706571020230530
20230126T2IMEUC5M    000002697307620000000269730762000000026973076200NPP     2023012706571020230630
20230126T2IMEUC6M    000002760175950000000276017595000000027601759500NPP     2023012706571020230731
20230126T2IMEUC7M    000002819242940000000281924294000000028192429400NPP     2023012706571020230830
20230126T2IMEUC8M    000002877160480000000287716048000000028771604800NPP     2023012706571020230929
20230126T2IMEUC9M    000002904466720000000290446672000000029044667200NPP     2023012706571020231030
20230126T2IMEUCSW    000003567827340000000356782734000000035678273400NPP     2023012706571020230206
20230126T2GBGBP10M   000004236610040000000423661004000000042366100400NPP     2023012706571020231130
20230126T2GBGBP11M   000004213644340000000421364434000000042136443400NPP     2023012706571020231229
20230126T2GBGBP1M    000003885883790000000388588379000000038858837900NPP     2023012706571020230228
20230126T2GBGBP1Y    000004173094350000000417309435000000041730943500NPP     2023012706571020240130
20230126T2GBGBP2M    000003929922570000000392992257000000039299225700NPP     2023012706571020230330
20230126T2GBGBP2W    000004092417550000000409241755000000040924175500NPP     2023012706571020230213
20230126T2GBGBP3M    000003934426650000000393442665000000039344266500NPP     2023012706571020230428
20230126T2GBGBP3W    000004014032290000000401403229000000040140322900NPP     2023012706571020230221
20230126T2GBGBP4M    000004008728360000000400872836000000040087283600NPP     2023012706571020230530
20230126T2GBGBP5M    000004094999620000000409499962000000040949996200NPP     2023012706571020230630
20230126T2GBGBP6M    000004133818030000000413381803000000041338180300NPP     2023012706571020230731
20230126T2GBGBP7M    000004173974000000000417397400000000041739740000NPP     2023012706571020230830
20230126T2GBGBP8M    000004194122360000000419412236000000041941223600NPP     2023012706571020230929
20230126T2GBGBP9M    000004200729050000000420072905000000042007290500NPP     2023012706571020231030
20230126T2GBGBPON    000002458787070000000245878707000000024587870700NPP     2023012706571020230127
20230126T2GBGBPSW    000004528923980000000452892398000000045289239800NPP     2023012706571020230206
20230126T2IBCOP1M    000011890000000000001189000000000000118900000000NPP     2023012706571020230228
20230126T2IBCOP1Y    000012505000000000001250500000000000125050000000NPP     2023012706571020240130
20230126T2IBCOP3M    000012095000000000001209500000000000120950000000NPP     2023012706571020230428
20230126T2IBCOP6M    000012325000000000001232500000000000123250000000NPP     2023012706571120230731
20230126T2IBCOP9M    000012550000000000001255000000000000125500000000NPP     2023012706571120231030
20230126T2IBCOPON    000011177000000000001117700000000000111770000000NPP     2023012706571120230127
20230126T2ECEUR10M   000002540152740000000254015274000000025401527400NPP     2023012706571120231130
20230126T2ECEUR11M   000002476914440000000247691444000000024769144400NPP     2023012706571120231229
20230126T2ECEUR1M    000002272037030000000227203703000000022720370300NPP     2023012706571120230228
20230126T2ECEUR1W    000003321956930000000332195693000000033219569300NPP     2023012706571120230206
20230126T2ECEUR1Y    000002113475520000000211347552000000021134755200NPP     2023012706571120240130
20230126T2ECEUR2M    000002201924590000000220192459000000022019245900NPP     2023012706571120230330
20230126T2ECEUR2W    000002527391000000000252739100000000025273910000NPP     2023012706571120230213
20230126T2ECEUR3M    000002210092990000000221009299000000022100929900NPP     2023012706571120230428
20230126T2ECEUR3W    -000008104274200-000008104274200-000008104274200NPP     2023012706571120210518
20230126T2ECEUR4M    000002274017980000000227401798000000022740179800NPP     2023012706571120230530
20230126T2ECEUR5M    000002402564370000000240256437000000024025643700NPP     2023012706571120230630
20230126T2ECEUR6M    000002475890110000000247589011000000024758901100NPP     2023012706571120230731
20230126T2ECEUR7M    000002514040620000000251404062000000025140406200NPP     2023012706571120230830
20230126T2ECEUR8M    000002567813270000000256781327000000025678132700NPP     2023012706571120230929
20230126T2ECEUR9M    000002608851560000000260885156000000026088515600NPP     2023012706571120231030
20230126T2ECEURON    000000974814880000000097481488000000009748148800NPP     2023012706571120230127
202301262L12USD1Y    000005300860000000000530086000000000053008600000NPP     2023012706571120240130
202301262L12USDON    000004304570000000000430457000000000043045700000NPP     2023012706571120230127
20230126T2L1USD18M   000004695945290000000469594529000000046959452900NPP     2023012706571120240730
20230126T2L1USD1M    000004547290000000000454729000000000045472900000NPP     2023012706571120230228
20230126T2L1USD1Y    000004905491170000000490549117000000049054911700NPP     2023012706571120240130
20230126T2L1USD3M    000004615373020000000461537302000000046153730200NPP     2023012706571120230428
20230126T2L1USD6M    000004864347580000000486434758000000048643475800NPP     2023012706571120230731
20230126T2L1USD9M    000004908062530000000490806253000000049080625300NPP     2023012706571120231030
20230126T2L1USDON    000004304570000000000430457000000000043045700000NPP     2023012706571120230127
20230126T2L3USD18M   000004821714620000000482171462000000048217146200NPP     2023012706571120240730
20230126T2L3USD3M    000004697650034900000469765003490000046976500349NPP     2023012706571120230428
20230126T2L3USD6M    000004931241659200000493124165920000049312416592NPP     2023012706571120230731
20230126T2L3USD9M    000005015022510000000501502251000000050150225100NPP     2023012706571120231030
20230126T2L3USDON    000004304570000000000430457000000000043045700000NPP     2023012706571120230127
20230126T2L6USD18M   000004982276540000000498227654000000049822765400NPP     2023012706571120240730
20230126T2L6USD1Y    000005181499570000000518149957000000051814995700NPP     2023012706571120240130
20230126T2L6USD6M    000005102290000000000510229000000000051022900000NPP     2023012706571120230731
20230126T2L6USDON    000004304570000000000430457000000000043045700000NPP     2023012706571120230127
20230126T2UVV1 1M    -000014100000000-000014100000000-000014100000000NPP     2023012706571120160224
20230126T2UVV1 1Y    000000200000000000000020000000000000002000000000NPP     2023012706571120170124
20230126T2UVV1 2M    -000011700000000-000011700000000-000011700000000NPP     2023012706571120160322
20230126T2UVV1 2W    -000015269419800-000015269419800-000015269419800NPP     2023012706571120160205
20230126T2UVV1 3M    -000010000000000-000010000000000-000010000000000NPP     2023012706571120160422
20230126T2UVV1 6M    -000005300000000-000005300000000-000005300000000NPP     2023012706571120160722
20230126T2UVV1 9M    -000001900000000-000001900000000-000001900000000NPP     2023012706571120161024
20230126T2UVV1 ON    -000017700000000-000017700000000-000017700000000NPP     2023012706571120160123
20230126T2UVV1 SW    -000017270021000-000017270021000-000017270021000NPP     2023012706571120160129
20230126T2BLUSD1M    000004412964460000000441296446000000044129644600NPP     2023012706571220230224
20230126T2BLUSD1W    000003971479990000000397147999000000039714799900NPP     2023012706571220230202
20230126T2BLUSD1Y    000004291957840000000429195784000000042919578400NPP     2023012706571220240126
20230126T2BLUSD2M    000004334781110000000433478111000000043347811100NPP     2023012706571220230328
20230126T2BLUSD2W    000004099681190000000409968119000000040996811900NPP     2023012706571220230209
20230126T2BLUSD3M    000004408990010000000440899001000000044089900100NPP     2023012706571220230426
20230126T2BLUSD6M    000004526990800000000452699080000000045269908000NPP     2023012706571220230727
20230126T2BLUSD9M    000004566029910000000456602991000000045660299100NPP     2023012706571220231026
20230126T2BLUSDON    000003867779860000000386777986000000038677798600NPP     2023012706571220230127
20230126T2IUUVR18M   000001750000000000000175000000000000017500000000NPP     2023012706571220240730
20230126T2IUUVR1M    -000061700000000-000061700000000-000061700000000NPP     2023012706571220230228
20230126T2IUUVR1Y    000002160000000000000216000000000000021600000000NPP     2023012706571220240130
20230126T2IUUVR3M    -000060600000000-000060600000000-000060600000000NPP     2023012706571220230428
20230126T2IUUVR6M    -000012800000000-000012800000000-000012800000000NPP     2023012706571220230731
20230126T2IUUVR9M    000000670000000000000067000000000000006700000000NPP     2023012706571220231030
20230126T2IUUVRON    -000033625599300-000033625599300-000033625599300NPP     2023012706571220230127
20230126T2USUSD10M   000004864229930000000486422993000000048642299300NPP     2023012706571220231130
20230126T2USUSD11M   000004859535880000000485953588000000048595358800NPP     2023012706571220231229
20230126T2USUSD1M    000004495155100000000449515510000000044951551000NPP     2023012706571220230228
20230126T2USUSD1Y    000004838422840000000483842284000000048384228400NPP     2023012706571220240130
20230126T2USUSD2M    000004601342230000000460134223000000046013422300NPP     2023012706571220230330
20230126T2USUSD2W    000004420313450000000442031345000000044203134500NPP     2023012706571220230213
20230126T2USUSD3M    000004662166370000000466216637000000046621663700NPP     2023012706571220230428
20230126T2USUSD3W    000004459842180000000445984218000000044598421800NPP     2023012706571220230221
20230126T2USUSD4M    000004731093110000000473109311000000047310931100NPP     2023012706571220230530
20230126T2USUSD5M    000004786792710000000478679271000000047867927100NPP     2023012706571220230630
20230126T2USUSD6M    000004814261440000000481426144000000048142614400NPP     2023012706571220230731
20230126T2USUSD7M    000004841253080000000484125308000000048412530800NPP     2023012706571220230830
20230126T2USUSD8M    000004860732090000000486073209000000048607320900NPP     2023012706571220230929
20230126T2USUSD9M    000004862380860000000486238086000000048623808600NPP     2023012706571220231030
20230126T2USUSDON    000004310000000000000431000000000000043100000000NPP     2023012706571220230127
20230126T2USUSDSW    000004388730510000000438873051000000043887305100NPP     2023012706571220230206
20230126T2UIUSD1M    000004412964460000000441296446000000044129644600NPP     2023012706571220230224
20230126T2UIUSD1W    000003971479990000000397147999000000039714799900NPP     2023012706571220230202
20230126T2UIUSD1Y    000004291957840000000429195784000000042919578400NPP     2023012706571220240126
20230126T2UIUSD2M    000004334781110000000433478111000000043347811100NPP     2023012706571220230328
20230126T2UIUSD2W    000004099681190000000409968119000000040996811900NPP     2023012706571220230209
20230126T2UIUSD3M    000004408990010000000440899001000000044089900100NPP     2023012706571220230426
20230126T2UIUSD6M    000004526990800000000452699080000000045269908000NPP     2023012706571220230727
20230126T2UIUSD9M    000004566029910000000456602991000000045660299100NPP     2023012706571220231026
20230126T2UIUSDON    000003867779860000000386777986000000038677798600NPP     2023012706571220230127
20230126T2COCOF10Y   000011502290130000001150229013000000115022901300NPP     2023012706571320330131
20230126T2COCOF12Y   000012740334490000001274033449000000127403344900NPP     2023012706571320350130
20230126T2COCOF15Y   000015170409280000001517040928000000151704092800NPP     2023012706571320380129
20230126T2COCOF18M   000013236157840000001323615784000000132361578400NPP     2023012706571320240726
20230126T2COCOF20Y   000020294925160000002029492516000000202949251600NPP     2023012706571320430130
20230126T2COCOF25Y   000025767081270000002576708127000000257670812700NPP     2023012706571320480130
20230126T2COCOF2Y    000010554348070000001055434807000000105543480700NPP     2023012706571320250130
20230126T2COCOF3Y    000010057057770000001005705777000000100570577700NPP     2023012706571320260130
20230126T2COCOF4Y    000009926669170000000992666917000000099266691700NPP     2023012706571320270129
20230126T2COCOF5Y    000009758196620000000975819662000000097581966200NPP     2023012706571320280131
20230126T2COCOF6Y    000010076518900000001007651890000000100765189000NPP     2023012706571320290130
20230126T2COCOF7Y    000010330966840000001033096684000000103309668400NPP     2023012706571320300130
20230126T2COCOF8Y    000010763589940000001076358994000000107635899400NPP     2023012706571320310130
20230126T2COCOF9Y    000011109498240000001110949824000000111094982400NPP     2023012706571320320130
20230126T2DTCOP10Y   000014999336630000001499933663000000149993366300NPP     2023012706571320330131
20230126T2DTCOP2Y    000012199817150000001219981715000000121998171500NPP     2023012706571320250130
20230126T2DTCOP3Y    000011906797350000001190679735000000119067973500NPP     2023012706571320260130
20230126T2DTCOP4Y    000011977722700000001197772270000000119777227000NPP     2023012706571320270129
20230126T2DTCOP5Y    000012013985770000001201398577000000120139857700NPP     2023012706571420280131
20230126T2DTCOP6Y    000012487205670000001248720567000000124872056700NPP     2023012706571420290130
20230126T2DTCOP7Y    000012999250310000001299925031000000129992503100NPP     2023012706571420300130
20230126T2DTCOP8Y    000013623055790000001362305579000000136230557900NPP     2023012706571420310130
20230126T2DTCOP9Y    000014364662840000001436466284000000143646628400NPP     2023012706571420320130
20230126T2ESUSD10M   000003068497550000000306849755000000030684975500NPP     2023012706571420231130
20230126T2ESUSD10Y   000002847646200000000284764620000000028476462000NPP     2023012706571420330131
20230126T2ESUSD11M   000003093497760000000309349776000000030934977600NPP     2023012706571420231229
20230126T2ESUSD12Y   000002974448750000000297444875000000029744487500NPP     2023012706571420350130
20230126T2ESUSD15Y   000003117429340000000311742934000000031174293400NPP     2023012706571420380129
20230126T2ESUSD18M   000003085498610000000308549861000000030854986100NPP     2023012706571420240730
20230126T2ESUSD1M    000002245224910000000224522491000000022452249100NPP     2023012706571420230228
20230126T2ESUSD1W    000001902646200000000190264620000000019026462000NPP     2023012706571420230206
20230126T2ESUSD1Y    000003113997950000000311399795000000031139979500NPP     2023012706571420240130
20230126T2ESUSD20Y   000003150996600000000315099660000000031509966000NPP     2023012706571420430130
20230126T2ESUSD25Y   000003081830110000000308183011000000030818301100NPP     2023012706571420480130
20230126T2ESUSD2M    000002385737640000000238573764000000023857376400NPP     2023012706571420230330
20230126T2ESUSD2W    000002080198080000000208019808000000020801980800NPP     2023012706571420230213
20230126T2ESUSD2Y    000003029792440000000302979244000000030297924400NPP     2023012706571420250130
20230126T2ESUSD3M    000002537991690000000253799169000000025379916900NPP     2023012706571420230428
20230126T2ESUSD3Y    000002862279340000000286227934000000028622793400NPP     2023012706571420260130
20230126T2ESUSD4M    000002667793890000000266779389000000026677938900NPP     2023012706571420230530
20230126T2ESUSD4Y    000002760208480000000276020848000000027602084800NPP     2023012706571420270129
20230126T2ESUSD5M    000002773545140000000277354514000000027735451400NPP     2023012706571420230630
20230126T2ESUSD5Y    000002717993710000000271799371000000027179937100NPP     2023012706571420280131
20230126T2ESUSD6M    000002864695950000000286469595000000028646959500NPP     2023012706571420230731
20230126T2ESUSD7M    000002935496520000000293549652000000029354965200NPP     2023012706571420230830
20230126T2ESUSD7Y    000002712462850000000271246285000000027124628500NPP     2023012706571420300130
20230126T2ESUSD8M    000002990496940000000299049694000000029904969400NPP     2023012706571420230929
20230126T2ESUSD9M    000003035497280000000303549728000000030354972800NPP     2023012706571420231030
20230126T2ESUSDON    000001904000000000000190400000000000019040000000NPP     2023012706571420230127
20230126T2IMEUC15M   000002898003440000000289800344000000028980034400NPP     20230127065714        
20230126T2IMEUC18M   000002913587310000000291358731000000029135873100NPP     20230127065714        
20230126T2IMEUC21M   000002879012490000000287901249000000028790124900NPP     20230127065714        
20230126T2IMEUC2Y    000002817521250000000281752125000000028175212500NPP     20230127065714        
20230126T2IMEUC3Y    000002652634680000000265263468000000026526346800NPP     20230127065714        
20230126T2IMEUC4Y    000002539038770000000253903877000000025390387700NPP     20230127065714        
20230126T2IMEUC5Y    000002499666320000000249966632000000024996663200NPP     20230127065714        
20230126T2FFUSD10M   000004874566510000000487456651000000048745665100NPP     2023012706571420231130
20230126T2FFUSD10Y   000003667890870000000366789087000000036678908700NPP     2023012706571420330131
20230126T2FFUSD11M   000004861605020000000486160502000000048616050200NPP     2023012706571420231229
20230126T2FFUSD12Y   000003780920040000000378092004000000037809200400NPP     2023012706571420350130
20230126T2FFUSD15Y   000004001263360000000400126336000000040012633600NPP     2023012706571420380129
20230126T2FFUSD1M    000004577660270000000457766027000000045776602700NPP     2023012706571420230228
20230126T2FFUSD1W    000004500199590000000450019959000000045001995900NPP     2023012706571420230206
20230126T2FFUSD1Y    000004843162540000000484316254000000048431625400NPP     2023012706571420240130
20230126T2FFUSD20Y   000004303678710000000430367871000000043036787100NPP     2023012706571420430130
20230126T2FFUSD25Y   000004361005890000000436100589000000043610058900NPP     2023012706571520480130
20230126T2FFUSD2M    000004622526610000000462252661000000046225266100NPP     2023012706571520230330
20230126T2FFUSD2W    000004547930010000000454793001000000045479300100NPP     2023012706571520230213
20230126T2FFUSD2Y    000004283361110000000428336111000000042833611100NPP     2023012706571520250130
20230126T2FFUSD3M    000004695113430000000469511343000000046951134300NPP     2023012706571520230428
20230126T2FFUSD3W    000004569001490000000456900149000000045690014900NPP     2023012706571520230221
20230126T2FFUSD3Y    000003882738890000000388273889000000038827388900NPP     2023012706571520260130
20230126T2FFUSD4M    000004761916950000000476191695000000047619169500NPP     2023012706571520230530
20230126T2FFUSD4Y    000003685246980000000368524698000000036852469800NPP     2023012706571520270129
20230126T2FFUSD5M    000004809095620000000480909562000000048090956200NPP     2023012706571520230630
20230126T2FFUSD5Y    000003591240240000000359124024000000035912402400NPP     2023012706571520280131
20230126T2FFUSD6M    000004843737430000000484373743000000048437374300NPP     2023012706571520230731
20230126T2FFUSD7M    000004862635880000000486263588000000048626358800NPP     2023012706571520230830
20230126T2FFUSD7Y    000003551749730000000355174973000000035517497300NPP     2023012706571520300130
20230126T2FFUSD8M    000004876570450000000487657045000000048765704500NPP     2023012706571520230929
20230126T2FFUSD9M    000004881104610000000488110461000000048811046100NPP     2023012706571520231030
20230126T2FFUSDON    000004330000000000000433000000000000043300000000NPP     2023012706571520230127
20230126T2GBGBP15M   000004136694260000000413669426000000041366942600NPP     2023012706571520240430
20230126T2GBGBP18M   000004078181180000000407818118000000040781811800NPP     2023012706571520240730
20230126T2GBGBP21M   000004008806020000000400880602000000040088060200NPP     2023012706571520241030
20230126T2GBGBP2Y    000003957702170000000395770217000000039577021700NPP     2023012706571520250130
20230126T2GBGBP3Y    000003736041880000000373604188000000037360418800NPP     2023012706571520260130
20230126T2GBGBP4Y    000003636272680000000363627268000000036362726800NPP     2023012706571520270129
20230126T2GBGBP5Y    000003585182290000000358518229000000035851822900NPP     2023012706571520280131
20230126T2BLUSD10Y   000002588463770000000258846377000000025884637700NPP     2023012706571520330131
20230126T2BLUSD2Y    000003344664750000000334466475000000033446647500NPP     2023012706571520250130
20230126T2BLUSD3Y    000002823771070000000282377107000000028237710700NPP     2023012706571520260130
20230126T2BLUSD4Y    000002578485700000000257848570000000025784857000NPP     2023012706571520270129
20230126T2BLUSD5Y    000002458179560000000245817956000000024581795600NPP     2023012706571520280131
20230126T2BLUSD6Y    000002463852340000000246385234000000024638523400NPP     2023012706571520290130
20230126T2BLUSD7Y    000002435666600000000243566660000000024356666000NPP     2023012706571520300130
20230126T2BLUSD8Y    000002507486410000000250748641000000025074864100NPP     2023012706571520310130
20230126T2BLUSD9Y    000002525971060000000252597106000000025259710600NPP     2023012706571520320130
20230126T2IBCOP10Y   000015140765710000001514076571000000151407657100NPP     2023012706571520330131
20230126T2IBCOP12Y   000016978566700000001697856670000000169785667000NPP     2023012706571520350130
20230126T2IBCOP15Y   000019824152260000001982415226000000198241522600NPP     2023012706571520380129
20230126T2IBCOP18M   000012390000000000001239000000000000123900000000NPP     2023012706571520240730
20230126T2IBCOP20Y   000024466355520000002446635552000000244663555200NPP     2023012706571520430130
20230126T2IBCOP2Y    000012116576940000001211657694000000121165769400NPP     2023012706571620250130
20230126T2IBCOP3Y    000011878832570000001187883257000000118788325700NPP     2023012706571620260130
20230126T2IBCOP4Y    000011984028510000001198402851000000119840285100NPP     2023012706571620270129
20230126T2IBCOP5Y    000012045755070000001204575507000000120457550700NPP     2023012706571620280131
20230126T2IBCOP6Y    000012543386900000001254338690000000125433869000NPP     2023012706571620290130
20230126T2IBCOP7Y    000013086258410000001308625841000000130862584100NPP     2023012706571620300130
20230126T2IBCOP8Y    000013719823620000001371982362000000137198236200NPP     2023012706571620310130
20230126T2IBCOP9Y    000014474067430000001447406743000000144740674300NPP     2023012706571620320130
20230126T2ECEUR10Y   000001608633290000000160863329000000016086332900NPP     2023012706571620330131
20230126T2ECEUR12Y   000001757912940000000175791294000000017579129400NPP     2023012706571620350130
20230126T2ECEUR2Y    000002003958740000000200395874000000020039587400NPP     2023012706571620250130
20230126T2ECEUR3Y    000001703436760000000170343676000000017034367600NPP     2023012706571620260130
20230126T2ECEUR4Y    000001552467010000000155246701000000015524670100NPP     2023012706571620270129
20230126T2ECEUR5Y    000001488865050000000148886505000000014888650500NPP     2023012706571620280131
20230126T2ECEUR6Y    000001508877070000000150887707000000015088770700NPP     2023012706571620290130
20230126T2ECEUR7Y    000001467746580000000146774658000000014677465800NPP     2023012706571620300130
20230126T2ECEUR8Y    000001554327460000000155432746000000015543274600NPP     2023012706571620310130
20230126T2ECEUR9Y    000001566600400000000156660040000000015666004000NPP     2023012706571620320130
202301262L12USD10Y   000004639120530000000463912053000000046391205300NPP     2023012706571920330131
202301262L12USD12Y   000004805660070000000480566007000000048056600700NPP     2023012706571920350130
202301262L12USD15Y   000005216363490000000521636349000000052163634900NPP     2023012706571920380129
202301262L12USD20Y   000005544749190000000554474919000000055447491900NPP     2023012706571920430130
202301262L12USD25Y   000005948929250000000594892925000000059489292500NPP     2023012706571920480130
202301262L12USD2Y    000004956408210000000495640821000000049564082100NPP     2023012706571920250130
202301262L12USD30Y   000006047359940000000604735994000000060473599400NPP     2023012706571920530130
202301262L12USD3Y    000004583281520000000458328152000000045832815200NPP     2023012706571920260130
202301262L12USD4Y    000004434379250000000443437925000000044343792500NPP     2023012706571920270129
202301262L12USD5Y    000004347460170000000434746017000000043474601700NPP     2023012706571920280131
202301262L12USD7Y    000004391403120000000439140312000000043914031200NPP     2023012706571920300130
20230126T2L1USD10Y   000003830055780000000383005578000000038300557800NPP     2023012706571920330131
20230126T2L1USD12Y   000003974957030000000397495703000000039749570300NPP     2023012706571920350130
20230126T2L1USD15Y   000004230104440000000423010444000000042301044400NPP     2023012706571920380129
20230126T2L1USD20Y   000004539622350000000453962235000000045396223500NPP     2023012706571920430130
20230126T2L1USD25Y   000004696315380000000469631538000000046963153800NPP     2023012706571920480130
20230126T2L1USD2Y    000004406446570000000440644657000000044064465700NPP     2023012706571920250130
20230126T2L1USD30Y   000004805060090000000480506009000000048050600900NPP     2023012706571920530130
20230126T2L1USD3Y    000004008954560000000400895456000000040089545600NPP     2023012706572020260130
20230126T2L1USD4Y    000003817034350000000381703435000000038170343500NPP     2023012706572020270129
20230126T2L1USD5Y    000003711840090000000371184009000000037118400900NPP     2023012706572020280131
20230126T2L1USD7Y    000003703591940000000370359194000000037035919400NPP     2023012706572020300130
20230126T2L3USD10Y   000004030716590000000403071659000000040307165900NPP     2023012706572020330131
20230126T2L3USD11Y   000004108928070000000410892807000000041089280700NPP     2023012706572020340130
20230126T2L3USD12Y   000004188800260000000418880026000000041888002600NPP     2023012706572020350130
20230126T2L3USD13Y   000004280148190000000428014819000000042801481900NPP     2023012706572020360130
20230126T2L3USD14Y   000004373266230000000437326623000000043732662300NPP     2023012706572020370130
20230126T2L3USD15Y   000004469626850000000446962685000000044696268500NPP     2023012706572020380129
20230126T2L3USD20Y   000004821564300000000482156430000000048215643000NPP     2023012706572020430130
20230126T2L3USD25Y   000005017128580000000501712858000000050171285800NPP     2023012706572020480130
20230126T2L3USD2Y    000004542076720000000454207672000000045420767200NPP     2023012706572020250130
20230126T2L3USD30Y   000005166918940000000516691894000000051669189400NPP     2023012706572020530130
20230126T2L3USD3Y    000004156482260000000415648226000000041564822600NPP     2023012706572020260130
20230126T2L3USD4Y    000003973527960000000397352796000000039735279600NPP     2023012706572020270129
20230126T2L3USD5Y    000003875114360000000387511436000000038751143600NPP     2023012706572020280131
20230126T2L3USD6Y    000003861146800000000386114680000000038611468000NPP     2023012706572020290130
20230126T2L3USD7Y    000003881711370000000388171137000000038817113700NPP     2023012706572020300130
20230126T2L3USD8Y    000003903582000000000390358200000000039035820000NPP     2023012706572020310130
20230126T2L3USD9Y    000003960027410000000396002741000000039600274100NPP     2023012706572020320130
20230126T2L6USD10Y   000004264407130000000426440713000000042644071300NPP     2023012706572020330131
20230126T2L6USD12Y   000004439722300000000443972230000000044397223000NPP     2023012706572020350130
20230126T2L6USD15Y   000004749498720000000474949872000000047494987200NPP     2023012706572020380129
20230126T2L6USD20Y   000005153245780000000515324578000000051532457800NPP     2023012706572020430130
20230126T2L6USD25Y   000005403850920000000540385092000000054038509200NPP     2023012706572020480130
20230126T2L6USD2Y    000004716764260000000471676426000000047167642600NPP     2023012706572020250130
20230126T2L6USD30Y   000005607391260000000560739126000000056073912600NPP     2023012706572020530130
20230126T2L6USD3Y    000004338647460000000433864746000000043386474600NPP     2023012706572020260130
20230126T2L6USD4Y    000004163155520000000416315552000000041631555200NPP     2023012706572020270129
20230126T2L6USD5Y    000004072475330000000407247533000000040724753300NPP     2023012706572020280131
20230126T2L6USD7Y    000004091973790000000409197379000000040919737900NPP     2023012706572020300130
20230126T2UVV1 102M  000002398037260000000239803726000000023980372600NPP     2023012706572020240726
20230126T2UVV1 10Y   000002743035550000000274303555000000027430355500NPP     2023012706572020260126
20230126T2UVV1 114M  000002614646550000000261464655000000026146465500NPP     2023012706572020250728
20230126T2UVV1 18M   000000341230960000000034123096000000003412309600NPP     2023012706572020170724
20230126T2UVV1 2Y    000000706674910000000070667491000000007066749100NPP     2023012706572020180126
20230126T2UVV1 30M   000000859459010000000085945901000000008594590100NPP     2023012706572020180726
20230126T2UVV1 3Y    000001018933430000000101893343000000010189334300NPP     2023012706572020190128
20230126T2UVV1 42M   000001160940700000000116094070000000011609407000NPP     2023012706572020190726
20230126T2UVV1 4Y    000001310739080000000131073908000000013107390800NPP     2023012706572020200127
20230126T2UVV1 54M   000001450238580000000145023858000000014502385800NPP     2023012706572020200727
20230126T2UVV1 5Y    000001594079940000000159407994000000015940799400NPP     2023012706572020210126
20230126T2UVV1 66M   000001740343880000000174034388000000017403438800NPP     2023012706572020210726
20230126T2UVV1 6Y    000001893563280000000189356328000000018935632800NPP     2023012706572020220126
20230126T2UVV1 78M   000002007176010000000200717601000000020071760100NPP     2023012706572020220726
20230126T2UVV1 7Y    000002126266100000000212626610000000021262661000NPP     2023012706572020230126
20230126T2UVV1 8Y    000002309425160000000230942516000000023094251600NPP     2023012706572020240126
20230126T2UVV1 90M   000002215695750000000221569575000000022156957500NPP     2023012706572020230726
20230126T2UVV1 9Y    000002491032660000000249103266000000024910326600NPP     2023012706572020250127
20230126T2SOUSD10M   000004864229930000000486422993000000048642299300NPP     2023012706572020231130
20230126T2SOUSD10Y   000003679527640000000367952764000000036795276400NPP     2023012706572020330131
20230126T2SOUSD11M   000004859535880000000485953588000000048595358800NPP     2023012706572020231229
20230126T2SOUSD12Y   000003786777090000000378677709000000037867770900NPP     2023012706572020350130
20230126T2SOUSD15Y   000004019007340000000401900734000000040190073400NPP     2023012706572020380129
20230126T2SOUSD1M    000004495155100000000449515510000000044951551000NPP     2023012706572020230228
20230126T2SOUSD1Y    000004838422840000000483842284000000048384228400NPP     2023012706572120240130
20230126T2SOUSD20Y   000004352091560000000435209156000000043520915600NPP     2023012706572120430130
20230126T2SOUSD25Y   000004391785250000000439178525000000043917852500NPP     2023012706572120480130
20230126T2SOUSD2M    000004601342230000000460134223000000046013422300NPP     2023012706572120230330
20230126T2SOUSD2W    000004420313450000000442031345000000044203134500NPP     2023012706572120230213
20230126T2SOUSD2Y    000004289415640000000428941564000000042894156400NPP     2023012706572120250130
20230126T2SOUSD3M    000004662166370000000466216637000000046621663700NPP     2023012706572120230428
20230126T2SOUSD3W    000004459842180000000445984218000000044598421800NPP     2023012706572120230221
20230126T2SOUSD3Y    000003889056300000000388905630000000038890563000NPP     2023012706572120260130
20230126T2SOUSD4M    000004731093110000000473109311000000047310931100NPP     2023012706572120230530
20230126T2SOUSD4Y    000003690681050000000369068105000000036906810500NPP     2023012706572120270129
20230126T2SOUSD5M    000004786792710000000478679271000000047867927100NPP     2023012706572120230630
20230126T2SOUSD5Y    000003596370460000000359637046000000035963704600NPP     2023012706572120280131
20230126T2SOUSD6M    000004814261440000000481426144000000048142614400NPP     2023012706572120230731
20230126T2SOUSD7M    000004841253080000000484125308000000048412530800NPP     2023012706572120230830
20230126T2SOUSD7Y    000003557961480000000355796148000000035579614800NPP     2023012706572120300130
20230126T2SOUSD8M    000004860732090000000486073209000000048607320900NPP     2023012706572120230929
20230126T2SOUSD9M    000004862380860000000486238086000000048623808600NPP     2023012706572120231030
20230126T2SOUSDON    000004310000000000000431000000000000043100000000NPP     2023012706572120230127
20230126T2SOUSDSW    000004388730510000000438873051000000043887305100NPP     2023012706572120230206
20230126T2IUUVR10Y   000004176597160000000417659716000000041765971600NPP     2023012706572120330131
20230126T2IUUVR15Y   000004663274720000000466327472000000046632747200NPP     2023012706572120380129
20230126T2IUUVR2Y    000002557286140000000255728614000000025572861400NPP     2023012706572120250130
20230126T2IUUVR3Y    000003023183940000000302318394000000030231839400NPP     2023012706572120260130
20230126T2IUUVR4Y    000003404628990000000340462899000000034046289900NPP     2023012706572120270129
20230126T2IUUVR5Y    000003597520270000000359752027000000035975202700NPP     2023012706572120280131
20230126T2IUUVR6Y    000003846843360000000384684336000000038468433600NPP     2023012706572120290130
20230126T2IUUVR7Y    000004008714780000000400871478000000040087147800NPP     2023012706572120300130
20230126T2IUUVR8Y    000004136561610000000413656161000000041365616100NPP     2023012706572120310130
20230126T2IUUVR9Y    000004609549990000000460954999000000046095499900NPP     2023012706572120320130
20230126T2USUSD10Y   000003679527640000000367952764000000036795276400NPP     2023012706572120330131
20230126T2USUSD12Y   000003786777090000000378677709000000037867770900NPP     2023012706572120350130
20230126T2USUSD15Y   000004019007340000000401900734000000040190073400NPP     2023012706572120380129
20230126T2USUSD20Y   000004352091560000000435209156000000043520915600NPP     2023012706572120430130
20230126T2USUSD25Y   000004391785250000000439178525000000043917852500NPP     2023012706572120480130
20230126T2USUSD2Y    000004289415640000000428941564000000042894156400NPP     2023012706572120250130
20230126T2USUSD3Y    000003889056300000000388905630000000038890563000NPP     2023012706572120260130
20230126T2USUSD4Y    000003690681050000000369068105000000036906810500NPP     2023012706572120270129
20230126T2USUSD5Y    000003596370460000000359637046000000035963704600NPP     2023012706572220280131
20230126T2USUSD7Y    000003557961480000000355796148000000035579614800NPP     2023012706572220300130
20230126T2UIUSD10Y   000002588463770000000258846377000000025884637700NPP     2023012706572220330131
20230126T2UIUSD12Y   000002752937040000000275293704000000027529370400NPP     2023012706572220350130
20230126T2UIUSD15Y   000003146818230000000314681823000000031468182300NPP     2023012706572220380129
20230126T2UIUSD18M   000003863677410000000386367741000000038636774100NPP     2023012706572220240726
20230126T2UIUSD20Y   000003773281500000000377328150000000037732815000NPP     2023012706572220430130
20230126T2UIUSD25Y   000003872704180000000387270418000000038727041800NPP     2023012706572220480130
20230126T2UIUSD2Y    000003344664750000000334466475000000033446647500NPP     2023012706572220250130
20230126T2UIUSD3Y    000002823771070000000282377107000000028237710700NPP     2023012706572220260130
20230126T2UIUSD4Y    000002578485700000000257848570000000025784857000NPP     2023012706572220270129
20230126T2UIUSD5Y    000002458179560000000245817956000000024581795600NPP     2023012706572220280131
20230126T2UIUSD6Y    000002463852340000000246385234000000024638523400NPP     2023012706572220290130
20230126T2UIUSD7Y    000002435666600000000243566660000000024356666000NPP     2023012706572220300130
20230126T2UIUSD8Y    000002507486410000000250748641000000025074864100NPP     2023012706572220310130
20230126T2UIUSD9Y    000002525971060000000252597106000000025259710600NPP     2023012706572220320130
20230126CPFFUSD001   000004300000000000000430000000000000043000000000NPP     20230126091236        
20230126CPFFUSD002   000004300000000000000430000000000000043000000000NPP     20230126091236        
20230126CPFFUSD003   000004300000000000000430000000000000043000000000NPP     20230126091236        
20230126CPFFUSD004   000004300000000000000430000000000000043000000000NPP     20230126091236        
20230126CPFFUSD005   000004300000000000000430000000000000043000000000NPP     20230126091236        
20230126CPFFUSD006   000004300000000000000430000000000000043000000000NPP     20230126091236        
20230126CPFFUSD007   000004301430000000000430143000000000043014300000NPP     20230126091236        
20230126CPFFUSD008   000004301250000000000430125000000000043012500000NPP     20230126091236        
20230126CPFFUSD009   000004302220000000000430222000000000043022200000NPP     20230126091236        
20230126CPFFUSD010   000004302000000000000430200000000000043020000000NPP     20230126091236        
20230126CPFFUSD011   000004301820000000000430182000000000043018200000NPP     20230126091236        
20230126CPFFUSD012   000004301670000000000430167000000000043016700000NPP     20230126091236        
20230126CPFFUSD013   000004301540000000000430154000000000043015400000NPP     20230126091236        
20230126CPFFUSD014   000004301430000000000430143000000000043014300000NPP     20230126091236        
20230126CPFFUSD015   000004301330000000000430133000000000043013300000NPP     20230126091236        
20230126CPFFUSD016   000004301870000000000430187000000000043018700000NPP     20230126091236        
20230126CPFFUSD017   000004302350000000000430235000000000043023500000NPP     20230126091236        
20230126CPFFUSD018   000004302780000000000430278000000000043027800000NPP     20230126091236        
20230126CPFFUSD019   000004303160000000000430316000000000043031600000NPP     20230126091236        
20230126CPFFUSD020   000004303500000000000430350000000000043035000000NPP     20230126091236        
20230126CPFFUSD021   000004303810000000000430381000000000043038100000NPP     20230126091236        
20230126CPFFUSD022   000004303640000000000430364000000000043036400000NPP     20230126091236        
20230126CPFFUSD023   000004303910000000000430391000000000043039100000NPP     20230126091236        
20230126CPFFUSD024   000004303750000000000430375000000000043037500000NPP     20230126091236        
20230126CPFFUSD025   000004303600000000000430360000000000043036000000NPP     20230126091236        
20230126CPFFUSD026   000004303460000000000430346000000000043034600000NPP     20230126091236        
20230126CPFFUSD027   000004303330000000000430333000000000043033300000NPP     20230126091236        
20230126CPFFUSD028   000004303210000000000430321000000000043032100000NPP     20230126091236        
20230126CPFFUSD029   000004303100000000000430310000000000043031000000NPP     20230126091236        
20230126CPFFUSD030   000004303000000000000430300000000000043030000000NPP     20230126091236        
20230126CPFFUSD031   000004302900000000000430290000000000043029000000NPP     20230126091236        
20230126CPFFUSD032   000004302810000000000430281000000000043028100000NPP     20230126091236        
20230126CPFFUSD033   000004302730000000000430273000000000043027300000NPP     20230126091236        
20230126CPFFUSD034   000004302650000000000430265000000000043026500000NPP     20230126091236        
20230126CPFFUSD035   000004302570000000000430257000000000043025700000NPP     20230126091236        
20230126CPFFUSD036   000004302500000000000430250000000000043025000000NPP     20230126091236        
20230126CPFFUSD037   000004302430000000000430243000000000043024300000NPP     20230126091236        
20230126CPFFUSD038   000004302370000000000430237000000000043023700000NPP     20230126091236        
20230126CPFFUSD039   000004302820000000000430282000000000043028200000NPP     20230126091236        
20230126CPFFUSD040   000004303250000000000430325000000000043032500000NPP     20230126091236        
