20230201DEPOB121M    000016333600000000001633360000000000163336000000NPP     20230202052958        
20230201DEPOB121Y    000019800700000000001980070000000000198007000000NPP     20230202052958        
20230201DEPOB122M    000017020100000000001702010000000000170201000000NPP     20230202052958        
20230201DEPOB122W    000015895500000000001589550000000000158955000000NPP     20230202052958        
20230201DEPOB122Y    000020112700000000002011270000000000201127000000NPP     20230202052958        
20230201DEPOB123M    000017622700000000001762270000000000176227000000NPP     20230202052958        
20230201DEPOB123Y    000020110100000000002011010000000000201101000000NPP     20230202052958        
20230201DEPOB124Y    000020098100000000002009810000000000200981000000NPP     20230202052958        
20230201DEPOB125Y    000020091400000000002009140000000000200914000000NPP     20230202052958        
20230201DEPOB126M    000018815900000000001881590000000000188159000000NPP     20230202052958        
20230201DEPOB129M    000019462300000000001946230000000000194623000000NPP     20230202052958        
20230201DEPOB12ON    000015504600000000001550460000000000155046000000NPP     20230202052958        
20230201DEPOB12SW    000015689100000000001568910000000000156891000000NPP     20230202052958        
20230201DEPOB12TN    000015566900000000001556690000000000155669000000NPP     20230202052958        
20230201DEPOCOF1M    000011898487800000001189848780000000118984878000NPP     2023020205295920230301
20230201DEPOCOF1Y    000012871668690000001287166869000000128716686900NPP     2023020205295920240201
20230201DEPOCOF2M    000012182120450000001218212045000000121821204500NPP     2023020205295920230330
20230201DEPOCOF2W    000011828501860000001182850186000000118285018600NPP     2023020205295920230215
20230201DEPOCOF3M    000012295312960000001229531296000000122953129600NPP     2023020205295920230428
20230201DEPOCOF6M    000012590255090000001259025509000000125902550900NPP     2023020205295920230801
20230201DEPOCOF9M    000012717871270000001271787127000000127178712700NPP     2023020205295920231101
20230201DEPOCOFON    000011760709110000001176070911000000117607091100NPP     2023020205295920230202
20230201DEPOCOFSW    000011771469300000001177146930000000117714693000NPP     2023020205295920230208
20230201DTFPCOP1Y    000013329343840000001332934384000000133293438400NPP     2023020205295920240205
20230201DTFPCOP3M    000013558906240000001355890624000000135589062400NPP     2023020205295920230503
20230201DTFPCOP6M    000013128975480000001312897548000000131289754800NPP     2023020205295920230803
20230201DTFPCOP9M    000012837866610000001283786661000000128378666100NPP     2023020205295920231103
20230201DTFPCOPON    000013940000000000001394000000000000139400000000NPP     2023020205295920230202
20230201DEPOEUC10M   000002982909150000000298290915000000029829091500NPP     2023020205295920231204
20230201DEPOEUC11M   000002938573110000000293857311000000029385731100NPP     2023020205295920240103
20230201DEPOEUC1D    000000113181220000000011318122000000001131812200NPP     2023020205295920230202
20230201DEPOEUC1M    000002322002560000000232200256000000023220025600NPP     2023020205295920230303
20230201DEPOEUC1Y    000002961612210000000296161221000000029616122100NPP     2023020205295920240205
20230201DEPOEUC2M    000002354299950000000235429995000000023542999500NPP     2023020205295920230403
20230201DEPOEUC2W    000002302945940000000230294594000000023029459400NPP     2023020205295920230217
20230201DEPOEUC3D    000003806748380000000380674838000000038067483800NPP     2023020205295920230206
20230201DEPOEUC3M    000002496733290000000249673329000000024967332900NPP     2023020205295920230503
20230201DEPOEUC3W    000002307732490000000230773249000000023077324900NPP     2023020205295920230224
20230201DEPOEUC4M    000002663603230000000266360323000000026636032300NPP     2023020205295920230605
20230201DEPOEUC5M    000002694738590000000269473859000000026947385900NPP     2023020205295920230703
20230201DEPOEUC6M    000002788720970000000278872097000000027887209700NPP     2023020205295920230803
20230201DEPOEUC7M    000002871296090000000287129609000000028712960900NPP     2023020205295920230905
20230201DEPOEUC8M    000002907851470000000290785147000000029078514700NPP     2023020205295920231003
20230201DEPOEUC9M    000002955240960000000295524096000000029552409600NPP     2023020205295920231103
20230201DEPOEUCSW    000002335368540000000233536854000000023353685400NPP     2023020205295920230210
20230201IMGBGBP10M   000004190962750000000419096275000000041909627500NPP     2023020205295920231204
20230201IMGBGBP11M   000004152396310000000415239631000000041523963100NPP     2023020205295920240103
20230201IMGBGBP1M    000003765998090000000376599809000000037659980900NPP     2023020205295920230303
20230201IMGBGBP1Y    000004153730150000000415373015000000041537301500NPP     2023020205295920240205
20230201IMGBGBP2M    000003817511850000000381751185000000038175118500NPP     2023020205295920230403
20230201IMGBGBP2W    000003726183170000000372618317000000037261831700NPP     2023020205295920230217
20230201IMGBGBP3M    000003915659590000000391565959000000039156595900NPP     2023020205300020230503
20230201IMGBGBP3W    000003739885660000000373988566000000037398856600NPP     2023020205300020230224
20230201IMGBGBP4M    000004010652460000000401065246000000040106524600NPP     2023020205300020230605
20230201IMGBGBP5M    000004045025350000000404502535000000040450253500NPP     2023020205300020230703
20230201IMGBGBP6M    000004092217120000000409221712000000040922171200NPP     2023020205300020230803
20230201IMGBGBP7M    000004138842570000000413884257000000041388425700NPP     2023020205300020230905
20230201IMGBGBP8M    000004160497090000000416049709000000041604970900NPP     2023020205300020231003
20230201IMGBGBP9M    000004177864220000000417786422000000041778642200NPP     2023020205300020231103
20230201IMGBGBPON    000003389585790000000338958579000000033895857900NPP     2023020205300020230202
20230201IMGBGBPSW    000003760387600000000376038760000000037603876000NPP     2023020205300020230210
20230201IBR COP1M    000011884357640000001188435764000000118843576400NPP     2023020205300020230303
20230201IBR COP1Y    000012385147910000001238514791000000123851479100NPP     2023020205300020240205
20230201IBR COP3M    000012141125960000001214112596000000121411259600NPP     2023020205300020230503
20230201IBR COP6M    000012451386710000001245138671000000124513867100NPP     2023020205300020230803
20230201IBR COP9M    000012394058770000001239405877000000123940587700NPP     2023020205300020231103
20230201IBR COPON    000011836000000000001183600000000000118360000000NPP     2023020205300020230202
20230201IPECEUR10M   000002613600450000000261360045000000026136004500NPP     2023020205300020231204
20230201IPECEUR11M   000002524249280000000252424928000000025242492800NPP     2023020205300020240103
20230201IPECEUR1M    000002275931080000000227593108000000022759310800NPP     2023020205300020230303
20230201IPECEUR1W    000002395934650000000239593465000000023959346500NPP     2023020205300020230210
20230201IPECEUR1Y    000002255319130000000225531913000000022553191300NPP     2023020205300020240205
20230201IPECEUR2M    000002173139130000000217313913000000021731391300NPP     2023020205300020230403
20230201IPECEUR2W    000002328943580000000232894358000000023289435800NPP     2023020205300020230217
20230201IPECEUR3M    000002326382700000000232638270000000023263827000NPP     2023020205300020230503
20230201IPECEUR3W    -000005131578100-000005131578100-000005131578100NPP     2023020205300020210518
20230201IPECEUR4M    000002481168730000000248116873000000024811687300NPP     2023020205300020230605
20230201IPECEUR5M    000002522818800000000252281880000000025228188000NPP     2023020205300020230703
20230201IPECEUR6M    000002653143240000000265314324000000026531432400NPP     2023020205300020230803
20230201IPECEUR7M    000002663232450000000266323245000000026632324500NPP     2023020205300020230904
20230201IPECEUR8M    000002648200470000000264820047000000026482004700NPP     2023020205300020231003
20230201IPECEUR9M    000002649127010000000264912701000000026491270100NPP     2023020205300020231103
20230201IPECEURON    000000188447760000000018844776000000001884477600NPP     2023020205300020230202
20230201L12MUSD1Y    000005311032013500000531103201350000053110320135NPP     2023020205300020240205
20230201L12MUSDON    000004296860000000000429686000000000042968600000NPP     2023020205300020230202
20230201L1M USD18M   000004683170096700000468317009670000046831700967NPP     2023020205300020240805
20230201L1M USD1M    000004557476644000000455747664400000045574766440NPP     2023020205300020230303
20230201L1M USD1Y    000004900361924100000490036192410000049003619241NPP     2023020205300020240205
20230201L1M USD3M    000004596630600000000459663060000000045966306000NPP     2023020205300020230503
20230201L1M USD6M    000004851341978600000485134197860000048513419786NPP     2023020205300020230803
20230201L1M USD9M    000004892995121900000489299512190000048929951219NPP     2023020205300020231103
20230201L1M USDON    000004296860000000000429686000000000042968600000NPP     2023020205300020230202
20230201L3M USD18M   000004815583705400000481558370540000048155837054NPP     2023020205300020240805
20230201L3M USD3M    000004681216120400000468121612040000046812161204NPP     2023020205300020230503
20230201L3M USD6M    000004912272934300000491227293430000049122729343NPP     2023020205300020230803
20230201L3M USD9M    000005001574488400000500157448840000050015744884NPP     2023020205300020231103
20230201L3M USDON    000004296860000000000429686000000000042968600000NPP     2023020205300020230202
20230201L6M USD18M   000004973956960000000497395696000000049739569600NPP     2023020205300020240805
20230201L6M USD1Y    000005168053970000000516805397000000051680539700NPP     2023020205300020240205
20230201L6M USD6M    000005080416460000000508041646000000050804164600NPP     2023020205300020230803
20230201L6M USDON    000004296860000000000429686000000000042968600000NPP     2023020205300020230202
20230201DEPOV1 1M    -000014533926800-000014533926800-000014533926800NPP     2023020205300020160224
20230201DEPOV1 1Y    000000178548050000000017854805000000001785480500NPP     2023020205300020170124
20230201DEPOV1 2M    -000012097852400-000012097852400-000012097852400NPP     2023020205300020160322
20230201DEPOV1 2W    -000015269419800-000015269419800-000015269419800NPP     2023020205300020160205
20230201DEPOV1 3M    -000010336581300-000010336581300-000010336581300NPP     2023020205300020160422
20230201DEPOV1 6M    -000005571508000-000005571508000-000005571508000NPP     2023020205300020160722
20230201DEPOV1 9M    -000002128617300-000002128617300-000002128617300NPP     2023020205300020161024
20230201DEPOV1 ON    -000017700000000-000017700000000-000017700000000NPP     2023020205300020160123
20230201DEPOV1 SW    -000017270021000-000017270021000-000017270021000NPP     2023020205300020160129
20230201IBL USD1M    000004466510140000000446651014000000044665101400NPP     2023020205300120230301
20230201IBL USD1W    000004423067390000000442306739000000044230673900NPP     2023020205300120230208
20230201IBL USD1Y    000004387773170000000438777317000000043877731700NPP     2023020205300120240201
20230201IBL USD2M    000004423354270000000442335427000000044233542700NPP     2023020205300120230330
20230201IBL USD2W    000004422809570000000442280957000000044228095700NPP     2023020205300120230215
20230201IBL USD3M    000004493614220000000449361422000000044936142200NPP     2023020205300120230428
20230201IBL USD6M    000004674910820000000467491082000000046749108200NPP     2023020205300120230801
20230201IBL USD9M    000004558001510000000455800151000000045580015100NPP     2023020205300120231101
20230201IBL USDON    000004385275310000000438527531000000043852753100NPP     2023020205300120230202
20230201IUV UVR18M   000001803274640000000180327464000000018032746400NPP     2023020205300120240805
20230201IUV UVR1M    -000062185933900-000062185933900-000062185933900NPP     2023020205300120230303
20230201IUV UVR1Y    000002282431280000000228243128000000022824312800NPP     2023020205300120240205
20230201IUV UVR3M    -000059268640600-000059268640600-000059268640600NPP     2023020205300120230503
20230201IUV UVR6M    -000009987889100-000009987889100-000009987889100NPP     2023020205300120230803
20230201IUV UVR9M    000000546041630000000054604163000000005460416300NPP     2023020205300120231103
20230201IUV UVRON    -000027125509400-000027125509400-000027125509400NPP     2023020205300120230202
20230201DEPOUSD10M   000004865330170000000486533017000000048653301700NPP     2023020205300120231204
20230201DEPOUSD11M   000004857470080000000485747008000000048574700800NPP     2023020205300120240103
20230201DEPOUSD1M    000004496755180000000449675518000000044967551800NPP     2023020205300120230303
20230201DEPOUSD1Y    000004836329870000000483632987000000048363298700NPP     2023020205300120240205
20230201DEPOUSD2M    000004613636050000000461363605000000046136360500NPP     2023020205300120230403
20230201DEPOUSD2W    000004406597510000000440659751000000044065975100NPP     2023020205300120230217
20230201DEPOUSD3M    000004676166900000000467616690000000046761669000NPP     2023020205300120230503
20230201DEPOUSD3W    000004451676340000000445167634000000044516763400NPP     2023020205300120230224
20230201DEPOUSD4M    000004744950830000000474495083000000047449508300NPP     2023020205300120230605
20230201DEPOUSD5M    000004789091850000000478909185000000047890918500NPP     2023020205300120230703
20230201DEPOUSD6M    000004816969190000000481696919000000048169691900NPP     2023020205300120230803
20230201DEPOUSD7M    000004846645080000000484664508000000048466450800NPP     2023020205300120230905
20230201DEPOUSD8M    000004861034760000000486103476000000048610347600NPP     2023020205300120231003
20230201DEPOUSD9M    000004863182470000000486318247000000048631824700NPP     2023020205300120231103
20230201DEPOUSDON    000004310000000000000431000000000000043100000000NPP     2023020205300120230202
20230201DEPOUSDSW    000004361518670000000436151867000000043615186700NPP     2023020205300120230210
20230201UIBRUSD1M    000004466510140000000446651014000000044665101400NPP     2023020205300120230301
20230201UIBRUSD1W    000004423067390000000442306739000000044230673900NPP     2023020205300120230208
20230201UIBRUSD1Y    000004387773170000000438777317000000043877731700NPP     2023020205300120240201
20230201UIBRUSD2M    000004423354270000000442335427000000044233542700NPP     2023020205300120230330
20230201UIBRUSD2W    000004422809570000000442280957000000044228095700NPP     2023020205300120230215
20230201UIBRUSD3M    000004493614220000000449361422000000044936142200NPP     2023020205300120230428
20230201UIBRUSD6M    000004674910820000000467491082000000046749108200NPP     2023020205300120230801
20230201UIBRUSD9M    000004558001510000000455800151000000045580015100NPP     2023020205300120231101
20230201UIBRUSDON    000004385275310000000438527531000000043852753100NPP     2023020205300120230202
20230201SRTMUSD1Y    000004847280000000000484728000000000048472800000NPP     20230201211145        
20230201DEPOCOF10Y   000011317087140000001131708714000000113170871400NPP     2023020205300120330203
20230201DEPOCOF12Y   000012267089610000001226708961000000122670896100NPP     2023020205300120350205
20230201DEPOCOF15Y   000014562727290000001456272729000000145627272900NPP     2023020205300220380203
20230201DEPOCOF18M   000012759269690000001275926969000000127592696900NPP     2023020205300220240801
20230201DEPOCOF20Y   000019395632630000001939563263000000193956326300NPP     2023020205300220430203
20230201DEPOCOF25Y   000024590687540000002459068754000000245906875400NPP     2023020205300220480203
20230201DEPOCOF2Y    000010204528970000001020452897000000102045289700NPP     2023020205300220250203
20230201DEPOCOF3Y    000009612328940000000961232894000000096123289400NPP     2023020205300220260203
20230201DEPOCOF4Y    000009567194720000000956719472000000095671947200NPP     2023020205300220270203
20230201DEPOCOF5Y    000009596238110000000959623811000000095962381100NPP     2023020205300220280203
20230201DEPOCOF6Y    000009708644410000000970864441000000097086444100NPP     2023020205300220290205
20230201DEPOCOF7Y    000009877019940000000987701994000000098770199400NPP     2023020205300220300204
20230201DEPOCOF8Y    000010401547290000001040154729000000104015472900NPP     2023020205300220310203
20230201DEPOCOF9Y    000010661436730000001066143673000000106614367300NPP     2023020205300220320203
20230201DTFPCOP10Y   000014539901980000001453990198000000145399019800NPP     2023020205300220330203
20230201DTFPCOP2Y    000011555022980000001155502298000000115550229800NPP     2023020205300220250203
20230201DTFPCOP3Y    000011335384100000001133538410000000113353841000NPP     2023020205300220260203
20230201DTFPCOP4Y    000011442990040000001144299004000000114429900400NPP     2023020205300220270203
20230201DTFPCOP5Y    000011635666310000001163566631000000116356663100NPP     2023020205300220280203
20230201DTFPCOP6Y    000011923034730000001192303473000000119230347300NPP     2023020205300220290205
20230201DTFPCOP7Y    000012404898610000001240489861000000124048986100NPP     2023020205300220300204
20230201DTFPCOP8Y    000012996733690000001299673369000000129967336900NPP     2023020205300220310203
20230201DTFPCOP9Y    000013642904750000001364290475000000136429047500NPP     2023020205300220320203
20230201ESTRUSD10M   000003152903780000000315290378000000031529037800NPP     2023020205300220231204
20230201ESTRUSD10Y   000002932940540000000293294054000000029329405400NPP     2023020205300220330203
20230201ESTRUSD11M   000003180724940000000318072494000000031807249400NPP     2023020205300220240103
20230201ESTRUSD12Y   000003054116540000000305411654000000030541165400NPP     2023020205300220350205
20230201ESTRUSD15Y   000003188305290000000318830529000000031883052900NPP     2023020205300220380203
20230201ESTRUSD18M   000003178215000000000317821500000000031782150000NPP     2023020205300220240805
20230201ESTRUSD1M    000002289677130000000228967713000000022896771300NPP     2023020205300220230303
20230201ESTRUSD1W    000002016533700000000201653370000000020165337000NPP     2023020205300220230210
20230201ESTRUSD1Y    000003205278250000000320527825000000032052782500NPP     2023020205300220240205
20230201ESTRUSD20Y   000003208905350000000320890535000000032089053500NPP     2023020205300220430203
20230201ESTRUSD25Y   000003127193560000000312719356000000031271935600NPP     2023020205300220480203
20230201ESTRUSD2M    000002438714860000000243871486000000024387148600NPP     2023020205300220230403
20230201ESTRUSD2W    000002186839970000000218683997000000021868399700NPP     2023020205300220230217
20230201ESTRUSD2Y    000003125007680000000312500768000000031250076800NPP     2023020205300220250203
20230201ESTRUSD3M    000002577851750000000257785175000000025778517500NPP     2023020205300220230503
20230201ESTRUSD3Y    000002955209560000000295520956000000029552095600NPP     2023020205300220260203
20230201ESTRUSD4M    000002722951930000000272295193000000027229519300NPP     2023020205300220230605
20230201ESTRUSD4Y    000002861151810000000286115181000000028611518100NPP     2023020205300220270203
20230201ESTRUSD5M    000002824991920000000282499192000000028249919200NPP     2023020205300220230703
20230201ESTRUSD5Y    000002820589550000000282058955000000028205895500NPP     2023020205300220280203
20230201ESTRUSD6M    000002923109090000000292310909000000029231090900NPP     2023020205300220230803
20230201ESTRUSD7M    000003007013010000000300701301000000030070130100NPP     2023020205300320230904
20230201ESTRUSD7Y    000002808056680000000280805668000000028080566800NPP     2023020205300320300204
20230201ESTRUSD8M    000003065768720000000306576872000000030657687200NPP     2023020205300320231003
20230201ESTRUSD9M    000003115494900000000311549490000000031154949000NPP     2023020205300320231103
20230201ESTRUSDON    000001894000000000000189400000000000018940000000NPP     2023020205300320230202
20230201FFE USD10M   000004880372220000000488037222000000048803722200NPP     2023020205300320231204
20230201FFE USD10Y   000003643653130000000364365313000000036436531300NPP     2023020205300320330203
20230201FFE USD11M   000004866394030000000486639403000000048663940300NPP     2023020205300320240103
20230201FFE USD12Y   000003749891140000000374989114000000037498911400NPP     2023020205300320350205
20230201FFE USD15Y   000003950066030000000395006603000000039500660300NPP     2023020205300320380203
20230201FFE USD1M    000004582083470000000458208347000000045820834700NPP     2023020205300320230303
20230201FFE USD1W    000004539421960000000453942196000000045394219600NPP     2023020205300320230210
20230201FFE USD1Y    000004846347700000000484634770000000048463477000NPP     2023020205300320240205
20230201FFE USD20Y   000004233720270000000423372027000000042337202700NPP     2023020205300320430203
20230201FFE USD25Y   000004269797910000000426979791000000042697979100NPP     2023020205300320480203
20230201FFE USD2M    000004636354750000000463635475000000046363547500NPP     2023020205300320230403
20230201FFE USD2W    000004564218770000000456421877000000045642187700NPP     2023020205300320230217
20230201FFE USD2Y    000004291758860000000429175886000000042917588600NPP     2023020205300320250203
20230201FFE USD3M    000004701857570000000470185757000000047018575700NPP     2023020205300320230503
20230201FFE USD3W    000004575271180000000457527118000000045752711800NPP     2023020205300320230224
20230201FFE USD3Y    000003881087390000000388108739000000038810873900NPP     2023020205300320260203
20230201FFE USD4M    000004772020530000000477202053000000047720205300NPP     2023020205300320230605
20230201FFE USD4Y    000003677665760000000367766576000000036776657600NPP     2023020205300320270203
20230201FFE USD5M    000004813750480000000481375048000000048137504800NPP     2023020205300320230703
20230201FFE USD5Y    000003580319000000000358031900000000035803190000NPP     2023020205300320280203
20230201FFE USD6M    000004847177730000000484717773000000048471777300NPP     2023020205300320230803
20230201FFE USD7M    000004869353020000000486935302000000048693530200NPP     2023020205300320230905
20230201FFE USD7Y    000003540734720000000354073472000000035407347200NPP     2023020205300320300204
20230201FFE USD8M    000004881721880000000488172188000000048817218800NPP     2023020205300320231003
20230201FFE USD9M    000004886524200000000488652420000000048865242000NPP     2023020205300320231103
20230201FFE USDON    000004330000000000000433000000000000043300000000NPP     2023020205300320230202
20230201IMGBGBP15M   000004120301580000000412030158000000041203015800NPP     2023020205300320240503
20230201IMGBGBP18M   000004062777070000000406277707000000040627770700NPP     2023020205300320240805
20230201IMGBGBP21M   000003992992820000000399299282000000039929928200NPP     2023020205300320241104
20230201IMGBGBP2Y    000003907950260000000390795026000000039079502600NPP     2023020205300320250203
20230201IMGBGBP3Y    000003716992040000000371699204000000037169920400NPP     2023020205300320260203
20230201IMGBGBP4Y    000003619463400000000361946340000000036194634000NPP     2023020205300320270203
20230201IMGBGBP5Y    000003551275360000000355127536000000035512753600NPP     2023020205300320280203
20230201IBL USD10Y   000002589473280000000258947328000000025894732800NPP     2023020205300320330203
20230201IBL USD2Y    000003499278990000000349927899000000034992789900NPP     2023020205300320250203
20230201IBL USD3Y    000002855850500000000285585050000000028558505000NPP     2023020205300320260203
20230201IBL USD4Y    000002623025370000000262302537000000026230253700NPP     2023020205300320270203
20230201IBL USD5Y    000002518201410000000251820141000000025182014100NPP     2023020205300320280203
20230201IBL USD6Y    000002491870150000000249187015000000024918701500NPP     2023020205300320290205
20230201IBL USD7Y    000002440322890000000244032289000000024403228900NPP     2023020205300320300204
20230201IBL USD8Y    000002535272740000000253527274000000025352727400NPP     2023020205300320310203
20230201IBL USD9Y    000002532944200000000253294420000000025329442000NPP     2023020205300320320203
20230201IBR COP10Y   000014691340040000001469134004000000146913400400NPP     2023020205300320330203
20230201IBR COP12Y   000016125624150000001612562415000000161256241500NPP     2023020205300320350205
20230201IBR COP15Y   000018703780540000001870378054000000187037805400NPP     2023020205300320380203
20230201IBR COP18M   000011952430350000001195243035000000119524303500NPP     2023020205300420240805
20230201IBR COP20Y   000022849233580000002284923358000000228492335800NPP     2023020205300420430203
20230201IBR COP2Y    000011432086510000001143208651000000114320865100NPP     2023020205300420250203
20230201IBR COP3Y    000011263803890000001126380389000000112638038900NPP     2023020205300420260203
20230201IBR COP4Y    000011418007000000001141800700000000114180070000NPP     2023020205300420270203
20230201IBR COP5Y    000011633630050000001163363005000000116336300500NPP     2023020205300420280203
20230201IBR COP6Y    000011961820400000001196182040000000119618204000NPP     2023020205300420290205
20230201IBR COP7Y    000012446898320000001244689832000000124468983200NPP     2023020205300420300204
20230201IBR COP8Y    000013071959470000001307195947000000130719594700NPP     2023020205300420310203
20230201IBR COP9Y    000013742905930000001374290593000000137429059300NPP     2023020205300420320203
20230201IPECEUR10Y   000001655683300000000165568330000000016556833000NPP     2023020205300420330203
20230201IPECEUR12Y   000001799038380000000179903838000000017990383800NPP     2023020205300420350205
20230201IPECEUR2Y    000002249645330000000224964533000000022496453300NPP     2023020205300420250203
20230201IPECEUR3Y    000001802386570000000180238657000000018023865700NPP     2023020205300420260203
20230201IPECEUR4Y    000001661501020000000166150102000000016615010200NPP     2023020205300420270203
20230201IPECEUR5Y    000001600190520000000160019052000000016001905200NPP     2023020205300420280203
20230201IPECEUR6Y    000001593803480000000159380348000000015938034800NPP     2023020205300420290205
20230201IPECEUR7Y    000001536789830000000153678983000000015367898300NPP     2023020205300420300204
20230201IPECEUR8Y    000001628490760000000162849076000000016284907600NPP     2023020205300420310203
20230201IPECEUR9Y    000001620175810000000162017581000000016201758100NPP     2023020205300420320203
20230201CPI COP100M  000198238100598800019823810059880001982381005988NPP     2023020205300420310603
20230201CPI COP101M  000198733695850300019873369585030001987336958503NPP     2023020205300420310703
20230201CPI COP102M  000199230530089900019923053008990001992305300899NPP     2023020205300420310804
20230201CPI COP103M  000199728606415100019972860641510001997286064151NPP     2023020205300420310903
20230201CPI COP104M  000200207955070500020020795507050002002079550705NPP     2023020205300420311003
20230201CPI COP105M  000200688454162700020068845416270002006884541627NPP     2023020205300420311104
20230201CPI COP106M  000201150037607300020115003760730002011500376073NPP     2023020205300420311203
20230201CPI COP107M  000202540145287200020254014528720002025401452872NPP     2023020205300420320105
20230201CPI COP108M  000202540145287200020254014528720002025401452872NPP     2023020205300420320203
20230201CPI COP109M  000204059196376800020405919637680002040591963768NPP     2023020205300420320303
20230201CPI COP10M   000137367694683200013736769468320001373676946832NPP     2023020205300420231204
20230201CPI COP110M  000207296064973400020729606497340002072960649734NPP     2023020205300420320405
20230201CPI COP111M  000207296064973400020729606497340002072960649734NPP     2023020205300420320503
20230201CPI COP112M  000208975163099700020897516309970002089751630997NPP     2023020205300420320603
20230201CPI COP113M  000212311071243800021231107124380002123110712438NPP     2023020205300420320706
20230201CPI COP114M  000212311071243800021231107124380002123110712438NPP     2023020205300420320803
20230201CPI COP115M  000214052022028000021405202202800002140520220280NPP     2023020205300420320903
20230201CPI COP116M  000215743033002000021574303300200002157430330020NPP     2023020205300420321004
20230201CPI COP117M  000217512125872600021751212587260002175121258726NPP     2023020205300420321103
20230201CPI COP118M  000219252222879600021925222287960002192522228796NPP     2023020205300420321203
20230201CPI COP119M  000221072016329500022107201632950002210720163295NPP     2023020205300420330103
20230201CPI COP11M   000137779797767200013777979776720001377797977672NPP     2023020205300420240103
20230201CPI COP120M  000222619520443800022261952044380002226195204438NPP     2023020205300420330203
20230201CPI COP121M  000223599046333800022359904633380002235990463338NPP     2023020205300420330303
20230201CPI COP122M  000224672321756200022467232175620002246723217562NPP     2023020205300420330404
20230201CPI COP123M  000225728281668400022572828166840002257282816684NPP     2023020205300420330503
20230201CPI COP124M  000226811777420400022681177742040002268117774204NPP     2023020205300420330603
20230201CPI COP125M  000228948816132200022894881613220002289488161322NPP     2023020205300420330705
20230201CPI COP126M  000228948816132200022894881613220002289488161322NPP     2023020205300420330803
20230201CPI COP127M  000231105990193700023110599019370002311059901937NPP     2023020205300420330905
20230201CPI COP128M  000231105990193700023110599019370002311059901937NPP     2023020205300420331003
20230201CPI COP129M  000232192188347700023219218834770002321921883477NPP     2023020205300420331103
20230201CPI COP12M   000139313022379100013931302237910001393130223791NPP     2023020205300420240205
20230201CPI COP130M  000234356595694400023435659569440002343565956944NPP     2023020205300420331205
20230201CPI COP131M  000234356595694400023435659569440002343565956944NPP     2023020205300420340103
20230201CPI COP132M  000235458071694200023545807169420002354580716942NPP     2023020205300420340203
20230201CPI COP133M  000236446995595300023644699559530002364469955953NPP     2023020205300420340303
20230201CPI COP134M  000237558296474600023755829647460002375582964746NPP     2023020205300420340403
20230201CPI COP135M  000238627308808700023862730880870002386273088087NPP     2023020205300420340503
20230201CPI COP136M  000240803756904200024080375690420002408037569042NPP     2023020205300420340605
20230201CPI COP137M  000240803756904200024080375690420002408037569042NPP     2023020205300420340704
20230201CPI COP138M  000241911454185900024191145418590002419114541859NPP     2023020205300420340803
20230201CPI COP139M  000243024246875200024302424687520002430242468752NPP     2023020205300420340904
20230201CPI COP13M   000139313022379100013931302237910001393130223791NPP     2023020205300420240304
20230201CPI COP140M  000244093553561400024409355356140002440935535614NPP     2023020205300420341003
20230201CPI COP141M  000245216383907800024521638390780002452163839078NPP     2023020205300520341103
20230201CPI COP142M  000246295335997000024629533599700002462953359970NPP     2023020205300520341204
20230201CPI COP143M  000247403665009000024740366500900002474036650090NPP     2023020205300520350103
20230201CPI COP144M  000249635305444300024963530544430002496353054443NPP     2023020205300520350205
20230201CPI COP145M  000250833554910400025083355491040002508335549104NPP     2023020205300520350305
20230201CPI COP146M  000250833554910400025083355491040002508335549104NPP     2023020205300520350403
20230201CPI COP147M  000251987389263000025198738926300002519873892630NPP     2023020205300520350503
20230201CPI COP148M  000254361634603600025436163460360002543616346036NPP     2023020205300520350605
20230201CPI COP149M  000254361634603600025436163460360002543616346036NPP     2023020205300520350703
20230201CPI COP14M   000140371801349200014037180134920001403718013492NPP     2023020205300520240403
20230201CPI COP150M  000255582570449700025558257044970002555825704497NPP     2023020205300520350803
20230201CPI COP151M  000256783808530800025678380853080002567838085308NPP     2023020205300520350903
20230201CPI COP152M  000257965014050100025796501405010002579650140501NPP     2023020205300520351003
20230201CPI COP153M  000260343748139400026034374813940002603437481394NPP     2023020205300520351106
20230201CPI COP154M  000260343748139400026034374813940002603437481394NPP     2023020205300520351203
20230201CPI COP155M  000261567363755600026156736375560002615673637556NPP     2023020205300520360103
20230201CPI COP156M  000262796730365300026279673036530002627967303653NPP     2023020205300520360204
20230201CPI COP157M  000263926756305800026392675630580002639267563058NPP     2023020205300520360303
20230201CPI COP158M  000265140819384800026514081938480002651408193848NPP     2023020205300520360403
20230201CPI COP159M  000267559089256200026755908925620002675590892562NPP     2023020205300520360505
20230201CPI COP15M   000141396515499100014139651549910001413965154991NPP     2023020205300520240503
20230201CPI COP160M  000267559089256200026755908925620002675590892562NPP     2023020205300520360603
20230201CPI COP161M  000268736349248900026873634924890002687363492489NPP     2023020205300520360703
20230201CPI COP162M  000269972536455500026997253645550002699725364555NPP     2023020205300520360804
20230201CPI COP163M  000271187412869500027118741286950002711874128695NPP     2023020205300520360903
20230201CPI COP164M  000272380637486200027238063748620002723806374862NPP     2023020205300520361003
20230201CPI COP165M  000273606350354800027360635035480002736063503548NPP     2023020205300520361104
20230201CPI COP166M  000274810218296400027481021829640002748102182964NPP     2023020205300520361203
20230201CPI COP167M  000277289075168000027728907516800002772890751680NPP     2023020205300520370105
20230201CPI COP168M  000277289075168000027728907516800002772890751680NPP     2023020205300520370203
20230201CPI COP169M  000278398231468700027839823146870002783982314687NPP     2023020205300520370303
20230201CPI COP16M   000142471129016900014247112901690001424711290169NPP     2023020205300520240604
20230201CPI COP170M  000280825563377000028082556337700002808255633770NPP     2023020205300520370406
20230201CPI COP171M  000280825563377000028082556337700002808255633770NPP     2023020205300520370504
20230201CPI COP172M  000282061195855800028206119585580002820611958558NPP     2023020205300520370603
20230201CPI COP173M  000283245852878400028324585287840002832458528784NPP     2023020205300520370703
20230201CPI COP174M  000284492134631100028449213463110002844921346311NPP     2023020205300520370803
20230201CPI COP175M  000285743900023500028574390002350002857439000235NPP     2023020205300520370903
20230201CPI COP176M  000288177883708500028817788370850002881778837085NPP     2023020205300520371005
20230201CPI COP177M  000288177883708500028817788370850002881778837085NPP     2023020205300520371103
20230201CPI COP17M   000143511168258700014351116825870001435111682587NPP     2023020205300520240703
20230201CPI COP18M   000145021766815800014502176681580001450217668158NPP     2023020205300520240805
20230201CPI COP19M   000145021766815800014502176681580001450217668158NPP     2023020205300520240903
20230201CPI COP1M    000127983465000000012798346500000001279834650000NPP     2023020205300520230303
20230201CPI COP20M   000145543845176300014554384517630001455438451763NPP     2023020205300520241003
20230201CPI COP21M   000146447609871000014644760987100001464476098710NPP     2023020205300520241105
20230201CPI COP22M   000146447609871000014644760987100001464476098710NPP     2023020205300520241203
20230201CPI COP23M   000146828373656700014682837365670001468283736567NPP     2023020205300520250103
20230201CPI COP24M   000147312907289700014731290728970001473129072897NPP     2023020205300520250203
20230201CPI COP25M   000147961084081800014796108408180001479610840818NPP     2023020205300520250303
20230201CPI COP26M   000148656501177000014865650117700001486565011770NPP     2023020205300520250403
20230201CPI COP27M   000149967556377200014996755637720001499675563772NPP     2023020205300520250505
20230201CPI COP28M   000149967556377200014996755637720001499675563772NPP     2023020205300520250603
20230201CPI COP29M   000150597420114000015059742011400001505974201140NPP     2023020205300520250703
20230201CPI COP2M    000129967208707500012996720870750001299672087075NPP     2023020205300520230403
20230201CPI COP30M   000151229929278500015122992927850001512299292785NPP     2023020205300520250804
20230201CPI COP31M   000151849971988500015184997198850001518499719885NPP     2023020205300520250903
20230201CPI COP32M   000152427001882100015242700188210001524270018821NPP     2023020205300520251003
20230201CPI COP33M   000153006224489200015300622448920001530062244892NPP     2023020205300520251104
20230201CPI COP34M   000153557046897400015355704689740001535570468974NPP     2023020205300520251203
20230201CPI COP35M   000154680058719600015468005871960001546800587196NPP     2023020205300520260105
20230201CPI COP36M   000154680058719600015468005871960001546800587196NPP     2023020205300520260203
20230201CPI COP37M   000155252374936900015525237493690001552523749369NPP     2023020205300620260303
20230201CPI COP38M   000156465703297500015646570329750001564657032975NPP     2023020205300620260406
20230201CPI COP39M   000156465703297500015646570329750001564657032975NPP     2023020205300620260504
20230201CPI COP3M    000131669779141600013166977914160001316697791416NPP     2023020205300620230503
20230201CPI COP40M   000157075919540300015707591954030001570759195403NPP     2023020205300620260603
20230201CPI COP41M   000157657100442600015765710044260001576571004426NPP     2023020205300620260703
20230201CPI COP42M   000158240431714300015824043171430001582404317143NPP     2023020205300620260803
20230201CPI COP43M   000158810097268400015881009726840001588100972684NPP     2023020205300620260903
20230201CPI COP44M   000159923713373000015992371337300001599237133730NPP     2023020205300620261005
20230201CPI COP45M   000159923713373000015992371337300001599237133730NPP     2023020205300620261103
20230201CPI COP46M   000160451461627100016045146162710001604514616271NPP     2023020205300620261203
20230201CPI COP47M   000160980951450500016098095145050001609809514505NPP     2023020205300620270104
20230201CPI COP48M   000161576580970900016157658097090001615765809709NPP     2023020205300620270203
20230201CPI COP49M   000162206729636700016220672963670001622067296367NPP     2023020205300620270303
20230201CPI COP4M    000133598878342600013359887834260001335988783426NPP     2023020205300620230605
20230201CPI COP50M   000163572125870300016357212587030001635721258703NPP     2023020205300620270405
20230201CPI COP51M   000163572125870300016357212587030001635721258703NPP     2023020205300620270503
20230201CPI COP52M   000164275486011500016427548601150001642754860115NPP     2023020205300620270603
20230201CPI COP53M   000165641801369300016564180136930001656418013693NPP     2023020205300620270706
20230201CPI COP54M   000165641801369300016564180136930001656418013693NPP     2023020205300620270803
20230201CPI COP55M   000166337496935000016633749693500001663374969350NPP     2023020205300620270903
20230201CPI COP56M   000167002846922800016700284692280001670028469228NPP     2023020205300620271004
20230201CPI COP57M   000167687558595100016768755859510001676875585951NPP     2023020205300620271103
20230201CPI COP58M   000168341540073700016834154007370001683415400737NPP     2023020205300620271203
20230201CPI COP59M   000169014906234000016901490623400001690149062340NPP     2023020205300620280103
20230201CPI COP5M    000133598878342600013359887834260001335988783426NPP     2023020205300620230704
20230201CPI COP60M   000169674064368300016967406436830001696740643683NPP     2023020205300620280203
20230201CPI COP61M   000170267923593600017026792359360001702679235936NPP     2023020205300620280303
20230201CPI COP62M   000170897914910900017089791491090001708979149109NPP     2023020205300620280403
20230201CPI COP63M   000171496057613000017149605761300001714960576130NPP     2023020205300620280503
20230201CPI COP64M   000172698629128100017269862912810001726986291281NPP     2023020205300620280605
20230201CPI COP65M   000172698629128100017269862912810001726986291281NPP     2023020205300620280704
20230201CPI COP66M   000173303074330000017330307433000001733030743300NPP     2023020205300620280803
20230201CPI COP67M   000173909635090200017390963509020001739096350902NPP     2023020205300620280904
20230201CPI COP68M   000174483536886000017448353688600001744835368860NPP     2023020205300620281003
20230201CPI COP69M   000175076780911400017507678091140001750767809114NPP     2023020205300620281103
20230201CPI COP6M    000134320312285600013432031228560001343203122856NPP     2023020205300620230803
20230201CPI COP70M   000175637026610300017563702661030001756370266103NPP     2023020205300620281204
20230201CPI COP71M   000176216628798100017621662879810001762166287981NPP     2023020205300620290103
20230201CPI COP72M   000177540727595600017754072759560001775407275956NPP     2023020205300620290205
20230201CPI COP73M   000178321906797000017832190679700001783219067970NPP     2023020205300620290305
20230201CPI COP74M   000178321906797000017832190679700001783219067970NPP     2023020205300620290403
20230201CPI COP75M   000179070858805500017907085880550001790708588055NPP     2023020205300620290503
20230201CPI COP76M   000180596195125100018059619512510001805961951251NPP     2023020205300620290605
20230201CPI COP77M   000180596195125100018059619512510001805961951251NPP     2023020205300620290703
20230201CPI COP78M   000181372758764100018137275876410001813727587641NPP     2023020205300620290803
20230201CPI COP79M   000182152661626800018215266162680001821526616268NPP     2023020205300620290903
20230201CPI COP7M    000135300850565300013530085056530001353008505653NPP     2023020205300620230904
20230201CPI COP80M   000182899487539500018289948753950001828994875395NPP     2023020205300620291003
20230201CPI COP81M   000184420702815200018442070281520001844207028152NPP     2023020205300720291106
20230201CPI COP82M   000184420702815200018442070281520001844207028152NPP     2023020205300720291203
20230201CPI COP83M   000185195269767100018519526976710001851952697671NPP     2023020205300720300103
20230201CPI COP84M   000186010128954000018601012895400001860101289540NPP     2023020205300720300204
20230201CPI COP85M   000186791371495700018679137149570001867913714957NPP     2023020205300720300304
20230201CPI COP86M   000187669290941700018766929094170001876692909417NPP     2023020205300720300403
20230201CPI COP87M   000188513802750900018851380275090001885138027509NPP     2023020205300720300503
20230201CPI COP88M   000189380966243600018938096624360001893809662436NPP     2023020205300720300604
20230201CPI COP89M   000190233180591700019023318059170001902331805917NPP     2023020205300720300703
20230201CPI COP8M    000136126185753700013612618575370001361261857537NPP     2023020205300720231003
20230201CPI COP90M   000191987351187200019198735118720001919873511872NPP     2023020205300720300805
20230201CPI COP91M   000191987351187200019198735118720001919873511872NPP     2023020205300720300903
20230201CPI COP92M   000192832095532400019283209553240001928320955324NPP     2023020205300720301003
20230201CPI COP93M   000194571487313800019457148731380001945714873138NPP     2023020205300720301105
20230201CPI COP94M   000194571487313800019457148731380001945714873138NPP     2023020205300720301203
20230201CPI COP95M   000195447059006800019544705900680001954470590068NPP     2023020205300720310103
20230201CPI COP96M   000196189757831000019618975783100001961897578310NPP     2023020205300720310203
20230201CPI COP97M   000196680232225600019668023222560001966802322256NPP     2023020205300720310303
20230201CPI COP98M   000197211268852600019721126885260001972112688526NPP     2023020205300720310403
20230201CPI COP99M   000198238100598800019823810059880001982381005988NPP     2023020205300720310505
20230201CPI COP9M    000136834041919700013683404191970001368340419197NPP     2023020205300720231103
20230201CPI COPON    000126030000000000012603000000000001260300000000NPP     2023020205300720230202
20230201L12MUSD10Y   000004628053556000000462805355600000046280535560NPP     2023020205300720330203
20230201L12MUSD12Y   000004799532170000000479953217000000047995321700NPP     2023020205300720350205
20230201L12MUSD15Y   000005049347949400000504934794940000050493479494NPP     2023020205300720380203
20230201L12MUSD20Y   000005487658665700000548765866570000054876586657NPP     2023020205300720430203
20230201L12MUSD25Y   000005859674867200000585967486720000058596748672NPP     2023020205300720480203
20230201L12MUSD2Y    000004918831551500000491883155150000049188315515NPP     2023020205300720250203
20230201L12MUSD30Y   000006273893819300000627389381930000062738938193NPP     2023020205300720530203
20230201L12MUSD3Y    000004634965605400000463496560540000046349656054NPP     2023020205300720260203
20230201L12MUSD4Y    000004434629396400000443462939640000044346293964NPP     2023020205300720270203
20230201L12MUSD5Y    000004370045164100000437004516410000043700451641NPP     2023020205300720280203
20230201L12MUSD7Y    000004377430856400000437743085640000043774308564NPP     2023020205300720300204
20230201L1M USD10Y   000003820033587400000382003358740000038200335874NPP     2023020205300720330203
20230201L1M USD12Y   000003955981272300000395598127230000039559812723NPP     2023020205300720350205
20230201L1M USD15Y   000004182445026700000418244502670000041824450267NPP     2023020205300720380203
20230201L1M USD20Y   000004478213779100000447821377910000044782137791NPP     2023020205300720430203
20230201L1M USD25Y   000004596780568900000459678056890000045967805689NPP     2023020205300720480203
20230201L1M USD2Y    000004398072374100000439807237410000043980723741NPP     2023020205300720250203
20230201L1M USD30Y   000004681686659600000468168665960000046816866596NPP     2023020205300720530203
20230201L1M USD3Y    000004017422848100000401742284810000040174228481NPP     2023020205300720260203
20230201L1M USD4Y    000003816542438400000381654243840000038165424384NPP     2023020205300720270203
20230201L1M USD5Y    000003717569715400000371756971540000037175697154NPP     2023020205300720280203
20230201L1M USD7Y    000003687036412200000368703641220000036870364122NPP     2023020205300720300204
20230201L3M USD10Y   000004017523690000000401752369000000040175236900NPP     2023020205300720330203
20230201L3M USD11Y   000004092980990000000409298099000000040929809900NPP     2023020205300720340203
20230201L3M USD12Y   000004168351840000000416835184000000041683518400NPP     2023020205300720350205
20230201L3M USD13Y   000004249678630000000424967863000000042496786300NPP     2023020205300720360204
20230201L3M USD14Y   000004332983590000000433298359000000043329835900NPP     2023020205300720370203
20230201L3M USD15Y   000004418181890000000441818189000000044181818900NPP     2023020205300720380203
20230201L3M USD20Y   000004756869390000000475686939000000047568693900NPP     2023020205300720430203
20230201L3M USD25Y   000004912740950000000491274095000000049127409500NPP     2023020205300820480203
20230201L3M USD2Y    000004530919700000000453091970000000045309197000NPP     2023020205300820250203
20230201L3M USD30Y   000005036721490000000503672149000000050367214900NPP     2023020205300820530203
20230201L3M USD3Y    000004162746530000000416274653000000041627465300NPP     2023020205300820260203
20230201L3M USD4Y    000003970713740000000397071374000000039707137400NPP     2023020205300820270203
20230201L3M USD5Y    000003879372580000000387937258000000038793725800NPP     2023020205300820280203
20230201L3M USD6Y    000003854173530000000385417353000000038541735300NPP     2023020205300820290205
20230201L3M USD7Y    000003862976710000000386297671000000038629767100NPP     2023020205300820300204
20230201L3M USD8Y    000003898184920000000389818492000000038981849200NPP     2023020205300820310203
20230201L3M USD9Y    000003955155300000000395515530000000039551553000NPP     2023020205300820320203
20230201L6M USD10Y   000004251465930000000425146593000000042514659300NPP     2023020205300820330203
20230201L6M USD12Y   000004419389230000000441938923000000044193892300NPP     2023020205300820350205
20230201L6M USD15Y   000004697330420000000469733042000000046973304200NPP     2023020205300820380203
20230201L6M USD20Y   000005086889150000000508688915000000050868891500NPP     2023020205300820430203
20230201L6M USD25Y   000005295538570000000529553857000000052955385700NPP     2023020205300820480203
20230201L6M USD2Y    000004703885790000000470388579000000047038857900NPP     2023020205300820250203
20230201L6M USD30Y   000005470954750000000547095475000000054709547500NPP     2023020205300820530203
20230201L6M USD3Y    000004344651070000000434465107000000043446510700NPP     2023020205300820260203
20230201L6M USD4Y    000004160140060000000416014006000000041601400600NPP     2023020205300820270203
20230201L6M USD5Y    000004076533790000000407653379000000040765337900NPP     2023020205300820280203
20230201L6M USD7Y    000004072996830000000407299683000000040729968300NPP     2023020205300820300204
20230201DEPOV1 102M  000002392201990000000239220199000000023922019900NPP     2023020205300820240726
20230201DEPOV1 10Y   000002737560350000000273756035000000027375603500NPP     2023020205300820260126
20230201DEPOV1 114M  000002609085850000000260908585000000026090858500NPP     2023020205300820250728
20230201DEPOV1 18M   000000325781970000000032578197000000003257819700NPP     2023020205300820170724
20230201DEPOV1 2Y    000000693058180000000069305818000000006930581800NPP     2023020205300820180126
20230201DEPOV1 30M   000000847808360000000084780836000000008478083600NPP     2023020205300820180726
20230201DEPOV1 3Y    000001008610600000000100861060000000010086106000NPP     2023020205300820190128
20230201DEPOV1 42M   000001151561060000000115156106000000011515610600NPP     2023020205300820190726
20230201DEPOV1 4Y    000001302076170000000130207617000000013020761700NPP     2023020205300820200127
20230201DEPOV1 54M   000001442137940000000144213794000000014421379400NPP     2023020205300820200727
20230201DEPOV1 5Y    000001586417960000000158641796000000015864179600NPP     2023020205300820210126
20230201DEPOV1 66M   000001733023480000000173302348000000017330234800NPP     2023020205300820210726
20230201DEPOV1 6Y    000001886518400000000188651840000000018865184000NPP     2023020205300820220126
20230201DEPOV1 78M   000002000425720000000200042572000000020004257200NPP     2023020205300820220726
20230201DEPOV1 7Y    000002119763050000000211976305000000021197630500NPP     2023020205300820230126
20230201DEPOV1 8Y    000002303394800000000230339480000000023033948000NPP     2023020205300820240126
20230201DEPOV1 90M   000002209446340000000220944634000000022094463400NPP     2023020205300820230726
20230201DEPOV1 9Y    000002485367490000000248536749000000024853674900NPP     2023020205300820250127
20230201SOFRUSD10M   000004865330170000000486533017000000048653301700NPP     2023020205300820231204
20230201SOFRUSD10Y   000003653225130000000365322513000000036532251300NPP     2023020205300820330203
20230201SOFRUSD11M   000004857470080000000485747008000000048574700800NPP     2023020205300820240103
20230201SOFRUSD12Y   000003756333660000000375633366000000037563336600NPP     2023020205300820350205
20230201SOFRUSD13M   000000042561510000000004256151000000000425615100NPP     2023020205300920210915
20230201SOFRUSD15Y   000003965350670000000396535067000000039653506700NPP     2023020205300920380203
20230201SOFRUSD16M   000000038552150000000003855215000000000385521500NPP     2023020205300920211215
20230201SOFRUSD1M    000004496755180000000449675518000000044967551800NPP     2023020205300920230303
20230201SOFRUSD1Y    000004836329870000000483632987000000048363298700NPP     2023020205300920240205
20230201SOFRUSD20Y   000004289819210000000428981921000000042898192100NPP     2023020205300920430203
20230201SOFRUSD25Y   000004302974910000000430297491000000043029749100NPP     2023020205300920480203
20230201SOFRUSD2M    000004613636050000000461363605000000046136360500NPP     2023020205300920230403
20230201SOFRUSD2W    000004406597510000000440659751000000044065975100NPP     2023020205300920230217
20230201SOFRUSD2Y    000004293935970000000429393597000000042939359700NPP     2023020205300920250203
20230201SOFRUSD3M    000004676166900000000467616690000000046761669000NPP     2023020205300920230503
20230201SOFRUSD3W    000004451676340000000445167634000000044516763400NPP     2023020205300920230224
20230201SOFRUSD3Y    000003883636500000000388363650000000038836365000NPP     2023020205300920260203
20230201SOFRUSD4M    000004744950830000000474495083000000047449508300NPP     2023020205300920230605
20230201SOFRUSD4Y    000003682173790000000368217379000000036821737900NPP     2023020205300920270203
20230201SOFRUSD5M    000004789091850000000478909185000000047890918500NPP     2023020205300920230703
20230201SOFRUSD5Y    000003583581730000000358358173000000035835817300NPP     2023020205300920280203
20230201SOFRUSD6M    000004816969190000000481696919000000048169691900NPP     2023020205300920230803
20230201SOFRUSD7M    000004846645080000000484664508000000048466450800NPP     2023020205300920230905
20230201SOFRUSD7Y    000003547135240000000354713524000000035471352400NPP     2023020205300920300204
20230201SOFRUSD8M    000004861034760000000486103476000000048610347600NPP     2023020205300920231003
20230201SOFRUSD9M    000004863182470000000486318247000000048631824700NPP     2023020205300920231103
20230201SOFRUSDON    000004310000000000000431000000000000043100000000NPP     2023020205300920230202
20230201SOFRUSDSW    000004361518670000000436151867000000043615186700NPP     2023020205300920230210
20230201IUV UVR10Y   000003990884750000000399088475000000039908847500NPP     2023020205300920330203
20230201IUV UVR15Y   000004301427820000000430142782000000043014278200NPP     2023020205300920380203
20230201IUV UVR2Y    000002481819750000000248181975000000024818197500NPP     2023020205300920250203
20230201IUV UVR3Y    000002955490330000000295549033000000029554903300NPP     2023020205300920260203
20230201IUV UVR4Y    000003372924870000000337292487000000033729248700NPP     2023020205300920270203
20230201IUV UVR5Y    000003471234090000000347123409000000034712340900NPP     2023020205300920280203
20230201IUV UVR6Y    000003724312800000000372431280000000037243128000NPP     2023020205300920290205
20230201IUV UVR7Y    000003825431120000000382543112000000038254311200NPP     2023020205300920300204
20230201IUV UVR8Y    000003917981090000000391798109000000039179810900NPP     2023020205301020310203
20230201IUV UVR9Y    000004375906990000000437590699000000043759069900NPP     2023020205301020320203
20230201DEPOUSD10Y   000003653225130000000365322513000000036532251300NPP     2023020205301020330203
20230201DEPOUSD12Y   000003756333660000000375633366000000037563336600NPP     2023020205301020350205
20230201DEPOUSD15Y   000003965350670000000396535067000000039653506700NPP     2023020205301020380203
20230201DEPOUSD20Y   000004289819210000000428981921000000042898192100NPP     2023020205301020430203
20230201DEPOUSD25Y   000004302974910000000430297491000000043029749100NPP     2023020205301020480203
20230201DEPOUSD2Y    000004293935970000000429393597000000042939359700NPP     2023020205301020250203
20230201DEPOUSD3Y    000003883636500000000388363650000000038836365000NPP     2023020205301020260203
20230201DEPOUSD4Y    000003682173790000000368217379000000036821737900NPP     2023020205301020270203
20230201DEPOUSD5Y    000003583581730000000358358173000000035835817300NPP     2023020205301020280203
20230201DEPOUSD7Y    000003547135240000000354713524000000035471352400NPP     2023020205301020300204
20230201UIBRUSD10Y   000002589473280000000258947328000000025894732800NPP     2023020205301020330203
20230201UIBRUSD12Y   000002750277970000000275027797000000027502779700NPP     2023020205301020350205
20230201UIBRUSD15Y   000003125192920000000312519292000000031251929200NPP     2023020205301020380203
20230201UIBRUSD18M   000003899682560000000389968256000000038996825600NPP     2023020205301020240801
20230201UIBRUSD20Y   000003748175690000000374817569000000037481756900NPP     2023020205301020430203
20230201UIBRUSD25Y   000003821965710000000382196571000000038219657100NPP     2023020205301020480203
20230201UIBRUSD2Y    000003499278990000000349927899000000034992789900NPP     2023020205301020250203
20230201UIBRUSD3Y    000002855850500000000285585050000000028558505000NPP     2023020205301020260203
20230201UIBRUSD4Y    000002623025370000000262302537000000026230253700NPP     2023020205301020270203
20230201UIBRUSD5Y    000002518201410000000251820141000000025182014100NPP     2023020205301020280203
20230201UIBRUSD6Y    000002491870150000000249187015000000024918701500NPP     2023020205301020290205
20230201UIBRUSD7Y    000002440322890000000244032289000000024403228900NPP     2023020205301020300204
20230201UIBRUSD8Y    000002535272740000000253527274000000025352727400NPP     2023020205301020310203
20230201UIBRUSD9Y    000002532944200000000253294420000000025329442000NPP     2023020205301120320203
20230201T2COCOF1M    000011901310170000001190131017000000119013101700NPP     2023020205295920230301
20230201T2COCOF1Y    000012869381180000001286938118000000128693811800NPP     2023020205295920240201
20230201T2COCOF2M    000012189480220000001218948022000000121894802200NPP     2023020205295920230330
20230201T2COCOF2W    000011828501860000001182850186000000118285018600NPP     2023020205295920230215
20230201T2COCOF3M    000012300005140000001230000514000000123000051400NPP     2023020205295920230428
20230201T2COCOF6M    000012591296950000001259129695000000125912969500NPP     2023020205295920230801
20230201T2COCOF9M    000012716626500000001271662650000000127166265000NPP     2023020205295920231101
20230201T2COCOFON    000011760709110000001176070911000000117607091100NPP     2023020205295920230202
20230201T2COCOFSW    000011771469300000001177146930000000117714693000NPP     2023020205295920230208
20230201T2DTCOP1Y    000013315844900000001331584490000000133158449000NPP     2023020205295920240205
20230201T2DTCOP3M    000013540000000000001354000000000000135400000000NPP     2023020205295920230503
20230201T2DTCOP6M    000013110000000000001311000000000000131100000000NPP     2023020205295920230803
20230201T2DTCOP9M    000012820000000000001282000000000000128200000000NPP     2023020205295920231103
20230201T2DTCOPON    000013940000000000001394000000000000139400000000NPP     2023020205295920230202
20230201T2IMEUC10M   000003001770060000000300177006000000030017700600NPP     2023020205295920231204
20230201T2IMEUC11M   000002955473040000000295547304000000029554730400NPP     2023020205295920240103
20230201T2IMEUC1D    000000113181220000000011318122000000001131812200NPP     2023020205295920230202
20230201T2IMEUC1M    000002479759920000000247975992000000024797599200NPP     2023020205295920230303
20230201T2IMEUC1Y    000002977116280000000297711628000000029771162800NPP     2023020205295920240205
20230201T2IMEUC2M    000002430254800000000243025480000000024302548000NPP     2023020205295920230403
20230201T2IMEUC2W    000002615753020000000261575302000000026157530200NPP     2023020205295920230217
20230201T2IMEUC3D    000006269087070000000626908707000000062690870700NPP     2023020205295920230206
20230201T2IMEUC3M    000002550280220000000255028022000000025502802200NPP     2023020205295920230503
20230201T2IMEUC3W    000002516721550000000251672155000000025167215500NPP     2023020205295920230224
20230201T2IMEUC4M    000002705396420000000270539642000000027053964200NPP     2023020205295920230605
20230201T2IMEUC5M    000002729142190000000272914219000000027291421900NPP     2023020205295920230703
20230201T2IMEUC6M    000002818267220000000281826722000000028182672200NPP     2023020205295920230803
20230201T2IMEUC7M    000002897054650000000289705465000000028970546500NPP     2023020205295920230905
20230201T2IMEUC8M    000002930929490000000293092949000000029309294900NPP     2023020205295920231003
20230201T2IMEUC9M    000002976043200000000297604320000000029760432000NPP     2023020205295920231103
20230201T2IMEUCSW    000002970260530000000297026053000000029702605300NPP     2023020205295920230210
20230201T2GBGBP10M   000004195444920000000419544492000000041954449200NPP     2023020205295920231204
20230201T2GBGBP11M   000004156181390000000415618139000000041561813900NPP     2023020205295920240103
20230201T2GBGBP1M    000003792170580000000379217058000000037921705800NPP     2023020205295920230303
20230201T2GBGBP1Y    000004157111600000000415711160000000041571116000NPP     2023020205295920240205
20230201T2GBGBP2M    000003831296350000000383129635000000038312963500NPP     2023020205295920230403
20230201T2GBGBP2W    000003773557910000000377355791000000037735579100NPP     2023020205295920230217
20230201T2GBGBP3M    000003926742030000000392674203000000039267420300NPP     2023020205300020230503
20230201T2GBGBP3W    000003772537140000000377253714000000037725371400NPP     2023020205300020230224
20230201T2GBGBP4M    000004020076860000000402007686000000040200768600NPP     2023020205300020230605
20230201T2GBGBP5M    000004053001320000000405300132000000040530013200NPP     2023020205300020230703
20230201T2GBGBP6M    000004099209080000000409920908000000040992090800NPP     2023020205300020230803
20230201T2GBGBP7M    000004145064410000000414506441000000041450644100NPP     2023020205300020230905
20230201T2GBGBP8M    000004166083740000000416608374000000041660837400NPP     2023020205300020231003
20230201T2GBGBP9M    000004182851480000000418285148000000041828514800NPP     2023020205300020231103
20230201T2GBGBPON    000003389585790000000338958579000000033895857900NPP     2023020205300020230202
20230201T2GBGBPSW    000003865603040000000386560304000000038656030400NPP     2023020205300020230210
20230201T2IBCOP1M    000011880000000000001188000000000000118800000000NPP     2023020205300020230303
20230201T2IBCOP1Y    000012380000000000001238000000000000123800000000NPP     2023020205300020240205
20230201T2IBCOP3M    000012140000000000001214000000000000121400000000NPP     2023020205300020230503
20230201T2IBCOP6M    000012450000000000001245000000000000124500000000NPP     2023020205300020230803
20230201T2IBCOP9M    000012390000000000001239000000000000123900000000NPP     2023020205300020231103
20230201T2IBCOPON    000011836000000000001183600000000000118360000000NPP     2023020205300020230202
20230201T2ECEUR10M   000002629527870000000262952787000000026295278700NPP     2023020205300020231204
20230201T2ECEUR11M   000002538209540000000253820954000000025382095400NPP     2023020205300020240103
20230201T2ECEUR1M    000002425011640000000242501164000000024250116400NPP     2023020205300020230303
20230201T2ECEUR1W    000003026613500000000302661350000000030266135000NPP     2023020205300020230210
20230201T2ECEUR1Y    000002266559000000000226655900000000022665590000NPP     2023020205300020240205
20230201T2ECEUR2M    000002240393350000000224039335000000022403933500NPP     2023020205300020230403
20230201T2ECEUR2W    000002634701110000000263470111000000026347011100NPP     2023020205300020230217
20230201T2ECEUR3M    000002374401320000000237440132000000023744013200NPP     2023020205300020230503
20230201T2ECEUR3W    -000008104274200-000008104274200-000008104274200NPP     2023020205300020210518
20230201T2ECEUR4M    000002518727950000000251872795000000025187279500NPP     2023020205300020230605
20230201T2ECEUR5M    000002553917010000000255391701000000025539170100NPP     2023020205300020230703
20230201T2ECEUR6M    000002680349380000000268034938000000026803493800NPP     2023020205300020230803
20230201T2ECEUR7M    000002686441740000000268644174000000026864417400NPP     2023020205300020230904
20230201T2ECEUR8M    000002668501070000000266850107000000026685010700NPP     2023020205300020231003
20230201T2ECEUR9M    000002667126040000000266712604000000026671260400NPP     2023020205300020231103
20230201T2ECEURON    000000188447760000000018844776000000001884477600NPP     2023020205300020230202
202302012L12USD1Y    000005315290000000000531529000000000053152900000NPP     2023020205300020240205
202302012L12USDON    000004296860000000000429686000000000042968600000NPP     2023020205300020230202
20230201T2L1USD18M   000004683459410000000468345941000000046834594100NPP     2023020205300020240805
20230201T2L1USD1M    000004575000000000000457500000000000045750000000NPP     2023020205300020230303
20230201T2L1USD1Y    000004902480470000000490248047000000049024804700NPP     2023020205300020240205
20230201T2L1USD3M    000004602268390000000460226839000000046022683900NPP     2023020205300020230503
20230201T2L1USD6M    000004856309580000000485630958000000048563095800NPP     2023020205300020230803
20230201T2L1USD9M    000004896193620000000489619362000000048961936200NPP     2023020205300020231103
20230201T2L1USDON    000004296860000000000429686000000000042968600000NPP     2023020205300020230202
20230201T2L3USD18M   000004816357983800000481635798380000048163579838NPP     2023020205300020240805
20230201T2L3USD3M    000004689396042000000468939604200000046893960420NPP     2023020205300020230503
20230201T2L3USD6M    000004918171334600000491817133460000049181713346NPP     2023020205300020230803
20230201T2L3USD9M    000005005657561900000500565756190000050056575619NPP     2023020205300020231103
20230201T2L3USDON    000004296860000000000429686000000000042968600000NPP     2023020205300020230202
20230201T2L6USD18M   000004975235950000000497523595000000049752359500NPP     2023020205300020240805
20230201T2L6USD1Y    000005171567090000000517156709000000051715670900NPP     2023020205300020240205
20230201T2L6USD6M    000005087860000000000508786000000000050878600000NPP     2023020205300020230803
20230201T2L6USDON    000004296860000000000429686000000000042968600000NPP     2023020205300020230202
20230201T2UVV1 1M    -000014100000000-000014100000000-000014100000000NPP     2023020205300020160224
20230201T2UVV1 1Y    000000200000000000000020000000000000002000000000NPP     2023020205300020170124
20230201T2UVV1 2M    -000011700000000-000011700000000-000011700000000NPP     2023020205300020160322
20230201T2UVV1 2W    -000015269419800-000015269419800-000015269419800NPP     2023020205300020160205
20230201T2UVV1 3M    -000010000000000-000010000000000-000010000000000NPP     2023020205300020160422
20230201T2UVV1 6M    -000005300000000-000005300000000-000005300000000NPP     2023020205300020160722
20230201T2UVV1 9M    -000001900000000-000001900000000-000001900000000NPP     2023020205300020161024
20230201T2UVV1 ON    -000017700000000-000017700000000-000017700000000NPP     2023020205300020160123
20230201T2UVV1 SW    -000017270021000-000017270021000-000017270021000NPP     2023020205300020160129
20230201T2BLUSD1M    000004471669560000000447166956000000044716695600NPP     2023020205300120230301
20230201T2BLUSD1W    000004423067390000000442306739000000044230673900NPP     2023020205300120230208
20230201T2BLUSD1Y    000004386718210000000438671821000000043867182100NPP     2023020205300120240201
20230201T2BLUSD2M    000004423661240000000442366124000000044236612400NPP     2023020205300120230330
20230201T2BLUSD2W    000004422809570000000442280957000000044228095700NPP     2023020205300120230215
20230201T2BLUSD3M    000004495098590000000449509859000000044950985900NPP     2023020205300120230428
20230201T2BLUSD6M    000004677007530000000467700753000000046770075300NPP     2023020205300120230801
20230201T2BLUSD9M    000004558165750000000455816575000000045581657500NPP     2023020205300120231101
20230201T2BLUSDON    000004385275310000000438527531000000043852753100NPP     2023020205300120230202
20230201T2IUUVR18M   000001820000000000000182000000000000018200000000NPP     2023020205300120240805
20230201T2IUUVR1M    -000064700000000-000064700000000-000064700000000NPP     2023020205300120230303
20230201T2IUUVR1Y    000002310000000000000231000000000000023100000000NPP     2023020205300120240205
20230201T2IUUVR3M    -000060000000000-000060000000000-000060000000000NPP     2023020205300120230503
20230201T2IUUVR6M    -000009800000000-000009800000000-000009800000000NPP     2023020205300120230803
20230201T2IUUVR9M    000000570000000000000057000000000000005700000000NPP     2023020205300120231103
20230201T2IUUVRON    -000027125509400-000027125509400-000027125509400NPP     2023020205300120230202
20230201T2USUSD10M   000004867818090000000486781809000000048678180900NPP     2023020205300120231204
20230201T2USUSD11M   000004859584740000000485958474000000048595847400NPP     2023020205300120240103
20230201T2USUSD1M    000004509015180000000450901518000000045090151800NPP     2023020205300120230303
20230201T2USUSD1Y    000004838039710000000483803971000000048380397100NPP     2023020205300120240205
20230201T2USUSD2M    000004622821890000000462282189000000046228218900NPP     2023020205300120230403
20230201T2USUSD2W    000004419338970000000441933897000000044193389700NPP     2023020205300120230217
20230201T2USUSD3M    000004683273990000000468327399000000046832739900NPP     2023020205300120230503
20230201T2USUSD3W    000004464100420000000446410042000000044641004200NPP     2023020205300120230224
20230201T2USUSD4M    000004750943580000000475094358000000047509435800NPP     2023020205300120230605
20230201T2USUSD5M    000004794331770000000479433177000000047943317700NPP     2023020205300120230703
20230201T2USUSD6M    000004821416600000000482141660000000048214166000NPP     2023020205300120230803
20230201T2USUSD7M    000004850499030000000485049903000000048504990300NPP     2023020205300120230905
20230201T2USUSD8M    000004864424010000000486442401000000048644240100NPP     2023020205300120231003
20230201T2USUSD9M    000004866069940000000486606994000000048660699400NPP     2023020205300120231103
20230201T2USUSDON    000004310000000000000431000000000000043100000000NPP     2023020205300120230202
20230201T2USUSDSW    000004375190670000000437519067000000043751906700NPP     2023020205300120230210
20230201T2UIUSD1M    000004471669560000000447166956000000044716695600NPP     2023020205300120230301
20230201T2UIUSD1W    000004423067390000000442306739000000044230673900NPP     2023020205300120230208
20230201T2UIUSD1Y    000004386718210000000438671821000000043867182100NPP     2023020205300120240201
20230201T2UIUSD2M    000004423661240000000442366124000000044236612400NPP     2023020205300120230330
20230201T2UIUSD2W    000004422809570000000442280957000000044228095700NPP     2023020205300120230215
20230201T2UIUSD3M    000004495098590000000449509859000000044950985900NPP     2023020205300120230428
20230201T2UIUSD6M    000004677007530000000467700753000000046770075300NPP     2023020205300120230801
20230201T2UIUSD9M    000004558165750000000455816575000000045581657500NPP     2023020205300120231101
20230201T2UIUSDON    000004385275310000000438527531000000043852753100NPP     2023020205300120230202
20230201T2COCOF10Y   000011309454970000001130945497000000113094549700NPP     2023020205300120330203
20230201T2COCOF12Y   000012259310670000001225931067000000122593106700NPP     2023020205300120350205
20230201T2COCOF15Y   000014554240760000001455424076000000145542407600NPP     2023020205300220380203
20230201T2COCOF18M   000012754600620000001275460062000000127546006200NPP     2023020205300220240801
20230201T2COCOF20Y   000019385057290000001938505729000000193850572900NPP     2023020205300220430203
20230201T2COCOF25Y   000024577439510000002457743951000000245774395100NPP     2023020205300220480203
20230201T2COCOF2Y    000010193611070000001019361107000000101936110700NPP     2023020205300220250203
20230201T2COCOF3Y    000009602134770000000960213477000000096021347700NPP     2023020205300220260203
20230201T2COCOF4Y    000009557947060000000955794706000000095579470600NPP     2023020205300220270203
20230201T2COCOF5Y    000009587603100000000958760310000000095876031000NPP     2023020205300220280203
20230201T2COCOF6Y    000009700435800000000970043580000000097004358000NPP     2023020205300220290205
20230201T2COCOF7Y    000009869098950000000986909895000000098690989500NPP     2023020205300220300204
20230201T2COCOF8Y    000010393825950000001039382595000000103938259500NPP     2023020205300220310203
20230201T2COCOF9Y    000010653806960000001065380696000000106538069600NPP     2023020205300220320203
20230201T2DTCOP10Y   000014529132550000001452913255000000145291325500NPP     2023020205300220330203
20230201T2DTCOP2Y    000011539683310000001153968331000000115396833100NPP     2023020205300220250203
20230201T2DTCOP3Y    000011321983020000001132198302000000113219830200NPP     2023020205300220260203
20230201T2DTCOP4Y    000011430840540000001143084054000000114308405400NPP     2023020205300220270203
20230201T2DTCOP5Y    000011624263370000001162426337000000116242633700NPP     2023020205300220280203
20230201T2DTCOP6Y    000011912097230000001191209723000000119120972300NPP     2023020205300220290205
20230201T2DTCOP7Y    000012394231220000001239423122000000123942312200NPP     2023020205300220300204
20230201T2DTCOP8Y    000012986168760000001298616876000000129861687600NPP     2023020205300220310203
20230201T2DTCOP9Y    000013632311140000001363231114000000136323111400NPP     2023020205300220320203
20230201T2ESUSD10M   000003160853450000000316085345000000031608534500NPP     2023020205300220231204
20230201T2ESUSD10Y   000002933200720000000293320072000000029332007200NPP     2023020205300220330203
20230201T2ESUSD11M   000003188094420000000318809442000000031880944200NPP     2023020205300220240103
20230201T2ESUSD12Y   000003054324290000000305432429000000030543242900NPP     2023020205300220350205
20230201T2ESUSD15Y   000003188442260000000318844226000000031884422600NPP     2023020205300220380203
20230201T2ESUSD18M   000003182558500000000318255850000000031825585000NPP     2023020205300220240805
20230201T2ESUSD1M    000002317695910000000231769591000000023176959100NPP     2023020205300220230303
20230201T2ESUSD1W    000002051327480000000205132748000000020513274800NPP     2023020205300220230210
20230201T2ESUSD1Y    000003212086200000000321208620000000032120862000NPP     2023020205300220240205
20230201T2ESUSD20Y   000003208927700000000320892770000000032089277000NPP     2023020205300220430203
20230201T2ESUSD25Y   000003127134630000000312713463000000031271346300NPP     2023020205300220480203
20230201T2ESUSD2M    000002456921250000000245692125000000024569212500NPP     2023020205300220230403
20230201T2ESUSD2W    000002228439770000000222843977000000022284397700NPP     2023020205300220230217
20230201T2ESUSD2Y    000003128046550000000312804655000000031280465500NPP     2023020205300220250203
20230201T2ESUSD3M    000002592946370000000259294637000000025929463700NPP     2023020205300220230503
20230201T2ESUSD3Y    000002956834950000000295683495000000029568349500NPP     2023020205300220260203
20230201T2ESUSD4M    000002736253390000000273625339000000027362533900NPP     2023020205300220230605
20230201T2ESUSD4Y    000002862174600000000286217460000000028621746000NPP     2023020205300220270203
20230201T2ESUSD5M    000002837106620000000283710662000000028371066200NPP     2023020205300220230703
20230201T2ESUSD5Y    000002821307570000000282130757000000028213075700NPP     2023020205300220280203
20230201T2ESUSD6M    000002934171720000000293417172000000029341717200NPP     2023020205300220230803
20230201T2ESUSD7M    000003017146370000000301714637000000030171463700NPP     2023020205300320230904
20230201T2ESUSD7Y    000002808475830000000280847583000000028084758300NPP     2023020205300320300204
20230201T2ESUSD8M    000003075129190000000307512919000000030751291900NPP     2023020205300320231003
20230201T2ESUSD9M    000003124114850000000312411485000000031241148500NPP     2023020205300320231103
20230201T2ESUSDON    000001894000000000000189400000000000018940000000NPP     2023020205300320230202
20230201T2IMEUC15M   000002998897440000000299889744000000029988974400NPP     20230202053003        
20230201T2IMEUC18M   000002982588290000000298258829000000029825882900NPP     20230202053003        
20230201T2IMEUC21M   000002938074450000000293807445000000029380744500NPP     20230202053003        
20230201T2IMEUC2Y    000002865375830000000286537583000000028653758300NPP     20230202053003        
20230201T2IMEUC3Y    000002690058010000000269005801000000026900580100NPP     20230202053003        
20230201T2IMEUC4Y    000002574833570000000257483357000000025748335700NPP     20230202053003        
20230201T2IMEUC5Y    000002514053820000000251405382000000025140538200NPP     20230202053003        
20230201T2FFUSD10M   000004882818500000000488281850000000048828185000NPP     2023020205300320231204
20230201T2FFUSD10Y   000003642401160000000364240116000000036424011600NPP     2023020205300320330203
20230201T2FFUSD11M   000004868434840000000486843484000000048684348400NPP     2023020205300320240103
20230201T2FFUSD12Y   000003748724780000000374872478000000037487247800NPP     2023020205300320350205
20230201T2FFUSD15Y   000003948977390000000394897739000000039489773900NPP     2023020205300320380203
20230201T2FFUSD1M    000004598983120000000459898312000000045989831200NPP     2023020205300320230303
20230201T2FFUSD1W    000004598150700000000459815070000000045981507000NPP     2023020205300320230210
20230201T2FFUSD1Y    000004847995370000000484799537000000048479953700NPP     2023020205300320240205
20230201T2FFUSD20Y   000004232675720000000423267572000000042326757200NPP     2023020205300320430203
20230201T2FFUSD25Y   000004268757850000000426875785000000042687578500NPP     2023020205300320480203
20230201T2FFUSD2M    000004645622130000000464562213000000046456221300NPP     2023020205300320230403
20230201T2FFUSD2W    000004596572860000000459657286000000045965728600NPP     2023020205300320230217
20230201T2FFUSD2Y    000004290622100000000429062210000000042906221000NPP     2023020205300320250203
20230201T2FFUSD3M    000004709081120000000470908112000000047090811200NPP     2023020205300320230503
20230201T2FFUSD3W    000004597524380000000459752438000000045975243800NPP     2023020205300320230224
20230201T2FFUSD3Y    000003879335010000000387933501000000038793350100NPP     2023020205300320260203
20230201T2FFUSD4M    000004778117370000000477811737000000047781173700NPP     2023020205300320230605
20230201T2FFUSD4Y    000003675888510000000367588851000000036758885100NPP     2023020205300320270203
20230201T2FFUSD5M    000004819041240000000481904124000000048190412400NPP     2023020205300320230703
20230201T2FFUSD5Y    000003578637020000000357863702000000035786370200NPP     2023020205300320280203
20230201T2FFUSD6M    000004851725290000000485172529000000048517252900NPP     2023020205300320230803
20230201T2FFUSD7M    000004873221420000000487322142000000048732214200NPP     2023020205300320230905
20230201T2FFUSD7Y    000003539266230000000353926623000000035392662300NPP     2023020205300320300204
20230201T2FFUSD8M    000004885106430000000488510643000000048851064300NPP     2023020205300320231003
20230201T2FFUSD9M    000004889425120000000488942512000000048894251200NPP     2023020205300320231103
20230201T2FFUSDON    000004330000000000000433000000000000043300000000NPP     2023020205300320230202
20230201T2GBGBP15M   000004122737160000000412273716000000041227371600NPP     2023020205300320240503
20230201T2GBGBP18M   000004064464120000000406446412000000040644641200NPP     2023020205300320240805
20230201T2GBGBP21M   000003994126330000000399412633000000039941263300NPP     2023020205300320241104
20230201T2GBGBP2Y    000003908632460000000390863246000000039086324600NPP     2023020205300320250203
20230201T2GBGBP3Y    000003716889570000000371688957000000037168895700NPP     2023020205300320260203
20230201T2GBGBP4Y    000003619096570000000361909657000000036190965700NPP     2023020205300320270203
20230201T2GBGBP5Y    000003550783810000000355078381000000035507838100NPP     2023020205300320280203
20230201T2BLUSD10Y   000002587859620000000258785962000000025878596200NPP     2023020205300320330203
20230201T2BLUSD2Y    000003496003200000000349600320000000034960032000NPP     2023020205300320250203
20230201T2BLUSD3Y    000002852364670000000285236467000000028523646700NPP     2023020205300320260203
20230201T2BLUSD4Y    000002619974690000000261997469000000026199746900NPP     2023020205300320270203
20230201T2BLUSD5Y    000002515543570000000251554357000000025155435700NPP     2023020205300320280203
20230201T2BLUSD6Y    000002489537650000000248953765000000024895376500NPP     2023020205300320290205
20230201T2BLUSD7Y    000002438208200000000243820820000000024382082000NPP     2023020205300320300204
20230201T2BLUSD8Y    000002533389280000000253338928000000025333892800NPP     2023020205300320310203
20230201T2BLUSD9Y    000002531200470000000253120047000000025312004700NPP     2023020205300320320203
20230201T2IBCOP10Y   000014683248270000001468324827000000146832482700NPP     2023020205300320330203
20230201T2IBCOP12Y   000016116982840000001611698284000000161169828400NPP     2023020205300320350205
20230201T2IBCOP15Y   000018693995150000001869399515000000186939951500NPP     2023020205300320380203
20230201T2IBCOP18M   000011945000000000001194500000000000119450000000NPP     2023020205300420240805
20230201T2IBCOP20Y   000022837232090000002283723209000000228372320900NPP     2023020205300420430203
20230201T2IBCOP2Y    000011423469850000001142346985000000114234698500NPP     2023020205300420250203
20230201T2IBCOP3Y    000011255358710000001125535871000000112553587100NPP     2023020205300420260203
20230201T2IBCOP4Y    000011409932130000001140993213000000114099321300NPP     2023020205300420270203
20230201T2IBCOP5Y    000011625763810000001162576381000000116257638100NPP     2023020205300420280203
20230201T2IBCOP6Y    000011954074630000001195407463000000119540746300NPP     2023020205300420290205
20230201T2IBCOP7Y    000012439196490000001243919649000000124391964900NPP     2023020205300420300204
20230201T2IBCOP8Y    000013064214990000001306421499000000130642149900NPP     2023020205300420310203
20230201T2IBCOP9Y    000013735034650000001373503465000000137350346500NPP     2023020205300420320203
20230201T2ECEUR10Y   000001656469260000000165646926000000016564692600NPP     2023020205300420330203
20230201T2ECEUR12Y   000001799754130000000179975413000000017997541300NPP     2023020205300420350205
20230201T2ECEUR2Y    000002255261110000000225526111000000022552611100NPP     2023020205300420250203
20230201T2ECEUR3Y    000001805312810000000180531281000000018053128100NPP     2023020205300420260203
20230201T2ECEUR4Y    000001663500100000000166350010000000016635001000NPP     2023020205300420270203
20230201T2ECEUR5Y    000001601720020000000160172002000000016017200200NPP     2023020205300420280203
20230201T2ECEUR6Y    000001595067870000000159506787000000015950678700NPP     2023020205300420290205
20230201T2ECEUR7Y    000001537827950000000153782795000000015378279500NPP     2023020205300420300204
20230201T2ECEUR8Y    000001629459360000000162945936000000016294593600NPP     2023020205300420310203
20230201T2ECEUR9Y    000001621029980000000162102998000000016210299800NPP     2023020205300420320203
202302012L12USD10Y   000004627130320000000462713032000000046271303200NPP     2023020205300720330203
202302012L12USD12Y   000004798615940000000479861594000000047986159400NPP     2023020205300720350205
202302012L12USD15Y   000005048417500000000504841750000000050484175000NPP     2023020205300720380203
202302012L12USD20Y   000005486674940000000548667494000000054866749400NPP     2023020205300720430203
202302012L12USD25Y   000005858618640000000585861864000000058586186400NPP     2023020205300720480203
202302012L12USD2Y    000004919358930000000491935893000000049193589300NPP     2023020205300720250203
202302012L12USD30Y   000006272757260000000627275726000000062727572600NPP     2023020205300720530203
202302012L12USD3Y    000004634476270000000463447627000000046344762700NPP     2023020205300720260203
202302012L12USD4Y    000004433759590000000443375959000000044337595900NPP     2023020205300720270203
202302012L12USD5Y    000004369082360000000436908236000000043690823600NPP     2023020205300720280203
202302012L12USD7Y    000004376449130000000437644913000000043764491300NPP     2023020205300720300204
20230201T2L1USD10Y   000003818860910000000381886091000000038188609100NPP     2023020205300720330203
20230201T2L1USD12Y   000003954881710000000395488171000000039548817100NPP     2023020205300720350205
20230201T2L1USD15Y   000004181405100000000418140510000000041814051000NPP     2023020205300720380203
20230201T2L1USD20Y   000004477194660000000447719466000000044771946600NPP     2023020205300720430203
20230201T2L1USD25Y   000004595749190000000459574919000000045957491900NPP     2023020205300720480203
20230201T2L1USD2Y    000004397299590000000439729959000000043972995900NPP     2023020205300720250203
20230201T2L1USD30Y   000004680639560000000468063956000000046806395600NPP     2023020205300720530203
20230201T2L1USD3Y    000004015954260000000401595426000000040159542600NPP     2023020205300720260203
20230201T2L1USD4Y    000003814974230000000381497423000000038149742300NPP     2023020205300720270203
20230201T2L1USD5Y    000003716048150000000371604815000000037160481500NPP     2023020205300720280203
20230201T2L1USD7Y    000003685679790000000368567979000000036856797900NPP     2023020205300720300204
20230201T2L3USD10Y   000004016411980000000401641198000000040164119800NPP     2023020205300720330203
20230201T2L3USD11Y   000004091902710000000409190271000000040919027100NPP     2023020205300720340203
20230201T2L3USD12Y   000004167298430000000416729843000000041672984300NPP     2023020205300720350205
20230201T2L3USD13Y   000004248644550000000424864455000000042486445500NPP     2023020205300720360204
20230201T2L3USD14Y   000004331963620000000433196362000000043319636200NPP     2023020205300720370203
20230201T2L3USD15Y   000004417171730000000441717173000000044171717300NPP     2023020205300720380203
20230201T2L3USD20Y   000004755860040000000475586004000000047558600400NPP     2023020205300720430203
20230201T2L3USD25Y   000004911703350000000491170335000000049117033500NPP     2023020205300820480203
20230201T2L3USD2Y    000004530478590000000453047859000000045304785900NPP     2023020205300820250203
20230201T2L3USD30Y   000005035654440000000503565444000000050356544400NPP     2023020205300820530203
20230201T2L3USD3Y    000004161508390000000416150839000000041615083900NPP     2023020205300820260203
20230201T2L3USD4Y    000003969319740000000396931974000000039693197400NPP     2023020205300820270203
20230201T2L3USD5Y    000003877989580000000387798958000000038779895800NPP     2023020205300820280203
20230201T2L3USD6Y    000003852850260000000385285026000000038528502600NPP     2023020205300820290205
20230201T2L3USD7Y    000003861715630000000386171563000000038617156300NPP     2023020205300820300204
20230201T2L3USD8Y    000003896981780000000389698178000000038969817800NPP     2023020205300820310203
20230201T2L3USD9Y    000003954003510000000395400351000000039540035100NPP     2023020205300820320203
20230201T2L6USD10Y   000004250426440000000425042644000000042504264400NPP     2023020205300820330203
20230201T2L6USD12Y   000004418390380000000441839038000000044183903800NPP     2023020205300820350205
20230201T2L6USD15Y   000004696355520000000469635552000000046963555200NPP     2023020205300820380203
20230201T2L6USD20Y   000005085891370000000508589137000000050858913700NPP     2023020205300820430203
20230201T2L6USD25Y   000005294493440000000529449344000000052944934400NPP     2023020205300820480203
20230201T2L6USD2Y    000004703876520000000470387652000000047038765200NPP     2023020205300820250203
20230201T2L6USD30Y   000005469863300000000546986330000000054698633000NPP     2023020205300820530203
20230201T2L6USD3Y    000004343701380000000434370138000000043437013800NPP     2023020205300820260203
20230201T2L6USD4Y    000004158960100000000415896010000000041589601000NPP     2023020205300820270203
20230201T2L6USD5Y    000004075319630000000407531963000000040753196300NPP     2023020205300820280203
20230201T2L6USD7Y    000004071849790000000407184979000000040718497900NPP     2023020205300820300204
20230201T2UVV1 102M  000002398037260000000239803726000000023980372600NPP     2023020205300820240726
20230201T2UVV1 10Y   000002743035550000000274303555000000027430355500NPP     2023020205300820260126
20230201T2UVV1 114M  000002614646550000000261464655000000026146465500NPP     2023020205300820250728
20230201T2UVV1 18M   000000341230960000000034123096000000003412309600NPP     2023020205300820170724
20230201T2UVV1 2Y    000000706674910000000070667491000000007066749100NPP     2023020205300820180126
20230201T2UVV1 30M   000000859459010000000085945901000000008594590100NPP     2023020205300820180726
20230201T2UVV1 3Y    000001018933430000000101893343000000010189334300NPP     2023020205300820190128
20230201T2UVV1 42M   000001160940700000000116094070000000011609407000NPP     2023020205300820190726
20230201T2UVV1 4Y    000001310739080000000131073908000000013107390800NPP     2023020205300820200127
20230201T2UVV1 54M   000001450238580000000145023858000000014502385800NPP     2023020205300820200727
20230201T2UVV1 5Y    000001594079940000000159407994000000015940799400NPP     2023020205300820210126
20230201T2UVV1 66M   000001740343880000000174034388000000017403438800NPP     2023020205300820210726
20230201T2UVV1 6Y    000001893563280000000189356328000000018935632800NPP     2023020205300820220126
20230201T2UVV1 78M   000002007176010000000200717601000000020071760100NPP     2023020205300820220726
20230201T2UVV1 7Y    000002126266100000000212626610000000021262661000NPP     2023020205300820230126
20230201T2UVV1 8Y    000002309425160000000230942516000000023094251600NPP     2023020205300820240126
20230201T2UVV1 90M   000002215695750000000221569575000000022156957500NPP     2023020205300820230726
20230201T2UVV1 9Y    000002491032660000000249103266000000024910326600NPP     2023020205300820250127
20230201T2SOUSD10M   000004867818090000000486781809000000048678180900NPP     2023020205300820231204
20230201T2SOUSD10Y   000003651991100000000365199110000000036519911000NPP     2023020205300820330203
20230201T2SOUSD11M   000004859584740000000485958474000000048595847400NPP     2023020205300820240103
20230201T2SOUSD12Y   000003755181980000000375518198000000037551819800NPP     2023020205300820350205
20230201T2SOUSD15Y   000003964275640000000396427564000000039642756400NPP     2023020205300920380203
20230201T2SOUSD1M    000004509015180000000450901518000000045090151800NPP     2023020205300920230303
20230201T2SOUSD1Y    000004838039710000000483803971000000048380397100NPP     2023020205300920240205
20230201T2SOUSD20Y   000004288786760000000428878676000000042887867600NPP     2023020205300920430203
20230201T2SOUSD25Y   000004301943290000000430194329000000043019432900NPP     2023020205300920480203
20230201T2SOUSD2M    000004622821890000000462282189000000046228218900NPP     2023020205300920230403
20230201T2SOUSD2W    000004419338970000000441933897000000044193389700NPP     2023020205300920230217
20230201T2SOUSD2Y    000004292864120000000429286412000000042928641200NPP     2023020205300920250203
20230201T2SOUSD3M    000004683273990000000468327399000000046832739900NPP     2023020205300920230503
20230201T2SOUSD3W    000004464100420000000446410042000000044641004200NPP     2023020205300920230224
20230201T2SOUSD3Y    000003881928960000000388192896000000038819289600NPP     2023020205300920260203
20230201T2SOUSD4M    000004750943580000000475094358000000047509435800NPP     2023020205300920230605
20230201T2SOUSD4Y    000003680433080000000368043308000000036804330800NPP     2023020205300920270203
20230201T2SOUSD5M    000004794331770000000479433177000000047943317700NPP     2023020205300920230703
20230201T2SOUSD5Y    000003581928420000000358192842000000035819284200NPP     2023020205300920280203
20230201T2SOUSD6M    000004821416600000000482141660000000048214166000NPP     2023020205300920230803
20230201T2SOUSD7M    000004850499030000000485049903000000048504990300NPP     2023020205300920230905
20230201T2SOUSD7Y    000003545689790000000354568979000000035456897900NPP     2023020205300920300204
20230201T2SOUSD8M    000004864424010000000486442401000000048644240100NPP     2023020205300920231003
20230201T2SOUSD9M    000004866069940000000486606994000000048660699400NPP     2023020205300920231103
20230201T2SOUSDON    000004310000000000000431000000000000043100000000NPP     2023020205300920230202
20230201T2SOUSDSW    000004375190670000000437519067000000043751906700NPP     2023020205300920230210
20230201T2IUUVR10Y   000003995156910000000399515691000000039951569100NPP     2023020205300920330203
20230201T2IUUVR15Y   000004304636830000000430463683000000043046368300NPP     2023020205300920380203
20230201T2IUUVR2Y    000002496407640000000249640764000000024964076400NPP     2023020205300920250203
20230201T2IUUVR3Y    000002966280480000000296628048000000029662804800NPP     2023020205300920260203
20230201T2IUUVR4Y    000003381765060000000338176506000000033817650600NPP     2023020205300920270203
20230201T2IUUVR5Y    000003478531330000000347853133000000034785313300NPP     2023020205300920280203
20230201T2IUUVR6Y    000003730742710000000373074271000000037307427100NPP     2023020205300920290205
20230201T2IUUVR7Y    000003831120250000000383112025000000038311202500NPP     2023020205300920300204
20230201T2IUUVR8Y    000003923110640000000392311064000000039231106400NPP     2023020205301020310203
20230201T2IUUVR9Y    000004380880200000000438088020000000043808802000NPP     2023020205301020320203
20230201T2USUSD10Y   000003651991100000000365199110000000036519911000NPP     2023020205301020330203
20230201T2USUSD12Y   000003755181980000000375518198000000037551819800NPP     2023020205301020350205
20230201T2USUSD15Y   000003964275640000000396427564000000039642756400NPP     2023020205301020380203
20230201T2USUSD20Y   000004288786760000000428878676000000042887867600NPP     2023020205301020430203
20230201T2USUSD25Y   000004301943290000000430194329000000043019432900NPP     2023020205301020480203
20230201T2USUSD2Y    000004292864120000000429286412000000042928641200NPP     2023020205301020250203
20230201T2USUSD3Y    000003881928960000000388192896000000038819289600NPP     2023020205301020260203
20230201T2USUSD4Y    000003680433080000000368043308000000036804330800NPP     2023020205301020270203
20230201T2USUSD5Y    000003581928420000000358192842000000035819284200NPP     2023020205301020280203
20230201T2USUSD7Y    000003545689790000000354568979000000035456897900NPP     2023020205301020300204
20230201T2UIUSD10Y   000002587859620000000258785962000000025878596200NPP     2023020205301020330203
20230201T2UIUSD12Y   000002748862550000000274886255000000027488625500NPP     2023020205301020350205
20230201T2UIUSD15Y   000003123971870000000312397187000000031239718700NPP     2023020205301020380203
20230201T2UIUSD18M   000003896951170000000389695117000000038969511700NPP     2023020205301020240801
20230201T2UIUSD20Y   000003747088370000000374708837000000037470883700NPP     2023020205301020430203
20230201T2UIUSD25Y   000003820911450000000382091145000000038209114500NPP     2023020205301020480203
20230201T2UIUSD2Y    000003496003200000000349600320000000034960032000NPP     2023020205301020250203
20230201T2UIUSD3Y    000002852364670000000285236467000000028523646700NPP     2023020205301020260203
20230201T2UIUSD4Y    000002619974690000000261997469000000026199746900NPP     2023020205301020270203
20230201T2UIUSD5Y    000002515543570000000251554357000000025155435700NPP     2023020205301020280203
20230201T2UIUSD6Y    000002489537650000000248953765000000024895376500NPP     2023020205301020290205
20230201T2UIUSD7Y    000002438208200000000243820820000000024382082000NPP     2023020205301020300204
20230201T2UIUSD8Y    000002533389280000000253338928000000025333892800NPP     2023020205301020310203
20230201T2UIUSD9Y    000002531200470000000253120047000000025312004700NPP     2023020205301120320203
20230201CPFFUSD001   000004300000000000000430000000000000043000000000NPP     20230201091220        
20230201CPFFUSD002   000004300000000000000430000000000000043000000000NPP     20230201091220        
20230201CPFFUSD003   000004300000000000000430000000000000043000000000NPP     20230201091220        
20230201CPFFUSD004   000004300000000000000430000000000000043000000000NPP     20230201091220        
20230201CPFFUSD005   000004300000000000000430000000000000043000000000NPP     20230201091220        
20230201CPFFUSD006   000004300000000000000430000000000000043000000000NPP     20230201091220        
20230201CPFFUSD007   000004301430000000000430143000000000043014300000NPP     20230201091220        
20230201CPFFUSD008   000004301250000000000430125000000000043012500000NPP     20230201091220        
20230201CPFFUSD009   000004301110000000000430111000000000043011100000NPP     20230201091220        
20230201CPFFUSD010   000004301000000000000430100000000000043010000000NPP     20230201091220        
20230201CPFFUSD011   000004300910000000000430091000000000043009100000NPP     20230201091220        
20230201CPFFUSD012   000004300830000000000430083000000000043008300000NPP     20230201091220        
20230201CPFFUSD013   000004301540000000000430154000000000043015400000NPP     20230201091220        
20230201CPFFUSD014   000004301430000000000430143000000000043014300000NPP     20230201091220        
20230201CPFFUSD015   000004302000000000000430200000000000043020000000NPP     20230201091220        
20230201CPFFUSD016   000004301870000000000430187000000000043018700000NPP     20230201091220        
20230201CPFFUSD017   000004301760000000000430176000000000043017600000NPP     20230201091220        
20230201CPFFUSD018   000004301670000000000430167000000000043016700000NPP     20230201091220        
20230201CPFFUSD019   000004301580000000000430158000000000043015800000NPP     20230201091220        
20230201CPFFUSD020   000004301500000000000430150000000000043015000000NPP     20230201091220        
20230201CPFFUSD021   000004301430000000000430143000000000043014300000NPP     20230201091220        
20230201CPFFUSD022   000004301820000000000430182000000000043018200000NPP     20230201091220        
20230201CPFFUSD023   000004302170000000000430217000000000043021700000NPP     20230201091220        
20230201CPFFUSD024   000004302500000000000430250000000000043025000000NPP     20230201091220        
20230201CPFFUSD025   000004302800000000000430280000000000043028000000NPP     20230201091220        
20230201CPFFUSD026   000004303080000000000430308000000000043030800000NPP     20230201091220        
20230201CPFFUSD027   000004303330000000000430333000000000043033300000NPP     20230201091220        
20230201CPFFUSD028   000004303210000000000430321000000000043032100000NPP     20230201091220        
20230201CPFFUSD029   000004303450000000000430345000000000043034500000NPP     20230201091220        
20230201CPFFUSD030   000004303330000000000430333000000000043033300000NPP     20230201091220        
20230201CPFFUSD031   000004303230000000000430323000000000043032300000NPP     20230201091220        
20230201CPFFUSD032   000004303130000000000430313000000000043031300000NPP     20230201091220        
20230201CPFFUSD033   000004303030000000000430303000000000043030300000NPP     20230201091220        
20230201CPFFUSD034   000004302940000000000430294000000000043029400000NPP     20230201091220        
20230201CPFFUSD035   000004302860000000000430286000000000043028600000NPP     20230201091220        
20230201CPFFUSD036   000004302780000000000430278000000000043027800000NPP     20230201091220        
20230201CPFFUSD037   000004302700000000000430270000000000043027000000NPP     20230201091220        
20230201CPFFUSD038   000004302630000000000430263000000000043026300000NPP     20230201091220        
20230201CPFFUSD039   000004302560000000000430256000000000043025600000NPP     20230201091220        
20230201CPFFUSD040   000004302500000000000430250000000000043025000000NPP     20230201091220        
